{"abi":[{"type":"constructor","inputs":[{"name":"factory_","type":"address","internalType":"address"}],"stateMutability":"nonpayable"},{"type":"function","name":"MIN_LOCKUP_DURATION","inputs":[],"outputs":[{"name":"","type":"uint256","internalType":"uint256"}],"stateMutability":"view"},{"type":"function","name":"airdrops","inputs":[{"name":"token","type":"address","internalType":"address"}],"outputs":[{"name":"merkleRoot","type":"bytes32","internalType":"bytes32"},{"name":"totalSupply","type":"uint256","internalType":"uint256"},{"name":"totalClaimed","type":"uint256","internalType":"uint256"},{"name":"lockupEndTime","type":"uint256","internalType":"uint256"},{"name":"vestingEndTime","type":"uint256","internalType":"uint256"}],"stateMutability":"view"},{"type":"function","name":"amountAvailableToClaim","inputs":[{"name":"token","type":"address","internalType":"address"},{"name":"recipient","type":"address","internalType":"address"},{"name":"allocatedAmount","type":"uint256","internalType":"uint256"}],"outputs":[{"name":"","type":"uint256","internalType":"uint256"}],"stateMutability":"view"},{"type":"function","name":"claim","inputs":[{"name":"token","type":"address","internalType":"address"},{"name":"recipient","type":"address","internalType":"address"},{"name":"allocatedAmount","type":"uint256","internalType":"uint256"},{"name":"proof","type":"bytes32[]","internalType":"bytes32[]"}],"outputs":[],"stateMutability":"nonpayable"},{"type":"function","name":"factory","inputs":[],"outputs":[{"name":"","type":"address","internalType":"address"}],"stateMutability":"view"},{"type":"function","name":"receiveTokens","inputs":[{"name":"deploymentConfig","type":"tuple","internalType":"struct ILiquid.DeploymentConfig","components":[{"name":"tokenConfig","type":"tuple","internalType":"struct ILiquid.TokenConfig","components":[{"name":"tokenAdmin","type":"address","internalType":"address"},{"name":"name","type":"string","internalType":"string"},{"name":"symbol","type":"string","internalType":"string"},{"name":"salt","type":"bytes32","internalType":"bytes32"},{"name":"image","type":"string","internalType":"string"},{"name":"metadata","type":"string","internalType":"string"},{"name":"context","type":"string","internalType":"string"},{"name":"originatingChainId","type":"uint256","internalType":"uint256"}]},{"name":"poolConfig","type":"tuple","internalType":"struct ILiquid.PoolConfig","components":[{"name":"hook","type":"address","internalType":"address"},{"name":"pairedToken","type":"address","internalType":"address"},{"name":"tickIfToken0IsLiquid","type":"int24","internalType":"int24"},{"name":"tickSpacing","type":"int24","internalType":"int24"},{"name":"poolData","type":"bytes","internalType":"bytes"}]},{"name":"lockerConfig","type":"tuple","internalType":"struct ILiquid.LockerConfig","components":[{"name":"locker","type":"address","internalType":"address"},{"name":"rewardAdmins","type":"address[]","internalType":"address[]"},{"name":"rewardRecipients","type":"address[]","internalType":"address[]"},{"name":"rewardBps","type":"uint16[]","internalType":"uint16[]"},{"name":"tickLower","type":"int24[]","internalType":"int24[]"},{"name":"tickUpper","type":"int24[]","internalType":"int24[]"},{"name":"positionBps","type":"uint16[]","internalType":"uint16[]"},{"name":"lockerData","type":"bytes","internalType":"bytes"}]},{"name":"mevModuleConfig","type":"tuple","internalType":"struct ILiquid.MevModuleConfig","components":[{"name":"mevModule","type":"address","internalType":"address"},{"name":"mevModuleData","type":"bytes","internalType":"bytes"}]},{"name":"extensionConfigs","type":"tuple[]","internalType":"struct ILiquid.ExtensionConfig[]","components":[{"name":"extension","type":"address","internalType":"address"},{"name":"msgValue","type":"uint256","internalType":"uint256"},{"name":"extensionBps","type":"uint16","internalType":"uint16"},{"name":"extensionData","type":"bytes","internalType":"bytes"}]}]},{"name":"","type":"tuple","internalType":"struct PoolKey","components":[{"name":"currency0","type":"address","internalType":"Currency"},{"name":"currency1","type":"address","internalType":"Currency"},{"name":"fee","type":"uint24","internalType":"uint24"},{"name":"tickSpacing","type":"int24","internalType":"int24"},{"name":"hooks","type":"address","internalType":"contract IHooks"}]},{"name":"token","type":"address","internalType":"address"},{"name":"extensionSupply","type":"uint256","internalType":"uint256"},{"name":"extensionIndex","type":"uint256","internalType":"uint256"}],"outputs":[],"stateMutability":"payable"},{"type":"function","name":"supportsInterface","inputs":[{"name":"interfaceId","type":"bytes4","internalType":"bytes4"}],"outputs":[{"name":"","type":"bool","internalType":"bool"}],"stateMutability":"pure"},{"type":"event","name":"AirdropClaimed","inputs":[{"name":"token","type":"address","indexed":true,"internalType":"address"},{"name":"user","type":"address","indexed":true,"internalType":"address"},{"name":"totalUserAmountClaimed","type":"uint256","indexed":false,"internalType":"uint256"},{"name":"userAmountStillLocked","type":"uint256","indexed":false,"internalType":"uint256"}],"anonymous":false},{"type":"event","name":"AirdropCreated","inputs":[{"name":"token","type":"address","indexed":true,"internalType":"address"},{"name":"merkleRoot","type":"bytes32","indexed":false,"internalType":"bytes32"},{"name":"supply","type":"uint256","indexed":false,"internalType":"uint256"},{"name":"lockupDuration","type":"uint256","indexed":false,"internalType":"uint256"},{"name":"vestingDuration","type":"uint256","indexed":false,"internalType":"uint256"}],"anonymous":false},{"type":"error","name":"AirdropAlreadyExists","inputs":[]},{"type":"error","name":"AirdropLockupDurationTooShort","inputs":[]},{"type":"error","name":"AirdropNotCreated","inputs":[]},{"type":"error","name":"AirdropNotUnlocked","inputs":[]},{"type":"error","name":"InvalidAirdropPercentage","inputs":[]},{"type":"error","name":"InvalidMerkleRoot","inputs":[]},{"type":"error","name":"InvalidMsgValue","inputs":[]},{"type":"error","name":"InvalidProof","inputs":[]},{"type":"error","name":"ReentrancyGuardReentrantCall","inputs":[]},{"type":"error","name":"TotalMaxClaimed","inputs":[]},{"type":"error","name":"Unauthorized","inputs":[]},{"type":"error","name":"UserMaxClaimed","inputs":[]},{"type":"error","name":"ZeroClaim","inputs":[]},{"type":"error","name":"ZeroToClaim","inputs":[]}],"bytecode":{"object":"0x60a034607157601f610f6538819003918201601f19168301916001600160401b03831184841017607557808492602094604052833981010312607157516001600160a01b038116810360715760015f55608052604051610edb908161008a823960805181818161062d01526109ec0152f35b5f80fd5b634e487b7160e01b5f52604160045260245ffdfe6080806040526004361015610012575f80fd5b5f3560e01c90816301ffc9a714610b2f575080632c7eb5a314610ada57806368e9751314610a9f5780638c86f0a714610a10578063c45a0155146109a2578063f7fdb280146104b55763fabed41214610069575f80fd5b346104b15760807ffffffffffffffffffffffffffffffffffffffffffffffffffffffffffffffffc3601126104b1576100a0610bb5565b6100a8610bd8565b604435916064359067ffffffffffffffff82116104b157366023830112156104b15781600401359267ffffffffffffffff84116104b1573660248560051b850101116104b1576100f6610ea4565b73ffffffffffffffffffffffffffffffffffffffff821690815f52600160205260405f2095865496871561048957600381015442106104615781156104395760028101805460018301549283821015610411576040805173ffffffffffffffffffffffffffffffffffffffff88166020820190815281830188905291815261017f606082610bfb565b519020604051602081019182526020815261019b604082610bfb565b5190209a5f9b5b8b8d10156101e35760248d60051b8c010135908181105f146101d2575f52602052600160405f205b9c019b6101a2565b905f52602052600160405f206101ca565b036103e9576005019673ffffffffffffffffffffffffffffffffffffffff86165f528760205260405f20548581146103c1578561021f92610de2565b928061022b8584610d83565b10156103ae575b50508115610387576102d19160209173ffffffffffffffffffffffffffffffffffffffff86165f5287835260405f2061026c838254610d83565b9055610279828254610d83565b90556040517fa9059cbb00000000000000000000000000000000000000000000000000000000815273ffffffffffffffffffffffffffffffffffffffff86166004820152602481019190915291829081906044820190565b03815f885af192831561037c5761033c60409373ffffffffffffffffffffffffffffffffffffffff937fd399c6e7fad358fc300beda3f056717c94a04c7233ce92683de6500ba509022e9661034f575b508284165f9081526020989098529684902054968790610dd5565b835196875260208701521693a360015f55005b6103709060203d602011610375575b6103688183610bfb565b810190610dbd565b610321565b503d61035e565b6040513d5f823e3d90fd5b7e01549d000000000000000000000000000000000000000000000000000000005f5260045ffd5b6103b9929350610dd5565b908680610232565b7f5ce73c66000000000000000000000000000000000000000000000000000000005f5260045ffd5b7f09bde339000000000000000000000000000000000000000000000000000000005f5260045ffd5b7fed78e047000000000000000000000000000000000000000000000000000000005f5260045ffd5b7f47e789c2000000000000000000000000000000000000000000000000000000005f5260045ffd5b7fb8d22dea000000000000000000000000000000000000000000000000000000005f5260045ffd5b7f830e2f44000000000000000000000000000000000000000000000000000000005f5260045ffd5b5f80fd5b6101207ffffffffffffffffffffffffffffffffffffffffffffffffffffffffffffffffc3601126104b15760043567ffffffffffffffff81116104b1578060040160a07ffffffffffffffffffffffffffffffffffffffffffffffffffffffffffffffffc83360301126104b15760a07fffffffffffffffffffffffffffffffffffffffffffffffffffffffffffffffdc3601126104b15760405160a0810181811067ffffffffffffffff82111761094d57604052610571610bd8565b815260443573ffffffffffffffffffffffffffffffffffffffff811681036104b157602082015260643562ffffff811681036104b15760408201526084358060020b81036104b157606082015260a4359073ffffffffffffffffffffffffffffffffffffffff821682036104b1576080015260c4359173ffffffffffffffffffffffffffffffffffffffff83168093036104b15760e435906101043590610616610ea4565b73ffffffffffffffffffffffffffffffffffffffff7f000000000000000000000000000000000000000000000000000000000000000016330361097a576084019161066b826106658587610cc2565b90610d16565b6060810135907fffffffffffffffffffffffffffffffffffffffffffffffffffffffffffffffe1813603018212156104b157019384359367ffffffffffffffff85116104b157602086019480360386136104b1576060908701879003126104b157604051946060860186811067ffffffffffffffff82111761094d576040523585526020850193604087013585526060604087019701358752875f52600160205260405f2054610925576020610725826106658587610cc2565b01351580159061091c575b6108f4578551156108cc5761066561074a92604094610cc2565b013561ffff81168091036104b157156108a4576201518082511061087c57610773825142610d83565b855f526001602052600360405f200155610799610791835142610d83565b855190610d83565b5f868152600160208181526040808420600481810196909655885181556002810185905590920185905590517f23b872dd00000000000000000000000000000000000000000000000000000000815233938101939093523060248401526044830184905291959190869060649082908a5af193841561037c577f9794eb668650e78abd5f1c3a03934de180ef7542028ada1c7478d2416d986fab9560809561085f575b50519251905191604051938452602084015260408301526060820152a260015f55005b6108779060203d602011610375576103688183610bfb565b61083c565b7f8a5ab644000000000000000000000000000000000000000000000000000000005f5260045ffd5b7f52abc7c3000000000000000000000000000000000000000000000000000000005f5260045ffd5b7f9dd854d3000000000000000000000000000000000000000000000000000000005f5260045ffd5b7f1841b4e1000000000000000000000000000000000000000000000000000000005f5260045ffd5b50341515610730565b7fecdf558e000000000000000000000000000000000000000000000000000000005f5260045ffd5b7f4e487b71000000000000000000000000000000000000000000000000000000005f52604160045260245ffd5b7f82b42900000000000000000000000000000000000000000000000000000000005f5260045ffd5b346104b1575f7ffffffffffffffffffffffffffffffffffffffffffffffffffffffffffffffffc3601126104b157602060405173ffffffffffffffffffffffffffffffffffffffff7f0000000000000000000000000000000000000000000000000000000000000000168152f35b346104b15760207ffffffffffffffffffffffffffffffffffffffffffffffffffffffffffffffffc3601126104b15773ffffffffffffffffffffffffffffffffffffffff610a5c610bb5565b165f52600160205260a060405f20805490600181015490600281015460046003830154920154926040519485526020850152604084015260608301526080820152f35b346104b1575f7ffffffffffffffffffffffffffffffffffffffffffffffffffffffffffffffffc3601126104b1576020604051620151808152f35b346104b15760607ffffffffffffffffffffffffffffffffffffffffffffffffffffffffffffffffc3601126104b1576020610b27610b16610bb5565b610b1e610bd8565b60443591610c3c565b604051908152f35b346104b15760207ffffffffffffffffffffffffffffffffffffffffffffffffffffffffffffffffc3601126104b157600435907fffffffff0000000000000000000000000000000000000000000000000000000082168092036104b1577ff7fdb28000000000000000000000000000000000000000000000000000000000602092148152f35b6004359073ffffffffffffffffffffffffffffffffffffffff821682036104b157565b6024359073ffffffffffffffffffffffffffffffffffffffff821682036104b157565b90601f7fffffffffffffffffffffffffffffffffffffffffffffffffffffffffffffffe0910116810190811067ffffffffffffffff82111761094d57604052565b909173ffffffffffffffffffffffffffffffffffffffff821692835f52600160205260405f20541561048957835f526001602052600360405f2001544210610cba57610cb7935f52600160205273ffffffffffffffffffffffffffffffffffffffff600560405f200191165f5260205260405f205491610de2565b90565b505050505f90565b9035907fffffffffffffffffffffffffffffffffffffffffffffffffffffffffffffffe1813603018212156104b1570180359067ffffffffffffffff82116104b157602001918160051b360383136104b157565b9190811015610d565760051b810135907fffffffffffffffffffffffffffffffffffffffffffffffffffffffffffffff81813603018212156104b1570190565b7f4e487b71000000000000000000000000000000000000000000000000000000005f52603260045260245ffd5b91908201809211610d9057565b7f4e487b71000000000000000000000000000000000000000000000000000000005f52601160045260245ffd5b908160209103126104b1575180151581036104b15790565b91908203918211610d9057565b73ffffffffffffffffffffffffffffffffffffffff165f818152600160205260409020600401549192914210610e1c5750610cb791610dd5565b805f526001602052610e35600360405f20015442610dd5565b92838102938185041490151715610d90575f9081526001602052604090206004810154600390910154610e6791610dd5565b8015610e7757610cb79204610dd5565b7f4e487b71000000000000000000000000000000000000000000000000000000005f52601260045260245ffd5b60025f5414610eb35760025f55565b7f3ee5aeb5000000000000000000000000000000000000000000000000000000005f5260045ffd","linkReferences":{}},"methodIdentifiers":{"MIN_LOCKUP_DURATION()":"68e97513","airdrops(address)":"8c86f0a7","amountAvailableToClaim(address,address,uint256)":"2c7eb5a3","claim(address,address,uint256,bytes32[])":"fabed412","factory()":"c45a0155","receiveTokens(((address,string,string,bytes32,string,string,string,uint256),(address,address,int24,int24,bytes),(address,address[],address[],uint16[],int24[],int24[],uint16[],bytes),(address,bytes),(address,uint256,uint16,bytes)[]),(address,address,uint24,int24,address),address,uint256,uint256)":"f7fdb280","supportsInterface(bytes4)":"01ffc9a7"},"id":119}