{"abi":[{"type":"constructor","inputs":[{"name":"owner_","type":"address","internalType":"address"}],"stateMutability":"nonpayable"},{"type":"function","name":"addDepositor","inputs":[{"name":"depositor","type":"address","internalType":"address"}],"outputs":[],"stateMutability":"nonpayable"},{"type":"function","name":"allowedDepositors","inputs":[{"name":"depositor","type":"address","internalType":"address"}],"outputs":[{"name":"isAllowed","type":"bool","internalType":"bool"}],"stateMutability":"view"},{"type":"function","name":"availableFees","inputs":[{"name":"feeOwner","type":"address","internalType":"address"},{"name":"token","type":"address","internalType":"address"}],"outputs":[{"name":"","type":"uint256","internalType":"uint256"}],"stateMutability":"view"},{"type":"function","name":"claim","inputs":[{"name":"feeOwner","type":"address","internalType":"address"},{"name":"token","type":"address","internalType":"address"}],"outputs":[],"stateMutability":"nonpayable"},{"type":"function","name":"feesToClaim","inputs":[{"name":"feeOwner","type":"address","internalType":"address"},{"name":"token","type":"address","internalType":"address"}],"outputs":[{"name":"balance","type":"uint256","internalType":"uint256"}],"stateMutability":"view"},{"type":"function","name":"owner","inputs":[],"outputs":[{"name":"","type":"address","internalType":"address"}],"stateMutability":"view"},{"type":"function","name":"renounceOwnership","inputs":[],"outputs":[],"stateMutability":"nonpayable"},{"type":"function","name":"storeFees","inputs":[{"name":"feeOwner","type":"address","internalType":"address"},{"name":"token","type":"address","internalType":"address"},{"name":"amount","type":"uint256","internalType":"uint256"}],"outputs":[],"stateMutability":"nonpayable"},{"type":"function","name":"supportsInterface","inputs":[{"name":"interfaceId","type":"bytes4","internalType":"bytes4"}],"outputs":[{"name":"","type":"bool","internalType":"bool"}],"stateMutability":"pure"},{"type":"function","name":"transferOwnership","inputs":[{"name":"newOwner","type":"address","internalType":"address"}],"outputs":[],"stateMutability":"nonpayable"},{"type":"event","name":"AddDepositor","inputs":[{"name":"depositor","type":"address","indexed":true,"internalType":"address"}],"anonymous":false},{"type":"event","name":"ClaimTokens","inputs":[{"name":"feeOwner","type":"address","indexed":true,"internalType":"address"},{"name":"token","type":"address","indexed":true,"internalType":"address"},{"name":"amountClaimed","type":"uint256","indexed":false,"internalType":"uint256"}],"anonymous":false},{"type":"event","name":"ClaimTokensPermissioned","inputs":[{"name":"feeOwner","type":"address","indexed":true,"internalType":"address"},{"name":"token","type":"address","indexed":true,"internalType":"address"},{"name":"recipient","type":"address","indexed":false,"internalType":"address"},{"name":"amountClaimed","type":"uint256","indexed":false,"internalType":"uint256"}],"anonymous":false},{"type":"event","name":"OwnershipTransferred","inputs":[{"name":"previousOwner","type":"address","indexed":true,"internalType":"address"},{"name":"newOwner","type":"address","indexed":true,"internalType":"address"}],"anonymous":false},{"type":"event","name":"StoreTokens","inputs":[{"name":"sender","type":"address","indexed":true,"internalType":"address"},{"name":"feeOwner","type":"address","indexed":true,"internalType":"address"},{"name":"token","type":"address","indexed":true,"internalType":"address"},{"name":"balance","type":"uint256","indexed":false,"internalType":"uint256"},{"name":"amount","type":"uint256","indexed":false,"internalType":"uint256"}],"anonymous":false},{"type":"error","name":"NoFeesToClaim","inputs":[]},{"type":"error","name":"OwnableInvalidOwner","inputs":[{"name":"owner","type":"address","internalType":"address"}]},{"type":"error","name":"OwnableUnauthorizedAccount","inputs":[{"name":"account","type":"address","internalType":"address"}]},{"type":"error","name":"ReentrancyGuardReentrantCall","inputs":[]},{"type":"error","name":"SafeERC20FailedOperation","inputs":[{"name":"token","type":"address","internalType":"address"}]},{"type":"error","name":"Unauthorized","inputs":[]}],"bytecode":{"object":"0x60803460bb57601f610b3b38819003918201601f19168301916001600160401b0383118484101760bf5780849260209460405283398101031260bb57516001600160a01b0381169081900360bb5760015f55801560a857600180546001600160a01b03198116831790915560405191906001600160a01b03167f8be0079c531659141344cd1fd0a4f28419497f9722a3daafe3b4186f6b6457e05f80a3610a6790816100d48239f35b631e4fbdf760e01b5f525f60045260245ffd5b5f80fd5b634e487b7160e01b5f52604160045260245ffdfe6080806040526004361015610012575f80fd5b5f3560e01c90816301ffc9a7146108225750806321c0b342146106bc57806342237c361461040d578063483c2ef0146103a5578063715018a6146103095780638296535a1461027d5780638417645e1461027d5780638da5cb5b1461022c578063f2fde38b1461013e5763fc8acba21461008a575f80fd5b3461013a5760207ffffffffffffffffffffffffffffffffffffffffffffffffffffffffffffffffc36011261013a5773ffffffffffffffffffffffffffffffffffffffff6100d66108a8565b6100de610993565b16805f52600360205260405f2060017fffffffffffffffffffffffffffffffffffffffffffffffffffffffffffffff008254161790557f32ccee5821fc13074280b4c90e7d870fd94637ab13c472612f8e62d2f0bfa73f5f80a2005b5f80fd5b3461013a5760207ffffffffffffffffffffffffffffffffffffffffffffffffffffffffffffffffc36011261013a5773ffffffffffffffffffffffffffffffffffffffff61018a6108a8565b610192610993565b1680156102005773ffffffffffffffffffffffffffffffffffffffff600154827fffffffffffffffffffffffff0000000000000000000000000000000000000000821617600155167f8be0079c531659141344cd1fd0a4f28419497f9722a3daafe3b4186f6b6457e05f80a3005b7f1e4fbdf7000000000000000000000000000000000000000000000000000000005f525f60045260245ffd5b3461013a575f7ffffffffffffffffffffffffffffffffffffffffffffffffffffffffffffffffc36011261013a57602073ffffffffffffffffffffffffffffffffffffffff60015416604051908152f35b3461013a5760407ffffffffffffffffffffffffffffffffffffffffffffffffffffffffffffffffc36011261013a576102b46108a8565b73ffffffffffffffffffffffffffffffffffffffff6102d16108cb565b91165f52600260205273ffffffffffffffffffffffffffffffffffffffff60405f2091165f52602052602060405f2054604051908152f35b3461013a575f7ffffffffffffffffffffffffffffffffffffffffffffffffffffffffffffffffc36011261013a5761033f610993565b5f73ffffffffffffffffffffffffffffffffffffffff6001547fffffffffffffffffffffffff00000000000000000000000000000000000000008116600155167f8be0079c531659141344cd1fd0a4f28419497f9722a3daafe3b4186f6b6457e08280a3005b3461013a5760207ffffffffffffffffffffffffffffffffffffffffffffffffffffffffffffffffc36011261013a5773ffffffffffffffffffffffffffffffffffffffff6103f16108a8565b165f526003602052602060ff60405f2054166040519015158152f35b3461013a5760607ffffffffffffffffffffffffffffffffffffffffffffffffffffffffffffffffc36011261013a576104446108a8565b61044c6108cb565b906044359161045961095c565b335f52600360205260ff60405f205416156106945773ffffffffffffffffffffffffffffffffffffffff1691604051917f70a08231000000000000000000000000000000000000000000000000000000008352306004840152602083602481875afa928315610655575f93610660575b5061051d6040517f23b872dd000000000000000000000000000000000000000000000000000000006020820152336024820152306044820152836064820152606481526105176084826108ee565b856109e0565b604051927f70a08231000000000000000000000000000000000000000000000000000000008452306004850152602084602481885afa938415610655575f94610621575b5083039283116105f45773ffffffffffffffffffffffffffffffffffffffff1691825f52600260205260405f20845f5260205260405f2080549182018092116105f45755815f52600260205260405f20835f5260205260405f20549060405191825260208201527fadf5da7301d0edbace5767201c524369b56f4040e2eafc873897493fc466e35d60403392a460015f55005b7f4e487b71000000000000000000000000000000000000000000000000000000005f52601160045260245ffd5b9093506020813d60201161064d575b8161063d602093836108ee565b8101031261013a57519285610561565b3d9150610630565b6040513d5f823e3d90fd5b9092506020813d60201161068c575b8161067c602093836108ee565b8101031261013a575191846104c9565b3d915061066f565b7f82b42900000000000000000000000000000000000000000000000000000000005f5260045ffd5b3461013a5760407ffffffffffffffffffffffffffffffffffffffffffffffffffffffffffffffffc36011261013a576106f36108a8565b73ffffffffffffffffffffffffffffffffffffffff6107106108cb565b9161071961095c565b16805f52600260205260405f2073ffffffffffffffffffffffffffffffffffffffff83165f5260205260405f20549182156107fa57602073ffffffffffffffffffffffffffffffffffffffff7ff98eaa9c1f790e5c18b1f227bd5bade62600f9f3e3587c7644b90c50b9bf13c592845f526002835260405f208282165f5283525f604081205516936107ed6040517fa9059cbb0000000000000000000000000000000000000000000000000000000084820152856024820152826044820152604481526107e76064826108ee565b866109e0565b604051908152a360015f55005b7f846d8c5c000000000000000000000000000000000000000000000000000000005f5260045ffd5b3461013a5760207ffffffffffffffffffffffffffffffffffffffffffffffffffffffffffffffffc36011261013a57600435907fffffffff00000000000000000000000000000000000000000000000000000000821680920361013a577f1c009e2b00000000000000000000000000000000000000000000000000000000602092148152f35b6004359073ffffffffffffffffffffffffffffffffffffffff8216820361013a57565b6024359073ffffffffffffffffffffffffffffffffffffffff8216820361013a57565b90601f7fffffffffffffffffffffffffffffffffffffffffffffffffffffffffffffffe0910116810190811067ffffffffffffffff82111761092f57604052565b7f4e487b71000000000000000000000000000000000000000000000000000000005f52604160045260245ffd5b60025f541461096b5760025f55565b7f3ee5aeb5000000000000000000000000000000000000000000000000000000005f5260045ffd5b73ffffffffffffffffffffffffffffffffffffffff6001541633036109b457565b7f118cdaa7000000000000000000000000000000000000000000000000000000005f523360045260245ffd5b905f602091828151910182855af115610655575f513d610a5e575073ffffffffffffffffffffffffffffffffffffffff81163b155b610a1c5750565b73ffffffffffffffffffffffffffffffffffffffff907f5274afe7000000000000000000000000000000000000000000000000000000005f521660045260245ffd5b60011415610a1556","linkReferences":{}},"methodIdentifiers":{"addDepositor(address)":"fc8acba2","allowedDepositors(address)":"483c2ef0","availableFees(address,address)":"8296535a","claim(address,address)":"21c0b342","feesToClaim(address,address)":"8417645e","owner()":"8da5cb5b","renounceOwnership()":"715018a6","storeFees(address,address,uint256)":"42237c36","supportsInterface(bytes4)":"01ffc9a7","transferOwnership(address)":"f2fde38b"},"id":117}