{"abi":[{"type":"constructor","inputs":[{"name":"factory_","type":"address","internalType":"address"}],"stateMutability":"nonpayable"},{"type":"function","name":"MIN_LOCKUP_DURATION","inputs":[],"outputs":[{"name":"","type":"uint256","internalType":"uint256"}],"stateMutability":"view"},{"type":"function","name":"allocation","inputs":[{"name":"","type":"address","internalType":"address"}],"outputs":[{"name":"token","type":"address","internalType":"address"},{"name":"amountTotal","type":"uint256","internalType":"uint256"},{"name":"amountClaimed","type":"uint256","internalType":"uint256"},{"name":"lockupEndTime","type":"uint256","internalType":"uint256"},{"name":"vestingEndTime","type":"uint256","internalType":"uint256"},{"name":"admin","type":"address","internalType":"address"}],"stateMutability":"view"},{"type":"function","name":"amountAvailableToClaim","inputs":[{"name":"token","type":"address","internalType":"address"}],"outputs":[{"name":"","type":"uint256","internalType":"uint256"}],"stateMutability":"view"},{"type":"function","name":"claim","inputs":[{"name":"token","type":"address","internalType":"address"}],"outputs":[],"stateMutability":"nonpayable"},{"type":"function","name":"editAllocationAdmin","inputs":[{"name":"token","type":"address","internalType":"address"},{"name":"newAdmin","type":"address","internalType":"address"}],"outputs":[],"stateMutability":"nonpayable"},{"type":"function","name":"factory","inputs":[],"outputs":[{"name":"","type":"address","internalType":"address"}],"stateMutability":"view"},{"type":"function","name":"receiveTokens","inputs":[{"name":"deploymentConfig","type":"tuple","internalType":"struct ILiquid.DeploymentConfig","components":[{"name":"tokenConfig","type":"tuple","internalType":"struct ILiquid.TokenConfig","components":[{"name":"tokenAdmin","type":"address","internalType":"address"},{"name":"name","type":"string","internalType":"string"},{"name":"symbol","type":"string","internalType":"string"},{"name":"salt","type":"bytes32","internalType":"bytes32"},{"name":"image","type":"string","internalType":"string"},{"name":"metadata","type":"string","internalType":"string"},{"name":"context","type":"string","internalType":"string"},{"name":"originatingChainId","type":"uint256","internalType":"uint256"}]},{"name":"poolConfig","type":"tuple","internalType":"struct ILiquid.PoolConfig","components":[{"name":"hook","type":"address","internalType":"address"},{"name":"pairedToken","type":"address","internalType":"address"},{"name":"tickIfToken0IsLiquid","type":"int24","internalType":"int24"},{"name":"tickSpacing","type":"int24","internalType":"int24"},{"name":"poolData","type":"bytes","internalType":"bytes"}]},{"name":"lockerConfig","type":"tuple","internalType":"struct ILiquid.LockerConfig","components":[{"name":"locker","type":"address","internalType":"address"},{"name":"rewardAdmins","type":"address[]","internalType":"address[]"},{"name":"rewardRecipients","type":"address[]","internalType":"address[]"},{"name":"rewardBps","type":"uint16[]","internalType":"uint16[]"},{"name":"tickLower","type":"int24[]","internalType":"int24[]"},{"name":"tickUpper","type":"int24[]","internalType":"int24[]"},{"name":"positionBps","type":"uint16[]","internalType":"uint16[]"},{"name":"lockerData","type":"bytes","internalType":"bytes"}]},{"name":"mevModuleConfig","type":"tuple","internalType":"struct ILiquid.MevModuleConfig","components":[{"name":"mevModule","type":"address","internalType":"address"},{"name":"mevModuleData","type":"bytes","internalType":"bytes"}]},{"name":"extensionConfigs","type":"tuple[]","internalType":"struct ILiquid.ExtensionConfig[]","components":[{"name":"extension","type":"address","internalType":"address"},{"name":"msgValue","type":"uint256","internalType":"uint256"},{"name":"extensionBps","type":"uint16","internalType":"uint16"},{"name":"extensionData","type":"bytes","internalType":"bytes"}]}]},{"name":"","type":"tuple","internalType":"struct PoolKey","components":[{"name":"currency0","type":"address","internalType":"Currency"},{"name":"currency1","type":"address","internalType":"Currency"},{"name":"fee","type":"uint24","internalType":"uint24"},{"name":"tickSpacing","type":"int24","internalType":"int24"},{"name":"hooks","type":"address","internalType":"contract IHooks"}]},{"name":"token","type":"address","internalType":"address"},{"name":"extensionSupply","type":"uint256","internalType":"uint256"},{"name":"extensionIndex","type":"uint256","internalType":"uint256"}],"outputs":[],"stateMutability":"payable"},{"type":"function","name":"supportsInterface","inputs":[{"name":"interfaceId","type":"bytes4","internalType":"bytes4"}],"outputs":[{"name":"","type":"bool","internalType":"bool"}],"stateMutability":"pure"},{"type":"event","name":"AllocationAdminUpdated","inputs":[{"name":"token","type":"address","indexed":true,"internalType":"address"},{"name":"oldAdmin","type":"address","indexed":true,"internalType":"address"},{"name":"newAdmin","type":"address","indexed":true,"internalType":"address"}],"anonymous":false},{"type":"event","name":"AllocationClaimed","inputs":[{"name":"token","type":"address","indexed":true,"internalType":"address"},{"name":"amount","type":"uint256","indexed":false,"internalType":"uint256"},{"name":"remainingAmount","type":"uint256","indexed":false,"internalType":"uint256"}],"anonymous":false},{"type":"event","name":"AllocationCreated","inputs":[{"name":"token","type":"address","indexed":true,"internalType":"address"},{"name":"admin","type":"address","indexed":true,"internalType":"address"},{"name":"supply","type":"uint256","indexed":false,"internalType":"uint256"},{"name":"lockupDuration","type":"uint256","indexed":false,"internalType":"uint256"},{"name":"vestingDuration","type":"uint256","indexed":false,"internalType":"uint256"}],"anonymous":false},{"type":"error","name":"AllocationAlreadyExists","inputs":[]},{"type":"error","name":"AllocationNotUnlocked","inputs":[]},{"type":"error","name":"InvalidMsgValue","inputs":[]},{"type":"error","name":"InvalidVaultAdmin","inputs":[]},{"type":"error","name":"InvalidVaultBps","inputs":[]},{"type":"error","name":"NoBalanceToClaim","inputs":[]},{"type":"error","name":"ReentrancyGuardReentrantCall","inputs":[]},{"type":"error","name":"TransferFailed","inputs":[]},{"type":"error","name":"Unauthorized","inputs":[]},{"type":"error","name":"VaultLockupDurationTooShort","inputs":[]}],"bytecode":{"object":"0x60a034607157601f610f2538819003918201601f19168301916001600160401b03831184841017607557808492602094604052833981010312607157516001600160a01b038116810360715760015f55608052604051610e9b908161008a82396080518181816101ec01526106f00152f35b5f80fd5b634e487b7160e01b5f52604160045260245ffdfe6080806040526004361015610012575f80fd5b5f3560e01c90816301ffc9a714610b24575080631e83409a1461095a57806346c966331461085e578063482501ba1461081557806368e97513146107da578063b81b863014610714578063c45a0155146106a65763f7fdb28014610074575f80fd5b6101207ffffffffffffffffffffffffffffffffffffffffffffffffffffffffffffffffc3601126106495760043567ffffffffffffffff8111610649578060040160a07ffffffffffffffffffffffffffffffffffffffffffffffffffffffffffffffffc83360301126106495760a07fffffffffffffffffffffffffffffffffffffffffffffffffffffffffffffffdc3601126106495760405160a0810181811067ffffffffffffffff82111761057c57604052610130610bcd565b815260443573ffffffffffffffffffffffffffffffffffffffff8116810361064957602082015260643562ffffff811681036106495760408201526084358060020b810361064957606082015260a4359073ffffffffffffffffffffffffffffffffffffffff82168203610649576080015260c4359073ffffffffffffffffffffffffffffffffffffffff82168092036106495760e4359261010435906101d5610d51565b73ffffffffffffffffffffffffffffffffffffffff7f000000000000000000000000000000000000000000000000000000000000000016330361067e576084019361022a826102248786610c90565b90610ce4565b6060810135907fffffffffffffffffffffffffffffffffffffffffffffffffffffffffffffffe18136030182121561064957019283359267ffffffffffffffff841161064957602085019380360385136106495760609086018690031261064957604051936060850185811067ffffffffffffffff82111761057c576040523573ffffffffffffffffffffffffffffffffffffffff81168103610649578452602084019660408601358852606060408601960135865260206102f0836102248487610c90565b013515801590610675575b61064d5760409161022461031a926103148b5142610c31565b95610c90565b013561ffff811680910361064957156106215762093a808651106105f95773ffffffffffffffffffffffffffffffffffffffff835116156105d157845f526001602052600360405f2001546105a957610374845182610c31565b73ffffffffffffffffffffffffffffffffffffffff845116916040519260c084019084821067ffffffffffffffff83111761057c5773ffffffffffffffffffffffffffffffffffffffff9360059385936040528a87526020870188815260408801905f8252606089019283526080890193845260a089019485528c5f526001602052858060405f209a5116167fffffffffffffffffffffffff00000000000000000000000000000000000000008a54161789555160018901555160028801555160038701555160048601555116920191167fffffffffffffffffffffffff00000000000000000000000000000000000000008254161790556040517f23b872dd0000000000000000000000000000000000000000000000000000000081523360048201523060248201528160448201526020816064815f895af1908115610571575f91610542575b501561051a577f7090ec2ef3719d9bf817463bcacd6d90bc8f956cafa66eb86763eec0628f19f89273ffffffffffffffffffffffffffffffffffffffff6060935116955190519060405192835260208301526040820152a360015f55005b7f90b8ec18000000000000000000000000000000000000000000000000000000005f5260045ffd5b610564915060203d60201161056a575b61055c8183610bf0565b810190610c6b565b5f6104bc565b503d610552565b6040513d5f823e3d90fd5b7f4e487b71000000000000000000000000000000000000000000000000000000005f52604160045260245ffd5b7f89ac0f21000000000000000000000000000000000000000000000000000000005f5260045ffd5b7f3b7dc713000000000000000000000000000000000000000000000000000000005f5260045ffd5b7f0c68b114000000000000000000000000000000000000000000000000000000005f5260045ffd5b7f1426b247000000000000000000000000000000000000000000000000000000005f5260045ffd5b5f80fd5b7f1841b4e1000000000000000000000000000000000000000000000000000000005f5260045ffd5b503415156102fb565b7f82b42900000000000000000000000000000000000000000000000000000000005f5260045ffd5b34610649575f7ffffffffffffffffffffffffffffffffffffffffffffffffffffffffffffffffc36011261064957602060405173ffffffffffffffffffffffffffffffffffffffff7f0000000000000000000000000000000000000000000000000000000000000000168152f35b346106495760207ffffffffffffffffffffffffffffffffffffffffffffffffffffffffffffffffc3601126106495773ffffffffffffffffffffffffffffffffffffffff610760610baa565b165f52600160205260c060405f2073ffffffffffffffffffffffffffffffffffffffff81541690600181015490600281015460038201549073ffffffffffffffffffffffffffffffffffffffff600560048501549401541693604051958652602086015260408501526060840152608083015260a0820152f35b34610649575f7ffffffffffffffffffffffffffffffffffffffffffffffffffffffffffffffffc36011261064957602060405162093a808152f35b346106495760207ffffffffffffffffffffffffffffffffffffffffffffffffffffffffffffffffc360112610649576020610856610851610baa565b610d88565b604051908152f35b346106495760407ffffffffffffffffffffffffffffffffffffffffffffffffffffffffffffffffc36011261064957610895610baa565b73ffffffffffffffffffffffffffffffffffffffff6108b2610bcd565b911690815f52600160205273ffffffffffffffffffffffffffffffffffffffff600560405f20015416330361067e5773ffffffffffffffffffffffffffffffffffffffff90825f526001602052600560405f20018282167fffffffffffffffffffffffff0000000000000000000000000000000000000000825416179055169033907f30ebdb166313f0bb748f7403e32cfba783dd777b721dd102e1693f3ecda1ae5b5f80a4005b346106495760207ffffffffffffffffffffffffffffffffffffffffffffffffffffffffffffffffc36011261064957610991610baa565b610999610d51565b73ffffffffffffffffffffffffffffffffffffffff811690815f526001602052600360405f2001544210610afc576109d090610d88565b8015610ad457815f526001602052600260405f20016109f0828254610c31565b9055815f52600160205273ffffffffffffffffffffffffffffffffffffffff600560405f20015416604051907fa9059cbb00000000000000000000000000000000000000000000000000000000825260048201528160248201526020816044815f875af1908115610571575f91610ab5575b501561051a5760407f2ab4392cda0fd42f52cf96615f7267094b2da30a49c57e995b59317097bc463e91835f526001602052610aa4816001845f200154610c83565b82519182526020820152a260015f55005b610ace915060203d60201161056a5761055c8183610bf0565b83610a62565b7fa39f474a000000000000000000000000000000000000000000000000000000005f5260045ffd5b7fcc57c490000000000000000000000000000000000000000000000000000000005f5260045ffd5b346106495760207ffffffffffffffffffffffffffffffffffffffffffffffffffffffffffffffffc36011261064957600435907fffffffff000000000000000000000000000000000000000000000000000000008216809203610649577ff7fdb28000000000000000000000000000000000000000000000000000000000602092148152f35b6004359073ffffffffffffffffffffffffffffffffffffffff8216820361064957565b6024359073ffffffffffffffffffffffffffffffffffffffff8216820361064957565b90601f7fffffffffffffffffffffffffffffffffffffffffffffffffffffffffffffffe0910116810190811067ffffffffffffffff82111761057c57604052565b91908201809211610c3e57565b7f4e487b71000000000000000000000000000000000000000000000000000000005f52601160045260245ffd5b90816020910312610649575180151581036106495790565b91908203918211610c3e57565b9035907fffffffffffffffffffffffffffffffffffffffffffffffffffffffffffffffe181360301821215610649570180359067ffffffffffffffff821161064957602001918160051b3603831361064957565b9190811015610d245760051b810135907fffffffffffffffffffffffffffffffffffffffffffffffffffffffffffffff8181360301821215610649570190565b7f4e487b71000000000000000000000000000000000000000000000000000000005f52603260045260245ffd5b60025f5414610d605760025f55565b7f3ee5aeb5000000000000000000000000000000000000000000000000000000005f5260045ffd5b73ffffffffffffffffffffffffffffffffffffffff16805f526001602052600360405f20015442105f14610dbb57505f90565b5f818152600160205260409020600401544210610df8575f90815260016020819052604090912090810154600290910154610df591610c83565b90565b5f81815260016020819052604090912090810154600390910154610e1c9042610c83565b90818102918183041490151715610c3e575f8281526001602052604090206004810154600390910154610e4e91610c83565b8015610e6e57610df5925f526001602052600260405f2001549104610c83565b7f4e487b71000000000000000000000000000000000000000000000000000000005f52601260045260245ffd","linkReferences":{}},"methodIdentifiers":{"MIN_LOCKUP_DURATION()":"68e97513","allocation(address)":"b81b8630","amountAvailableToClaim(address)":"482501ba","claim(address)":"1e83409a","editAllocationAdmin(address,address)":"46c96633","factory()":"c45a0155","receiveTokens(((address,string,string,bytes32,string,string,string,uint256),(address,address,int24,int24,bytes),(address,address[],address[],uint16[],int24[],int24[],uint16[],bytes),(address,bytes),(address,uint256,uint16,bytes)[]),(address,address,uint24,int24,address),address,uint256,uint256)":"f7fdb280","supportsInterface(bytes4)":"01ffc9a7"},"id":122}