{"abi":[{"type":"constructor","inputs":[{"name":"owner_","type":"address","internalType":"address"},{"name":"_liquidFactory","type":"address","internalType":"address"},{"name":"_feeLocker","type":"address","internalType":"address"},{"name":"_weth","type":"address","internalType":"address"}],"stateMutability":"nonpayable"},{"type":"function","name":"BPS","inputs":[],"outputs":[{"name":"","type":"uint256","internalType":"uint256"}],"stateMutability":"view"},{"type":"function","name":"FACTORY_PORTION","inputs":[],"outputs":[{"name":"","type":"uint256","internalType":"uint256"}],"stateMutability":"view"},{"type":"function","name":"beforeSwap","inputs":[{"name":"poolKey","type":"tuple","internalType":"struct PoolKey","components":[{"name":"currency0","type":"address","internalType":"Currency"},{"name":"currency1","type":"address","internalType":"Currency"},{"name":"fee","type":"uint24","internalType":"uint24"},{"name":"tickSpacing","type":"int24","internalType":"int24"},{"name":"hooks","type":"address","internalType":"contract IHooks"}]},{"name":"","type":"tuple","internalType":"struct IPoolManager.SwapParams","components":[{"name":"zeroForOne","type":"bool","internalType":"bool"},{"name":"amountSpecified","type":"int256","internalType":"int256"},{"name":"sqrtPriceLimitX96","type":"uint160","internalType":"uint160"}]},{"name":"liquidIsToken0","type":"bool","internalType":"bool"},{"name":"auctionData","type":"bytes","internalType":"bytes"}],"outputs":[{"name":"disableMevModule","type":"bool","internalType":"bool"}],"stateMutability":"nonpayable"},{"type":"function","name":"blocksBetweenAuction","inputs":[],"outputs":[{"name":"","type":"uint256","internalType":"uint256"}],"stateMutability":"view"},{"type":"function","name":"blocksBetweenDeploymentAndFirstAuction","inputs":[],"outputs":[{"name":"","type":"uint256","internalType":"uint256"}],"stateMutability":"view"},{"type":"function","name":"liquidFactory","inputs":[],"outputs":[{"name":"","type":"address","internalType":"contract ILiquid"}],"stateMutability":"view"},{"type":"function","name":"feeLocker","inputs":[],"outputs":[{"name":"","type":"address","internalType":"contract IHoodMarketsFeeLocker"}],"stateMutability":"view"},{"type":"function","name":"gasPeg","inputs":[{"name":"","type":"bytes32","internalType":"PoolId"}],"outputs":[{"name":"gasPeg","type":"uint256","internalType":"uint256"}],"stateMutability":"view"},{"type":"function","name":"initialize","inputs":[{"name":"poolKey","type":"tuple","internalType":"struct PoolKey","components":[{"name":"currency0","type":"address","internalType":"Currency"},{"name":"currency1","type":"address","internalType":"Currency"},{"name":"fee","type":"uint24","internalType":"uint24"},{"name":"tickSpacing","type":"int24","internalType":"int24"},{"name":"hooks","type":"address","internalType":"contract IHooks"}]},{"name":"","type":"bytes","internalType":"bytes"}],"outputs":[],"stateMutability":"nonpayable"},{"type":"function","name":"maxRounds","inputs":[],"outputs":[{"name":"","type":"uint256","internalType":"uint256"}],"stateMutability":"view"},{"type":"function","name":"nextAuctionBlock","inputs":[{"name":"","type":"bytes32","internalType":"PoolId"}],"outputs":[{"name":"nextAuctionBlock","type":"uint256","internalType":"uint256"}],"stateMutability":"view"},{"type":"function","name":"owner","inputs":[],"outputs":[{"name":"","type":"address","internalType":"address"}],"stateMutability":"view"},{"type":"function","name":"paymentPerGasUnit","inputs":[],"outputs":[{"name":"","type":"uint256","internalType":"uint256"}],"stateMutability":"view"},{"type":"function","name":"renounceOwnership","inputs":[],"outputs":[],"stateMutability":"nonpayable"},{"type":"function","name":"round","inputs":[{"name":"","type":"bytes32","internalType":"PoolId"}],"outputs":[{"name":"round","type":"uint256","internalType":"uint256"}],"stateMutability":"view"},{"type":"function","name":"setBlocksBetweenAuction","inputs":[{"name":"_blocksBetweenAuction","type":"uint256","internalType":"uint256"}],"outputs":[],"stateMutability":"nonpayable"},{"type":"function","name":"setBlocksBetweenDeploymentAndFirstAuction","inputs":[{"name":"_blocksBetweenDeploymentAndFirstAuction","type":"uint256","internalType":"uint256"}],"outputs":[],"stateMutability":"nonpayable"},{"type":"function","name":"setMaxRounds","inputs":[{"name":"_maxRounds","type":"uint256","internalType":"uint256"}],"outputs":[],"stateMutability":"nonpayable"},{"type":"function","name":"setPaymentPerGasUnit","inputs":[{"name":"_paymentPerGasUnit","type":"uint256","internalType":"uint256"}],"outputs":[],"stateMutability":"nonpayable"},{"type":"function","name":"supportsInterface","inputs":[{"name":"interfaceId","type":"bytes4","internalType":"bytes4"}],"outputs":[{"name":"","type":"bool","internalType":"bool"}],"stateMutability":"pure"},{"type":"function","name":"transferOwnership","inputs":[{"name":"newOwner","type":"address","internalType":"address"}],"outputs":[],"stateMutability":"nonpayable"},{"type":"function","name":"weth","inputs":[],"outputs":[{"name":"","type":"address","internalType":"address"}],"stateMutability":"view"},{"type":"event","name":"AuctionEnded","inputs":[{"name":"poolId","type":"bytes32","indexed":true,"internalType":"PoolId"}],"anonymous":false},{"type":"event","name":"AuctionExpired","inputs":[{"name":"poolId","type":"bytes32","indexed":true,"internalType":"PoolId"},{"name":"round","type":"uint256","indexed":false,"internalType":"uint256"}],"anonymous":false},{"type":"event","name":"AuctionInitialized","inputs":[{"name":"poolId","type":"bytes32","indexed":true,"internalType":"PoolId"},{"name":"gasPeg","type":"uint256","indexed":false,"internalType":"uint256"},{"name":"auctionBlock","type":"uint256","indexed":true,"internalType":"uint256"},{"name":"round","type":"uint256","indexed":false,"internalType":"uint256"}],"anonymous":false},{"type":"event","name":"AuctionReset","inputs":[{"name":"poolId","type":"bytes32","indexed":true,"internalType":"PoolId"},{"name":"gasPeg","type":"uint256","indexed":false,"internalType":"uint256"},{"name":"auctionBlock","type":"uint256","indexed":true,"internalType":"uint256"},{"name":"round","type":"uint256","indexed":false,"internalType":"uint256"}],"anonymous":false},{"type":"event","name":"AuctionRewardsTransferred","inputs":[{"name":"poolId","type":"bytes32","indexed":true,"internalType":"PoolId"},{"name":"lpPayment","type":"uint256","indexed":false,"internalType":"uint256"},{"name":"factoryPayment","type":"uint256","indexed":false,"internalType":"uint256"}],"anonymous":false},{"type":"event","name":"AuctionWon","inputs":[{"name":"poolId","type":"bytes32","indexed":true,"internalType":"PoolId"},{"name":"payee","type":"address","indexed":true,"internalType":"address"},{"name":"paymentAmount","type":"uint256","indexed":false,"internalType":"uint256"},{"name":"round","type":"uint256","indexed":false,"internalType":"uint256"}],"anonymous":false},{"type":"event","name":"OwnershipTransferred","inputs":[{"name":"previousOwner","type":"address","indexed":true,"internalType":"address"},{"name":"newOwner","type":"address","indexed":true,"internalType":"address"}],"anonymous":false},{"type":"event","name":"SetBlocksBetweenAuction","inputs":[{"name":"oldBlocksBetweenAuction","type":"uint256","indexed":false,"internalType":"uint256"},{"name":"newBlocksBetweenAuction","type":"uint256","indexed":false,"internalType":"uint256"}],"anonymous":false},{"type":"event","name":"SetBlocksBetweenDeploymentAndFirstAuction","inputs":[{"name":"oldBlocksBetweenDeploymentAndFirstAuction","type":"uint256","indexed":false,"internalType":"uint256"},{"name":"newBlocksBetweenDeploymentAndFirstAuction","type":"uint256","indexed":false,"internalType":"uint256"}],"anonymous":false},{"type":"event","name":"SetMaxRounds","inputs":[{"name":"oldMaxRounds","type":"uint256","indexed":false,"internalType":"uint256"},{"name":"newMaxRounds","type":"uint256","indexed":false,"internalType":"uint256"}],"anonymous":false},{"type":"event","name":"SetPaymentPerGasUnit","inputs":[{"name":"oldPaymentPerGasUnit","type":"uint256","indexed":false,"internalType":"uint256"},{"name":"newPaymentPerGasUnit","type":"uint256","indexed":false,"internalType":"uint256"}],"anonymous":false},{"type":"error","name":"GasSignalNegative","inputs":[]},{"type":"error","name":"NotAuctionBlock","inputs":[]},{"type":"error","name":"OnlyHook","inputs":[]},{"type":"error","name":"OwnableInvalidOwner","inputs":[{"name":"owner","type":"address","internalType":"address"}]},{"type":"error","name":"OwnableUnauthorizedAccount","inputs":[{"name":"account","type":"address","internalType":"address"}]},{"type":"error","name":"PoolAlreadyInitialized","inputs":[]},{"type":"error","name":"PoolLocked","inputs":[]},{"type":"error","name":"ReentrancyGuardReentrantCall","inputs":[]},{"type":"error","name":"SafeERC20FailedOperation","inputs":[{"name":"token","type":"address","internalType":"address"}]}],"bytecode":{"object":"0x60e03461014d57601f61157038819003918201601f19168301916001600160401b038311848410176101515780849260809460405283398101031261014d5761004781610165565b61005360208301610165565b9161006c606061006560408401610165565b9201610165565b60015f556001600160a01b0390921692831561013a57600180546001600160a01b03198116861790915560405194906001600160a01b03167f8be0079c531659141344cd1fd0a4f28419497f9722a3daafe3b4186f6b6457e05f80a36001600160a01b0390811660a0521660c05260805260026005818155600691909155600755655af3107a40006008556113f6908161017a82396080518181816105f501528181610a090152610cda015260a0518181816106b70152610ca7015260c0518181816103c00152610e840152f35b631e4fbdf760e01b5f525f60045260245ffd5b5f80fd5b634e487b7160e01b5f52604160045260245ffd5b51906001600160a01b038216820361014d5756fe6080806040526004361015610012575f80fd5b5f3560e01c90816301ffc9a714610783575080630dd5127d14610759578063116229311461073c5780631faf969b1461071f578063202aea0b14610702578063249d39e9146106e65780632c08670a146106a2578063383048ca146106785780633fa3434c146106245780633fc8cef3146105e05780635121726e146105c357806358a8ba941461056f578063645a1534146103ef57806370e9d244146103ab578063715018a61461035057806372027ad114610334578063831d7dd2146102965780638da5cb5b1461026e578063af9dc6521461021a578063c7839012146101c6578063caf1a6801461019c5763f2fde38b1461010e575f80fd5b34610198576020366003190112610198576004356001600160a01b038116908190036101985761013c610afa565b801561018557600180546001600160a01b0319811683179091556001600160a01b03167f8be0079c531659141344cd1fd0a4f28419497f9722a3daafe3b4186f6b6457e05f80a3005b631e4fbdf760e01b5f525f60045260245ffd5b5f80fd5b34610198576020366003190112610198576004355f526002602052602060405f2054604051908152f35b34610198576020366003190112610198577f693b514935029a7507a936f5749ce3dcff24c5a0b4a330f81f2d63809493eac56040600435610205610afa565b600554908060055582519182526020820152a1005b34610198576020366003190112610198577f2e34ae02a72a5f1298ee00a00d53709bc0787ac7d80b09f9a23ed3c7e46c7c8f6040600435610259610afa565b600854908060085582519182526020820152a1005b34610198575f366003190112610198576001546040516001600160a01b039091168152602090f35b3461019857366003190161014081126101985760a0136101985760603660a31901126101985761010435801515810361019857610124356001600160401b038111610198576102e99036906004016107b9565b6102f4929192610b21565b6001600160a01b036103046107fa565b1633036103255760209261031792610900565b60015f556040519015158152f35b635a91834f60e01b5f5260045ffd5b34610198575f3660031901126101985760206040516107d08152f35b34610198575f36600319011261019857610368610afa565b600180546001600160a01b031981169091555f906001600160a01b03167f8be0079c531659141344cd1fd0a4f28419497f9722a3daafe3b4186f6b6457e08280a3005b34610198575f366003190112610198576040517f00000000000000000000000000000000000000000000000000000000000000006001600160a01b03168152602090f35b3461019857366003190160c081126101985760a0136101985760a4356001600160401b038111610198576104279036906004016107b9565b5050610431610b21565b6001600160a01b036104416107fa565b1633036103255760405161045481610810565b6004356001600160a01b03811681036101985781526024356001600160a01b038116810361019857602082015260443562ffffff811681036101985760408201526064358060020b8103610198576060820152608435906001600160a01b03821682036101985760a091608082015220805f52600260205260405f2054610560576104e0600554610b52565b815f52600260205260405f20556104f9600554436108df565b5f8281526003602090815260408083209384556004808352818420600190819055600284529382902054945490835281519485529184019290925292917f176cc986e6995c5872fc36534f279215f7d45149c89e3fa68ca7f0cf2b5aa1789190a360015f55005b637983c05160e01b5f5260045ffd5b34610198576020366003190112610198577f58a2eb628b72335e7f35beb36fcadef187a12ddffc615fd2118fdf31d7323f7760406004356105ae610afa565b600754908060075582519182526020820152a1005b34610198575f366003190112610198576020600654604051908152f35b34610198575f366003190112610198576040517f00000000000000000000000000000000000000000000000000000000000000006001600160a01b03168152602090f35b34610198576020366003190112610198577f36af155d3d9465180c77dc6c2e6c208a29c190e41a4475824122fe898714fcc66040600435610663610afa565b600654908060065582519182526020820152a1005b34610198576020366003190112610198576004355f526003602052602060405f2054604051908152f35b34610198575f366003190112610198576040517f00000000000000000000000000000000000000000000000000000000000000006001600160a01b03168152602090f35b34610198575f3660031901126101985760206040516127108152f35b34610198575f366003190112610198576020600554604051908152f35b34610198575f366003190112610198576020600754604051908152f35b34610198575f366003190112610198576020600854604051908152f35b34610198576020366003190112610198576004355f526004602052602060405f2054604051908152f35b34610198576020366003190112610198576004359063ffffffff60e01b82168092036101985760209163e6b8a14160e01b148152f35b9181601f84011215610198578235916001600160401b038311610198576020838186019501011161019857565b35906001600160a01b038216820361019857565b6084356001600160a01b03811681036101985790565b60a081019081106001600160401b0382111761082b57604052565b634e487b7160e01b5f52604160045260245ffd5b90601f801991011681019081106001600160401b0382111761082b57604052565b91908260a09103126101985760405161087881610810565b8092610883816107e6565b8252610891602082016107e6565b6020830152604081013562ffffff811681036101985760408301526060810135908160020b820361019857606083019190915260800135906001600160a01b03821682036101985760800152565b919082018092116108ec57565b634e487b7160e01b5f52601160045260245ffd5b919060a061090f366004610860565b205f52600360205260405f205443105f146109335763d7bf71df60e01b5f5260045ffd5b60a0610940366004610860565b205f52600360205260405f20544311610aa05760208160a0610963366004610860565b20938101031261019857356001600160a01b038116929083900361019857815f52600260205260405f2054925f843a0394123a85128116903a8613901516176108ec575f8412610a91576109bd610a789460085490610b3f565b6040516323b872dd60e01b60208201526001600160a01b038316602482015230604482015260648101829052909390610a3690610a0781608481015b03601f19810183528261083f565b7f00000000000000000000000000000000000000000000000000000000000000006001600160a01b031661139e565b805f5260046020527fe04531dd1a58ec42a539bacca9922b8dfb9787388d1393fdbe5ecbbcf075ab9f6040805f20548151908782526020820152a36004610c65565b610a8e60a0610a88366004610860565b206112c7565b90565b6309a9850960e41b5f5260045ffd5b50505060a0610ab0366004610860565b2060a0610abe366004610860565b205f5260046020527f7e084355d30ee8e5a1599841a0fc9a5d77ab0cf5862a15bdab0064a3d154519c602060405f2054604051908152a2600190565b6001546001600160a01b03163303610b0e57565b63118cdaa760e01b5f523360045260245ffd5b60025f5414610b305760025f55565b633ee5aeb560e01b5f5260045ffd5b818102929181159184041417156108ec57565b601981116108ec57610b68816104650a48610b3f565b906103e80a908115610b78570490565b634e487b7160e01b5f52601260045260245ffd5b919082039182116108ec57565b356001600160a01b03811681036101985790565b51906001600160a01b038216820361019857565b6001600160401b03811161082b5760051b60200190565b9080601f83011215610198578151610bef81610bc1565b92610bfd604051948561083f565b81845260208085019260051b82010192831161019857602001905b828210610c255750505090565b60208091610c3284610bad565b815201910190610c18565b8051821015610c515760209160051b010190565b634e487b7160e01b5f52603260045260245ffd5b91929083156112c1576107d084028481046107d0036108ec57612710610c8d91048095610b8c565b60405163a9059cbb60e01b60208201526001600160a01b037f00000000000000000000000000000000000000000000000000000000000000008116602483018190526044830188905292937f00000000000000000000000000000000000000000000000000000000000000009291831691610d1590610d0f81606481016109f9565b8361139e565b156112a45760245f6001600160a01b03610d2e89610b99565b165b6040516322adcdb160e01b81526001600160a01b0390911660048201819052959092839182905afa8015610f76575f906111f7575b60409081015190516330bd3eeb60e01b815260048101959095525f9150849060249082906001600160a01b03165afa928315610f76575f9361102d575b50608083019283515195610db587610bc1565b96610dc3604051988961083f565b808852610dd2601f1991610bc1565b013660208901375f98895b8651515f1981019081116108ec578b1015610e3b57610e336001918c610e21612710610e198d61ffff610e128f879051610c3d565b5116610b3f565b04918d610c3d565b52610e2c8d8c610c3d565b51906108df565b9a0199610ddd565b610e4e91949793969992959a5083610b8c565b8851515f1981019081116108ec57610e669089610c3d565b5260405163095ea7b360e01b60208083019182526001600160a01b037f00000000000000000000000000000000000000000000000000000000000000001660248401819052604480850187905284529892915f90610ec560648561083f565b83519082865af15f513d82611011575b505015610fcd575b50505f5b885151811015610f815760c08601516001600160a01b0390610f04908390610c3d565b511690610f11818a610c3d565b5191883b1561019857604051632111be1b60e11b81526001600160a01b039182166004820152908c16602482015260448101929092525f82606481838c5af1918215610f7657600192610f66575b5001610ee1565b5f610f709161083f565b5f610f5f565b6040513d5f823e3d90fd5b5090935060a0929750610fbe9196507f2001b9eceb538108ac9eb8e5786be123dfb1374c532063b92e8f6d24ef94877d9550604094503690610860565b209382519182526020820152a2565b61100a9161100560405163095ea7b360e01b60208201528a60248201525f604482015260448152610fff60648261083f565b8261139e565b61139e565b5f80610edd565b9091506110255750813b15155b5f80610ed5565b60011461101e565b9092503d805f833e61103f818361083f565b810190602081830312610198578051906001600160401b0382116101985701808203916101608312610198576040519260e08401908482106001600160401b0383111761082b5760a09160405261109584610bad565b8552601f190112610198576040516110ac81610810565b6110b860208401610bad565b81526110c660408401610bad565b6020820152606083015162ffffff8116810361019857604082015260808301518060020b810361019857606082015260a08301516001600160a01b0381168103610198576080820152602084015260c0820151604084015260e082015160608401526101008201516001600160401b03811161019857820181601f8201121561019857805161115481610bc1565b91611162604051938461083f565b81835260208084019260051b8201019084821161019857602001915b8183106111dc5750505060808401526101208201516001600160401b03811161019857816111ad918401610bd8565b60a08401526101408201516001600160401b038111610198576111d09201610bd8565b60c0820152915f610da2565b825161ffff811681036101985781526020928301920161117e565b503d805f833e611207818361083f565b810190602081830312610198578051906001600160401b03821161019857016080818303126101985760405190608082018281106001600160401b0382111761082b5760405261125681610bad565b825261126460208201610bad565b602083015261127560408201610bad565b60408301526060810151926001600160401b038411610198575f9361129a9201610bd8565b6060820152610d65565b60245f6001600160a01b036112bb60208a01610b99565b16610d30565b50915050565b805f52600460205260405f2054600181018091116108ec575f8281526004602052604090208190556007541061137557611302600654610b52565b815f52600260205260405f205561131b600654436108df565b5f82815260036020908152604080832084905560028252808320546004835292819020548151938452918301919091529192917ff9a4566a0eb5aabefcc7dfb947976336b8903010deee9a8eaa215f700d9a181591a35f90565b7f447d0298e6e2716a4343195759c35b277a60b76e628284d93262fa9869db99215f80a2600190565b905f602091828151910182855af115610f76575f513d6113ed57506001600160a01b0381163b155b6113cd5750565b635274afe760e01b5f9081526001600160a01b0391909116600452602490fd5b600114156113c656","linkReferences":{}},"methodIdentifiers":{"BPS()":"249d39e9","FACTORY_PORTION()":"72027ad1","beforeSwap((address,address,uint24,int24,address),(bool,int256,uint160),bool,bytes)":"831d7dd2","blocksBetweenAuction()":"5121726e","blocksBetweenDeploymentAndFirstAuction()":"202aea0b","liquidFactory()":"2c08670a","feeLocker()":"70e9d244","gasPeg(bytes32)":"caf1a680","initialize((address,address,uint24,int24,address),bytes)":"645a1534","maxRounds()":"1faf969b","nextAuctionBlock(bytes32)":"383048ca","owner()":"8da5cb5b","paymentPerGasUnit()":"11622931","renounceOwnership()":"715018a6","round(bytes32)":"0dd5127d","setBlocksBetweenAuction(uint256)":"3fa3434c","setBlocksBetweenDeploymentAndFirstAuction(uint256)":"c7839012","setMaxRounds(uint256)":"58a8ba94","setPaymentPerGasUnit(uint256)":"af9dc652","supportsInterface(bytes4)":"01ffc9a7","transferOwnership(address)":"f2fde38b","weth()":"3fc8cef3"},"id":137}