{"abi":[{"type":"constructor","inputs":[{"name":"owner_","type":"address","internalType":"address"}],"stateMutability":"nonpayable"},{"type":"function","name":"BPS","inputs":[],"outputs":[{"name":"","type":"uint256","internalType":"uint256"}],"stateMutability":"view"},{"type":"function","name":"MAX_EXTENSIONS","inputs":[],"outputs":[{"name":"","type":"uint256","internalType":"uint256"}],"stateMutability":"view"},{"type":"function","name":"MAX_EXTENSION_BPS","inputs":[],"outputs":[{"name":"","type":"uint16","internalType":"uint16"}],"stateMutability":"view"},{"type":"function","name":"TOKEN_SUPPLY","inputs":[],"outputs":[{"name":"","type":"uint256","internalType":"uint256"}],"stateMutability":"view"},{"type":"function","name":"admins","inputs":[{"name":"","type":"address","internalType":"address"}],"outputs":[{"name":"","type":"bool","internalType":"bool"}],"stateMutability":"view"},{"type":"function","name":"claimTeamFees","inputs":[{"name":"token","type":"address","internalType":"address"}],"outputs":[],"stateMutability":"nonpayable"},{"type":"function","name":"deployToken","inputs":[{"name":"deploymentConfig","type":"tuple","internalType":"struct ILiquid.DeploymentConfig","components":[{"name":"tokenConfig","type":"tuple","internalType":"struct ILiquid.TokenConfig","components":[{"name":"tokenAdmin","type":"address","internalType":"address"},{"name":"name","type":"string","internalType":"string"},{"name":"symbol","type":"string","internalType":"string"},{"name":"salt","type":"bytes32","internalType":"bytes32"},{"name":"image","type":"string","internalType":"string"},{"name":"metadata","type":"string","internalType":"string"},{"name":"context","type":"string","internalType":"string"},{"name":"originatingChainId","type":"uint256","internalType":"uint256"}]},{"name":"poolConfig","type":"tuple","internalType":"struct ILiquid.PoolConfig","components":[{"name":"hook","type":"address","internalType":"address"},{"name":"pairedToken","type":"address","internalType":"address"},{"name":"tickIfToken0IsLiquid","type":"int24","internalType":"int24"},{"name":"tickSpacing","type":"int24","internalType":"int24"},{"name":"poolData","type":"bytes","internalType":"bytes"}]},{"name":"lockerConfig","type":"tuple","internalType":"struct ILiquid.LockerConfig","components":[{"name":"locker","type":"address","internalType":"address"},{"name":"rewardAdmins","type":"address[]","internalType":"address[]"},{"name":"rewardRecipients","type":"address[]","internalType":"address[]"},{"name":"rewardBps","type":"uint16[]","internalType":"uint16[]"},{"name":"tickLower","type":"int24[]","internalType":"int24[]"},{"name":"tickUpper","type":"int24[]","internalType":"int24[]"},{"name":"positionBps","type":"uint16[]","internalType":"uint16[]"},{"name":"lockerData","type":"bytes","internalType":"bytes"}]},{"name":"mevModuleConfig","type":"tuple","internalType":"struct ILiquid.MevModuleConfig","components":[{"name":"mevModule","type":"address","internalType":"address"},{"name":"mevModuleData","type":"bytes","internalType":"bytes"}]},{"name":"extensionConfigs","type":"tuple[]","internalType":"struct ILiquid.ExtensionConfig[]","components":[{"name":"extension","type":"address","internalType":"address"},{"name":"msgValue","type":"uint256","internalType":"uint256"},{"name":"extensionBps","type":"uint16","internalType":"uint16"},{"name":"extensionData","type":"bytes","internalType":"bytes"}]}]}],"outputs":[{"name":"tokenAddress","type":"address","internalType":"address"}],"stateMutability":"payable"},{"type":"function","name":"deployTokenZeroSupply","inputs":[{"name":"tokenConfig","type":"tuple","internalType":"struct ILiquid.TokenConfig","components":[{"name":"tokenAdmin","type":"address","internalType":"address"},{"name":"name","type":"string","internalType":"string"},{"name":"symbol","type":"string","internalType":"string"},{"name":"salt","type":"bytes32","internalType":"bytes32"},{"name":"image","type":"string","internalType":"string"},{"name":"metadata","type":"string","internalType":"string"},{"name":"context","type":"string","internalType":"string"},{"name":"originatingChainId","type":"uint256","internalType":"uint256"}]}],"outputs":[{"name":"tokenAddress","type":"address","internalType":"address"}],"stateMutability":"nonpayable"},{"type":"function","name":"deploymentInfoForToken","inputs":[{"name":"token","type":"address","internalType":"address"}],"outputs":[{"name":"token","type":"address","internalType":"address"},{"name":"hook","type":"address","internalType":"address"},{"name":"locker","type":"address","internalType":"address"}],"stateMutability":"view"},{"type":"function","name":"deprecated","inputs":[],"outputs":[{"name":"","type":"bool","internalType":"bool"}],"stateMutability":"view"},{"type":"function","name":"enabledLockers","inputs":[{"name":"locker","type":"address","internalType":"address"},{"name":"hook","type":"address","internalType":"address"}],"outputs":[{"name":"enabled","type":"bool","internalType":"bool"}],"stateMutability":"view"},{"type":"function","name":"owner","inputs":[],"outputs":[{"name":"","type":"address","internalType":"address"}],"stateMutability":"view"},{"type":"function","name":"renounceOwnership","inputs":[],"outputs":[],"stateMutability":"nonpayable"},{"type":"function","name":"setAdmin","inputs":[{"name":"admin","type":"address","internalType":"address"},{"name":"enabled","type":"bool","internalType":"bool"}],"outputs":[],"stateMutability":"nonpayable"},{"type":"function","name":"setDeprecated","inputs":[{"name":"deprecated_","type":"bool","internalType":"bool"}],"outputs":[],"stateMutability":"nonpayable"},{"type":"function","name":"setExtension","inputs":[{"name":"extension","type":"address","internalType":"address"},{"name":"enabled","type":"bool","internalType":"bool"}],"outputs":[],"stateMutability":"nonpayable"},{"type":"function","name":"setHook","inputs":[{"name":"hook","type":"address","internalType":"address"},{"name":"enabled","type":"bool","internalType":"bool"}],"outputs":[],"stateMutability":"nonpayable"},{"type":"function","name":"setLocker","inputs":[{"name":"locker","type":"address","internalType":"address"},{"name":"hook","type":"address","internalType":"address"},{"name":"enabled","type":"bool","internalType":"bool"}],"outputs":[],"stateMutability":"nonpayable"},{"type":"function","name":"setMevModule","inputs":[{"name":"mevModule","type":"address","internalType":"address"},{"name":"enabled","type":"bool","internalType":"bool"}],"outputs":[],"stateMutability":"nonpayable"},{"type":"function","name":"setTeamFeeRecipient","inputs":[{"name":"teamFeeRecipient_","type":"address","internalType":"address"}],"outputs":[],"stateMutability":"nonpayable"},{"type":"function","name":"teamFeeRecipient","inputs":[],"outputs":[{"name":"","type":"address","internalType":"address"}],"stateMutability":"view"},{"type":"function","name":"tokenDeploymentInfo","inputs":[{"name":"token","type":"address","internalType":"address"}],"outputs":[{"name":"","type":"tuple","internalType":"struct ILiquid.DeploymentInfo","components":[{"name":"token","type":"address","internalType":"address"},{"name":"hook","type":"address","internalType":"address"},{"name":"locker","type":"address","internalType":"address"},{"name":"extensions","type":"address[]","internalType":"address[]"}]}],"stateMutability":"view"},{"type":"function","name":"transferOwnership","inputs":[{"name":"newOwner","type":"address","internalType":"address"}],"outputs":[],"stateMutability":"nonpayable"},{"type":"event","name":"ClaimTeamFees","inputs":[{"name":"token","type":"address","indexed":true,"internalType":"address"},{"name":"recipient","type":"address","indexed":true,"internalType":"address"},{"name":"amount","type":"uint256","indexed":false,"internalType":"uint256"}],"anonymous":false},{"type":"event","name":"ExtensionTriggered","inputs":[{"name":"extension","type":"address","indexed":false,"internalType":"address"},{"name":"extensionSupply","type":"uint256","indexed":false,"internalType":"uint256"},{"name":"msgValue","type":"uint256","indexed":false,"internalType":"uint256"}],"anonymous":false},{"type":"event","name":"OwnershipTransferred","inputs":[{"name":"previousOwner","type":"address","indexed":true,"internalType":"address"},{"name":"newOwner","type":"address","indexed":true,"internalType":"address"}],"anonymous":false},{"type":"event","name":"SetAdmin","inputs":[{"name":"admin","type":"address","indexed":true,"internalType":"address"},{"name":"enabled","type":"bool","indexed":false,"internalType":"bool"}],"anonymous":false},{"type":"event","name":"SetDeprecated","inputs":[{"name":"deprecated","type":"bool","indexed":false,"internalType":"bool"}],"anonymous":false},{"type":"event","name":"SetExtension","inputs":[{"name":"extension","type":"address","indexed":false,"internalType":"address"},{"name":"enabled","type":"bool","indexed":false,"internalType":"bool"}],"anonymous":false},{"type":"event","name":"SetHook","inputs":[{"name":"hook","type":"address","indexed":false,"internalType":"address"},{"name":"enabled","type":"bool","indexed":false,"internalType":"bool"}],"anonymous":false},{"type":"event","name":"SetLocker","inputs":[{"name":"locker","type":"address","indexed":false,"internalType":"address"},{"name":"hook","type":"address","indexed":false,"internalType":"address"},{"name":"enabled","type":"bool","indexed":false,"internalType":"bool"}],"anonymous":false},{"type":"event","name":"SetMevModule","inputs":[{"name":"mevModule","type":"address","indexed":false,"internalType":"address"},{"name":"enabled","type":"bool","indexed":false,"internalType":"bool"}],"anonymous":false},{"type":"event","name":"SetTeamFeeRecipient","inputs":[{"name":"oldTeamFeeRecipient","type":"address","indexed":false,"internalType":"address"},{"name":"newTeamFeeRecipient","type":"address","indexed":false,"internalType":"address"}],"anonymous":false},{"type":"event","name":"TokenCreated","inputs":[{"name":"msgSender","type":"address","indexed":false,"internalType":"address"},{"name":"tokenAddress","type":"address","indexed":true,"internalType":"address"},{"name":"tokenAdmin","type":"address","indexed":true,"internalType":"address"},{"name":"tokenImage","type":"string","indexed":false,"internalType":"string"},{"name":"tokenName","type":"string","indexed":false,"internalType":"string"},{"name":"tokenSymbol","type":"string","indexed":false,"internalType":"string"},{"name":"tokenMetadata","type":"string","indexed":false,"internalType":"string"},{"name":"tokenContext","type":"string","indexed":false,"internalType":"string"},{"name":"startingTick","type":"int24","indexed":false,"internalType":"int24"},{"name":"poolHook","type":"address","indexed":false,"internalType":"address"},{"name":"poolId","type":"bytes32","indexed":false,"internalType":"PoolId"},{"name":"pairedToken","type":"address","indexed":false,"internalType":"address"},{"name":"locker","type":"address","indexed":false,"internalType":"address"},{"name":"mevModule","type":"address","indexed":false,"internalType":"address"},{"name":"extensionsSupply","type":"uint256","indexed":false,"internalType":"uint256"},{"name":"extensions","type":"address[]","indexed":false,"internalType":"address[]"}],"anonymous":false},{"type":"error","name":"Deprecated","inputs":[]},{"type":"error","name":"ExtensionMsgValueMismatch","inputs":[]},{"type":"error","name":"ExtensionNotEnabled","inputs":[]},{"type":"error","name":"HookNotEnabled","inputs":[]},{"type":"error","name":"InvalidExtension","inputs":[]},{"type":"error","name":"InvalidHook","inputs":[]},{"type":"error","name":"InvalidLocker","inputs":[]},{"type":"error","name":"InvalidMevModule","inputs":[]},{"type":"error","name":"LockerNotEnabled","inputs":[]},{"type":"error","name":"MaxExtensionBpsExceeded","inputs":[]},{"type":"error","name":"MaxExtensionsExceeded","inputs":[]},{"type":"error","name":"MevModuleNotEnabled","inputs":[]},{"type":"error","name":"NotFound","inputs":[]},{"type":"error","name":"OnlyNonOriginatingChains","inputs":[]},{"type":"error","name":"OnlyOriginatingChain","inputs":[]},{"type":"error","name":"OwnableInvalidOwner","inputs":[{"name":"owner","type":"address","internalType":"address"}]},{"type":"error","name":"OwnableUnauthorizedAccount","inputs":[{"name":"account","type":"address","internalType":"address"}]},{"type":"error","name":"ReentrancyGuardReentrantCall","inputs":[]},{"type":"error","name":"SafeERC20FailedOperation","inputs":[{"name":"token","type":"address","internalType":"address"}]},{"type":"error","name":"TeamFeeRecipientNotSet","inputs":[]},{"type":"error","name":"Unauthorized","inputs":[]}],"bytecode":{"object":"0x60803460ca57601f61313a38819003918201601f19168301916001600160401b0383118484101760ce5780849260209460405283398101031260ca57516001600160a01b0381169081900360ca57801560b7575f80546001600160a01b031981168317825560405192916001600160a01b03909116907f8be0079c531659141344cd1fd0a4f28419497f9722a3daafe3b4186f6b6457e09080a36001600255600160ff19600354161760035561305790816100e38239f35b631e4fbdf760e01b5f525f60045260245ffd5b5f80fd5b634e487b7160e01b5f52604160045260245ffdfe6080806040526004361015610012575f80fd5b5f3560e01c908163031bc1ba146125135750806306562980146124895780630e136b19146124675780630f0f3a2f1461223f578063228871c51461220957806322adcdb11461208f578063249d39e9146120735780633c909e3914612000578063429b62e514611fb65780634b0bddd214611f08578063715018a614611e8c578063833e8db114611d065780638da5cb5b14611cd4578063926ff25514611c22578063a238f07f14611b04578063b152f6cf14611add578063c07780f614611ac2578063cca91a7014611aa6578063d848dee714611a26578063dbb0b1c714611876578063df40224a146103fa578063f2fde38b1461032c5763fc1b602214610119575f80fd5b3461032857606060031936011261032857610132612697565b61013a6126ba565b604435918215159081840361032857335f52600160205260ff60405f2054161580610307575b6102df5773ffffffffffffffffffffffffffffffffffffffff16906040517f01ffc9a70000000000000000000000000000000000000000000000000000000081527f0ab976c0000000000000000000000000000000000000000000000000000000006004820152602081602481865afa9081156102d4575f916102a5575b501561027d5773ffffffffffffffffffffffffffffffffffffffff6060936102697fa42b595aa29ec637074f31538fbf673587d74ba490265a33cf04ed41d27a9ddc96855f52600660205260405f208484165f5260205260405f209060ff7fffffffffffffffffffffffffffffffffffffffffffffffffffffffffffffff0083541691151516179055565b6040519384521660208301526040820152a1005b7fab54b813000000000000000000000000000000000000000000000000000000005f5260045ffd5b6102c7915060203d6020116102cd575b6102bf81836127ab565b810190612ab9565b5f6101de565b503d6102b5565b6040513d5f823e3d90fd5b7f82b42900000000000000000000000000000000000000000000000000000000005f5260045ffd5b5073ffffffffffffffffffffffffffffffffffffffff5f5416331415610160565b5f80fd5b346103285760206003193601126103285773ffffffffffffffffffffffffffffffffffffffff61035a612697565b610362612cc9565b1680156103ce5773ffffffffffffffffffffffffffffffffffffffff5f54827fffffffffffffffffffffffff00000000000000000000000000000000000000008216175f55167f8be0079c531659141344cd1fd0a4f28419497f9722a3daafe3b4186f6b6457e05f80a3005b7f1e4fbdf7000000000000000000000000000000000000000000000000000000005f525f60045260245ffd5b60206003193601126103285760043567ffffffffffffffff81116103285760a060031982360301126103285760405161043281612772565b816004013567ffffffffffffffff811161032857610456906004369185010161285e565b8152602482013567ffffffffffffffff81116103285782019060a06003198336030112610328576040519161048a83612772565b610496600482016126dd565b83526104a4602482016126dd565b60208401526104b560448201612955565b60408401526104c660648201612955565b606084015260848101359067ffffffffffffffff82116103285760046104ef92369201016127ec565b608083015260208101918252604483013567ffffffffffffffff8111610328578301926101006003198536030112610328576040519361052e8561278e565b61053a600482016126dd565b8552602481013567ffffffffffffffff811161032857610560906004369184010161297b565b6020860152604481013567ffffffffffffffff811161032857610589906004369184010161297b565b6040860152606481013567ffffffffffffffff8111610328576105b290600436918401016129ef565b6060860152608481013567ffffffffffffffff8111610328576105db9060043691840101612a54565b608086015260a481013567ffffffffffffffff8111610328576106049060043691840101612a54565b60a086015260c481013567ffffffffffffffff81116103285761062d90600436918401016129ef565b60c086015260e48101359067ffffffffffffffff821161032857600461065692369201016127ec565b60e085015260408201938452606481013567ffffffffffffffff8111610328578101906040600319833603011261032857604051916040830183811067ffffffffffffffff821117611564576040526106b1600482016126dd565b835260248101359067ffffffffffffffff82116103285760046106d792369201016127ec565b60208301526060830191825260848101359067ffffffffffffffff82116103285701903660238301121561032857600482013561071381612963565b9261072160405194856127ab565b818452602060048186019360051b83010101903682116103285760248101925b8284106117c5575050505060808301918252600280541461179d576002805560ff600354166117755760e083510151460361174d576107b19360208451604051809781927f0a99d86e00000000000000000000000000000000000000000000000000000000835260048301612b44565b038173__$0ce6e2afcf8c1fb4ba48b139ed5e0b25ee$__5af49485156102d4575f95611711575b506107e38351612d22565b94856c01431e0fae6d7217caa000000003906c01431e0fae6d7217caa000000082116110375782519173ffffffffffffffffffffffffffffffffffffffff895151169173ffffffffffffffffffffffffffffffffffffffff865151165f608060405161084e81612772565b828152826020820152826040820152826060820152015273ffffffffffffffffffffffffffffffffffffffff8551165f52600560205260ff60405f205416156116e95760a09173ffffffffffffffffffffffffffffffffffffffff5f81885116926109308360208b0151169860408b015160020b96608060608d015160020b9c0151916040519c8d998a9889977f564d49e7000000000000000000000000000000000000000000000000000000008952169d8e6004890152602488015260448701526064860152608485015260a484015260e060c484015260e4830190612b01565b03925af19283156102d4575f9361163b575b508851845173ffffffffffffffffffffffffffffffffffffffff8251165f52600660205260405f2073ffffffffffffffffffffffffffffffffffffffff80835116165f5260205260ff60405f205416156116135781516040517f095ea7b300000000000000000000000000000000000000000000000000000000815273ffffffffffffffffffffffffffffffffffffffff909116600482015260248101849052926020846044815f895af19384156102d4575f602094610a5f92610a71976115f8575b5073ffffffffffffffffffffffffffffffffffffffff81511693604051978896879586947fea2892630000000000000000000000000000000000000000000000000000000086526101206004870152610124860190612f32565b90600319858303016024860152612fea565b8a5173ffffffffffffffffffffffffffffffffffffffff908116604485015260208c01518116606485015260408c015162ffffff16608485015260608c015160020b60a485015260808c01511660c48401529060e48301528861010483015203925af180156102d4576115c9575b505f5b85518051821015611064576040610afc8361ffff93612c88565b510151166c01431e0fae6d7217caa00000008102908082046c01431e0fae6d7217caa0000000149015171561103757612710900490610bb160208373ffffffffffffffffffffffffffffffffffffffff610b57858c51612c88565b51511660405193849283927f095ea7b3000000000000000000000000000000000000000000000000000000008452600484016020909392919373ffffffffffffffffffffffffffffffffffffffff60408201951681520152565b03815f885af180156102d45761101b575b5073ffffffffffffffffffffffffffffffffffffffff610be3828951612c88565b5151166020610bf3838a51612c88565b51015190803b156103285789610da792610e34610dd98f6040519687957ff7fdb28000000000000000000000000000000000000000000000000000000000875261012060048801525160a061012488015273ffffffffffffffffffffffffffffffffffffffff8151166101c488015260e0610d6c610d37610d02610cc2610c8d8c6102c46020890151916101006101e48201520190612b01565b60408701518d82037ffffffffffffffffffffffffffffffffffffffffffffffffffffffffffffffe3c016102048f0152612b01565b60608601516102248d015260808601518c82037ffffffffffffffffffffffffffffffffffffffffffffffffffffffffffffffe3c016102448e0152612b01565b60a08501517ffffffffffffffffffffffffffffffffffffffffffffffffffffffffffffffe3c8c8303016102648d0152612b01565b60c08401517ffffffffffffffffffffffffffffffffffffffffffffffffffffffffffffffe3c8b8303016102848c0152612b01565b9101516102a48801528d517ffffffffffffffffffffffffffffffffffffffffffffffffffffffffffffffedc88830301610144890152612fea565b90517ffffffffffffffffffffffffffffffffffffffffffffffffffffffffffffffedc86830301610164870152612f32565b604060208d517ffffffffffffffffffffffffffffffffffffffffffffffffffffffffffffffedc8785030161018488015273ffffffffffffffffffffffffffffffffffffffff81511684520151918160208201520190612b01565b8b51907ffffffffffffffffffffffffffffffffffffffffffffffffffffffffffffffedc848203016101a4850152815180825260208201906020808260051b8501019401925f5b828110610f8b5750505050505f9391838092610ee4602483018d73ffffffffffffffffffffffffffffffffffffffff6080809282815116855282602082015116602086015262ffffff6040820151166040860152606081015160020b6060860152015116910152565b8a60c48301528960e48301528861010483015203925af180156102d4576001937fe80ed94c33183ba307727bf230f18d40178975f51b301a8415b90f4c9f549b7f92606092610f7b575b5073ffffffffffffffffffffffffffffffffffffffff610f4f858c51612c88565b515116906020610f60868d51612c88565b5101519060405192835260208301526040820152a101610ae2565b5f610f85916127ab565b8d610f2e565b91939596509193602080611008837fffffffffffffffffffffffffffffffffffffffffffffffffffffffffffffffe08760019603018952608060608b5173ffffffffffffffffffffffffffffffffffffffff8151168452858101518685015261ffff60408201511660408501520151918160608201520190612b01565b9701950191019188969594939192610e7b565b6110329060203d81116102cd576102bf81836127ab565b610bc2565b7f4e487b71000000000000000000000000000000000000000000000000000000005f52601160045260245ffd5b505087879273ffffffffffffffffffffffffffffffffffffffff865151165f52600860205260ff60405f205416156115a15773ffffffffffffffffffffffffffffffffffffffff8551511660208751015190803b15610328576111595f929183926040519485809481937f015e3c29000000000000000000000000000000000000000000000000000000008352611148600484018b73ffffffffffffffffffffffffffffffffffffffff6080809282815116855282602082015116602086015262ffffff6040820151166040860152606081015160020b6060860152015116910152565b60c060a484015260c4830190612b01565b03925af180156102d457611591575b508651519561118f61117988612963565b97611187604051998a6127ab565b808952612963565b947fffffffffffffffffffffffffffffffffffffffffffffffffffffffffffffffe06020890196013687375f5b895180518210156111fd579073ffffffffffffffffffffffffffffffffffffffff6111e982600194612c88565b5151166111f6828c612c88565b52016111bc565b50508790878b87600373ffffffffffffffffffffffffffffffffffffffff8951511673ffffffffffffffffffffffffffffffffffffffff808651511691816040519361124885612756565b868552602085019081526040850192835260608501968b88525f526004602052818060405f20965116167fffffffffffffffffffffffff00000000000000000000000000000000000000008654161785555116826001850191167fffffffffffffffffffffffff0000000000000000000000000000000000000000825416179055511673ffffffffffffffffffffffffffffffffffffffff6002830191167fffffffffffffffffffffffff00000000000000000000000000000000000000008254161790550190519081519167ffffffffffffffff83116115645768010000000000000000831161156457815483835580841061153e575b50602001905f5260205f205f5b83811061151457505050505193845173ffffffffffffffffffffffffffffffffffffffff169660a08601519560808101519760208201519460408301519260c00151905198895173ffffffffffffffffffffffffffffffffffffffff169260a090209360408b015160020b9a6020015173ffffffffffffffffffffffffffffffffffffffff1695515173ffffffffffffffffffffffffffffffffffffffff1696515173ffffffffffffffffffffffffffffffffffffffff16976040519c8d3390528d602081016101c090526101c00161142591612b01565b8d810360408f015261143691612b01565b8c810360608e015261144791612b01565b8b810360808d015261145891612b01565b8a810360a08c015261146991612b01565b9760c08a015260e08901526101008801526101208701526101408601526101608501526101808401528282036101a0840152519081815260200194905f5b8181106114e8575050507f9299d1d1a88d8e1abdc591ae7a167a6bc63a8f17d695804e9091ee33aa89fb678184926020960390a36001600255604051908152f35b825173ffffffffffffffffffffffffffffffffffffffff168752602096870196909201916001016114a7565b600190602073ffffffffffffffffffffffffffffffffffffffff855116940193818401550161134d565b825f528360205f2091820191015b8181106115595750611340565b5f815560010161154c565b7f4e487b71000000000000000000000000000000000000000000000000000000005f52604160045260245ffd5b5f61159b916127ab565b88611168565b7f4b292da4000000000000000000000000000000000000000000000000000000005f5260045ffd5b6115ea9060203d6020116115f1575b6115e281836127ab565b810190612ad1565b5088610adf565b503d6115d8565b61160e90873d89116102cd576102bf81836127ab565b610a05565b7fa3f8a275000000000000000000000000000000000000000000000000000000005f5260045ffd5b90925060a0813d60a0116116e1575b8161165760a093836127ab565b81010312610328576040519061166c82612772565b61167581612ae0565b825261168360208201612ae0565b6020830152604081015162ffffff811681036103285760408301526060810151908160020b8203610328576080916060840152015173ffffffffffffffffffffffffffffffffffffffff811681036103285760808201529189610942565b3d915061164a565b7f7e5ba1ad000000000000000000000000000000000000000000000000000000005f5260045ffd5b9094506020813d602011611745575b8161172d602093836127ab565b810103126103285761173e90612ae0565b93866107d8565b3d9150611720565b7fc0112c87000000000000000000000000000000000000000000000000000000005f5260045ffd5b7fc73b9d7c000000000000000000000000000000000000000000000000000000005f5260045ffd5b7f3ee5aeb5000000000000000000000000000000000000000000000000000000005f5260045ffd5b833567ffffffffffffffff81116103285760049083010160807fffffffffffffffffffffffffffffffffffffffffffffffffffffffffffffffe08236030112610328576040519161181583612756565b611821602083016126dd565b835260408201356020840152611839606083016129e0565b604084015260808201359267ffffffffffffffff84116103285761186660209493858095369201016127ec565b6060820152815201930192610741565b346103285760406003193601126103285761188f612697565b6118976126fe565b335f52600160205260ff60405f2054161580611a05575b6102df5773ffffffffffffffffffffffffffffffffffffffff8216916040517f01ffc9a70000000000000000000000000000000000000000000000000000000081527fe6b8a141000000000000000000000000000000000000000000000000000000006004820152602081602481875afa9081156102d4575f916119e6575b50156119be577fc4bf3ad397ab835bf8aefef70e7e1c35a0cfad7be9c060049050303ace20605c925f5260086020526119948260405f209060ff7fffffffffffffffffffffffffffffffffffffffffffffffffffffffffffffff0083541691151516179055565b6040805173ffffffffffffffffffffffffffffffffffffffff9290921682529115156020820152a1005b7f1b06723d000000000000000000000000000000000000000000000000000000005f5260045ffd5b6119ff915060203d6020116102cd576102bf81836127ab565b8461192d565b5073ffffffffffffffffffffffffffffffffffffffff5f54163314156118ae565b34610328576020600319360112610328576004358015158091036103285760207f20db9067ad1976f7d6ee4ee07eea48c1139e0716fd856ec6edf203236c37db8291611a70612cc9565b7fffffffffffffffffffffffffffffffffffffffffffffffffffffffffffffff006003541660ff821617600355604051908152a1005b34610328575f6003193601126103285760206040516123288152f35b34610328575f600319360112610328576020604051600a8152f35b34610328575f6003193601126103285760206040516c01431e0fae6d7217caa00000008152f35b346103285760206003193601126103285760043567ffffffffffffffff811161032857611b3590369060040161285e565b60e08101514614611bfa576020611b7991604051809381927f0a99d86e00000000000000000000000000000000000000000000000000000000835260048301612b44565b038173__$0ce6e2afcf8c1fb4ba48b139ed5e0b25ee$__5af480156102d4575f90611bc0575b60209073ffffffffffffffffffffffffffffffffffffffff60405191168152f35b506020813d602011611bf2575b81611bda602093836127ab565b8101031261032857611bed602091612ae0565b611b9f565b3d9150611bcd565b7f01468d7c000000000000000000000000000000000000000000000000000000005f5260045ffd5b34610328576020600319360112610328577fb4a70636e7a4c9d224bbe13304010ccb0ac964b3cc46c612d9abaeacfa204bd96040611c5e612697565b611c66612cc9565b73ffffffffffffffffffffffffffffffffffffffff6003549174ffffffffffffffffffffffffffffffffffffffff008160081b167fffffffffffffffffffffff0000000000000000000000000000000000000000ff8416176003558184519360081c168352166020820152a1005b34610328575f60031936011261032857602073ffffffffffffffffffffffffffffffffffffffff5f5416604051908152f35b3461032857604060031936011261032857611d1f612697565b611d276126fe565b335f52600160205260ff60405f2054161580611e6b575b6102df5773ffffffffffffffffffffffffffffffffffffffff8216916040517f01ffc9a70000000000000000000000000000000000000000000000000000000081527f1ac7941f000000000000000000000000000000000000000000000000000000006004820152602081602481875afa9081156102d4575f91611e4c575b5015611e24577f3e7510e93c4fe81ab57ed70b4eaa9a407eeced9cdb0954a360b36947f38ccda0925f5260056020526119948260405f209060ff7fffffffffffffffffffffffffffffffffffffffffffffffffffffffffffffff0083541691151516179055565b7f9c9d8823000000000000000000000000000000000000000000000000000000005f5260045ffd5b611e65915060203d6020116102cd576102bf81836127ab565b84611dbd565b5073ffffffffffffffffffffffffffffffffffffffff5f5416331415611d3e565b34610328575f60031936011261032857611ea4612cc9565b5f73ffffffffffffffffffffffffffffffffffffffff81547fffffffffffffffffffffffff000000000000000000000000000000000000000081168355167f8be0079c531659141344cd1fd0a4f28419497f9722a3daafe3b4186f6b6457e08280a3005b3461032857604060031936011261032857611f21612697565b7f55a5194bc0174fcaf12b2978bef43911466bf63b34db8d1dd1a0d5dcd5c41bea602073ffffffffffffffffffffffffffffffffffffffff611f616126fe565b93611f6a612cc9565b1692835f5260018252611fab8160405f209060ff7fffffffffffffffffffffffffffffffffffffffffffffffffffffffffffffff0083541691151516179055565b6040519015158152a2005b346103285760206003193601126103285773ffffffffffffffffffffffffffffffffffffffff611fe4612697565b165f526001602052602060ff60405f2054166040519015158152f35b3461032857604060031936011261032857612019612697565b73ffffffffffffffffffffffffffffffffffffffff6120366126ba565b91165f52600660205273ffffffffffffffffffffffffffffffffffffffff60405f2091165f52602052602060ff60405f2054166040519015158152f35b34610328575f6003193601126103285760206040516127108152f35b346103285760206003193601126103285773ffffffffffffffffffffffffffffffffffffffff6120bd612697565b6060806040516120cc81612756565b5f81525f60208201525f60408201520152165f52600460205260405f206040516120f581612756565b73ffffffffffffffffffffffffffffffffffffffff825416815273ffffffffffffffffffffffffffffffffffffffff6001830154169160208201928352600373ffffffffffffffffffffffffffffffffffffffff600283015416916040840192835201926040519384602082549182815201915f5260205f20905f5b8181106121dd5773ffffffffffffffffffffffffffffffffffffffff876121d98a838a818b6121a2858d03866127ab565b60608701948552604051978897602089525116602088015251166040860152511660608401525160808084015260a083019061270d565b0390f35b825473ffffffffffffffffffffffffffffffffffffffff16845260209093019260019283019201612171565b34610328575f60031936011261032857602073ffffffffffffffffffffffffffffffffffffffff60035460081c16604051908152f35b3461032857602060031936011261032857612258612697565b335f52600160205260ff60405f2054161580612446575b6102df5773ffffffffffffffffffffffffffffffffffffffff60035460081c1690811561241e5773ffffffffffffffffffffffffffffffffffffffff16604051917f70a08231000000000000000000000000000000000000000000000000000000008352306004840152602083602481855afa9283156102d4575f936123ea575b506040517fa9059cbb00000000000000000000000000000000000000000000000000000000602080830191825273ffffffffffffffffffffffffffffffffffffffff939093166024830152604480830186905282525f916123526064826127ab565b519082855af1156102d4575f513d6123e15750803b155b6123b6577fe5b9f4d1f6cf7c3238f0c0b48597a9ccd3ff3d2309f3ccd30bd46aad5e06a638602073ffffffffffffffffffffffffffffffffffffffff60035460081c1693604051908152a3005b7f5274afe7000000000000000000000000000000000000000000000000000000005f5260045260245ffd5b60011415612369565b9092506020813d602011612416575b81612406602093836127ab565b810103126103285751915f6122f0565b3d91506123f9565b7f096c59fc000000000000000000000000000000000000000000000000000000005f5260045ffd5b5073ffffffffffffffffffffffffffffffffffffffff5f541633141561226f565b34610328575f60031936011261032857602060ff600354166040519015158152f35b346103285760206003193601126103285773ffffffffffffffffffffffffffffffffffffffff6124b7612697565b165f526004602052606060405f2073ffffffffffffffffffffffffffffffffffffffff8154169073ffffffffffffffffffffffffffffffffffffffff600281600184015416920154169060405192835260208301526040820152f35b346103285760406003193601126103285761252c612697565b6125346126fe565b90335f52600160205260ff60405f2054161580612676575b6102df5773ffffffffffffffffffffffffffffffffffffffff8116927f01ffc9a70000000000000000000000000000000000000000000000000000000081527ff7fdb280000000000000000000000000000000000000000000000000000000006004820152602081602481875afa9081156102d4575f91612657575b501561262f577fb393434b606480a39b9a3b6f498a7f5312283d75b93f92d1dffc0dae86425ea2925f5260076020526119948260405f209060ff7fffffffffffffffffffffffffffffffffffffffffffffffffffffffffffffff0083541691151516179055565b7f05d3b44e000000000000000000000000000000000000000000000000000000005f5260045ffd5b612670915060203d6020116102cd576102bf81836127ab565b846125c8565b5073ffffffffffffffffffffffffffffffffffffffff5f541633141561254c565b6004359073ffffffffffffffffffffffffffffffffffffffff8216820361032857565b6024359073ffffffffffffffffffffffffffffffffffffffff8216820361032857565b359073ffffffffffffffffffffffffffffffffffffffff8216820361032857565b60243590811515820361032857565b90602080835192838152019201905f5b81811061272a5750505090565b825173ffffffffffffffffffffffffffffffffffffffff1684526020938401939092019160010161271d565b6080810190811067ffffffffffffffff82111761156457604052565b60a0810190811067ffffffffffffffff82111761156457604052565b610100810190811067ffffffffffffffff82111761156457604052565b90601f7fffffffffffffffffffffffffffffffffffffffffffffffffffffffffffffffe0910116810190811067ffffffffffffffff82111761156457604052565b81601f820112156103285760208135910167ffffffffffffffff82116115645760405192612842601f84017fffffffffffffffffffffffffffffffffffffffffffffffffffffffffffffffe016602001856127ab565b8284528282011161032857815f92602092838601378301015290565b9190916101008184031261032857604051906128798261278e565b8193612884826126dd565b8352602082013567ffffffffffffffff811161032857816128a69184016127ec565b6020840152604082013567ffffffffffffffff811161032857816128cb9184016127ec565b604084015260608201356060840152608082013567ffffffffffffffff811161032857816128fa9184016127ec565b608084015260a082013567ffffffffffffffff8111610328578161291f9184016127ec565b60a084015260c08201359167ffffffffffffffff83116103285761294960e09392849383016127ec565b60c08501520135910152565b35908160020b820361032857565b67ffffffffffffffff81116115645760051b60200190565b9080601f8301121561032857813561299281612963565b926129a060405194856127ab565b81845260208085019260051b82010192831161032857602001905b8282106129c85750505090565b602080916129d5846126dd565b8152019101906129bb565b359061ffff8216820361032857565b9080601f83011215610328578135612a0681612963565b92612a1460405194856127ab565b81845260208085019260051b82010192831161032857602001905b828210612a3c5750505090565b60208091612a49846129e0565b815201910190612a2f565b9080601f83011215610328578135612a6b81612963565b92612a7960405194856127ab565b81845260208085019260051b82010192831161032857602001905b828210612aa15750505090565b60208091612aae84612955565b815201910190612a94565b90816020910312610328575180151581036103285790565b90816020910312610328575190565b519073ffffffffffffffffffffffffffffffffffffffff8216820361032857565b907fffffffffffffffffffffffffffffffffffffffffffffffffffffffffffffffe0601f602080948051918291828752018686015e5f8582860101520116010190565b919060206c01431e0fae6d7217caa0000000916040855273ffffffffffffffffffffffffffffffffffffffff815116604086015260e0612c7a612c45612c12612bd4612ba08787015161010060608d01526101408c0190612b01565b60408701517fffffffffffffffffffffffffffffffffffffffffffffffffffffffffffffffc08c83030160808d0152612b01565b606086015160a08b015260808601517fffffffffffffffffffffffffffffffffffffffffffffffffffffffffffffffc08b83030160c08c0152612b01565b60a08501517fffffffffffffffffffffffffffffffffffffffffffffffffffffffffffffffc08a830301858b0152612b01565b60c08401517fffffffffffffffffffffffffffffffffffffffffffffffffffffffffffffffc0898303016101008a0152612b01565b910151610120860152930152565b8051821015612c9c5760209160051b010190565b7f4e487b71000000000000000000000000000000000000000000000000000000005f52603260045260245ffd5b73ffffffffffffffffffffffffffffffffffffffff5f54163303612ce957565b7f118cdaa7000000000000000000000000000000000000000000000000000000005f523360045260245ffd5b9190820180921161103757565b9081518015612ebf57600a10612e97575f91825b8151841015612d6657612d5e60019161ffff6040612d548887612c88565b5101511690612d15565b930192612d36565b92506123288311612e6f575f92835b8251851015612da157612d996001916020612d908887612c88565b51015190612d15565b940193612d75565b9093509190913403612e47575f5b8251811015612e1e5773ffffffffffffffffffffffffffffffffffffffff612dd78285612c88565b5151165f52600760205260ff60405f20541615612df657600101612daf565b7f5c9e702e000000000000000000000000000000000000000000000000000000005f5260045ffd5b50916c01431e0fae6d7217caa00000008082029250811591830414171561103757612710900490565b7fbc9b8348000000000000000000000000000000000000000000000000000000005f5260045ffd5b7f4505155c000000000000000000000000000000000000000000000000000000005f5260045ffd5b7f33e26b3f000000000000000000000000000000000000000000000000000000005f5260045ffd5b505f9150565b90602080835192838152019201905f5b818110612ee25750505090565b825161ffff16845260209384019390920191600101612ed5565b90602080835192838152019201905f5b818110612f195750505090565b825160020b845260209384019390920191600101612f0c565b612fe79173ffffffffffffffffffffffffffffffffffffffff825116815260e0612fd6612fc4612fb2612fa0612f8e612f7c602089015161010060208a015261010089019061270d565b604089015188820360408a015261270d565b60608801518782036060890152612ec5565b60808701518682036080880152612efc565b60a086015185820360a0870152612efc565b60c085015184820360c0860152612ec5565b9201519060e0818403910152612b01565b90565b9060a06080612fe79373ffffffffffffffffffffffffffffffffffffffff815116845273ffffffffffffffffffffffffffffffffffffffff6020820151166020850152604081015160020b6040850152606081015160020b60608501520151918160808201520190612b0156","linkReferences":{"src/utils/HoodMarketsDeployer.sol":{"HoodMarketsDeployer":[{"start":2200,"length":20},{"start":7264,"length":20}]}}},"methodIdentifiers":{"BPS()":"249d39e9","MAX_EXTENSIONS()":"c07780f6","MAX_EXTENSION_BPS()":"cca91a70","TOKEN_SUPPLY()":"b152f6cf","admins(address)":"429b62e5","claimTeamFees(address)":"0f0f3a2f","deployToken(((address,string,string,bytes32,string,string,string,uint256),(address,address,int24,int24,bytes),(address,address[],address[],uint16[],int24[],int24[],uint16[],bytes),(address,bytes),(address,uint256,uint16,bytes)[]))":"df40224a","deployTokenZeroSupply((address,string,string,bytes32,string,string,string,uint256))":"a238f07f","deploymentInfoForToken(address)":"06562980","deprecated()":"0e136b19","enabledLockers(address,address)":"3c909e39","owner()":"8da5cb5b","renounceOwnership()":"715018a6","setAdmin(address,bool)":"4b0bddd2","setDeprecated(bool)":"d848dee7","setExtension(address,bool)":"031bc1ba","setHook(address,bool)":"833e8db1","setLocker(address,address,bool)":"fc1b6022","setMevModule(address,bool)":"dbb0b1c7","setTeamFeeRecipient(address)":"926ff255","teamFeeRecipient()":"228871c5","tokenDeploymentInfo(address)":"22adcdb1","transferOwnership(address)":"f2fde38b"},"id":116}