{"abi":[{"type":"constructor","inputs":[{"name":"owner_","type":"address","internalType":"address"},{"name":"factory_","type":"address","internalType":"address"},{"name":"feeLocker_","type":"address","internalType":"address"},{"name":"positionManager_","type":"address","internalType":"address"},{"name":"permit2_","type":"address","internalType":"address"},{"name":"universalRouter_","type":"address","internalType":"address"},{"name":"poolManager_","type":"address","internalType":"address"}],"stateMutability":"nonpayable"},{"type":"function","name":"BASIS_POINTS","inputs":[],"outputs":[{"name":"","type":"uint256","internalType":"uint256"}],"stateMutability":"view"},{"type":"function","name":"MAX_LP_POSITIONS","inputs":[],"outputs":[{"name":"","type":"uint256","internalType":"uint256"}],"stateMutability":"view"},{"type":"function","name":"MAX_REWARD_PARTICIPANTS","inputs":[],"outputs":[{"name":"","type":"uint256","internalType":"uint256"}],"stateMutability":"view"},{"type":"function","name":"collectRewards","inputs":[{"name":"token","type":"address","internalType":"address"}],"outputs":[],"stateMutability":"nonpayable"},{"type":"function","name":"collectRewardsWithoutUnlock","inputs":[{"name":"token","type":"address","internalType":"address"}],"outputs":[],"stateMutability":"nonpayable"},{"type":"function","name":"factory","inputs":[],"outputs":[{"name":"","type":"address","internalType":"address"}],"stateMutability":"view"},{"type":"function","name":"feeLocker","inputs":[],"outputs":[{"name":"","type":"address","internalType":"contract IHoodMarketsFeeLocker"}],"stateMutability":"view"},{"type":"function","name":"feePreferences","inputs":[{"name":"token","type":"address","internalType":"address"},{"name":"","type":"uint256","internalType":"uint256"}],"outputs":[{"name":"feePreference","type":"uint8","internalType":"enum IHoodMarketsLpLockerFeeConversion.FeeIn"}],"stateMutability":"view"},{"type":"function","name":"onERC721Received","inputs":[{"name":"","type":"address","internalType":"address"},{"name":"from","type":"address","internalType":"address"},{"name":"id","type":"uint256","internalType":"uint256"},{"name":"","type":"bytes","internalType":"bytes"}],"outputs":[{"name":"","type":"bytes4","internalType":"bytes4"}],"stateMutability":"nonpayable"},{"type":"function","name":"owner","inputs":[],"outputs":[{"name":"","type":"address","internalType":"address"}],"stateMutability":"view"},{"type":"function","name":"permit2","inputs":[],"outputs":[{"name":"","type":"address","internalType":"contract IPermit2"}],"stateMutability":"view"},{"type":"function","name":"placeLiquidity","inputs":[{"name":"lockerConfig","type":"tuple","internalType":"struct ILiquid.LockerConfig","components":[{"name":"locker","type":"address","internalType":"address"},{"name":"rewardAdmins","type":"address[]","internalType":"address[]"},{"name":"rewardRecipients","type":"address[]","internalType":"address[]"},{"name":"rewardBps","type":"uint16[]","internalType":"uint16[]"},{"name":"tickLower","type":"int24[]","internalType":"int24[]"},{"name":"tickUpper","type":"int24[]","internalType":"int24[]"},{"name":"positionBps","type":"uint16[]","internalType":"uint16[]"},{"name":"lockerData","type":"bytes","internalType":"bytes"}]},{"name":"poolConfig","type":"tuple","internalType":"struct ILiquid.PoolConfig","components":[{"name":"hook","type":"address","internalType":"address"},{"name":"pairedToken","type":"address","internalType":"address"},{"name":"tickIfToken0IsLiquid","type":"int24","internalType":"int24"},{"name":"tickSpacing","type":"int24","internalType":"int24"},{"name":"poolData","type":"bytes","internalType":"bytes"}]},{"name":"poolKey","type":"tuple","internalType":"struct PoolKey","components":[{"name":"currency0","type":"address","internalType":"Currency"},{"name":"currency1","type":"address","internalType":"Currency"},{"name":"fee","type":"uint24","internalType":"uint24"},{"name":"tickSpacing","type":"int24","internalType":"int24"},{"name":"hooks","type":"address","internalType":"contract IHooks"}]},{"name":"poolSupply","type":"uint256","internalType":"uint256"},{"name":"token","type":"address","internalType":"address"}],"outputs":[{"name":"positionId","type":"uint256","internalType":"uint256"}],"stateMutability":"nonpayable"},{"type":"function","name":"poolManager","inputs":[],"outputs":[{"name":"","type":"address","internalType":"contract IPoolManager"}],"stateMutability":"view"},{"type":"function","name":"positionManager","inputs":[],"outputs":[{"name":"","type":"address","internalType":"contract IPositionManager"}],"stateMutability":"view"},{"type":"function","name":"renounceOwnership","inputs":[],"outputs":[],"stateMutability":"nonpayable"},{"type":"function","name":"supportsInterface","inputs":[{"name":"interfaceId","type":"bytes4","internalType":"bytes4"}],"outputs":[{"name":"","type":"bool","internalType":"bool"}],"stateMutability":"pure"},{"type":"function","name":"tokenRewards","inputs":[{"name":"token","type":"address","internalType":"address"}],"outputs":[{"name":"","type":"tuple","internalType":"struct ILiquidLpLocker.TokenRewardInfo","components":[{"name":"token","type":"address","internalType":"address"},{"name":"poolKey","type":"tuple","internalType":"struct PoolKey","components":[{"name":"currency0","type":"address","internalType":"Currency"},{"name":"currency1","type":"address","internalType":"Currency"},{"name":"fee","type":"uint24","internalType":"uint24"},{"name":"tickSpacing","type":"int24","internalType":"int24"},{"name":"hooks","type":"address","internalType":"contract IHooks"}]},{"name":"positionId","type":"uint256","internalType":"uint256"},{"name":"numPositions","type":"uint256","internalType":"uint256"},{"name":"rewardBps","type":"uint16[]","internalType":"uint16[]"},{"name":"rewardAdmins","type":"address[]","internalType":"address[]"},{"name":"rewardRecipients","type":"address[]","internalType":"address[]"}]}],"stateMutability":"view"},{"type":"function","name":"transferOwnership","inputs":[{"name":"newOwner","type":"address","internalType":"address"}],"outputs":[],"stateMutability":"nonpayable"},{"type":"function","name":"universalRouter","inputs":[],"outputs":[{"name":"","type":"address","internalType":"contract IUniversalRouter"}],"stateMutability":"view"},{"type":"function","name":"updateFeePreference","inputs":[{"name":"token","type":"address","internalType":"address"},{"name":"rewardIndex","type":"uint256","internalType":"uint256"},{"name":"newFeePreference","type":"uint8","internalType":"enum IHoodMarketsLpLockerFeeConversion.FeeIn"}],"outputs":[],"stateMutability":"nonpayable"},{"type":"function","name":"updateRewardAdmin","inputs":[{"name":"token","type":"address","internalType":"address"},{"name":"rewardIndex","type":"uint256","internalType":"uint256"},{"name":"newAdmin","type":"address","internalType":"address"}],"outputs":[],"stateMutability":"nonpayable"},{"type":"function","name":"updateRewardRecipient","inputs":[{"name":"token","type":"address","internalType":"address"},{"name":"rewardIndex","type":"uint256","internalType":"uint256"},{"name":"newRecipient","type":"address","internalType":"address"}],"outputs":[],"stateMutability":"nonpayable"},{"type":"function","name":"version","inputs":[],"outputs":[{"name":"","type":"string","internalType":"string"}],"stateMutability":"view"},{"type":"function","name":"withdrawERC20","inputs":[{"name":"token","type":"address","internalType":"address"},{"name":"recipient","type":"address","internalType":"address"}],"outputs":[],"stateMutability":"nonpayable"},{"type":"function","name":"withdrawETH","inputs":[{"name":"recipient","type":"address","internalType":"address"}],"outputs":[],"stateMutability":"nonpayable"},{"type":"event","name":"ClaimedRewards","inputs":[{"name":"token","type":"address","indexed":true,"internalType":"address"},{"name":"amount0","type":"uint256","indexed":false,"internalType":"uint256"},{"name":"amount1","type":"uint256","indexed":false,"internalType":"uint256"},{"name":"rewards0","type":"uint256[]","indexed":false,"internalType":"uint256[]"},{"name":"rewards1","type":"uint256[]","indexed":false,"internalType":"uint256[]"}],"anonymous":false},{"type":"event","name":"FeePreferenceUpdated","inputs":[{"name":"token","type":"address","indexed":true,"internalType":"address"},{"name":"rewardIndex","type":"uint256","indexed":true,"internalType":"uint256"},{"name":"oldFeePreference","type":"uint8","indexed":false,"internalType":"enum IHoodMarketsLpLockerFeeConversion.FeeIn"},{"name":"newFeePreference","type":"uint8","indexed":true,"internalType":"enum IHoodMarketsLpLockerFeeConversion.FeeIn"}],"anonymous":false},{"type":"event","name":"FeesSwapped","inputs":[{"name":"token","type":"address","indexed":true,"internalType":"address"},{"name":"rewardToken","type":"address","indexed":true,"internalType":"address"},{"name":"amountSwapped","type":"uint256","indexed":false,"internalType":"uint256"},{"name":"swappedToken","type":"address","indexed":true,"internalType":"address"},{"name":"amountOut","type":"uint256","indexed":false,"internalType":"uint256"}],"anonymous":false},{"type":"event","name":"InitialFeePreferences","inputs":[{"name":"token","type":"address","indexed":true,"internalType":"address"},{"name":"feePreference","type":"uint8[]","indexed":false,"internalType":"enum IHoodMarketsLpLockerFeeConversion.FeeIn[]"}],"anonymous":false},{"type":"event","name":"OwnershipTransferred","inputs":[{"name":"previousOwner","type":"address","indexed":true,"internalType":"address"},{"name":"newOwner","type":"address","indexed":true,"internalType":"address"}],"anonymous":false},{"type":"event","name":"Received","inputs":[{"name":"from","type":"address","indexed":true,"internalType":"address"},{"name":"positionId","type":"uint256","indexed":false,"internalType":"uint256"}],"anonymous":false},{"type":"event","name":"RewardAdminUpdated","inputs":[{"name":"token","type":"address","indexed":true,"internalType":"address"},{"name":"rewardIndex","type":"uint256","indexed":true,"internalType":"uint256"},{"name":"oldAdmin","type":"address","indexed":false,"internalType":"address"},{"name":"newAdmin","type":"address","indexed":false,"internalType":"address"}],"anonymous":false},{"type":"event","name":"RewardRecipientUpdated","inputs":[{"name":"token","type":"address","indexed":true,"internalType":"address"},{"name":"rewardIndex","type":"uint256","indexed":true,"internalType":"uint256"},{"name":"oldRecipient","type":"address","indexed":false,"internalType":"address"},{"name":"newRecipient","type":"address","indexed":false,"internalType":"address"}],"anonymous":false},{"type":"event","name":"TokenRewardAdded","inputs":[{"name":"token","type":"address","indexed":false,"internalType":"address"},{"name":"poolKey","type":"tuple","indexed":false,"internalType":"struct PoolKey","components":[{"name":"currency0","type":"address","internalType":"Currency"},{"name":"currency1","type":"address","internalType":"Currency"},{"name":"fee","type":"uint24","internalType":"uint24"},{"name":"tickSpacing","type":"int24","internalType":"int24"},{"name":"hooks","type":"address","internalType":"contract IHooks"}]},{"name":"poolSupply","type":"uint256","indexed":false,"internalType":"uint256"},{"name":"positionId","type":"uint256","indexed":false,"internalType":"uint256"},{"name":"numPositions","type":"uint256","indexed":false,"internalType":"uint256"},{"name":"rewardBps","type":"uint16[]","indexed":false,"internalType":"uint16[]"},{"name":"rewardAdmins","type":"address[]","indexed":false,"internalType":"address[]"},{"name":"rewardRecipients","type":"address[]","indexed":false,"internalType":"address[]"},{"name":"tickLower","type":"int24[]","indexed":false,"internalType":"int24[]"},{"name":"tickUpper","type":"int24[]","indexed":false,"internalType":"int24[]"},{"name":"positionBps","type":"uint16[]","indexed":false,"internalType":"uint16[]"}],"anonymous":false},{"type":"error","name":"InvalidPositionBps","inputs":[]},{"type":"error","name":"InvalidRewardBps","inputs":[]},{"type":"error","name":"MismatchedPositionInfos","inputs":[]},{"type":"error","name":"MismatchedRewardArrays","inputs":[]},{"type":"error","name":"NoPositions","inputs":[]},{"type":"error","name":"NoRewardRecipients","inputs":[]},{"type":"error","name":"OwnableInvalidOwner","inputs":[{"name":"owner","type":"address","internalType":"address"}]},{"type":"error","name":"OwnableUnauthorizedAccount","inputs":[{"name":"account","type":"address","internalType":"address"}]},{"type":"error","name":"ReentrancyGuardReentrantCall","inputs":[]},{"type":"error","name":"SafeERC20FailedOperation","inputs":[{"name":"token","type":"address","internalType":"address"}]},{"type":"error","name":"TickRangeLowerThanStartingTick","inputs":[]},{"type":"error","name":"TicksBackwards","inputs":[]},{"type":"error","name":"TicksNotMultipleOfTickSpacing","inputs":[]},{"type":"error","name":"TicksOutOfTickBounds","inputs":[]},{"type":"error","name":"TokenAlreadyHasRewards","inputs":[]},{"type":"error","name":"TooManyPositions","inputs":[]},{"type":"error","name":"TooManyRewardParticipants","inputs":[]},{"type":"error","name":"Unauthorized","inputs":[]},{"type":"error","name":"ZeroRewardAddress","inputs":[]},{"type":"error","name":"ZeroRewardAmount","inputs":[]}],"bytecode":{"object":"0x6101403461020f57601f61620d38819003918201601f19168301916001600160401b038311848410176102135780849260e09460405283398101031261020f5761004881610227565b61005460208301610227565b9161006160408201610227565b61006d60608301610227565b61007960808401610227565b9161009260c061008b60a08701610227565b9501610227565b60015f556001600160a01b039095169586156101fc57600180546001600160a01b03198116891790915560405197906001600160a01b03167f8be0079c531659141344cd1fd0a4f28419497f9722a3daafe3b4186f6b6457e05f80a3610120526001600160a01b0390811660e05290811660805290811660c052908116610100521660a052615fd1908161023c8239608051818181610c8f01528181610cfc01528181610d4d01528181610da101528181611a0c01528181612a9f01526133c3015260a0518181816116290152614225015260c051818181610c0e015281816121840152614ba2015260e051818181611aab015281816143d601528181614478015281816144df0152818161463e015281816146a401528181614dc701528181614e1601528181614e7c01528181614f6901528181614fb7015261501e015261010051818181611bb40152614bd5015261012051818181610468015281816116ce015261210b0152f35b631e4fbdf760e01b5f525f60045260245ffd5b5f80fd5b634e487b7160e01b5f52604160045260245ffd5b51906001600160a01b038216820361020f5756fe6101606040526004361015610012575f80fd5b5f5f3560e01c80630150a9861461220857806301ffc9a7146121b357806312261ee71461216f57806314a7f40314611b9a578063150b7a02146120a157806330bd3eeb14611be357806335a9e4df14611b9f57806352db242f14611b9a57806354fd4d5014611b535780635763dbd014611b32578063690d832014611ada57806370e9d24414611a96578063715018a614611a3b578063791b98bc146119f757806386b0c83f146119d45780638d4637bd146118e85780638da5cb5b146118c0578063911573b3146117e45780639456fbcc146116fd578063c45a0155146116b9578063da37c91514611658578063dc4c90d314611614578063e1f1c4a7146115f8578063ea289263146101b95763f2fde38b1461012e575f80fd5b346101b65760203660031901126101b657610147612287565b61014f6139df565b6001600160a01b031680156101a257600180546001600160a01b0319811683179091556001600160a01b03167f8be0079c531659141344cd1fd0a4f28419497f9722a3daafe3b4186f6b6457e08380a380f35b631e4fbdf760e01b82526004829052602482fd5b80fd5b503461146e5761012036600319011261146e576004356001600160401b03811161146e57610100600319823603011261146e576040519161010083018381106001600160401b038211176115d657604052610216826004016122b3565b835260248201356001600160401b03811161146e5761023b9060043691850101612480565b602084015260448201356001600160401b03811161146e576102639060043691850101612480565b6040840190815260648301356001600160401b03811161146e5761028d90600436918601016124e5565b926060850193845260848101356001600160401b03811161146e576102b8906004369184010161255c565b608086015260a48101356001600160401b03811161146e576102e0906004369184010161255c565b60a086015260c48101356001600160401b03811161146e5761030890600436918401016124e5565b60c086015260e4810135906001600160401b03821161146e57600461033092369201016125c1565b9360e081019485526024356001600160401b03811161146e5760a0600319823603011261146e5760405190610364826123b6565b610370816004016122b3565b825261037e602482016122b3565b602083015261038f6044820161254e565b60408301526103a06064820161254e565b60608301526084810135906001600160401b03821161146e5760046103c892369201016125c1565b608082015260a036604319011261146e57604051916103e6836123b6565b6044356001600160a01b038116810361146e5783526064356001600160a01b038116810361146e57602084015260843562ffffff8116810361146e57604084015260a4358060020b810361146e57606084015260c4356001600160a01b038116810361146e57608084015261010435966001600160a01b038816880361146e577f00000000000000000000000000000000000000000000000000000000000000006001600160a01b031633036115ea5761049e613a06565b51918251830194602086019360208188031261146e576020810151906001600160401b03821161146e5701956020908790031261146e5760405195602087018781106001600160401b038211176115d65760405260208101516001600160401b03811161146e5760209101019584601f8801121561146e5786519661052288612469565b9561053060405197886123d1565b88875260208701916020839a60051b82010191821161146e579060208894939201915b8183106115b457505050526001600160a01b0389165f908152600260205260409020600401546115a55760808301515197519060208401519051916040519961059b8b61239b565b60018060a01b038c168b528760208c01525f60408c015260608b01528060808b01528160a08b01528260c08b0152519051811491821592611599575b50811561158d575b5061157e5760076080880151511161156f5760808701515115611560575f95865b6080890151805189101561066f5761ffff61061c8a82936126fe565b511691160161ffff811161065b579661ffff61063c8260808c01516126fe565b51161561064c5760010196610600565b63ea1083a760e01b5f5260045ffd5b634e487b7160e01b5f52601160045260245ffd5b5088959661271061ffff8c931603611551575f5b6080880151518110156106f05760a08801516001600160a01b03906106a99083906126fe565b51161580156106ce575b6106bf57600101610683565b63111164f760e21b5f5260045ffd5b5060c08801516001600160a01b03906106e89083906126fe565b5116156106b3565b506040516323b872dd60e01b815233600482015230602482015260e435604482015288906020816064815f6001600160a01b0389165af1801561149a57611534575b5060808601515160a087015151811490811591611524575b506115155760808601515115611506576007608087015151116114f7575f97885b608088015180518b10156108af578a610783916126fe565b5160020b6107958b60a08b01516126fe565b5160020b126108a057620d89e7196107b18b60808b01516126fe565b5160020b128015610883575b610874576107e46107d28b60808b01516126fe565b5160020b606089015160020b90613a24565b60020b15801590610858575b610849576108028a60808a01516126fe565b5160020b604088015160020b1361083a5761083260019161ffff61082a8d60c08d01516126fe565b5116906127f2565b99019861076b565b635bf462df60e11b5f5260045ffd5b634e3cdd9360e11b5f5260045ffd5b5061086a6107d28b60a08b01516126fe565b60020b15156107f0565b63bae2833560e01b5f5260045ffd5b50620d89e86108968b60a08b01516126fe565b5160020b136107bd565b6365ebf18760e01b5f5260045ffd5b508887966127108a93036114e85760208801516080840151516001600160a01b039182169189169190911094906001810190811061065b576108f090613a4a565b96606099865f146114d2576040015160020b935b5f9a5b6080870151518c1015610b7957602061094660018093836040519485928051918291018385015e8201018260f91b81520301601f1981018352826123d1565b9b610a60610aaa8b610a9c8c8c8c6001600160801b0361271061097d61ffff6109738c60c08801516126fe565b511660e43561272a565b04918415610b7257825b8515610b6c57505f935b8515610b55576109a58b60808301516126fe565b5160020b905b8b8715610b355760a06109bf9201516126fe565b5160020b905b8615610b2e5780965b15610b265750905b836109e0876159c3565b916109f36109ed856159c3565b916159c3565b9281816001600160a01b0380831690821611610b1b575b505060a08f901b8f900384169388906001600160a01b0383168611610ac7575050610a359350615ded565b905b6040519530602088015260208752610a506040886123d1565b6040519a8b9960208b019061231c565b60020b60c089015260020b60e08801521661010086015261012085015261014084015230610160840152610180808401526101a08301906123f2565b03601f1981018352826123d1565b610ab4828d6126fe565b52610abf818c6126fe565b50019a610907565b919490939192906001600160a01b0382161115610b0f578291610aee91610af49594615ded565b93615db3565b8084168285161015610b0857505b90610a37565b9050610b02565b915050610b0292615db3565b925090505f80610a0a565b9050906109d6565b81966109ce565b610b469060a0610b4f9301516126fe565b5160020b613a93565b906109c5565b610b66610b468c60808401516126fe565b906109ab565b93610991565b5f92610987565b60209694955089610bfe8a610bb560018f958c6040519d8e928051918291018385015e820101600d60f81b81520301601f1981018c528b6123d1565b8051602091820151604080516001600160a01b03938416948101949094529116828201528152610be66060826123d1565b60808801515190610bf782856126fe565b52826126fe565b5060405163095ea7b360e01b81527f00000000000000000000000000000000000000000000000000000000000000006001600160a01b03166004820181905260e435602483015290602081806044810103815f6001600160a01b0389165af1801561149a576114a5575b50803b1561146e576040516387517c4560e01b81526001600160a01b0384811660048301527f00000000000000000000000000000000000000000000000000000000000000008116602483015260e4351660448201524265ffffffffffff166064820152905f908290608490829084905af1801561149a57611485575b50604051631d5e528f60e21b8152976020896004817f00000000000000000000000000000000000000000000000000000000000000006001600160a01b03165afa98891561147a578899611440575b50610d4b90610a9c60405193849260208401613b31565b7f00000000000000000000000000000000000000000000000000000000000000006001600160a01b03163b1561143c5786610d9c916040518093819263dd46508f60e01b8352429060048401613b59565b0381837f00000000000000000000000000000000000000000000000000000000000000006001600160a01b03165af1801561143157908791611418575b505060408481018881526001600160a01b03838116895260026020818152848b20895181549085166001600160a01b0319918216178255828b015180516001840180549188169184169190911790559283015193820180549784015160608086015160b81b62ffffff60b81b1662ffffff60a01b60a09390931b929092169688166001600160d01b0319909a169990991795909517949094179093556080918201516003820180549190951693169290921790925591516004830155918601516005820155908501518051906001600160401b0382116112e257600160401b82116112e25760209060068401548360068601558084106113c0575b5001906006830189526020892090895b8160041c81106113805750600f198116810380611330575b5050505060a08501518051906001600160401b0382116112e257600160401b82116112e2576020906007840154836007860155808410611313575b500160078301895260208920895b8381106112f6575050505060c0850151908151916001600160401b0383116112e257600160401b83116112e25760206008918a838501548685870155868181106112c5575b505050019101885260208820885b8381106112a857505050506001600160a01b038116865260036020526040862082516001600160401b03811161129457600160401b8111611294578154818355808210611242575b50849188526020882090885b8160051c81106111f55750601f1981169283820361118b575b505050506040519160208301906020845251809152604083019390875b81811061116c575050506001600160a01b0316917fbaec34d3ecbf576ff529cb3cb8de8cbe0f27bb44d90d526a5c1ff0cd4b994636919081900390a2600160a01b600190038151169060208101519260408201519160608101519060808101519060a08101519060c001519160808501519360a08601519560c0015196604051998a998a5260208a016110b49161231c565b60e43560c08a015260e089015261010088015261012087016101e090526101e087016110df91612753565b8681036101408801526110f19161235f565b8581036101608701526111039161235f565b8481036101808601526111159161278a565b8381036101a08501526111279161278a565b8281036101c084015261113991612753565b037fc9b03d1b68674b3ca5738b69c14e4dbcfcb7f474303edd540b1d7dfa785d27ff91a160019055604051908152602090f35b909194602080826111806001948a51612448565b019601929101611022565b89938a905b80840382106111aa5750505060051c015587808080611005565b90919485519060038210156111e1576111d7600192856020939060ff809160031b9316831b921b19161790565b9601920190611190565b634e487b7160e01b8d52602160045260248dfd5b898a5b6020811061120d575083820155600101610fec565b949081519060038210156111e157611239600192886020939060ff809160031b9316831b921b19161790565b920195016111f8565b61126d90838a5260208a20601f80850160051c82019281861680611273575b500160051c019061273d565b89610fe0565b61128e905f198601908154905f199060200360031b1c169055565b8e611261565b634e487b7160e01b88526041600452602488fd5b82516001600160a01b031681830155602090920191600101610f98565b846112da93878901815220918201910161273d565b8a8d86610f8a565b634e487b7160e01b89526041600452602489fd5b82516001600160a01b031681830155602090920191600101610f45565b600785018b52828b2061132a91810190850161273d565b8b610f37565b928a938b5b81811061134d5750505060041c015588808080610efc565b909194602061137660019261ffff8951169085851b61ffff809160031b9316831b921b19161790565b9601929101611335565b8a8b5b60108110611398575083820155600101610ee4565b855190959160019160209161ffff60048a901b81811b199092169216901b1792019501611383565b6113f190600686018c52838c20600f80870160041c820192601e8860011b16806113f7575b500160041c019061273d565b8b610ed4565b611412905f198601908154905f199060200360031b1c169055565b5f6113e5565b81611422916123d1565b61142d578588610dd9565b8580fd5b6040513d89823e3d90fd5b8680fd5b9098506020813d602011611472575b8161145c602093836123d1565b8101031261146e575197610d4b610d34565b5f80fd5b3d915061144f565b6040513d8a823e3d90fd5b6114929197505f906123d1565b5f9588610ce5565b6040513d5f823e3d90fd5b6114c69060203d6020116114cb575b6114be81836123d1565b810190612712565b610c68565b503d6114b4565b60406114e291015160020b613a93565b93610904565b63d255d1bb60e01b5f5260045ffd5b634218d0ad60e11b5f5260045ffd5b63f1efabcb60e01b5f5260045ffd5b633f3ae3b360e21b5f5260045ffd5b905060c08701515114158961074a565b61154c9060203d6020116114cb576114be81836123d1565b610732565b630fe92ddb60e31b5f5260045ffd5b6303e7949960e41b5f5260045ffd5b63dee5eac160e01b5f5260045ffd5b632cf89f5360e21b5f5260045ffd5b9050835114155f6105df565b5181141591505f6105d7565b63733f8bf560e11b5f5260045ffd5b90918093945051600381101561146e5781528793926020908101929101610553565b634e487b7160e01b5f52604160045260245ffd5b6282b42960e81b5f5260045ffd5b3461146e575f36600319011261146e5760206040516127108152f35b3461146e575f36600319011261146e576040517f00000000000000000000000000000000000000000000000000000000000000006001600160a01b03168152602090f35b3461146e57604036600319011261146e57611671612287565b6001600160a01b03165f90815260036020526040902080546024359081101561146e576116a260ff91602093612416565b90549060031b1c166116b76040518092612448565bf35b3461146e575f36600319011261146e576040517f00000000000000000000000000000000000000000000000000000000000000006001600160a01b03168152602090f35b3461146e57604036600319011261146e57611716612287565b61171e61229d565b906117276139df565b61172f613a06565b6040516370a0823160e01b8152306004820152906001600160a01b0316602082602481845afa91821561149a575f926117ac575b5060405163a9059cbb60e01b60208201526001600160a01b039390931660248401526044808401929092529082526117a691906117a16064836123d1565b61596b565b60015f55005b9291506020833d6020116117dc575b816117c8602093836123d1565b8101031261146e57915190916117a1611763565b3d91506117bb565b3461146e576117f2366122c7565b909160018060a01b031690815f52600260205260405f20906118178460078401612616565b905460039190911b1c6001600160a01b031633036115ea5760087f189a28a3be2ec38788a4a7ff2146b2d9f4f852de2353c9287fed2564845a05d892016118a28261187e876118668186612616565b905460039190911b1c6001600160a01b031694612616565b81546001600160a01b0393841660039290921b91821b9390911b1916919091179055565b604080516001600160a01b03928316815292909116602083015290a3005b3461146e575f36600319011261146e576001546040516001600160a01b039091168152602090f35b3461146e57606036600319011261146e57611901612287565b60243560443591600383101561146e576001600160a01b03165f818152600260205260409020611935908390600701612616565b905460039190911b1c6001600160a01b031633036115ea57805f5260036020527fbdea11477c14b070d2aa993c843410d81a6b8672d5175d1742df11a3c2f9ae25602060ff6119878560405f20612416565b90549060031b1c16835f5260038252856119c26119a78760405f20612416565b5f9391935083549060ff809160031b9316831b921b19161790565b90556119d16040518092612448565ba4005b3461146e57602036600319011261146e576119f56119f0612287565b613163565b005b3461146e575f36600319011261146e576040517f00000000000000000000000000000000000000000000000000000000000000006001600160a01b03168152602090f35b3461146e575f36600319011261146e57611a536139df565b600180546001600160a01b031981169091555f906001600160a01b03167f8be0079c531659141344cd1fd0a4f28419497f9722a3daafe3b4186f6b6457e08280a3005b3461146e575f36600319011261146e576040517f00000000000000000000000000000000000000000000000000000000000000006001600160a01b03168152602090f35b3461146e57602036600319011261146e575f808080611af7612287565b611aff6139df565b611b07613a06565b479082908215611b28575b6001600160a01b031690f11561149a5760015f55005b6108fc9150611b12565b3461146e57602036600319011261146e576119f5611b4e612287565b612832565b3461146e575f36600319011261146e57611b96604051611b746040826123d1565b60018152603160f81b60208201526040519182916020835260208301906123f2565b0390f35b612301565b3461146e575f36600319011261146e576040517f00000000000000000000000000000000000000000000000000000000000000006001600160a01b03168152602090f35b3461146e57602036600319011261146e57611bfc612287565b606060c0604051611c0c8161239b565b5f8152604051611c1b816123b6565b5f81525f60208201525f60408201525f848201525f608082015260208201525f60408201525f838201528260808201528260a0820152015260018060a01b03165f52600260205260405f2060405190611c738261239b565b80546001600160a01b03168252611c8c6001820161262b565b9160208101928352600482015491604082019283526005810154606083019081526006820190604051808360208295549384815201905f5260205f20925f905b80600f830110611fb957611d6f945491818110611fa4575b818110611f8c575b818110611f75575b818110611f5d575b818110611f45575b818110611f2d575b818110611f15575b818110611efd575b818110611ee5575b818110611ecd575b818110611eb5575b818110611e9d575b818110611e85575b818110611e6d575b818110611e55575b10611e47575b5093611dc798979695949392919303836123d1565b60808401918252611d956008611d876007860161267e565b9460a087019586520161267e565b9460c085019586526040519788976020895261018089019660018060a01b0390511660208a015251604089019061231c565b5160e0870152516101008601525191610160610120860152825180915260206101a086019301905f5b818110611e2a57505050611b969291611e169151601f198683030161014087015261235f565b9051838203601f190161016085015261235f565b825161ffff16855287965060209485019490920191600101611df0565b60f01c815260200189611d5a565b92602060019161ffff8560e01c168152019301611d54565b92602060019161ffff8560d01c168152019301611d4c565b92602060019161ffff8560c01c168152019301611d44565b92602060019161ffff8560b01c168152019301611d3c565b92602060019161ffff8560a01c168152019301611d34565b92602060019161ffff8560901c168152019301611d2c565b92602060019161ffff8560801c168152019301611d24565b92602060019161ffff8560701c168152019301611d1c565b92602060019161ffff8560601c168152019301611d14565b92602060019161ffff8560501c168152019301611d0c565b92602060019161ffff8560401c168152019301611d04565b92602060019161ffff8560301c168152019301611cfc565b92602060019161ffff85831c168152019301611cf4565b92602060019161ffff8560101c168152019301611cec565b92602060019161ffff85168152019301611ce4565b916010919350610200600191865461ffff8116825261ffff81861c16602083015261ffff8160201c16604083015261ffff8160301c16606083015261ffff8160401c16608083015261ffff8160501c1660a083015261ffff8160601c1660c083015261ffff8160701c1660e083015261ffff8160801c1661010083015261ffff8160901c1661012083015261ffff8160a01c1661014083015261ffff8160b01c1661016083015261ffff8160c01c1661018083015261ffff8160d01c166101a083015261ffff8160e01c166101c083015260f01c6101e0820152019401920185929391611ccc565b3461146e57608036600319011261146e576120ba612287565b506120c361229d565b6064356001600160401b03811161146e573660238201121561146e5780600401356001600160401b03811161146e573691016024011161146e576001600160a01b03908116907f00000000000000000000000000000000000000000000000000000000000000001681036115ea577f88a5966d370b9919b20f3e2c13ff65706f196a4e32cc2c12bf57088f8852587460206040516044358152a2604051630a85bd0160e11b8152602090f35b3461146e575f36600319011261146e576040517f00000000000000000000000000000000000000000000000000000000000000006001600160a01b03168152602090f35b3461146e57602036600319011261146e5760043563ffffffff60e01b811680910361146e57602090630a85bd0160e11b81149081156121f8575b506040519015158152f35b622ae5db60e61b149050826121ed565b3461146e57612216366122c7565b909160018060a01b031690815f526002602052600760405f20019061223b8483612616565b905460039190911b1c6001600160a01b031633036115ea57816118a28261187e87611866817f2aad5ba8634f3d476ba298c3c089253d053106f0dd2caac6bae480ed9db420bf98612616565b600435906001600160a01b038216820361146e57565b602435906001600160a01b038216820361146e57565b35906001600160a01b038216820361146e57565b606090600319011261146e576004356001600160a01b038116810361146e5790602435906044356001600160a01b038116810361146e5790565b3461146e575f36600319011261146e57602060405160078152f35b80516001600160a01b03908116835260208083015182169084015260408083015162ffffff169084015260608083015160020b9084015260809182015116910152565b90602080835192838152019201905f5b81811061237c5750505090565b82516001600160a01b031684526020938401939092019160010161236f565b60e081019081106001600160401b038211176115d657604052565b60a081019081106001600160401b038211176115d657604052565b90601f801991011681019081106001600160401b038211176115d657604052565b805180835260209291819084018484015e5f828201840152601f01601f1916010190565b9190918054831015612434575f52601f60205f208360051c01921690565b634e487b7160e01b5f52603260045260245ffd5b9060038210156124555752565b634e487b7160e01b5f52602160045260245ffd5b6001600160401b0381116115d65760051b60200190565b9080601f8301121561146e57813561249781612469565b926124a560405194856123d1565b81845260208085019260051b82010192831161146e57602001905b8282106124cd5750505090565b602080916124da846122b3565b8152019101906124c0565b9080601f8301121561146e578135906124fd82612469565b9261250b60405194856123d1565b82845260208085019360051b82010191821161146e57602001915b8183106125335750505090565b823561ffff8116810361146e57815260209283019201612526565b35908160020b820361146e57565b9080601f8301121561146e57813561257381612469565b9261258160405194856123d1565b81845260208085019260051b82010192831161146e57602001905b8282106125a95750505090565b602080916125b68461254e565b81520191019061259c565b81601f8201121561146e578035906001600160401b0382116115d657604051926125f5601f8401601f1916602001856123d1565b8284526020838301011161146e57815f926020809301838601378301015290565b8054821015612434575f5260205f2001905f90565b90604051612638816123b6565b82546001600160a01b0390811682526001840154808216602084015260a081901c62ffffff16604084015260b81c600290810b6060840152909301549092166080830152565b90604051918281549182825260208201905f5260205f20925f5b8181106126af5750506126ad925003836123d1565b565b84546001600160a01b0316835260019485019487945060209093019201612698565b8051156124345760200190565b8051600110156124345760400190565b8051600210156124345760600190565b80518210156124345760209160051b010190565b9081602091031261146e5751801515810361146e5790565b8181029291811591840414171561065b57565b818110612748575050565b5f815560010161273d565b90602080835192838152019201905f5b8181106127705750505090565b825161ffff16845260209384019390920191600101612763565b90602080835192838152019201905f5b8181106127a75750505090565b825160020b84526020938401939092019160010161279a565b906127ca82612469565b6127d760405191826123d1565b82815280926127e8601f1991612469565b0190602036910137565b9190820180921161065b57565b90602080835192838152019201905f5b81811061281c5750505090565b825184526020938401939092019160010161280f565b60015460ff8160a01c1661315f5761284982613b75565b61315f5760ff60a01b1916600160a01b176001556001600160a01b0381165f908152600260205260409081902090516128818161239b565b81546001600160a01b0316815261289a6001830161262b565b92602082019384526004830154916040810192835260058401549260608201938452600685019460405180968791602082549182815201915f5260205f20905f915b81600f840110613077579261297c926008959261299a97955491818110613062575b81811061304a575b818110613033575b81811061301b575b818110613003575b818110612feb575b818110612fd3575b818110612fbb575b818110612fa3575b818110612f8b575b818110612f73575b818110612f5b575b818110612f43575b818110612f2b575b818110612f13575b10612f05575b5003896123d1565b6080850197885261298f6007820161267e565b60a08601520161267e565b60c08301528551905193516060906001810180821161065b576129bc90613a4a565b955f905b828210612e7e5750508251602093840151604051946001600160a01b03928316949190921692612a40929091612a0b9187916129fd918301613abf565b03601f1981018752866123d1565b60405184602082015283604082015230606082015260608152612a2f6080826123d1565b612a39828a6126fe565b52876126fe565b506040516370a0823160e01b815230600482015291602083602481845afa92831561149a575f93612e4a575b506040516370a0823160e01b815230600482015293602085602481865afa94851561149a575f95612e16575b50604051977f00000000000000000000000000000000000000000000000000000000000000006001600160a01b031691612aea918a91612adc919060208401613b31565b03601f1981018a52896123d1565b803b1561146e5760405163dd46508f60e01b8152975f918991829084908290612b1890429060048401613b59565b03925af190811561149a57602497602092612e06575b506040516370a0823160e01b815230600482015297889182905afa95861561149a575f96612dd1575b50946020602496604051978880926370a0823160e01b82523060048301525afa95861561149a575f96612d95575b50612b9a9291612b9491613d10565b94613d10565b945180516020909101518551516001600160a01b0391821697919092169591612bc2906127c0565b96612bce8351516127c0565b945f965f9881612d0a575b505082612c46575b505050505f516020615fb15f395f51905f52939291612c33612c419260ff60a01b196001541660015560018060a01b0390511696604051958695865260208601526080604086015260808501906127ff565b9083820360608501526127ff565b0390a2565b915f91612c59939a97989694999a613d2b565b9490925f965b885151881015612ce457612cdb612cd06001928c612c9b8c612c95612c84828d6126fe565b51612c8f83866126fe565b516127f2565b926126fe565b52612cb4612ca98c8c6126fe565b51612c8f8d8a6126fe565b612cbe8c896126fe565b52612cc98b896126fe565b51906127f2565b96612cc98a8a6126fe565b97019694612c5f565b91989750939550935091905081612c33612c415f516020615fb15f395f51905f52612be1565b612d20915f91849b9d969c979499989599613d2b565b9990965f985b8351518a1015612d8157612d778c9d612cc98c809e9f9d6001958f8f928f938f94612d6b83612c95612c8482612cc998612d719b612d6b83612c95612c84828d6126fe565b526126fe565b9d6126fe565b9c9b9a0198612d26565b985092959650929997909398505f80612bd9565b9095506020929192813d602011612dc9575b81612db4602093836123d1565b8101031261146e575194909190612b9a612b85565b3d9150612da7565b95506020863d602011612dfe575b81612dec602093836123d1565b8101031261146e579451946020612b57565b3d9150612ddf565b5f612e10916123d1565b5f612b2e565b9094506020813d602011612e42575b81612e32602093836123d1565b8101031261146e5751935f612a98565b3d9150612e25565b9092506020813d602011612e76575b81612e66602093836123d1565b8101031261146e5751915f612a6c565b3d9150612e59565b9092610a9c612e9860019260405192839160208301613aa6565b93612ea381846127f2565b612ee8604051915f8352612eb86020846123d1565b610a9c60405193849260208401525f60408401525f60608401525f608084015260a08084015260c08301906123f2565b612ef2828b6126fe565b52612efd818a6126fe565b5001906129c0565b60f01c81526020015f612974565b92602060019161ffff8560e01c16815201930161296e565b92602060019161ffff8560d01c168152019301612966565b92602060019161ffff8560c01c16815201930161295e565b92602060019161ffff8560b01c168152019301612956565b92602060019161ffff8560a01c16815201930161294e565b92602060019161ffff8560901c168152019301612946565b92602060019161ffff8560801c16815201930161293e565b92602060019161ffff8560701c168152019301612936565b92602060019161ffff8560601c16815201930161292e565b92602060019161ffff8560501c168152019301612926565b92602060019161ffff8560401c16815201930161291e565b92602060019161ffff8560301c168152019301612916565b92602060019161ffff85831c16815201930161290e565b92602060019161ffff8560101c168152019301612906565b92602060019161ffff851681520193016128fe565b935090916001610200601092865461ffff8116825261ffff81861c16602083015261ffff8160201c16604083015261ffff8160301c16606083015261ffff8160401c16608083015261ffff8160501c1660a083015261ffff8160601c1660c083015261ffff8160701c1660e083015261ffff8160801c1661010083015261ffff8160901c1661012083015261ffff8160a01c1661014083015261ffff8160b01c1661016083015261ffff8160c01c1661018083015261ffff8160d01c166101a083015261ffff8160e01c166101c083015260f01c6101e08201520194019201908993926128dc565b5050565b6001545f9060ff8160a01c166139da5761317c83613b75565b6139da5760ff60a01b1916600160a01b176001556001600160a01b0382165f90815260026020526040908190209051929091906131b88461239b565b82546001600160a01b031684526131d16001840161262b565b936020810194855260048401549360408201948552600581015460608301908152600682019160405180938491602082549182815201915f5260205f20905f915b81600f8401106138f257926132b292600895926132d0979554918181106138dd575b8181106138c5575b8181106138ae575b818110613896575b81811061387e575b818110613866575b81811061384e575b818110613836575b81811061381e575b818110613806575b8181106137ee575b8181106137d6575b8181106137be575b8181106137a6575b81811061378e575b10613780575b5003866123d1565b608086019485526132c56007820161267e565b60a08701520161267e565b60c08401528651955190516060906001810180821161065b576132f290613a4a565b925f905b828210613729575050906133686129fd939261333360018060a01b038b51169a602060018060a01b03910151169360405196879160208301613abf565b6040518a6020820152836040820152306060820152606081526133576080826123d1565b61336182866126fe565b52836126fe565b506040516370a0823160e01b8152306004820152916020836024818c5afa92831561149a575f936136f5575b506040516370a0823160e01b815230600482015293602085602481865afa94851561149a575f956136c1575b507f00000000000000000000000000000000000000000000000000000000000000006001600160a01b031691823b1561146e57613416925f92836040518096819582946312bf8e4f60e21b845260048401613b31565b03925af1801561149a576136a9575b50602060249798604051988980926370a0823160e01b82523060048301525afa96871561147a578897613674575b50956020602497604051988980926370a0823160e01b82523060048301525afa96871561147a578897613638575b50613496929161349091613d10565b95613d10565b955180516020909101518251516001600160a01b03918216989190921696916134be906127c0565b976134ca8451516127c0565b9583978499816135a4575b505082613534575b50506001805460ff60a01b191690555050905160408051948552602085019590955260809484018590526001600160a01b0316945f516020615fb15f395f51905f52948493612c41935091612c33918501906127ff565b9160019161354a939b9496989997959a9b613d2b565b959093965b88515188101561357d57613574612cd06001928c612c9b8c612c95612c84828d6126fe565b9701969461354f565b91989750939550935091905081612c33612c415f516020615fb15f395f51905f525f6134dd565b6135bc91600191849d9997959e9896949c9b9c613d2b565b9b9098839a5b8551518c10156136245761361289989796959493928f9c9b9a8e61360c8f958f8f818591612d6b83612c95612c848260019f612cc99d612d6b83612c95612c8482612cc99f6126fe565b9e6126fe565b9b019a909192939495969798996135c2565b99509950919395999092949a505f806134d5565b9096506020929192813d60201161366c575b81613657602093836123d1565b8101031261146e575195909190613496613481565b3d915061364a565b96506020873d6020116136a1575b8161368f602093836123d1565b8101031261146e579551956020613453565b3d9150613682565b602497505f6136b7916123d1565b60205f9750613425565b9094506020813d6020116136ed575b816136dd602093836123d1565b8101031261146e5751935f6133c0565b3d91506136d0565b9092506020813d602011613721575b81613711602093836123d1565b8101031261146e5751915f613394565b3d9150613704565b9092610a9c61374360019260405192839160208301613aa6565b9361374e81846127f2565b613763604051915f8352612eb86020846123d1565b61376d82886126fe565b5261377881876126fe565b5001906132f6565b60f01c81526020015f6132aa565b92602060019161ffff8560e01c1681520193016132a4565b92602060019161ffff8560d01c16815201930161329c565b92602060019161ffff8560c01c168152019301613294565b92602060019161ffff8560b01c16815201930161328c565b92602060019161ffff8560a01c168152019301613284565b92602060019161ffff8560901c16815201930161327c565b92602060019161ffff8560801c168152019301613274565b92602060019161ffff8560701c16815201930161326c565b92602060019161ffff8560601c168152019301613264565b92602060019161ffff8560501c16815201930161325c565b92602060019161ffff8560401c168152019301613254565b92602060019161ffff8560301c16815201930161324c565b92602060019161ffff85831c168152019301613244565b92602060019161ffff8560101c16815201930161323c565b92602060019161ffff85168152019301613234565b935090916001610200601092865461ffff8116825261ffff81861c16602083015261ffff8160201c16604083015261ffff8160301c16606083015261ffff8160401c16608083015261ffff8160501c1660a083015261ffff8160601c1660c083015261ffff8160701c1660e083015261ffff8160801c1661010083015261ffff8160901c1661012083015261ffff8160a01c1661014083015261ffff8160b01c1661016083015261ffff8160c01c1661018083015261ffff8160d01c166101a083015261ffff8160e01c166101c083015260f01c6101e0820152019401920190869392613212565b505050565b6001546001600160a01b031633036139f357565b63118cdaa760e01b5f523360045260245ffd5b60025f5414613a155760025f55565b633ee5aeb560e01b5f5260045ffd5b9060020b908115613a365760020b0790565b634e487b7160e01b5f52601260045260245ffd5b90613a5482612469565b613a6160405191826123d1565b8281528092613a72601f1991612469565b01905f5b828110613a8257505050565b806060602080938501015201613a76565b60020b627fffff19811461065b575f0390565b602090600192805192839101825e018160f81b81520190565b602090600192805192839101825e01601160f81b81520190565b9080602083519182815201916020808360051b8301019401925f915b838310613b0457505050505090565b9091929394602080613b22600193601f1986820301875289516123f2565b97019301930191939290613af5565b9091613b48613b56936040845260408401906123f2565b916020818403910152613ad9565b90565b929190613b706020916040865260408601906123f2565b930152565b6001600160a01b03165f81815260026020526040902060a090613b9a9060010161262b565b2090805f5260026020526024602060018060a01b03600360405f2001541660405192838092632b887e0f60e01b82528760048301525afa90811561149a575f91613cf1575b5015613ceb57805f526002602052602060018060a01b03600360405f200154169260246040518095819363ee4d96cf60e01b835260048301525afa90811561149a575f91613cb6575b600492505f526002602052602060018060a01b03600360405f200154166040519384809263ccc8dc4360e01b82525afa90811561149a575f91613c80575b613c7092506127f2565b421015613c7c57600190565b5f90565b90506020823d602011613cae575b81613c9b602093836123d1565b8101031261146e57613c70915190613c66565b3d9150613c8e565b90506020823d602011613ce3575b81613cd1602093836123d1565b8101031261146e576004915190613c28565b3d9150613cc4565b50505f90565b613d0a915060203d6020116114cb576114be81836123d1565b5f613bdf565b9190820391821161065b57565b5f19811461065b5760010190565b909392916101205260018060a01b0381165f52600260205260405f209260405193613d558561239b565b80546001600160a01b03168552613d6e6001820161262b565b60208601526004810154604086015260058101546060860152600681016040519081602082549182815201915f5260205f20905f915b81600f8401106158895793613e6195938193613e45936008975491818110615874575b81811061585c575b818110615845575b81811061582d575b818110615815575b8181106157fd575b8181106157e5575b8181106157cd575b8181106157b5575b81811061579d575b818110615785575b81811061576d575b818110615755575b81811061573d575b818110615725575b10615717575b5003826123d1565b6080880152613e566007820161267e565b60a08801520161267e565b60c0850152613e746080850151516127c0565b608052613e856080850151516127c0565b5f61014052906001600160a01b0383811690871614801561570c576001610140525b1561570657602085015180516001600160a01b0390811690851681036156ff5750602001516001600160a01b03165b925b60018060a01b036020870151511660018060a01b0388161460018060a01b0382165f52600360205260405f2094604051808760208299549384815201905f5260205f20925f905b80601f8301106154765761403594549181811061545b575b81811061543d575b81811061541f575b818110615401575b8181106153e4575b8181106153c6575b8181106153a8575b81811061538a575b81811061536c575b81811061534e575b818110615330575b818110615312575b8181106152f4575b8181106152d6575b8181106152b8575b81811061529a575b81811061527c575b81811061525e575b818110615240575b818110615222575b818110615204575b8181106151e6575b8181106151c8575b8181106151aa575b81811061518c575b81811061516e575b818110615150575b818110615132575b818110615114575b8181106150f6575b8181106150d8575b106150c1575b5003876123d1565b61012051915f60a05261404887516127c0565b9961405388516127c0565b610100525f60e0525f985f60c0525b885160c051101561410b5761407960c0518a6126fe565b5160038110156124555760036101405110156124555761014051036140ea576140b961ffff6140af8d608060c0519101516126fe565b511660a0516127f2565b60a05260c0516140cc8d60e051906126fe565b526140d860e051613d1d565b60e0525b600160c0510160c052614062565b986141059060c0516140ff82610100516126fe565b52613d1d565b986140dc565b919599939750919599939760e051155f146150bc575f19810190811161065b575b5f5b818110614f24575060e0511580614f1b575b614db9575b5060e05161415d575b50505050505050506080519190565b5f9997999891929394959698505f1461499b5760208301516001600160801b038916600f81900b906001600160a01b03898116919086168211600160ff1b841461065b578015614980576401000276a4945b60405191606083018381106001600160401b038211176115d657604052825260208201945f038552604082019560018060a01b03168652604051946370a0823160e01b8652306004870152602086602481885afa95861561149a575f9661494b575b506020916142a46142739260018060a01b037f00000000000000000000000000000000000000000000000000000000000000001699604051915f835261425787846123d1565b604051633cf3645360e21b81529788968796600488019061231c565b51151560a48601525160c4850152516001600160a01b031660e48401526101206101048401526101248301906123f2565b03815f895af190811561149a575f91614919575b508060801d5f81600f0b125f146149115750600f0b905b843b1561146e57604051632961046560e21b81526001600160a01b03881660048201525f81602481838a5af1801561149a57614901575b506001600160a01b038716614846575f80808093885af1156147ea575b604051630476982d60e21b81526020816004815f895af1801561149a576147bb575b50833b1561146e576001600160801b0360645f92836040519788948593630b0d9c0960e01b85528860048601523060248601521660448401525af190811561149a576024936020926147ab575b506040516370a0823160e01b815230600482015293849182905afa801561149a575f90614777575b6143c49250613d10565b915b5f996143ff846001600160a01b037f00000000000000000000000000000000000000000000000000000000000000008116908b16615cf0565b5f9a5b60e0515f19810190811161065b578c1015614599576127106144438661ffff8f8b61443561443c9260808e0151926126fe565b51906126fe565b511661272a565b0490811561458f5781614455916127f2565b60c0870151909c906001600160a01b039061447490614435848c6126fe565b51167f00000000000000000000000000000000000000000000000000000000000000006001600160a01b03163b1561146e57604051632111be1b60e11b81526001600160a01b039182166004820152908b16602482015260448101839052915f8380606481010381837f00000000000000000000000000000000000000000000000000000000000000006001600160a01b03165af190811561149a576001938d9261457f575b50828a8c1561454f5791612c8f61453761453f93614546956126fe565b5180956126fe565b918d6126fe565b525b019a614402565b61457992935061457091614562916126fe565b5192612c8f846080516126fe565b916080516126fe565b52614548565b5f614589916123d1565b5f61451a565b9b60019150614548565b6145af91989592999b5099969395929986613d10565b908161460b575b505060408051958652602086019490945250506001600160a01b039081169481169316917f23343a6790738af38828776c97bce0b0e588477ee38355a02b38253108703d9b9190a45f8080808080808061414e565b60c0015160e0515f19810196939594908711918261065b576001600160a01b039061463a906144358a8a6126fe565b51167f00000000000000000000000000000000000000000000000000000000000000006001600160a01b03163b1561146e57604051632111be1b60e11b81526001600160a01b0391821660048201529086166024820152604481018490525f8180606481010381837f00000000000000000000000000000000000000000000000000000000000000006001600160a01b03165af1801561149a57614767575b501561472d5761065b5761472261471b8b92612c8f6145377f23343a6790738af38828776c97bce0b0e588477ee38355a02b38253108703d9b996040996126fe565b918b6126fe565b525b9281925f6145b6565b506147616145706145627f23343a6790738af38828776c97bce0b0e588477ee38355a02b38253108703d9b976040976126fe565b52614724565b5f614771916123d1565b5f6146d9565b506020823d6020116147a3575b81614791602093836123d1565b8101031261146e576143c491516143ba565b3d9150614784565b5f6147b5916123d1565b5f614392565b6020813d6020116147e2575b816147d4602093836123d1565b8101031261146e5751614345565b3d91506147c7565b83601f19601f3d0116604051916390bfb86560e01b835260048301525f6024830152608060448301528060a00160648301523d60848301523d5f60a484013e808201600460a482015260c4633d2cec6f60e21b91015260e40190fd5b6040805163a9059cbb60e01b81526004810187905260248101929092525f90602082604485826001600160a01b038e165af13d15601f3d116001855114161716928281528260208201520152614323576040516390bfb86560e01b81526001600160a01b038716600482015263a9059cbb60e01b602482015260806044820152601f3d01601f191660a0810160648301523d60848301523d5f60a484013e808201600460a482015260c4633c9fd93960e21b91015260e40190fd5b5f61490b916123d1565b5f614306565b9050906142cf565b90506020813d602011614943575b81614934602093836123d1565b8101031261146e57515f6142b8565b3d9150614927565b9095506020813d602011614978575b81614967602093836123d1565b8101031261146e5751946020614211565b3d915061495a565b73fffd8963efd1fc6a506488495d951d5263988d25946141af565b60208301516001600160801b0389169060405190600160fc1b6020830152600182526149c86021836123d1565b604051600360f91b6020820152600360fa1b6021820152600f60f81b602282015260038152916149f96023846123d1565b604051906080614a0981846123d1565b60038352601f19015f5b818110614da857505060018060a01b038b1691602093614ac585610a9c604051614a3d83826123d1565b5f815260405194614a4d866123b6565b85526001600160801b038d898588019160018060a01b0316108152818d6040890190815260608901925f845260808a01958652614a986040519a898c9a8b015260408a01905161231c565b51151560e088015251166101008601525116610120840152516101206101408401526101608301906123f2565b614ace826126d1565b52614ad8816126d1565b50604080516001600160a01b038a16868201908152602081018990529091614b0291839101610a9c565b614b0b826126de565b52614b15816126de565b5060405183858201526001604082015260408152614b346060826123d1565b614b3d826126ee565b52614b47816126ee565b506040519460208501614b5a81886123d1565b60018752601f1901855f5b828110614d9857505050614b8490610a9c604051938492888401613b31565b614b8d856126d1565b52614b97846126d1565b506001600160a01b037f0000000000000000000000000000000000000000000000000000000000000000811690614bd390879083908b16615cf0565b7f00000000000000000000000000000000000000000000000000000000000000006001600160a01b031695813b1561146e575f9060848a8360405195869485936387517c4560e01b855260018060a01b031660048501528c6024850152604484015265ffffffffffff421660648401525af1801561149a57614d88575b506040516370a0823160e01b8152306004820152938385602481865afa94851561149a575f95614d59575b50853b1561146e57614cc495614cb25f8094604051998a9586948593630d64d59360e21b85526060600486015260648501906123f2565b83810360031901602485015290613ad9565b42604483015203925af190811561149a576024948392614d49575b506040516370a0823160e01b815230600482015294859182905afa90811561149a575f91614d19575b50614d139250613d10565b916143c6565b905082813d8311614d42575b614d2f81836123d1565b8101031261146e57614d1391515f614d08565b503d614d25565b5f614d53916123d1565b5f614cdf565b9094508381813d8311614d81575b614d7181836123d1565b8101031261146e5751935f614c7b565b503d614d67565b5f614d92916123d1565b5f614c50565b606082828b010152018690614b65565b806060602080938701015201614a13565b614df0886001600160a01b037f00000000000000000000000000000000000000000000000000000000000000008116908616615cf0565b60c0840151610100516001600160a01b0391614e11916144359085906126fe565b5116907f00000000000000000000000000000000000000000000000000000000000000006001600160a01b03163b1561146e57604051632111be1b60e11b81526001600160a01b0392831660048201529184166024830152604482018990525f8280606481010381837f00000000000000000000000000000000000000000000000000000000000000006001600160a01b03165af191821561149a578c92614f0b575b50888715614ee75750614ecb9150610100516126fe565b51614edf61457089612c8f846080516126fe565b525b5f614145565b614efe90612c8f614537614f0594610100516126fe565b918c6126fe565b52614ee1565b5f614f15916123d1565b5f614eb4565b50871515614140565b97612710614f488a61ffff61443c60808a01516144356101205194610100516126fe565b049081156150b25781614f5a91613d10565b98614f92826001600160a01b037f00000000000000000000000000000000000000000000000000000000000000008116908816615cf0565b60c0860151610100516001600160a01b0391614fb3916144359085906126fe565b51167f00000000000000000000000000000000000000000000000000000000000000006001600160a01b03163b1561146e57604051632111be1b60e11b81526001600160a01b039182166004820152908616602482015260448101839052915f8380606481010381837f00000000000000000000000000000000000000000000000000000000000000006001600160a01b03165af192831561149a576001936150a2575b508d891561507b575061507361457061456284610100516126fe565b525b0161412e565b9061509c90612c9561509085610100516126fe565b5191612c8f83866126fe565b52615075565b5f6150ac916123d1565b5f615057565b9860019150615075565b61412c565b906150d18160209360f81c612448565b015f61402d565b926020816150ee60019360ff8760f01c16612448565b019301614027565b9260208161510c60019360ff8760e81c16612448565b01930161401f565b9260208161512a60019360ff8760e01c16612448565b019301614017565b9260208161514860019360ff8760d81c16612448565b01930161400f565b9260208161516660019360ff8760d01c16612448565b019301614007565b9260208161518460019360ff8760c81c16612448565b019301613fff565b926020816151a260019360ff8760c01c16612448565b019301613ff7565b926020816151c060019360ff8760b81c16612448565b019301613fef565b926020816151de60019360ff8760b01c16612448565b019301613fe7565b926020816151fc60019360ff8760a81c16612448565b019301613fdf565b9260208161521a60019360ff8760a01c16612448565b019301613fd7565b9260208161523860019360ff8760981c16612448565b019301613fcf565b9260208161525660019360ff8760901c16612448565b019301613fc7565b9260208161527460019360ff8760881c16612448565b019301613fbf565b9260208161529260019360ff8760801c16612448565b019301613fb7565b926020816152b060019360ff8760781c16612448565b019301613faf565b926020816152ce60019360ff8760701c16612448565b019301613fa7565b926020816152ec60019360ff8760681c16612448565b019301613f9f565b9260208161530a60019360ff8760601c16612448565b019301613f97565b9260208161532860019360ff8760581c16612448565b019301613f8f565b9260208161534660019360ff8760501c16612448565b019301613f87565b9260208161536460019360ff8760481c16612448565b019301613f7f565b9260208161538260019360ff8760401c16612448565b019301613f77565b926020816153a060019360ff8760381c16612448565b019301613f6f565b926020816153be60019360ff8760301c16612448565b019301613f67565b926020816153dc60019360ff8760281c16612448565b019301613f5f565b926020816153f960019360ff87851c16612448565b019301613f57565b9260208161541760019360ff8760181c16612448565b019301613f4f565b9260208161543560019360ff8760101c16612448565b019301613f47565b9260208161545360019360ff8760081c16612448565b019301613f3f565b9260208161546e60019360ff8716612448565b019301613f37565b9160209193506104006001916156f187546154948360ff8316612448565b6154a686840160ff8360081c16612448565b6154b96040840160ff8360101c16612448565b6154cc6060840160ff8360181c16612448565b6154de6080840160ff83891c16612448565b6154f160a0840160ff8360281c16612448565b61550460c0840160ff8360301c16612448565b61551760e0840160ff8360381c16612448565b61552b610100840160ff8360401c16612448565b61553f610120840160ff8360481c16612448565b615553610140840160ff8360501c16612448565b615567610160840160ff8360581c16612448565b61557b610180840160ff8360601c16612448565b61558f6101a0840160ff8360681c16612448565b6155a36101c0840160ff8360701c16612448565b6155b76101e0840160ff8360781c16612448565b6155cb610200840160ff8360801c16612448565b6155df610220840160ff8360881c16612448565b6155f3610240840160ff8360901c16612448565b615607610260840160ff8360981c16612448565b61561b610280840160ff8360a01c16612448565b61562f6102a0840160ff8360a81c16612448565b6156436102c0840160ff8360b01c16612448565b6156576102e0840160ff8360b81c16612448565b61566b610300840160ff8360c01c16612448565b61567f610320840160ff8360c81c16612448565b615693610340840160ff8360d01c16612448565b6156a7610360840160ff8360d81c16612448565b6156bb610380840160ff8360e01c16612448565b6156cf6103a0840160ff8360e81c16612448565b6156e36103c0840160ff8360f01c16612448565b6103e083019060f81c612448565b019401920189929391613f1f565b9050613ed6565b82613ed8565b600261014052613ea7565b60f01c81526020015f613e3d565b92602060019161ffff8560e01c168152019301613e37565b92602060019161ffff8560d01c168152019301613e2f565b92602060019161ffff8560c01c168152019301613e27565b92602060019161ffff8560b01c168152019301613e1f565b92602060019161ffff8560a01c168152019301613e17565b92602060019161ffff8560901c168152019301613e0f565b92602060019161ffff8560801c168152019301613e07565b92602060019161ffff8560701c168152019301613dff565b92602060019161ffff8560601c168152019301613df7565b92602060019161ffff8560501c168152019301613def565b92602060019161ffff8560401c168152019301613de7565b92602060019161ffff8560301c168152019301613ddf565b92602060019161ffff85831c168152019301613dd7565b92602060019161ffff8560101c168152019301613dcf565b92602060019161ffff85168152019301613dc7565b926001610200601092865461ffff8116825261ffff81861c16602083015261ffff8160201c16604083015261ffff8160301c16606083015261ffff8160401c16608083015261ffff8160501c1660a083015261ffff8160601c1660c083015261ffff8160701c1660e083015261ffff8160801c1661010083015261ffff8160901c1661012083015261ffff8160a01c1661014083015261ffff8160b01c1661016083015261ffff8160c01c1661018083015261ffff8160d01c166101a083015261ffff8160e01c166101c083015260f01c6101e0820152019401920191613da4565b905f602091828151910182855af11561149a575f513d6159ba57506001600160a01b0381163b155b61599a5750565b635274afe760e01b5f9081526001600160a01b0391909116600452602490fd5b60011415615993565b60020b908160ff1d82810118620d89e88111615cdd5763ffffffff9192600182167001fffcb933bd6fad37aa2d162d1a59400102600160801b189160028116615cc1575b60048116615ca5575b60088116615c89575b60108116615c6d575b60208116615c51575b60408116615c35575b60808116615c19575b6101008116615bfd575b6102008116615be1575b6104008116615bc5575b6108008116615ba9575b6110008116615b8d575b6120008116615b71575b6140008116615b55575b6180008116615b39575b620100008116615b1d575b620200008116615b02575b620400008116615ae7575b6208000016615ace575b5f12615ac6575b0160201c90565b5f1904615abf565b6b048a170391f7dc42444e8fa290910260801c90615ab8565b6d2216e584f5fa1ea926041bedfe9890920260801c91615aae565b916e5d6af8dedb81196699c329225ee6040260801c91615aa3565b916f09aa508b5b7a84e1c677de54f3e99bc90260801c91615a98565b916f31be135f97d08fd981231505542fcfa60260801c91615a8d565b916f70d869a156d2a1b890bb3df62baf32f70260801c91615a83565b916fa9f746462d870fdf8a65dc1f90e061e50260801c91615a79565b916fd097f3bdfd2022b8845ad8f792aa58250260801c91615a6f565b916fe7159475a2c29b7443b29c7fa6e889d90260801c91615a65565b916ff3392b0822b70005940c7a398e4b70f30260801c91615a5b565b916ff987a7253ac413176f2b074cf7815e540260801c91615a51565b916ffcbe86c7900a88aedcffc83b479aa3a40260801c91615a47565b916ffe5dee046a99a2a811c461f1969c30530260801c91615a3d565b916fff2ea16466c96a3843ec78b326b528610260801c91615a34565b916fff973b41fa98c081472e6896dfb254c00260801c91615a2b565b916fffcb9843d60f6159c9db58835c9266440260801c91615a22565b916fffe5caca7e10e4e61c3624eaa0941cd00260801c91615a19565b916ffff2e50f5f656932ef12357cf3c7fdcc0260801c91615a10565b916ffff97272373d413259a46990580e213a0260801c91615a07565b826345c3193d60e11b5f5260045260245ffd5b60405163095ea7b360e01b60208281019182526001600160a01b03851660248401526044830195909552929390925f90615d2d85606481016129fd565b84519082855af15f513d82615d8e575b505015615d4957505050565b60405163095ea7b360e01b60208201526001600160a01b0390931660248401525f60448085019190915283526126ad926117a190615d886064826123d1565b8261596b565b909150615dab57506001600160a01b0381163b15155b5f80615d3d565b600114615da4565b613b5692615de29290916001600160a01b0380831690821611615de7575b90036001600160a01b031690615e3a565b615f8d565b90615dd1565b613b5692615de2929091906001600160a01b0380821690831611615e34575b615e226001600160a01b03828116908416615ec4565b9190036001600160a01b031691615f0d565b90615e0c565b90606082901b905f19600160601b84099282808510940393808503948584111561146e5714615ebd578190600160601b900981805f03168092046002816003021880820260020302808202600203028082026002030280820260020302808202600203028091026002030293600183805f03040190848311900302920304170290565b5091500490565b81810291905f1982820991838084109303928084039384600160601b111561146e5714615f0457600160601b910990828211900360a01b910360601c1790565b50505060601c90565b91818302915f198185099383808610950394808603958685111561146e5714615f85579082910981805f03168092046002816003021880820260020302808202600203028082026002030280820260020302808202600203028091026002030293600183805f03040190848311900302920304170290565b505091500490565b906001600160801b038216809203615fa157565b6393dafdf160e01b5f5260045ffdfe21d15f71483b597e8f0009e83b90b2117f6f98c185d7173857dddcae5eb8546a","linkReferences":{}},"methodIdentifiers":{"BASIS_POINTS()":"e1f1c4a7","MAX_LP_POSITIONS()":"52db242f","MAX_REWARD_PARTICIPANTS()":"14a7f403","collectRewards(address)":"5763dbd0","collectRewardsWithoutUnlock(address)":"86b0c83f","factory()":"c45a0155","feeLocker()":"70e9d244","feePreferences(address,uint256)":"da37c915","onERC721Received(address,address,uint256,bytes)":"150b7a02","owner()":"8da5cb5b","permit2()":"12261ee7","placeLiquidity((address,address[],address[],uint16[],int24[],int24[],uint16[],bytes),(address,address,int24,int24,bytes),(address,address,uint24,int24,address),uint256,address)":"ea289263","poolManager()":"dc4c90d3","positionManager()":"791b98bc","renounceOwnership()":"715018a6","supportsInterface(bytes4)":"01ffc9a7","tokenRewards(address)":"30bd3eeb","transferOwnership(address)":"f2fde38b","universalRouter()":"35a9e4df","updateFeePreference(address,uint256,uint8)":"8d4637bd","updateRewardAdmin(address,uint256,address)":"0150a986","updateRewardRecipient(address,uint256,address)":"911573b3","version()":"54fd4d50","withdrawERC20(address,address)":"9456fbcc","withdrawETH(address)":"690d8320"},"id":141}