{"abi":[{"type":"constructor","inputs":[{"name":"_poolManager","type":"address","internalType":"address"},{"name":"_factory","type":"address","internalType":"address"},{"name":"_weth","type":"address","internalType":"address"}],"stateMutability":"nonpayable"},{"type":"function","name":"BPS_DENOMINATOR","inputs":[],"outputs":[{"name":"","type":"uint24","internalType":"uint24"}],"stateMutability":"view"},{"type":"function","name":"FEE_CONTROL_DENOMINATOR","inputs":[],"outputs":[{"name":"","type":"uint256","internalType":"uint256"}],"stateMutability":"view"},{"type":"function","name":"FEE_DENOMINATOR","inputs":[],"outputs":[{"name":"","type":"int128","internalType":"int128"}],"stateMutability":"view"},{"type":"function","name":"MAX_DECAY_FILTER_BPS","inputs":[],"outputs":[{"name":"","type":"uint256","internalType":"uint256"}],"stateMutability":"view"},{"type":"function","name":"MAX_LP_FEE","inputs":[],"outputs":[{"name":"","type":"uint24","internalType":"uint24"}],"stateMutability":"view"},{"type":"function","name":"MAX_MEV_MODULE_DELAY","inputs":[],"outputs":[{"name":"","type":"uint256","internalType":"uint256"}],"stateMutability":"view"},{"type":"function","name":"MIN_BASE_FEE","inputs":[],"outputs":[{"name":"","type":"uint24","internalType":"uint24"}],"stateMutability":"view"},{"type":"function","name":"PROTOCOL_FEE_NUMERATOR","inputs":[],"outputs":[{"name":"","type":"uint256","internalType":"uint256"}],"stateMutability":"view"},{"type":"function","name":"afterAddLiquidity","inputs":[{"name":"sender","type":"address","internalType":"address"},{"name":"key","type":"tuple","internalType":"struct PoolKey","components":[{"name":"currency0","type":"address","internalType":"Currency"},{"name":"currency1","type":"address","internalType":"Currency"},{"name":"fee","type":"uint24","internalType":"uint24"},{"name":"tickSpacing","type":"int24","internalType":"int24"},{"name":"hooks","type":"address","internalType":"contract IHooks"}]},{"name":"params","type":"tuple","internalType":"struct IPoolManager.ModifyLiquidityParams","components":[{"name":"tickLower","type":"int24","internalType":"int24"},{"name":"tickUpper","type":"int24","internalType":"int24"},{"name":"liquidityDelta","type":"int256","internalType":"int256"},{"name":"salt","type":"bytes32","internalType":"bytes32"}]},{"name":"delta","type":"int256","internalType":"BalanceDelta"},{"name":"feesAccrued","type":"int256","internalType":"BalanceDelta"},{"name":"hookData","type":"bytes","internalType":"bytes"}],"outputs":[{"name":"","type":"bytes4","internalType":"bytes4"},{"name":"","type":"int256","internalType":"BalanceDelta"}],"stateMutability":"nonpayable"},{"type":"function","name":"afterDonate","inputs":[{"name":"sender","type":"address","internalType":"address"},{"name":"key","type":"tuple","internalType":"struct PoolKey","components":[{"name":"currency0","type":"address","internalType":"Currency"},{"name":"currency1","type":"address","internalType":"Currency"},{"name":"fee","type":"uint24","internalType":"uint24"},{"name":"tickSpacing","type":"int24","internalType":"int24"},{"name":"hooks","type":"address","internalType":"contract IHooks"}]},{"name":"amount0","type":"uint256","internalType":"uint256"},{"name":"amount1","type":"uint256","internalType":"uint256"},{"name":"hookData","type":"bytes","internalType":"bytes"}],"outputs":[{"name":"","type":"bytes4","internalType":"bytes4"}],"stateMutability":"nonpayable"},{"type":"function","name":"afterInitialize","inputs":[{"name":"sender","type":"address","internalType":"address"},{"name":"key","type":"tuple","internalType":"struct PoolKey","components":[{"name":"currency0","type":"address","internalType":"Currency"},{"name":"currency1","type":"address","internalType":"Currency"},{"name":"fee","type":"uint24","internalType":"uint24"},{"name":"tickSpacing","type":"int24","internalType":"int24"},{"name":"hooks","type":"address","internalType":"contract IHooks"}]},{"name":"sqrtPriceX96","type":"uint160","internalType":"uint160"},{"name":"tick","type":"int24","internalType":"int24"}],"outputs":[{"name":"","type":"bytes4","internalType":"bytes4"}],"stateMutability":"nonpayable"},{"type":"function","name":"afterRemoveLiquidity","inputs":[{"name":"sender","type":"address","internalType":"address"},{"name":"key","type":"tuple","internalType":"struct PoolKey","components":[{"name":"currency0","type":"address","internalType":"Currency"},{"name":"currency1","type":"address","internalType":"Currency"},{"name":"fee","type":"uint24","internalType":"uint24"},{"name":"tickSpacing","type":"int24","internalType":"int24"},{"name":"hooks","type":"address","internalType":"contract IHooks"}]},{"name":"params","type":"tuple","internalType":"struct IPoolManager.ModifyLiquidityParams","components":[{"name":"tickLower","type":"int24","internalType":"int24"},{"name":"tickUpper","type":"int24","internalType":"int24"},{"name":"liquidityDelta","type":"int256","internalType":"int256"},{"name":"salt","type":"bytes32","internalType":"bytes32"}]},{"name":"delta","type":"int256","internalType":"BalanceDelta"},{"name":"feesAccrued","type":"int256","internalType":"BalanceDelta"},{"name":"hookData","type":"bytes","internalType":"bytes"}],"outputs":[{"name":"","type":"bytes4","internalType":"bytes4"},{"name":"","type":"int256","internalType":"BalanceDelta"}],"stateMutability":"nonpayable"},{"type":"function","name":"afterSwap","inputs":[{"name":"sender","type":"address","internalType":"address"},{"name":"key","type":"tuple","internalType":"struct PoolKey","components":[{"name":"currency0","type":"address","internalType":"Currency"},{"name":"currency1","type":"address","internalType":"Currency"},{"name":"fee","type":"uint24","internalType":"uint24"},{"name":"tickSpacing","type":"int24","internalType":"int24"},{"name":"hooks","type":"address","internalType":"contract IHooks"}]},{"name":"params","type":"tuple","internalType":"struct IPoolManager.SwapParams","components":[{"name":"zeroForOne","type":"bool","internalType":"bool"},{"name":"amountSpecified","type":"int256","internalType":"int256"},{"name":"sqrtPriceLimitX96","type":"uint160","internalType":"uint160"}]},{"name":"delta","type":"int256","internalType":"BalanceDelta"},{"name":"hookData","type":"bytes","internalType":"bytes"}],"outputs":[{"name":"","type":"bytes4","internalType":"bytes4"},{"name":"","type":"int128","internalType":"int128"}],"stateMutability":"nonpayable"},{"type":"function","name":"beforeAddLiquidity","inputs":[{"name":"sender","type":"address","internalType":"address"},{"name":"key","type":"tuple","internalType":"struct PoolKey","components":[{"name":"currency0","type":"address","internalType":"Currency"},{"name":"currency1","type":"address","internalType":"Currency"},{"name":"fee","type":"uint24","internalType":"uint24"},{"name":"tickSpacing","type":"int24","internalType":"int24"},{"name":"hooks","type":"address","internalType":"contract IHooks"}]},{"name":"params","type":"tuple","internalType":"struct IPoolManager.ModifyLiquidityParams","components":[{"name":"tickLower","type":"int24","internalType":"int24"},{"name":"tickUpper","type":"int24","internalType":"int24"},{"name":"liquidityDelta","type":"int256","internalType":"int256"},{"name":"salt","type":"bytes32","internalType":"bytes32"}]},{"name":"hookData","type":"bytes","internalType":"bytes"}],"outputs":[{"name":"","type":"bytes4","internalType":"bytes4"}],"stateMutability":"nonpayable"},{"type":"function","name":"beforeDonate","inputs":[{"name":"sender","type":"address","internalType":"address"},{"name":"key","type":"tuple","internalType":"struct PoolKey","components":[{"name":"currency0","type":"address","internalType":"Currency"},{"name":"currency1","type":"address","internalType":"Currency"},{"name":"fee","type":"uint24","internalType":"uint24"},{"name":"tickSpacing","type":"int24","internalType":"int24"},{"name":"hooks","type":"address","internalType":"contract IHooks"}]},{"name":"amount0","type":"uint256","internalType":"uint256"},{"name":"amount1","type":"uint256","internalType":"uint256"},{"name":"hookData","type":"bytes","internalType":"bytes"}],"outputs":[{"name":"","type":"bytes4","internalType":"bytes4"}],"stateMutability":"nonpayable"},{"type":"function","name":"beforeInitialize","inputs":[{"name":"sender","type":"address","internalType":"address"},{"name":"key","type":"tuple","internalType":"struct PoolKey","components":[{"name":"currency0","type":"address","internalType":"Currency"},{"name":"currency1","type":"address","internalType":"Currency"},{"name":"fee","type":"uint24","internalType":"uint24"},{"name":"tickSpacing","type":"int24","internalType":"int24"},{"name":"hooks","type":"address","internalType":"contract IHooks"}]},{"name":"sqrtPriceX96","type":"uint160","internalType":"uint160"}],"outputs":[{"name":"","type":"bytes4","internalType":"bytes4"}],"stateMutability":"nonpayable"},{"type":"function","name":"beforeRemoveLiquidity","inputs":[{"name":"sender","type":"address","internalType":"address"},{"name":"key","type":"tuple","internalType":"struct PoolKey","components":[{"name":"currency0","type":"address","internalType":"Currency"},{"name":"currency1","type":"address","internalType":"Currency"},{"name":"fee","type":"uint24","internalType":"uint24"},{"name":"tickSpacing","type":"int24","internalType":"int24"},{"name":"hooks","type":"address","internalType":"contract IHooks"}]},{"name":"params","type":"tuple","internalType":"struct IPoolManager.ModifyLiquidityParams","components":[{"name":"tickLower","type":"int24","internalType":"int24"},{"name":"tickUpper","type":"int24","internalType":"int24"},{"name":"liquidityDelta","type":"int256","internalType":"int256"},{"name":"salt","type":"bytes32","internalType":"bytes32"}]},{"name":"hookData","type":"bytes","internalType":"bytes"}],"outputs":[{"name":"","type":"bytes4","internalType":"bytes4"}],"stateMutability":"nonpayable"},{"type":"function","name":"beforeSwap","inputs":[{"name":"sender","type":"address","internalType":"address"},{"name":"key","type":"tuple","internalType":"struct PoolKey","components":[{"name":"currency0","type":"address","internalType":"Currency"},{"name":"currency1","type":"address","internalType":"Currency"},{"name":"fee","type":"uint24","internalType":"uint24"},{"name":"tickSpacing","type":"int24","internalType":"int24"},{"name":"hooks","type":"address","internalType":"contract IHooks"}]},{"name":"params","type":"tuple","internalType":"struct IPoolManager.SwapParams","components":[{"name":"zeroForOne","type":"bool","internalType":"bool"},{"name":"amountSpecified","type":"int256","internalType":"int256"},{"name":"sqrtPriceLimitX96","type":"uint160","internalType":"uint160"}]},{"name":"hookData","type":"bytes","internalType":"bytes"}],"outputs":[{"name":"","type":"bytes4","internalType":"bytes4"},{"name":"","type":"int256","internalType":"BeforeSwapDelta"},{"name":"","type":"uint24","internalType":"uint24"}],"stateMutability":"nonpayable"},{"type":"function","name":"factory","inputs":[],"outputs":[{"name":"","type":"address","internalType":"address"}],"stateMutability":"view"},{"type":"function","name":"getHookPermissions","inputs":[],"outputs":[{"name":"","type":"tuple","internalType":"struct Hooks.Permissions","components":[{"name":"beforeInitialize","type":"bool","internalType":"bool"},{"name":"afterInitialize","type":"bool","internalType":"bool"},{"name":"beforeAddLiquidity","type":"bool","internalType":"bool"},{"name":"afterAddLiquidity","type":"bool","internalType":"bool"},{"name":"beforeRemoveLiquidity","type":"bool","internalType":"bool"},{"name":"afterRemoveLiquidity","type":"bool","internalType":"bool"},{"name":"beforeSwap","type":"bool","internalType":"bool"},{"name":"afterSwap","type":"bool","internalType":"bool"},{"name":"beforeDonate","type":"bool","internalType":"bool"},{"name":"afterDonate","type":"bool","internalType":"bool"},{"name":"beforeSwapReturnDelta","type":"bool","internalType":"bool"},{"name":"afterSwapReturnDelta","type":"bool","internalType":"bool"},{"name":"afterAddLiquidityReturnDelta","type":"bool","internalType":"bool"},{"name":"afterRemoveLiquidityReturnDelta","type":"bool","internalType":"bool"}]}],"stateMutability":"pure"},{"type":"function","name":"initializeMevModule","inputs":[{"name":"poolKey","type":"tuple","internalType":"struct PoolKey","components":[{"name":"currency0","type":"address","internalType":"Currency"},{"name":"currency1","type":"address","internalType":"Currency"},{"name":"fee","type":"uint24","internalType":"uint24"},{"name":"tickSpacing","type":"int24","internalType":"int24"},{"name":"hooks","type":"address","internalType":"contract IHooks"}]},{"name":"mevModuleData","type":"bytes","internalType":"bytes"}],"outputs":[],"stateMutability":"nonpayable"},{"type":"function","name":"initializePool","inputs":[{"name":"liquid","type":"address","internalType":"address"},{"name":"pairedToken","type":"address","internalType":"address"},{"name":"tickIfToken0IsLiquid","type":"int24","internalType":"int24"},{"name":"tickSpacing","type":"int24","internalType":"int24"},{"name":"_locker","type":"address","internalType":"address"},{"name":"_mevModule","type":"address","internalType":"address"},{"name":"poolData","type":"bytes","internalType":"bytes"}],"outputs":[{"name":"","type":"tuple","internalType":"struct PoolKey","components":[{"name":"currency0","type":"address","internalType":"Currency"},{"name":"currency1","type":"address","internalType":"Currency"},{"name":"fee","type":"uint24","internalType":"uint24"},{"name":"tickSpacing","type":"int24","internalType":"int24"},{"name":"hooks","type":"address","internalType":"contract IHooks"}]}],"stateMutability":"nonpayable"},{"type":"function","name":"initializePoolOpen","inputs":[{"name":"liquid","type":"address","internalType":"address"},{"name":"pairedToken","type":"address","internalType":"address"},{"name":"tickIfToken0IsLiquid","type":"int24","internalType":"int24"},{"name":"tickSpacing","type":"int24","internalType":"int24"},{"name":"poolData","type":"bytes","internalType":"bytes"}],"outputs":[{"name":"","type":"tuple","internalType":"struct PoolKey","components":[{"name":"currency0","type":"address","internalType":"Currency"},{"name":"currency1","type":"address","internalType":"Currency"},{"name":"fee","type":"uint24","internalType":"uint24"},{"name":"tickSpacing","type":"int24","internalType":"int24"},{"name":"hooks","type":"address","internalType":"contract IHooks"}]}],"stateMutability":"nonpayable"},{"type":"function","name":"mevModule","inputs":[{"name":"","type":"bytes32","internalType":"PoolId"}],"outputs":[{"name":"","type":"address","internalType":"address"}],"stateMutability":"view"},{"type":"function","name":"mevModuleEnabled","inputs":[{"name":"","type":"bytes32","internalType":"PoolId"}],"outputs":[{"name":"","type":"bool","internalType":"bool"}],"stateMutability":"view"},{"type":"function","name":"owner","inputs":[],"outputs":[{"name":"","type":"address","internalType":"address"}],"stateMutability":"view"},{"type":"function","name":"poolConfigVars","inputs":[{"name":"poolId","type":"bytes32","internalType":"PoolId"}],"outputs":[{"name":"","type":"tuple","internalType":"struct ILiquidHookDynamicFee.PoolDynamicConfigVars","components":[{"name":"baseFee","type":"uint24","internalType":"uint24"},{"name":"maxLpFee","type":"uint24","internalType":"uint24"},{"name":"referenceTickFilterPeriod","type":"uint256","internalType":"uint256"},{"name":"resetPeriod","type":"uint256","internalType":"uint256"},{"name":"resetTickFilter","type":"int24","internalType":"int24"},{"name":"feeControlNumerator","type":"uint256","internalType":"uint256"},{"name":"decayFilterBps","type":"uint24","internalType":"uint24"}]}],"stateMutability":"view"},{"type":"function","name":"poolCreationTimestamp","inputs":[{"name":"","type":"bytes32","internalType":"PoolId"}],"outputs":[{"name":"","type":"uint256","internalType":"uint256"}],"stateMutability":"view"},{"type":"function","name":"poolFeeVars","inputs":[{"name":"poolId","type":"bytes32","internalType":"PoolId"}],"outputs":[{"name":"","type":"tuple","internalType":"struct ILiquidHookDynamicFee.PoolDynamicFeeVars","components":[{"name":"referenceTick","type":"int24","internalType":"int24"},{"name":"resetTick","type":"int24","internalType":"int24"},{"name":"resetTickTimestamp","type":"uint256","internalType":"uint256"},{"name":"lastSwapTimestamp","type":"uint256","internalType":"uint256"},{"name":"appliedVR","type":"uint24","internalType":"uint24"},{"name":"prevVA","type":"uint24","internalType":"uint24"}]}],"stateMutability":"view"},{"type":"function","name":"poolManager","inputs":[],"outputs":[{"name":"","type":"address","internalType":"contract IPoolManager"}],"stateMutability":"view"},{"type":"function","name":"protocolFee","inputs":[],"outputs":[{"name":"","type":"uint24","internalType":"uint24"}],"stateMutability":"view"},{"type":"function","name":"renounceOwnership","inputs":[],"outputs":[],"stateMutability":"nonpayable"},{"type":"function","name":"simulateSwap","inputs":[{"name":"poolKey","type":"tuple","internalType":"struct PoolKey","components":[{"name":"currency0","type":"address","internalType":"Currency"},{"name":"currency1","type":"address","internalType":"Currency"},{"name":"fee","type":"uint24","internalType":"uint24"},{"name":"tickSpacing","type":"int24","internalType":"int24"},{"name":"hooks","type":"address","internalType":"contract IHooks"}]},{"name":"swapParams","type":"tuple","internalType":"struct IPoolManager.SwapParams","components":[{"name":"zeroForOne","type":"bool","internalType":"bool"},{"name":"amountSpecified","type":"int256","internalType":"int256"},{"name":"sqrtPriceLimitX96","type":"uint160","internalType":"uint160"}]}],"outputs":[],"stateMutability":"nonpayable"},{"type":"function","name":"supportsInterface","inputs":[{"name":"interfaceId","type":"bytes4","internalType":"bytes4"}],"outputs":[{"name":"","type":"bool","internalType":"bool"}],"stateMutability":"pure"},{"type":"function","name":"transferOwnership","inputs":[{"name":"newOwner","type":"address","internalType":"address"}],"outputs":[],"stateMutability":"nonpayable"},{"type":"function","name":"weth","inputs":[],"outputs":[{"name":"","type":"address","internalType":"address"}],"stateMutability":"view"},{"type":"event","name":"ClaimProtocolFees","inputs":[{"name":"token","type":"address","indexed":true,"internalType":"address"},{"name":"amount","type":"uint256","indexed":false,"internalType":"uint256"}],"anonymous":false},{"type":"event","name":"EstimatedTickDifference","inputs":[{"name":"beforeTick","type":"int24","indexed":false,"internalType":"int24"},{"name":"afterTick","type":"int24","indexed":false,"internalType":"int24"}],"anonymous":false},{"type":"event","name":"MevModuleDisabled","inputs":[{"name":"","type":"bytes32","indexed":false,"internalType":"PoolId"}],"anonymous":false},{"type":"event","name":"OwnershipTransferred","inputs":[{"name":"previousOwner","type":"address","indexed":true,"internalType":"address"},{"name":"newOwner","type":"address","indexed":true,"internalType":"address"}],"anonymous":false},{"type":"event","name":"PoolCreatedFactory","inputs":[{"name":"pairedToken","type":"address","indexed":true,"internalType":"address"},{"name":"liquid","type":"address","indexed":true,"internalType":"address"},{"name":"poolId","type":"bytes32","indexed":false,"internalType":"PoolId"},{"name":"tickIfToken0IsLiquid","type":"int24","indexed":false,"internalType":"int24"},{"name":"tickSpacing","type":"int24","indexed":false,"internalType":"int24"},{"name":"locker","type":"address","indexed":false,"internalType":"address"},{"name":"mevModule","type":"address","indexed":false,"internalType":"address"}],"anonymous":false},{"type":"event","name":"PoolCreatedOpen","inputs":[{"name":"pairedToken","type":"address","indexed":true,"internalType":"address"},{"name":"liquid","type":"address","indexed":true,"internalType":"address"},{"name":"poolId","type":"bytes32","indexed":false,"internalType":"PoolId"},{"name":"tickIfToken0IsLiquid","type":"int24","indexed":false,"internalType":"int24"},{"name":"tickSpacing","type":"int24","indexed":false,"internalType":"int24"}],"anonymous":false},{"type":"event","name":"PoolInitialized","inputs":[{"name":"poolId","type":"bytes32","indexed":false,"internalType":"PoolId"},{"name":"baseFee","type":"uint24","indexed":false,"internalType":"uint24"},{"name":"maxLpFee","type":"uint24","indexed":false,"internalType":"uint24"},{"name":"referenceTickFilterPeriod","type":"uint256","indexed":false,"internalType":"uint256"},{"name":"resetPeriod","type":"uint256","indexed":false,"internalType":"uint256"},{"name":"resetTickFilter","type":"int24","indexed":false,"internalType":"int24"},{"name":"feeControlNumerator","type":"uint256","indexed":false,"internalType":"uint256"},{"name":"decayFilterBps","type":"uint24","indexed":false,"internalType":"uint24"}],"anonymous":false},{"type":"error","name":"BaseFeeGreaterThanMaxLpFee","inputs":[]},{"type":"error","name":"BaseFeeTooLow","inputs":[]},{"type":"error","name":"ETHPoolNotAllowed","inputs":[]},{"type":"error","name":"HookNotImplemented","inputs":[]},{"type":"error","name":"MaxLpFeeTooHigh","inputs":[]},{"type":"error","name":"MevModuleEnabled","inputs":[]},{"type":"error","name":"NotPoolManager","inputs":[]},{"type":"error","name":"OnlyFactory","inputs":[]},{"type":"error","name":"OwnableInvalidOwner","inputs":[{"name":"owner","type":"address","internalType":"address"}]},{"type":"error","name":"OwnableUnauthorizedAccount","inputs":[{"name":"account","type":"address","internalType":"address"}]},{"type":"error","name":"PastCreationTimestamp","inputs":[]},{"type":"error","name":"TickReturned","inputs":[{"name":"tick","type":"int24","internalType":"int24"}]},{"type":"error","name":"UnsupportedInitializePath","inputs":[]},{"type":"error","name":"WethCannotBeLiquid","inputs":[]}],"bytecode":{"object":"0x60e06040523461036557604051601f61456238819003918201601f19168301916001600160401b03831184841017610369578084926060946040528339810103126103655761004d8161039d565b610065604061005e6020850161039d565b930161039d565b6001600160a01b039091166080525f6101a061007f61037d565b8281528260208201528260408201528260608201528260808201528260a08201528260c08201528260e0820152826101008201528261012082015282610140820152826101608201528261018082015201525f6101a06100dd61037d565b60018152826020820152600160408201528260608201528260808201528260a0820152600160c0820152600160e082015282610100820152826101208201526001610140820152600161016082015282610180820152015261200030161515600114801590610358575b8015610347575b801561033a575b801561032d575b8015610320575b8015610310575b8015610300575b80156102f4575b80156102e8575b80156102d8575b80156102c8575b80156102bc575b80156102b0575b61029d57331561028a575f8054336001600160a01b0319821681178355604051949290916001600160a01b0316907f8be0079c531659141344cd1fd0a4f28419497f9722a3daafe3b4186f6b6457e09080a360a05260c0526141b090816103b282396080518181816105d00152818161067001528181610b3d01528181610f2a01528181610fcc015281816113e6015281816116a2015281816119c601528181611ddf01528181611e4b01528181612795015281816130d401526137ff015260a05181818161031401528181611a7a015281816121780152613937015260c0518181816107f501526109200152f35b631e4fbdf760e01b5f525f60045260245ffd5b630732d7b560e51b5f523060045260245ffd5b5060013016151561019b565b50600230161515610194565b506004301615156001141561018d565b5060083016151560011415610186565b5060103016151561017f565b50602030161515610178565b5060403016151560011415610171565b506080301615156001141561016a565b5061010030161515610163565b506102003016151561015c565b5061040030161515610155565b50610800301615156001141561014e565b5061100030161515610147565b5f80fd5b634e487b7160e01b5f52604160045260245ffd5b604051906101c082016001600160401b0381118382101761036957604052565b51906001600160a01b03821682036103655756fe60806040526004361015610011575f80fd5b5f3560e01c8063015e3c291461024a57806301ffc9a71461024557806321d0ee7014610240578063259982e51461023b5780632b887e0f14610236578063334e8367146102315780633fc48eba1461022c5780633fc8cef3146102275780634c2b2876146102225780635339b03b1461021d578063564d49e714610218578063575e24b41461021357806369b84eb11461020e5780636c2bbe7e146101f55780636fe7e6eb14610209578063715018a614610204578063844dbde6146101ff5780638da5cb5b146101fa5780639f063efc146101f5578063b0e21e8a146101f0578063b3066515146101eb578063b47b2fb1146101e6578063b6a8b0fa146101b4578063bdf22863146101e1578063c45a0155146101dc578063c4e833ce146101d7578063ca946313146101d2578063ccc8dc43146101cd578063d73792a9146101c8578063dc4c90d3146101c3578063dc98354e146101be578063e1a45218146101b9578063e1b4af69146101b4578063ea78e61a146101af578063ee4d96cf146101aa5763f2fde38b146101a5575f80fd5b611ef5565b611ed1565b611eb5565b61199b565b611e99565b611e03565b611db3565b611d96565b611d7b565b611c4b565b611b59565b611a4e565b611a14565b611634565b61131f565b6111d2565b610efe565b6111a0565b611096565b61101a565b610f78565b610e62565b610ad2565b610a02565b6109e3565b610881565b6107c9565b6107ac565b61078f565b61075c565b610646565b6105a6565b610484565b6102c1565b60031960a091011261026057600490565b5f80fd5b7fffffffffffffffffffffffffffffffffffffffffffffffffffffffffffffffdc60a091011261026057602490565b9181601f840112156102605782359167ffffffffffffffff8311610260576020838186019501011161026057565b346102605760c0600319360112610260576102db3661024f565b60a43567ffffffffffffffff8111610260576102fb903690600401610293565b919073ffffffffffffffffffffffffffffffffffffffff7f000000000000000000000000000000000000000000000000000000000000000016330361045c5760a06103463684611fd4565b205f52600360205261038f61037661037660405f2073ffffffffffffffffffffffffffffffffffffffff90541690565b73ffffffffffffffffffffffffffffffffffffffff1690565b92833b15610260576103d4935f92836040518097819582947f645a15340000000000000000000000000000000000000000000000000000000084528960048501612101565b03925af1918215610457576103fb610410926104029261043b9561043d575b503690611fd4565b60a0902090565b5f52600460205260405f2090565b60017fffffffffffffffffffffffffffffffffffffffffffffffffffffffffffffff00825416179055565b005b8061044b5f610451936112b5565b80610785565b5f6103f3565b612122565b7f0c6d42ae000000000000000000000000000000000000000000000000000000005f5260045ffd5b34610260576020600319360112610260576004357fffffffff000000000000000000000000000000000000000000000000000000008116809103610260576020907f1ac7941f0000000000000000000000000000000000000000000000000000000060405191148152f35b73ffffffffffffffffffffffffffffffffffffffff81160361026057565b9061016060031983011261026057600435610527816104ef565b9160a07fffffffffffffffffffffffffffffffffffffffffffffffffffffffffffffffdc8201126102605760249160807fffffffffffffffffffffffffffffffffffffffffffffffffffffffffffffff3c8301126102605760c491610144359067ffffffffffffffff8211610260576105a291600401610293565b9091565b34610260576105b43661050d565b505050505073ffffffffffffffffffffffffffffffffffffffff7f000000000000000000000000000000000000000000000000000000000000000016330361061e577f0a85dc29000000000000000000000000000000000000000000000000000000005f5260045ffd5b7fae18210a000000000000000000000000000000000000000000000000000000005f5260045ffd5b34610260576106543661050d565b505050905073ffffffffffffffffffffffffffffffffffffffff7f000000000000000000000000000000000000000000000000000000000000000016330361061e5760a06106a23683611fd4565b205f52600460205260ff60405f2054169081610716575b506106ee576040517f259982e500000000000000000000000000000000000000000000000000000000815280602081015b0390f35b7f678a240e000000000000000000000000000000000000000000000000000000005f5260045ffd5b60a09150610725903690611fd4565b205f52600560205260405f2054607881018091116107455742105f6106b9565b6122bd565b60031960209101126102605760043590565b346102605761076a3661074a565b5f526004602052602060ff60405f2054166040519015158152f35b5f91031261026057565b34610260575f60031936011261026057602060405162030d408152f35b34610260575f600319360112610260576020604051620493e08152f35b34610260575f60031936011261026057602060405173ffffffffffffffffffffffffffffffffffffffff7f0000000000000000000000000000000000000000000000000000000000000000168152f35b8060020b0361026057565b61087f9092919260a081019373ffffffffffffffffffffffffffffffffffffffff6080809282815116855282602082015116602086015262ffffff6040820151166040860152606081015160020b6060860152015116910152565b565b346102605760a06003193601126102605760043561089e816104ef565b602435906108ab826104ef565b604435906108b882610819565b606435916108c583610819565b60843567ffffffffffffffff8111610260576108e5903690600401610293565b6108f093919361212d565b5073ffffffffffffffffffffffffffffffffffffffff82169373ffffffffffffffffffffffffffffffffffffffff7f00000000000000000000000000000000000000000000000000000000000000001685146109bb578661099060609373ffffffffffffffffffffffffffffffffffffffff9389886106ea9c7f09cc09ed021cf0d9112cf6d1bdc8689bfedd367df1ac5a550dfd6a07955b8d1999612621565b9660a088209560405196875260020b602087015260020b60408601521692a360405191829182610824565b7f60456f43000000000000000000000000000000000000000000000000000000005f5260045ffd5b34610260575f6003193601126102605760206040516402540be4008152f35b346102605760e060031936011261026057600435610a1f816104ef565b60243590610a2c826104ef565b60443591610a3983610819565b60643591610a4683610819565b608435610a52816104ef565b60a43590610a5f826104ef565b60c4359467ffffffffffffffff8611610260576106ea96610a87610a97973690600401610293565b969095610a9261212d565b612157565b60405191829182610824565b7fffffffffffffffffffffffffffffffffffffffffffffffffffffffffffffff3c60609101126102605760c490565b346102605761014060031936011261026057610aef6004356104ef565b610af836610264565b610b0136610aa3565b906101243567ffffffffffffffff811161026057610b23903690600401610293565b92909173ffffffffffffffffffffffffffffffffffffffff7f0000000000000000000000000000000000000000000000000000000000000000169384330361061e57610b8e905f94610b75858561309e565b610b7e846137c4565b610b8784613a21565b8484613bc3565b610bb6610baf610ba16103fb3685611fd4565b5f52600160205260405f2090565b5460ff1690565b916020610bc282612880565b910135901515831515145f82128080610e5a575b610d55575b159081610d4d575b50610c24575b604080517f575e24b4000000000000000000000000000000000000000000000000000000008152602081018690525f91810191909152606090f35b610c9d91929350610c89610c97916fffffffffffffffffffffffffffffffff610c7f610c575f5462ffffff9060a01c1690565b610c79610c71610c6b62ffffff84166122ea565b92612420565b62ffffff1690565b9061233b565b16600f0b906123c7565b670de0b6b3a7640000900590565b600f0b90565b90610ca88260801b90565b9215610d3c576103766020610cbd920161288a565b833b15610260576040517f156e29f60000000000000000000000000000000000000000000000000000000081523060048201526024810191909152600f9190910b6044820152915f908390606490829084905af1918215610457576106ea92610d28575b8080610be9565b8061044b5f610d36936112b5565b5f610d21565b610376610d489161288a565b610cbd565b90505f610be3565b9450610db4610c97610c89610dae610c976fffffffffffffffffffffffffffffffff610da5610d8b5f5462ffffff9060a01c1690565b610c79610c71610d9f62ffffff84166122ea565b92612324565b16600f0b612398565b856123c7565b94610dbf8660801b90565b958515610e4857610dd56103766020870161288a565b905b883b15610260576040517f156e29f60000000000000000000000000000000000000000000000000000000081523060048201526024810192909252600f0b60448201525f81606481838c5af1801561045757610e34575b50610bdb565b8061044b5f610e42936112b5565b5f610e2e565b610e546103768661288a565b90610dd7565b508115610bd6565b34610260575f6003193601126102605760206040516175308152f35b906101a060031983011261026057600435610e98816104ef565b9160a07fffffffffffffffffffffffffffffffffffffffffffffffffffffffffffffffdc82011261026057602491608060c48303126102605760c49161014435916101643591610184359067ffffffffffffffff8211610260576105a291600401610293565b3461026057610f0c36610e7e565b5050505050505073ffffffffffffffffffffffffffffffffffffffff7f000000000000000000000000000000000000000000000000000000000000000016330361061e577f0a85dc29000000000000000000000000000000000000000000000000000000005f5260045ffd5b346102605761010060031936011261026057610f956004356104ef565b610f9e36610264565b50610faa60c4356104ef565b610fb560e435610819565b73ffffffffffffffffffffffffffffffffffffffff7f000000000000000000000000000000000000000000000000000000000000000016330361061e577f0a85dc29000000000000000000000000000000000000000000000000000000005f5260045ffd5b34610260575f60031936011261026057611032612894565b5f73ffffffffffffffffffffffffffffffffffffffff81547fffffffffffffffffffffffff000000000000000000000000000000000000000081168355167f8be0079c531659141344cd1fd0a4f28419497f9722a3daafe3b4186f6b6457e08280a3005b34610260576110a43661074a565b5f60a06040516110b381611223565b82815282602082015282604082015282606082015282608082015201525f5260066020526106ea60405f2061114e6111426003604051936110f385611223565b80548060020b865260181c60020b60208601526001810154604086015260028101546060860152015461113761112b8262ffffff1690565b62ffffff166080860152565b60181c62ffffff1690565b62ffffff1660a0830152565b6040519182918291909160a062ffffff8160c0840195805160020b8552602081015160020b60208601526040810151604086015260608101516060860152826080820151166080860152015116910152565b34610260575f60031936011261026057602073ffffffffffffffffffffffffffffffffffffffff5f5416604051908152f35b34610260575f60031936011261026057602062ffffff5f5460a01c16604051908152f35b7f4e487b71000000000000000000000000000000000000000000000000000000005f52604160045260245ffd5b60c0810190811067ffffffffffffffff82111761123f57604052565b6111f6565b6060810190811067ffffffffffffffff82111761123f57604052565b6101c0810190811067ffffffffffffffff82111761123f57604052565b60e0810190811067ffffffffffffffff82111761123f57604052565b60a0810190811067ffffffffffffffff82111761123f57604052565b90601f7fffffffffffffffffffffffffffffffffffffffffffffffffffffffffffffffe0910116810190811067ffffffffffffffff82111761123f57604052565b6040519061087f6101c0836112b5565b6040519061087f60a0836112b5565b8015150361026057565b34610260576101006003193601126102605761133a3661024f565b60607fffffffffffffffffffffffffffffffffffffffffffffffffffffffffffffff5c360112610260576040519061137182611244565b60a43561137d81611315565b825260c435916020810192835260e435611396816104ef565b60408201523033036115af5761144c926113b9610baf610ba16103fb3687611fd4565b8251825191151590151514905f1380806115a7575b61154b575b159081611543575b506114f1575b5060207f000000000000000000000000000000000000000000000000000000000000000091604051905f825261141783836112b5565b60405195869283927ff3cd914c0000000000000000000000000000000000000000000000000000000084528760048501612446565b03815f73ffffffffffffffffffffffffffffffffffffffff86165af1928315610457576103fb6114909361148a926114c1966114c457503690611fd4565b906128e0565b50507f34ceaf9e000000000000000000000000000000000000000000000000000000005f5260020b60045250602490565b5ffd5b6114e59060203d6020116114ea575b6114dd81836112b5565b810190612437565b6103f3565b503d6114d3565b61153b61152f610c97610c89611511610c575f5462ffffff9060a01c1690565b6fffffffffffffffffffffffffffffffff86519116600f0b906123c7565b825190600f0b90612405565b90525f6113e1565b90505f6113db565b6115a0611594610c97610c8961156b610d8b5f5462ffffff9060a01c1690565b61158e610c976fffffffffffffffffffffffffffffffff8a519316600f0b612398565b906123c7565b845190600f0b90612405565b83526113d3565b5081156113ce565b6040517f08c379a000000000000000000000000000000000000000000000000000000000815260206004820152602b60248201527f73696d756c617465537761702063616e206f6e6c792062652063616c6c65642060448201527f62792074686520686f6f6b0000000000000000000000000000000000000000006064820152608490fd5b3461026057610160600319360112610260576116516004356104ef565b61165a36610264565b61166336610aa3565b61012435906101443567ffffffffffffffff811161026057611689903690600401610293565b505073ffffffffffffffffffffffffffffffffffffffff7f0000000000000000000000000000000000000000000000000000000000000000169283330361061e575f926116df610baf610ba16103fb3686611fd4565b925f60206116ec83612880565b151586151514920135128080611925575b611852575b159081611849575b50611743575b604080517fb47b2fb1000000000000000000000000000000000000000000000000000000008152600f86900b6020820152f35b61179b9192935061178f90845f1461184157600f0b5b61178961178361177e6117735f5462ffffff9060a01c1690565b62ffffff1660020b90565b6124ef565b60020b90565b906129c0565b620f424090600f0b0590565b911561182f5761037660206117b0920161288a565b915b803b15610260576040517f156e29f60000000000000000000000000000000000000000000000000000000081523060048201526024810193909352600f82900b60448401525f908390606490829084905af1918215610457576106ea9261181b575b8080611710565b8061044b5f611829936112b5565b5f611814565b61037661183b9161288a565b916117b2565b60801d611759565b9050155f61170a565b945083156119165761187c61178f83600f0b5b6117896117836117735f5462ffffff9060a01c1690565b948415611905576118926103766020860161288a565b873b15610260576040517f156e29f60000000000000000000000000000000000000000000000000000000081523060048201526024810191909152600f87900b60448201525f81606481838c5af18015610457576118f1575b50611702565b8061044b5f6118ff936112b5565b5f6118eb565b6119116103768561288a565b611892565b61187c61178f8360801d611865565b50816116fd565b61012060031982011261026057600435611945816104ef565b9160a07fffffffffffffffffffffffffffffffffffffffffffffffffffffffffffffffdc8301126102605760249160c4359160e43591610104359067ffffffffffffffff8211610260576105a291600401610293565b34610260576119a93661192c565b50505050505073ffffffffffffffffffffffffffffffffffffffff7f000000000000000000000000000000000000000000000000000000000000000016330361061e577f0a85dc29000000000000000000000000000000000000000000000000000000005f5260045ffd5b3461026057611a223661074a565b5f526003602052602073ffffffffffffffffffffffffffffffffffffffff60405f205416604051908152f35b34610260575f60031936011261026057602060405173ffffffffffffffffffffffffffffffffffffffff7f0000000000000000000000000000000000000000000000000000000000000000168152f35b61087f909291926101a0806101c0830195611abb84825115159052565b60208181015115159085015260408181015115159085015260608181015115159085015260808181015115159085015260a08181015115159085015260c08181015115159085015260e081810151151590850152610100818101511515908501526101208181015115159085015261014081810151151590850152610160818101511515908501526101808181015115159085015201511515910152565b34610260575f600319360112610260575f6101a0604051611b7981611260565b8281528260208201528260408201528260608201528260808201528260a08201528260c08201528260e0820152826101008201528261012082015282610140820152826101608201528261018082015201526106ea611bd66112f6565b600181525f6020820152600160408201525f60608201525f60808201525f60a0820152611c0660c0820160019052565b600160e08201525f6101008201525f610120820152611c29610140820160019052565b60016101608201525f6101808201525f6101a082015260405191829182611a9e565b3461026057611c593661074a565b5f60c0604051611c688161127d565b8281528260208201528260408201528260608201528260808201528260a082015201525f5260076020526106ea60405f20611d20611d14600560405193611cae8561127d565b805462ffffff81168652611cd190611cc590611137565b62ffffff166020870152565b6001810154604086015260028101546060860152611d00611cf6600383015460020b90565b60020b6080870152565b600481015460a0860152015462ffffff1690565b62ffffff1660c0830152565b6040519182918291909160c062ffffff8160e08401958281511685528260208201511660208601526040810151604086015260608101516060860152608081015160020b608086015260a081015160a0860152015116910152565b34610260575f60031936011261026057602060405160788152f35b34610260575f600319360112610260576020604051620f42408152f35b34610260575f60031936011261026057602060405173ffffffffffffffffffffffffffffffffffffffff7f0000000000000000000000000000000000000000000000000000000000000000168152f35b346102605760e060031936011261026057611e1f6004356104ef565b611e2836610264565b50611e3460c4356104ef565b73ffffffffffffffffffffffffffffffffffffffff7f000000000000000000000000000000000000000000000000000000000000000016330361061e577f4a58ec19000000000000000000000000000000000000000000000000000000005f5260045ffd5b34610260575f6003193601126102605760206040516127108152f35b34610260575f6003193601126102605760206040516109c48152f35b3461026057611edf3661074a565b5f526005602052602060405f2054604051908152f35b346102605760206003193601126102605773ffffffffffffffffffffffffffffffffffffffff600435611f27816104ef565b611f2f612894565b168015611f9b5773ffffffffffffffffffffffffffffffffffffffff5f54827fffffffffffffffffffffffff00000000000000000000000000000000000000008216175f55167f8be0079c531659141344cd1fd0a4f28419497f9722a3daafe3b4186f6b6457e05f80a3005b7f1e4fbdf7000000000000000000000000000000000000000000000000000000005f525f60045260245ffd5b62ffffff81160361026057565b91908260a091031261026057604051611fec81611299565b60808082948035611ffc816104ef565b8452602081013561200c816104ef565b6020850152604081013561201f81611fc7565b6040850152606081013561203281610819565b6060850152013591612043836104ef565b0152565b73ffffffffffffffffffffffffffffffffffffffff6080809282813561206c816104ef565b16855282602082013561207e816104ef565b16602086015262ffffff604082013561209681611fc7565b16604086015260608101356120aa81610819565b60020b606086015201356120bd816104ef565b16910152565b601f82602094937fffffffffffffffffffffffffffffffffffffffffffffffffffffffffffffffe093818652868601375f8582860101520116010190565b8061211260c09261211f9694612047565b8160a082015201916120c3565b90565b6040513d5f823e3d90fd5b6040519061213a82611299565b5f6080838281528260208201528260408201528260608201520152565b5096919492969593909573ffffffffffffffffffffffffffffffffffffffff7f000000000000000000000000000000000000000000000000000000000000000016330361045c5773ffffffffffffffffffffffffffffffffffffffff60a094818095946121ea82967fc2cc0ae95873d7fa4e50998bc075ab443517931580a05c3f76d9fc983c666a5c9a8e8d8f8a612621565b9b888d205f52600260205261223d8260405f209073ffffffffffffffffffffffffffffffffffffffff167fffffffffffffffffffffffff0000000000000000000000000000000000000000825416179055565b888d205f52600360205261228f8460405f209073ffffffffffffffffffffffffffffffffffffffff167fffffffffffffffffffffffff0000000000000000000000000000000000000000825416179055565b888d209a6040519b8c5260020b60208c015260020b60408b015216606089015216608087015216941692a390565b7f4e487b71000000000000000000000000000000000000000000000000000000005f52601160045260245ffd5b6fffffffffffffffffffffffffffffffff670de0b6b3a7640000911602906fffffffffffffffffffffffffffffffff821691820361074557565b62ffffff16620f4240019062ffffff821161074557565b906fffffffffffffffffffffffffffffffff1690811561236b576fffffffffffffffffffffffffffffffff160490565b7f4e487b71000000000000000000000000000000000000000000000000000000005f52601260045260245ffd5b600f0b7fffffffffffffffffffffffffffffffff800000000000000000000000000000008114610745575f0390565b81810292915f82127f800000000000000000000000000000000000000000000000000000000000000082141661074557818405149015171561074557565b9190915f838201938412911290801582169115161761074557565b62ffffff16620f4240039062ffffff821161074557565b90816020910312610260575190565b9160206101409473ffffffffffffffffffffffffffffffffffffffff6040601f94612492887fffffffffffffffffffffffffffffffffffffffffffffffffffffffffffffffe098612047565b8051151560a08901528481015160c089015201511660e0860152610120610100860152805191829182610120880152018686015e5f8582860101520116010190565b906078820180921161074557565b9190820180921161074557565b60020b7fffffffffffffffffffffffffffffffffffffffffffffffffffffffffff8000008114610745575f0390565b519061087f82610819565b90816020910312610260575161211f81610819565b90929173ffffffffffffffffffffffffffffffffffffffff60a0916120bd8460c081019773ffffffffffffffffffffffffffffffffffffffff6080809282815116855282602082015116602086015262ffffff6040820151166040860152606081015160020b6060860152015116910152565b67ffffffffffffffff811161123f57601f017fffffffffffffffffffffffffffffffffffffffffffffffffffffffffffffffe01660200190565b9291926125f7826125b1565b9161260560405193846112b5565b829481845281830111610260578281602093845f960137010152565b9492909493919361263061212d565b5073ffffffffffffffffffffffffffffffffffffffff86169485158015612862575b61283a5773ffffffffffffffffffffffffffffffffffffffff966126ee6020946126db8a866126be61277b9c836127479a161096875f1461283357825b881561282b5750915b6126a0611306565b9e8f911673ffffffffffffffffffffffffffffffffffffffff169052565b1673ffffffffffffffffffffffffffffffffffffffff16878c0152565b6280000060408b015260020b60608a0152565b30608089015261273d8161270d60a08b205f52600160205260405f2090565b9060ff7fffffffffffffffffffffffffffffffffffffffffffffffffffffffffffffff0083541691151516179055565b1561281d576129d7565b604051809581927f6276cbbe000000000000000000000000000000000000000000000000000000008352886004840161253e565b03815f73ffffffffffffffffffffffffffffffffffffffff7f0000000000000000000000000000000000000000000000000000000000000000165af19182156104575761211f936127ea936127f0575b50426127e260a087205f52600560205260405f2090565b5536916125eb565b82612ec5565b6128119060203d602011612816575b61280981836112b5565b810190612529565b6127cb565b503d6127ff565b612826906124ef565b6129d7565b905091612698565b809261268f565b7ff4a44333000000000000000000000000000000000000000000000000000000005f5260045ffd5b5073ffffffffffffffffffffffffffffffffffffffff821615612652565b3561211f81611315565b3561211f816104ef565b73ffffffffffffffffffffffffffffffffffffffff5f541633036128b457565b7f118cdaa7000000000000000000000000000000000000000000000000000000005f523360045260245ffd5b61295960209173ffffffffffffffffffffffffffffffffffffffff9493604051848101918252600660408201526040815261291c6060826112b5565b5190206040519586809481937f1e2eaeaf000000000000000000000000000000000000000000000000000000008352600483019190602083019252565b0392165afa918215610457575f9261299f575b5073ffffffffffffffffffffffffffffffffffffffff8216918060a01c60020b9162ffffff808360b81c169260d01c1690565b6129b991925060203d6020116114ea576114dd81836112b5565b905f61296c565b90600f0b90600f0b029081600f0b91820361074557565b60020b908160ff1d82810118620d89e88111612d1d5763ffffffff9192600182167001fffcb933bd6fad37aa2d162d1a59400102700100000000000000000000000000000000189160028116612d01575b60048116612ce5575b60088116612cc9575b60108116612cad575b60208116612c91575b60408116612c75575b60808116612c59575b6101008116612c3d575b6102008116612c21575b6104008116612c05575b6108008116612be9575b6110008116612bcd575b6120008116612bb1575b6140008116612b95575b6180008116612b79575b620100008116612b5d575b620200008116612b42575b620400008116612b27575b6208000016612b0e575b5f12612ae7575b0160201c90565b7fffffffffffffffffffffffffffffffffffffffffffffffffffffffffffffffff04612ae0565b6b048a170391f7dc42444e8fa290910260801c90612ad9565b6d2216e584f5fa1ea926041bedfe9890920260801c91612acf565b916e5d6af8dedb81196699c329225ee6040260801c91612ac4565b916f09aa508b5b7a84e1c677de54f3e99bc90260801c91612ab9565b916f31be135f97d08fd981231505542fcfa60260801c91612aae565b916f70d869a156d2a1b890bb3df62baf32f70260801c91612aa4565b916fa9f746462d870fdf8a65dc1f90e061e50260801c91612a9a565b916fd097f3bdfd2022b8845ad8f792aa58250260801c91612a90565b916fe7159475a2c29b7443b29c7fa6e889d90260801c91612a86565b916ff3392b0822b70005940c7a398e4b70f30260801c91612a7c565b916ff987a7253ac413176f2b074cf7815e540260801c91612a72565b916ffcbe86c7900a88aedcffc83b479aa3a40260801c91612a68565b916ffe5dee046a99a2a811c461f1969c30530260801c91612a5e565b916fff2ea16466c96a3843ec78b326b528610260801c91612a55565b916fff973b41fa98c081472e6896dfb254c00260801c91612a4c565b916fffcb9843d60f6159c9db58835c9266440260801c91612a43565b916fffe5caca7e10e4e61c3624eaa0941cd00260801c91612a3a565b916ffff2e50f5f656932ef12357cf3c7fdcc0260801c91612a31565b916ffff97272373d413259a46990580e213a0260801c91612a28565b82613d5f565b519061087f82611fc7565b908160e091031261026057612da060c060405192612d4b8461127d565b8051612d5681611fc7565b84526020810151612d6681611fc7565b60208501526040810151604085015260608101516060850152612d8b6080820161251e565b608085015260a081015160a085015201612d23565b60c082015290565b6005612e9460c061087f94612ded62ffffff825116869062ffffff167fffffffffffffffffffffffffffffffffffffffffffffffffffffffffff000000825416179055565b602081015185547fffffffffffffffffffffffffffffffffffffffffffffffffffff000000ffffff1660189190911b65ffffff000000161785556040810151600186015560608101516002860155612e80612e4c608083015160020b90565b60038701907fffffffffffffffffffffffffffffffffffffffffffffffffffffffffff0000008254169062ffffff16179055565b60a08101516004860155015162ffffff1690565b91019062ffffff167fffffffffffffffffffffffffffffffffffffffffffffffffffffffffff000000825416179055565b90612ed99060208082518301019101612d2e565b6109c462ffffff612eed835162ffffff1690565b161061305e576020810191620493e062ffffff612f0d855162ffffff1690565b161161303657815162ffffff1662ffffff612f2e610c71865162ffffff1690565b91161161300e5760a0817f432632506f74db6583b1c612fbc7f00dc5ed2b2cdb9aeb8080ce8dca32dca49d61087f95836130099520612ff7612f80612f76895162ffffff1690565b935162ffffff1690565b604089015190878a0151908a612f9c60c082015162ffffff1690565b93612fb06080606084015193015160020b90565b6040805198895262ffffff998a1660208a0152938916938801939093526060870152608086015260020b60a085015260c084015290921660e0820152908190610100820190565b0390a1205f52600760205260405f2090565b612da8565b7f1d875955000000000000000000000000000000000000000000000000000000005f5260045ffd5b7f70f07d34000000000000000000000000000000000000000000000000000000005f5260045ffd5b7f23bba199000000000000000000000000000000000000000000000000000000005f5260045ffd5b90929162ffffff60a0916120bd8460c0810197612047565b6130ab6103fb3683611fd4565b916130be835f52600660205260405f2090565b906130d1845f52600760205260405f2090565b907f0000000000000000000000000000000000000000000000000000000000000000946130fe81876128e0565b5050949050600281019161311883546001870154906124e2565b421115613508578192939461315b8761323e94907fffffffffffffffffffffffffffffffffffffffffffffffffffffffffff0000008254169062ffffff16179055565b83547fffffffffffffffffffffffffffffffffffffffffffffffffffff000000ffffff16601888901b65ffffff0000001617845542600185015584546131a742916002840154906124e2565b11156134d8576131ed6131e560038601926131df610c7160056131d4610c71885462ffffff9060181c1690565b93015462ffffff1690565b90613dc7565b612710900490565b9062ffffff82111561349c5780547fffffffffffffffffffffffffffffffffffffffffffffffffffffffffff0000001662ffffff179055505b613239610c71600385015462ffffff1690565b613e8b565b61324781613ee0565b73ffffffffffffffffffffffffffffffffffffffff8716803b15610260576132a35f929183926040519485809481937f527596510000000000000000000000000000000000000000000000000000000083528d60048401613086565b03925af1948515610457576133016133c5956133b2957f98185ee38983c6cdd0d24b51d3401877d4098922144329a08d2ce3cbd38e49a39473ffffffffffffffffffffffffffffffffffffffff99613488575b505b42905588614000565b906133536003613312865460020b90565b845f61331e8284613d8d565b60020b131561347557610c719061333492613d8d565b955b019462ffffff61334c610c71885462ffffff1690565b91166124e2565b62ffffff811115613433575083547fffffffffffffffffffffffffffffffffffffffffffffffffffff000000ffffff1665ffffff0000001790935562ffffff925b60408051600292830b81529290910b602083015290a162ffffff1690565b6133bf6103fb3686611fd4565b90613e8b565b926133cf84613ee0565b1691823b1561026057613414925f92836040518096819582947f5275965100000000000000000000000000000000000000000000000000000000845260048401613086565b03925af18015610457576134255750565b8061044b5f61087f936112b5565b84547fffffffffffffffffffffffffffffffffffffffffffffffffffff000000ffffff16601882901b65ffffff000000161790945562ffffff90931692613394565b61348291610c7191613d8d565b95613336565b8061044b5f613496936112b5565b5f6132f6565b62ffffff6134d3921662ffffff167fffffffffffffffffffffffffffffffffffffffffffffffffffffffffff000000825416179055565b613226565b506134d3600384017fffffffffffffffffffffffffffffffffffffffffffffffffffffffffff0000008154169055565b50926001840190815461352142916002840154906124e2565b10613571575b5050917f98185ee38983c6cdd0d24b51d3401877d4098922144329a08d2ce3cbd38e49a373ffffffffffffffffffffffffffffffffffffffff946133016133b2946133c5966132f8565b845460181c60020b86818160020b135f146137b6579061359091613d8d565b6135a1611783600384015460020b90565b9060020b135f14613639575083547fffffffffffffffffffffffffffffffffffffffffffffffffffff000000ffffff16601886901b65ffffff0000001617845573ffffffffffffffffffffffffffffffffffffffff946133c5946133b29490937f98185ee38983c6cdd0d24b51d3401877d4098922144329a08d2ce3cbd38e49a3936133019291904290555b94965094505094613527565b6136e4916136758787959697907fffffffffffffffffffffffffffffffffffffffffffffffffffffffffff0000008254169062ffffff16179055565b83547fffffffffffffffffffffffffffffffffffffffffffffffffffff000000ffffff16601888901b65ffffff000000161784554290556136db600384017fffffffffffffffffffffffffffffffffffffffffffffffffffffffffff0000008154169055565b5462ffffff1690565b6136ed81613ee0565b73ffffffffffffffffffffffffffffffffffffffff8716803b15610260576137495f929183926040519485809481937f527596510000000000000000000000000000000000000000000000000000000083528d60048401613086565b03925af1948515610457576133016133c5956133b2957f98185ee38983c6cdd0d24b51d3401877d4098922144329a08d2ce3cbd38e49a39473ffffffffffffffffffffffffffffffffffffffff996137a2575b5061362d565b8061044b5f6137b0936112b5565b5f61379c565b6137bf91613d8d565b613590565b6137d7610baf610ba16103fb3685611fd4565b15613a135760206137e8910161288a565b73ffffffffffffffffffffffffffffffffffffffff7f0000000000000000000000000000000000000000000000000000000000000000166138426103766103768473ffffffffffffffffffffffffffffffffffffffff1690565b6040517efdd58e000000000000000000000000000000000000000000000000000000008152306004820152602481018290529290602084604481865afa938415610457575f946139f2575b5083156139ec57823b15610260576040517ff5298aca0000000000000000000000000000000000000000000000000000000081523060048201526024810191909152604481018490525f8160648183875af18015610457576139d8575b50813b15610260576040517f0b0d9c0900000000000000000000000000000000000000000000000000000000815273ffffffffffffffffffffffffffffffffffffffff82811660048301527f000000000000000000000000000000000000000000000000000000000000000016602482015260448101849052915f908390606490829084905af1908115610457577f175b790d44599ca70432cc8d1406504cb3a28fc13ff995c06dde6663412b211a9273ffffffffffffffffffffffffffffffffffffffff926139c4575b506040519384521691602090a2565b8061044b5f6139d2936112b5565b5f6139b5565b8061044b5f6139e6936112b5565b5f6138ea565b50505050565b613a0c91945060203d6020116114ea576114dd81836112b5565b925f61388d565b613a1c9061288a565b6137e8565b73ffffffffffffffffffffffffffffffffffffffff613a71613a57613a496103fb3686611fd4565b5f52600260205260405f2090565b5473ffffffffffffffffffffffffffffffffffffffff1690565b1615613b3757613a8a610baf610ba16103fb3685611fd4565b15613b1057613ab6610376610376613a57613a496103fb613aad6103768861288a565b965b3690611fd4565b803b15610260576040517f86b0c83f00000000000000000000000000000000000000000000000000000000815273ffffffffffffffffffffffffffffffffffffffff90921660048301525f90829081838160248101613414565b613ab6610376610376613a57613a496103fb613b316103766020890161288a565b96613aaf565b50565b90816020910312610260575161211f81611315565b73ffffffffffffffffffffffffffffffffffffffff604080928035613b7381611315565b151585526020810135602086015201356120bd816104ef565b9092613bad61014093613ba38461211f9997612047565b60a0840190613b4f565b15156101008201528161012082015201916120c3565b9291613bd8610baf6104026103fb3688611fd4565b80613d30575b613be85750505050565b602091613c12610376610376613a57613c046103fb368b611fd4565b5f52600360205260405f2090565b905f613c27610baf610ba16103fb368b611fd4565b91613c62604051978896879586947f831d7dd20000000000000000000000000000000000000000000000000000000086528c60048701613b8c565b03925af1908115610457575f91613d01575b50613c82575b8080806139ec565b613cf8613ce86103fb7f5fd57032db0db564bdfe22ff91033c11d319a1e6b3677e723545a7ba3e304b9393613aaf613cc06104026103fb3685611fd4565b7fffffffffffffffffffffffffffffffffffffffffffffffffffffffffffffff008154169055565b6040519081529081906020820190565b0390a15f613c7a565b613d23915060203d602011613d29575b613d1b81836112b5565b810190613b3a565b5f613c74565b503d613d11565b50613d58613d52613d446103fb3688611fd4565b5f52600560205260405f2090565b546124d4565b4210613bde565b7f8b86327a000000000000000000000000000000000000000000000000000000005f5260020b60045260245ffd5b9060020b9060020b0390627fffff82137fffffffffffffffffffffffffffffffffffffffffffffffffffffffffff80000083121761074557565b8181029291811591840414171561074557565b5f8115613e85578180600114613e7d57600214613e765760016101338310166001600b84101617613e69575060017fffffffffffffffffffffffffffffffffffffffffffffffffffffffffffffffff60025b60018111613e4257508290048111610745570290565b9280820481116107455760018416613e60575b80029260011c613e2c565b80920291613e55565b91906002900a9161074557565b5050600490565b505050600190565b50505f90565b905f5260076020526402540be400613eaf60405f20926131df600485015491613dda565b0490549062ffffff821681018091116107455762ffffff9160181c82169081811115613eda57501690565b90501690565b62ffffff1662030d4081029080820462030d401490151715610745577fffffffffffffffffff000000ffffffffffffffffffffffffffffffffffffffff76ffffff0000000000000000000000000000000000000000620f42405f54930460a01b169116175f55565b9160a061087f929493613f6081610100810197612047565b0190613b4f565b3d15613f91573d90613f78826125b1565b91613f8660405193846112b5565b82523d5f602084013e565b606090565b90602082519201517fffffffff0000000000000000000000000000000000000000000000000000000081169260048110613fce575050565b7fffffffff00000000000000000000000000000000000000000000000000000000929350829060040360031b1b161690565b303b1561026057614041915f9160405193849283927fb306651500000000000000000000000000000000000000000000000000000000845260048401613f48565b038183305af1908161419c575b5061413d5761405b613f67565b7f34ceaf9e000000000000000000000000000000000000000000000000000000007fffffffff000000000000000000000000000000000000000000000000000000006140a683613f96565b16036140b8578051015162ffffff1690565b6040517f08c379a000000000000000000000000000000000000000000000000000000000815260206004820152602860248201527f72657475726e65642073656c6563746f722073686f756c64206265205469636b60448201527f52657475726e65640000000000000000000000000000000000000000000000006064820152608490fd5b6040517f08c379a000000000000000000000000000000000000000000000000000000000815260206004820152601960248201527f73696d756c61746520737761702073686f756c64206661696c000000000000006044820152606490fd5b8061044b5f6141aa936112b5565b5f61404e56","linkReferences":{}},"methodIdentifiers":{"BPS_DENOMINATOR()":"e1a45218","FEE_CONTROL_DENOMINATOR()":"5339b03b","FEE_DENOMINATOR()":"d73792a9","MAX_DECAY_FILTER_BPS()":"69b84eb1","MAX_LP_FEE()":"3fc48eba","MAX_MEV_MODULE_DELAY()":"ccc8dc43","MIN_BASE_FEE()":"ea78e61a","PROTOCOL_FEE_NUMERATOR()":"334e8367","afterAddLiquidity(address,(address,address,uint24,int24,address),(int24,int24,int256,bytes32),int256,int256,bytes)":"9f063efc","afterDonate(address,(address,address,uint24,int24,address),uint256,uint256,bytes)":"e1b4af69","afterInitialize(address,(address,address,uint24,int24,address),uint160,int24)":"6fe7e6eb","afterRemoveLiquidity(address,(address,address,uint24,int24,address),(int24,int24,int256,bytes32),int256,int256,bytes)":"6c2bbe7e","afterSwap(address,(address,address,uint24,int24,address),(bool,int256,uint160),int256,bytes)":"b47b2fb1","beforeAddLiquidity(address,(address,address,uint24,int24,address),(int24,int24,int256,bytes32),bytes)":"259982e5","beforeDonate(address,(address,address,uint24,int24,address),uint256,uint256,bytes)":"b6a8b0fa","beforeInitialize(address,(address,address,uint24,int24,address),uint160)":"dc98354e","beforeRemoveLiquidity(address,(address,address,uint24,int24,address),(int24,int24,int256,bytes32),bytes)":"21d0ee70","beforeSwap(address,(address,address,uint24,int24,address),(bool,int256,uint160),bytes)":"575e24b4","factory()":"c45a0155","getHookPermissions()":"c4e833ce","initializeMevModule((address,address,uint24,int24,address),bytes)":"015e3c29","initializePool(address,address,int24,int24,address,address,bytes)":"564d49e7","initializePoolOpen(address,address,int24,int24,bytes)":"4c2b2876","mevModule(bytes32)":"bdf22863","mevModuleEnabled(bytes32)":"2b887e0f","owner()":"8da5cb5b","poolConfigVars(bytes32)":"ca946313","poolCreationTimestamp(bytes32)":"ee4d96cf","poolFeeVars(bytes32)":"844dbde6","poolManager()":"dc4c90d3","protocolFee()":"b0e21e8a","renounceOwnership()":"715018a6","simulateSwap((address,address,uint24,int24,address),(bool,int256,uint160))":"b3066515","supportsInterface(bytes4)":"01ffc9a7","transferOwnership(address)":"f2fde38b","weth()":"3fc8cef3"},"id":128}