{"abi":[{"type":"constructor","inputs":[{"name":"_poolManager","type":"address","internalType":"address"},{"name":"_factory","type":"address","internalType":"address"},{"name":"_weth","type":"address","internalType":"address"}],"stateMutability":"nonpayable"},{"type":"function","name":"FEE_DENOMINATOR","inputs":[],"outputs":[{"name":"","type":"int128","internalType":"int128"}],"stateMutability":"view"},{"type":"function","name":"MAX_LP_FEE","inputs":[],"outputs":[{"name":"","type":"uint24","internalType":"uint24"}],"stateMutability":"view"},{"type":"function","name":"MAX_MEV_MODULE_DELAY","inputs":[],"outputs":[{"name":"","type":"uint256","internalType":"uint256"}],"stateMutability":"view"},{"type":"function","name":"PROTOCOL_FEE_NUMERATOR","inputs":[],"outputs":[{"name":"","type":"uint256","internalType":"uint256"}],"stateMutability":"view"},{"type":"function","name":"afterAddLiquidity","inputs":[{"name":"sender","type":"address","internalType":"address"},{"name":"key","type":"tuple","internalType":"struct PoolKey","components":[{"name":"currency0","type":"address","internalType":"Currency"},{"name":"currency1","type":"address","internalType":"Currency"},{"name":"fee","type":"uint24","internalType":"uint24"},{"name":"tickSpacing","type":"int24","internalType":"int24"},{"name":"hooks","type":"address","internalType":"contract IHooks"}]},{"name":"params","type":"tuple","internalType":"struct IPoolManager.ModifyLiquidityParams","components":[{"name":"tickLower","type":"int24","internalType":"int24"},{"name":"tickUpper","type":"int24","internalType":"int24"},{"name":"liquidityDelta","type":"int256","internalType":"int256"},{"name":"salt","type":"bytes32","internalType":"bytes32"}]},{"name":"delta","type":"int256","internalType":"BalanceDelta"},{"name":"feesAccrued","type":"int256","internalType":"BalanceDelta"},{"name":"hookData","type":"bytes","internalType":"bytes"}],"outputs":[{"name":"","type":"bytes4","internalType":"bytes4"},{"name":"","type":"int256","internalType":"BalanceDelta"}],"stateMutability":"nonpayable"},{"type":"function","name":"afterDonate","inputs":[{"name":"sender","type":"address","internalType":"address"},{"name":"key","type":"tuple","internalType":"struct PoolKey","components":[{"name":"currency0","type":"address","internalType":"Currency"},{"name":"currency1","type":"address","internalType":"Currency"},{"name":"fee","type":"uint24","internalType":"uint24"},{"name":"tickSpacing","type":"int24","internalType":"int24"},{"name":"hooks","type":"address","internalType":"contract IHooks"}]},{"name":"amount0","type":"uint256","internalType":"uint256"},{"name":"amount1","type":"uint256","internalType":"uint256"},{"name":"hookData","type":"bytes","internalType":"bytes"}],"outputs":[{"name":"","type":"bytes4","internalType":"bytes4"}],"stateMutability":"nonpayable"},{"type":"function","name":"afterInitialize","inputs":[{"name":"sender","type":"address","internalType":"address"},{"name":"key","type":"tuple","internalType":"struct PoolKey","components":[{"name":"currency0","type":"address","internalType":"Currency"},{"name":"currency1","type":"address","internalType":"Currency"},{"name":"fee","type":"uint24","internalType":"uint24"},{"name":"tickSpacing","type":"int24","internalType":"int24"},{"name":"hooks","type":"address","internalType":"contract IHooks"}]},{"name":"sqrtPriceX96","type":"uint160","internalType":"uint160"},{"name":"tick","type":"int24","internalType":"int24"}],"outputs":[{"name":"","type":"bytes4","internalType":"bytes4"}],"stateMutability":"nonpayable"},{"type":"function","name":"afterRemoveLiquidity","inputs":[{"name":"sender","type":"address","internalType":"address"},{"name":"key","type":"tuple","internalType":"struct PoolKey","components":[{"name":"currency0","type":"address","internalType":"Currency"},{"name":"currency1","type":"address","internalType":"Currency"},{"name":"fee","type":"uint24","internalType":"uint24"},{"name":"tickSpacing","type":"int24","internalType":"int24"},{"name":"hooks","type":"address","internalType":"contract IHooks"}]},{"name":"params","type":"tuple","internalType":"struct IPoolManager.ModifyLiquidityParams","components":[{"name":"tickLower","type":"int24","internalType":"int24"},{"name":"tickUpper","type":"int24","internalType":"int24"},{"name":"liquidityDelta","type":"int256","internalType":"int256"},{"name":"salt","type":"bytes32","internalType":"bytes32"}]},{"name":"delta","type":"int256","internalType":"BalanceDelta"},{"name":"feesAccrued","type":"int256","internalType":"BalanceDelta"},{"name":"hookData","type":"bytes","internalType":"bytes"}],"outputs":[{"name":"","type":"bytes4","internalType":"bytes4"},{"name":"","type":"int256","internalType":"BalanceDelta"}],"stateMutability":"nonpayable"},{"type":"function","name":"afterSwap","inputs":[{"name":"sender","type":"address","internalType":"address"},{"name":"key","type":"tuple","internalType":"struct PoolKey","components":[{"name":"currency0","type":"address","internalType":"Currency"},{"name":"currency1","type":"address","internalType":"Currency"},{"name":"fee","type":"uint24","internalType":"uint24"},{"name":"tickSpacing","type":"int24","internalType":"int24"},{"name":"hooks","type":"address","internalType":"contract IHooks"}]},{"name":"params","type":"tuple","internalType":"struct IPoolManager.SwapParams","components":[{"name":"zeroForOne","type":"bool","internalType":"bool"},{"name":"amountSpecified","type":"int256","internalType":"int256"},{"name":"sqrtPriceLimitX96","type":"uint160","internalType":"uint160"}]},{"name":"delta","type":"int256","internalType":"BalanceDelta"},{"name":"hookData","type":"bytes","internalType":"bytes"}],"outputs":[{"name":"","type":"bytes4","internalType":"bytes4"},{"name":"","type":"int128","internalType":"int128"}],"stateMutability":"nonpayable"},{"type":"function","name":"beforeAddLiquidity","inputs":[{"name":"sender","type":"address","internalType":"address"},{"name":"key","type":"tuple","internalType":"struct PoolKey","components":[{"name":"currency0","type":"address","internalType":"Currency"},{"name":"currency1","type":"address","internalType":"Currency"},{"name":"fee","type":"uint24","internalType":"uint24"},{"name":"tickSpacing","type":"int24","internalType":"int24"},{"name":"hooks","type":"address","internalType":"contract IHooks"}]},{"name":"params","type":"tuple","internalType":"struct IPoolManager.ModifyLiquidityParams","components":[{"name":"tickLower","type":"int24","internalType":"int24"},{"name":"tickUpper","type":"int24","internalType":"int24"},{"name":"liquidityDelta","type":"int256","internalType":"int256"},{"name":"salt","type":"bytes32","internalType":"bytes32"}]},{"name":"hookData","type":"bytes","internalType":"bytes"}],"outputs":[{"name":"","type":"bytes4","internalType":"bytes4"}],"stateMutability":"nonpayable"},{"type":"function","name":"beforeDonate","inputs":[{"name":"sender","type":"address","internalType":"address"},{"name":"key","type":"tuple","internalType":"struct PoolKey","components":[{"name":"currency0","type":"address","internalType":"Currency"},{"name":"currency1","type":"address","internalType":"Currency"},{"name":"fee","type":"uint24","internalType":"uint24"},{"name":"tickSpacing","type":"int24","internalType":"int24"},{"name":"hooks","type":"address","internalType":"contract IHooks"}]},{"name":"amount0","type":"uint256","internalType":"uint256"},{"name":"amount1","type":"uint256","internalType":"uint256"},{"name":"hookData","type":"bytes","internalType":"bytes"}],"outputs":[{"name":"","type":"bytes4","internalType":"bytes4"}],"stateMutability":"nonpayable"},{"type":"function","name":"beforeInitialize","inputs":[{"name":"sender","type":"address","internalType":"address"},{"name":"key","type":"tuple","internalType":"struct PoolKey","components":[{"name":"currency0","type":"address","internalType":"Currency"},{"name":"currency1","type":"address","internalType":"Currency"},{"name":"fee","type":"uint24","internalType":"uint24"},{"name":"tickSpacing","type":"int24","internalType":"int24"},{"name":"hooks","type":"address","internalType":"contract IHooks"}]},{"name":"sqrtPriceX96","type":"uint160","internalType":"uint160"}],"outputs":[{"name":"","type":"bytes4","internalType":"bytes4"}],"stateMutability":"nonpayable"},{"type":"function","name":"beforeRemoveLiquidity","inputs":[{"name":"sender","type":"address","internalType":"address"},{"name":"key","type":"tuple","internalType":"struct PoolKey","components":[{"name":"currency0","type":"address","internalType":"Currency"},{"name":"currency1","type":"address","internalType":"Currency"},{"name":"fee","type":"uint24","internalType":"uint24"},{"name":"tickSpacing","type":"int24","internalType":"int24"},{"name":"hooks","type":"address","internalType":"contract IHooks"}]},{"name":"params","type":"tuple","internalType":"struct IPoolManager.ModifyLiquidityParams","components":[{"name":"tickLower","type":"int24","internalType":"int24"},{"name":"tickUpper","type":"int24","internalType":"int24"},{"name":"liquidityDelta","type":"int256","internalType":"int256"},{"name":"salt","type":"bytes32","internalType":"bytes32"}]},{"name":"hookData","type":"bytes","internalType":"bytes"}],"outputs":[{"name":"","type":"bytes4","internalType":"bytes4"}],"stateMutability":"nonpayable"},{"type":"function","name":"beforeSwap","inputs":[{"name":"sender","type":"address","internalType":"address"},{"name":"key","type":"tuple","internalType":"struct PoolKey","components":[{"name":"currency0","type":"address","internalType":"Currency"},{"name":"currency1","type":"address","internalType":"Currency"},{"name":"fee","type":"uint24","internalType":"uint24"},{"name":"tickSpacing","type":"int24","internalType":"int24"},{"name":"hooks","type":"address","internalType":"contract IHooks"}]},{"name":"params","type":"tuple","internalType":"struct IPoolManager.SwapParams","components":[{"name":"zeroForOne","type":"bool","internalType":"bool"},{"name":"amountSpecified","type":"int256","internalType":"int256"},{"name":"sqrtPriceLimitX96","type":"uint160","internalType":"uint160"}]},{"name":"hookData","type":"bytes","internalType":"bytes"}],"outputs":[{"name":"","type":"bytes4","internalType":"bytes4"},{"name":"","type":"int256","internalType":"BeforeSwapDelta"},{"name":"","type":"uint24","internalType":"uint24"}],"stateMutability":"nonpayable"},{"type":"function","name":"liquidFee","inputs":[{"name":"","type":"bytes32","internalType":"PoolId"}],"outputs":[{"name":"","type":"uint24","internalType":"uint24"}],"stateMutability":"view"},{"type":"function","name":"factory","inputs":[],"outputs":[{"name":"","type":"address","internalType":"address"}],"stateMutability":"view"},{"type":"function","name":"getHookPermissions","inputs":[],"outputs":[{"name":"","type":"tuple","internalType":"struct Hooks.Permissions","components":[{"name":"beforeInitialize","type":"bool","internalType":"bool"},{"name":"afterInitialize","type":"bool","internalType":"bool"},{"name":"beforeAddLiquidity","type":"bool","internalType":"bool"},{"name":"afterAddLiquidity","type":"bool","internalType":"bool"},{"name":"beforeRemoveLiquidity","type":"bool","internalType":"bool"},{"name":"afterRemoveLiquidity","type":"bool","internalType":"bool"},{"name":"beforeSwap","type":"bool","internalType":"bool"},{"name":"afterSwap","type":"bool","internalType":"bool"},{"name":"beforeDonate","type":"bool","internalType":"bool"},{"name":"afterDonate","type":"bool","internalType":"bool"},{"name":"beforeSwapReturnDelta","type":"bool","internalType":"bool"},{"name":"afterSwapReturnDelta","type":"bool","internalType":"bool"},{"name":"afterAddLiquidityReturnDelta","type":"bool","internalType":"bool"},{"name":"afterRemoveLiquidityReturnDelta","type":"bool","internalType":"bool"}]}],"stateMutability":"pure"},{"type":"function","name":"initializeMevModule","inputs":[{"name":"poolKey","type":"tuple","internalType":"struct PoolKey","components":[{"name":"currency0","type":"address","internalType":"Currency"},{"name":"currency1","type":"address","internalType":"Currency"},{"name":"fee","type":"uint24","internalType":"uint24"},{"name":"tickSpacing","type":"int24","internalType":"int24"},{"name":"hooks","type":"address","internalType":"contract IHooks"}]},{"name":"mevModuleData","type":"bytes","internalType":"bytes"}],"outputs":[],"stateMutability":"nonpayable"},{"type":"function","name":"initializePool","inputs":[{"name":"liquid","type":"address","internalType":"address"},{"name":"pairedToken","type":"address","internalType":"address"},{"name":"tickIfToken0IsLiquid","type":"int24","internalType":"int24"},{"name":"tickSpacing","type":"int24","internalType":"int24"},{"name":"_locker","type":"address","internalType":"address"},{"name":"_mevModule","type":"address","internalType":"address"},{"name":"poolData","type":"bytes","internalType":"bytes"}],"outputs":[{"name":"","type":"tuple","internalType":"struct PoolKey","components":[{"name":"currency0","type":"address","internalType":"Currency"},{"name":"currency1","type":"address","internalType":"Currency"},{"name":"fee","type":"uint24","internalType":"uint24"},{"name":"tickSpacing","type":"int24","internalType":"int24"},{"name":"hooks","type":"address","internalType":"contract IHooks"}]}],"stateMutability":"nonpayable"},{"type":"function","name":"initializePoolOpen","inputs":[{"name":"liquid","type":"address","internalType":"address"},{"name":"pairedToken","type":"address","internalType":"address"},{"name":"tickIfToken0IsLiquid","type":"int24","internalType":"int24"},{"name":"tickSpacing","type":"int24","internalType":"int24"},{"name":"poolData","type":"bytes","internalType":"bytes"}],"outputs":[{"name":"","type":"tuple","internalType":"struct PoolKey","components":[{"name":"currency0","type":"address","internalType":"Currency"},{"name":"currency1","type":"address","internalType":"Currency"},{"name":"fee","type":"uint24","internalType":"uint24"},{"name":"tickSpacing","type":"int24","internalType":"int24"},{"name":"hooks","type":"address","internalType":"contract IHooks"}]}],"stateMutability":"nonpayable"},{"type":"function","name":"mevModule","inputs":[{"name":"","type":"bytes32","internalType":"PoolId"}],"outputs":[{"name":"","type":"address","internalType":"address"}],"stateMutability":"view"},{"type":"function","name":"mevModuleEnabled","inputs":[{"name":"","type":"bytes32","internalType":"PoolId"}],"outputs":[{"name":"","type":"bool","internalType":"bool"}],"stateMutability":"view"},{"type":"function","name":"owner","inputs":[],"outputs":[{"name":"","type":"address","internalType":"address"}],"stateMutability":"view"},{"type":"function","name":"pairedFee","inputs":[{"name":"","type":"bytes32","internalType":"PoolId"}],"outputs":[{"name":"","type":"uint24","internalType":"uint24"}],"stateMutability":"view"},{"type":"function","name":"poolCreationTimestamp","inputs":[{"name":"","type":"bytes32","internalType":"PoolId"}],"outputs":[{"name":"","type":"uint256","internalType":"uint256"}],"stateMutability":"view"},{"type":"function","name":"poolManager","inputs":[],"outputs":[{"name":"","type":"address","internalType":"contract IPoolManager"}],"stateMutability":"view"},{"type":"function","name":"protocolFee","inputs":[],"outputs":[{"name":"","type":"uint24","internalType":"uint24"}],"stateMutability":"view"},{"type":"function","name":"renounceOwnership","inputs":[],"outputs":[],"stateMutability":"nonpayable"},{"type":"function","name":"supportsInterface","inputs":[{"name":"interfaceId","type":"bytes4","internalType":"bytes4"}],"outputs":[{"name":"","type":"bool","internalType":"bool"}],"stateMutability":"pure"},{"type":"function","name":"transferOwnership","inputs":[{"name":"newOwner","type":"address","internalType":"address"}],"outputs":[],"stateMutability":"nonpayable"},{"type":"function","name":"weth","inputs":[],"outputs":[{"name":"","type":"address","internalType":"address"}],"stateMutability":"view"},{"type":"event","name":"ClaimProtocolFees","inputs":[{"name":"token","type":"address","indexed":true,"internalType":"address"},{"name":"amount","type":"uint256","indexed":false,"internalType":"uint256"}],"anonymous":false},{"type":"event","name":"MevModuleDisabled","inputs":[{"name":"","type":"bytes32","indexed":false,"internalType":"PoolId"}],"anonymous":false},{"type":"event","name":"OwnershipTransferred","inputs":[{"name":"previousOwner","type":"address","indexed":true,"internalType":"address"},{"name":"newOwner","type":"address","indexed":true,"internalType":"address"}],"anonymous":false},{"type":"event","name":"PoolCreatedFactory","inputs":[{"name":"pairedToken","type":"address","indexed":true,"internalType":"address"},{"name":"liquid","type":"address","indexed":true,"internalType":"address"},{"name":"poolId","type":"bytes32","indexed":false,"internalType":"PoolId"},{"name":"tickIfToken0IsLiquid","type":"int24","indexed":false,"internalType":"int24"},{"name":"tickSpacing","type":"int24","indexed":false,"internalType":"int24"},{"name":"locker","type":"address","indexed":false,"internalType":"address"},{"name":"mevModule","type":"address","indexed":false,"internalType":"address"}],"anonymous":false},{"type":"event","name":"PoolCreatedOpen","inputs":[{"name":"pairedToken","type":"address","indexed":true,"internalType":"address"},{"name":"liquid","type":"address","indexed":true,"internalType":"address"},{"name":"poolId","type":"bytes32","indexed":false,"internalType":"PoolId"},{"name":"tickIfToken0IsLiquid","type":"int24","indexed":false,"internalType":"int24"},{"name":"tickSpacing","type":"int24","indexed":false,"internalType":"int24"}],"anonymous":false},{"type":"event","name":"PoolInitialized","inputs":[{"name":"poolId","type":"bytes32","indexed":false,"internalType":"PoolId"},{"name":"liquidFee","type":"uint24","indexed":false,"internalType":"uint24"},{"name":"pairedFee","type":"uint24","indexed":false,"internalType":"uint24"}],"anonymous":false},{"type":"error","name":"LiquidFeeTooHigh","inputs":[]},{"type":"error","name":"ETHPoolNotAllowed","inputs":[]},{"type":"error","name":"HookNotImplemented","inputs":[]},{"type":"error","name":"MevModuleEnabled","inputs":[]},{"type":"error","name":"NotPoolManager","inputs":[]},{"type":"error","name":"OnlyFactory","inputs":[]},{"type":"error","name":"OwnableInvalidOwner","inputs":[{"name":"owner","type":"address","internalType":"address"}]},{"type":"error","name":"OwnableUnauthorizedAccount","inputs":[{"name":"account","type":"address","internalType":"address"}]},{"type":"error","name":"PairedFeeTooHigh","inputs":[]},{"type":"error","name":"PastCreationTimestamp","inputs":[]},{"type":"error","name":"UnsupportedInitializePath","inputs":[]},{"type":"error","name":"WethCannotBeLiquid","inputs":[]}],"bytecode":{"object":"0x60e06040523461035757604051601f6134b238819003918201601f19168301916001600160401b0383118484101761035b578084926060946040528339810103126103575761004d8161038f565b610065604061005e6020850161038f565b930161038f565b6001600160a01b039091166080525f6101a061007f61036f565b8281528260208201528260408201528260608201528260808201528260a08201528260c08201528260e0820152826101008201528261012082015282610140820152826101608201528261018082015201525f6101a06100dd61036f565b60018152826020820152600160408201528260608201528260808201528260a0820152600160c0820152600160e08201528261010082015282610120820152600161014082015260016101608201528261018082015201526120003016151560011480159061034a575b8015610339575b801561032c575b801561031f575b8015610312575b8015610302575b80156102f2575b80156102e6575b80156102da575b80156102ca575b80156102ba575b80156102ae575b80156102a2575b61028f57331561027c575f8054336001600160a01b0319821681178355604051949290916001600160a01b0316907f8be0079c531659141344cd1fd0a4f28419497f9722a3daafe3b4186f6b6457e09080a360a05260c05261310e90816103a482396080518181816102c9015281816103a1015281816104190152818161072101528181610a7901528181610be701528181610cda0152818161192601528181611a78015281816126a00152612dc1015260a05181818161060f015281816114ea01528181611b810152612edd015260c051818181611703015261183d0152f35b631e4fbdf760e01b5f525f60045260245ffd5b630732d7b560e51b5f523060045260245ffd5b5060013016151561019b565b50600230161515610194565b506004301615156001141561018d565b5060083016151560011415610186565b5060103016151561017f565b50602030161515610178565b5060403016151560011415610171565b506080301615156001141561016a565b5061010030161515610163565b506102003016151561015c565b5061040030161515610155565b50610800301615156001141561014e565b5061100030161515610147565b5f80fd5b634e487b7160e01b5f52604160045260245ffd5b604051906101c082016001600160401b0381118382101761035b57604052565b51906001600160a01b03821682036103575756fe60806040526004361015610011575f80fd5b5f5f3560e01c8063015e3c2914611b2f57806301ffc9a714611ac357806321d0ee7014611a4a578063259982e5146118fb5780632b887e0f146118cc5780632c78f4931461189d578063334e83671461187f5780633fc48eba146118615780633fc8cef3146118105780634c2b287614611676578063564d49e714611432578063575e24b414610c325780636c2bbe7e14610a495780636fe7e6eb14610b75578063715018a614610af75780638da5cb5b14610ac45780639f063efc14610a49578063b0e21e8a14610a24578063b47b2fb114610673578063b6a8b0fa1461029a578063bdf2286314610633578063c45a0155146105e2578063c4e833ce14610477578063ccc8dc431461045b578063d73792a91461043d578063dc4c90d3146103ec578063dc98354e14610339578063e1b4af691461029a578063ee4d96cf14610270578063f2fde38b146101a05763f732b64e1461016f575f80fd5b3461019d57602060031936011261019d5762ffffff6040602092600435815260078452205416604051908152f35b80fd5b503461019d57602060031936011261019d5773ffffffffffffffffffffffffffffffffffffffff6101cf611d85565b6101d7612cf0565b1680156102445773ffffffffffffffffffffffffffffffffffffffff8254827fffffffffffffffffffffffff00000000000000000000000000000000000000008216178455167f8be0079c531659141344cd1fd0a4f28419497f9722a3daafe3b4186f6b6457e08380a380f35b6024827f1e4fbdf700000000000000000000000000000000000000000000000000000000815280600452fd5b503461019d57602060031936011261019d5760406020916004358152600583522054604051908152f35b503461019d576004906102ac36611f9f565b50505050505073ffffffffffffffffffffffffffffffffffffffff7f0000000000000000000000000000000000000000000000000000000000000000163303610314577f0a85dc29000000000000000000000000000000000000000000000000000000008152fd5b7fae18210a000000000000000000000000000000000000000000000000000000008152fd5b503461019d5760e060031936011261019d57610353611d85565b5060a07fffffffffffffffffffffffffffffffffffffffffffffffffffffffffffffffdc36011261019d57600490610389611f7c565b5073ffffffffffffffffffffffffffffffffffffffff7f0000000000000000000000000000000000000000000000000000000000000000163303610314577f4a58ec19000000000000000000000000000000000000000000000000000000008152fd5b503461019d578060031936011261019d57602060405173ffffffffffffffffffffffffffffffffffffffff7f0000000000000000000000000000000000000000000000000000000000000000168152f35b503461019d578060031936011261019d576020604051620f42408152f35b503461019d578060031936011261019d57602060405160788152f35b503461019d578060031936011261019d576020816101c0926101a060405161049e81612022565b82815282858201528260408201528260608201528260808201528260a08201528260c08201528260e082015282610100820152826101208201528261014082015282610160820152826101808201520152806040516104fc81612022565b600181528381018281526040820160018152606083018481526080840185815260a0850186815260c08601906001825260e0870192600184526101008801948986526101208901968a88526101408a019860018a526101a06101608c019b60018d5261018081019d8e52019c8d526040519d8e916001835251151591015251151560408d015251151560608c015251151560808b015251151560a08a015251151560c089015251151560e08801525115156101008701525115156101208601525115156101408501525115156101608401525115156101808301525115156101a0820152f35b503461019d578060031936011261019d57602060405173ffffffffffffffffffffffffffffffffffffffff7f0000000000000000000000000000000000000000000000000000000000000000168152f35b503461019d57602060031936011261019d5773ffffffffffffffffffffffffffffffffffffffff6040602092600435815260038452205416604051908152f35b503461019d5761016060031936011261019d5761068e611d85565b5060a07fffffffffffffffffffffffffffffffffffffffffffffffffffffffffffffffdc36011261019d5760607fffffffffffffffffffffffffffffffffffffffffffffffffffffffffffffff3c36011261019d57610124356101443567ffffffffffffffff81116108b257610708903690600401611d57565b505073ffffffffffffffffffffffffffffffffffffffff7f000000000000000000000000000000000000000000000000000000000000000016908133036109fc57829160a061075636612177565b208452600160205260ff6040852054169161076f612bc6565b15158315151460e435861380806109f5575b6108eb575b1590816108e2575b506107c7575b6040848151907fb47b2fb1000000000000000000000000000000000000000000000000000000008252600f0b6020820152f35b84919293506107fd620f424091855f146108da57600f0b5b6107f462ffffff855460a01c1660020b6123b8565b60020b90612d3c565b600f0b059182935f146108b65773ffffffffffffffffffffffffffffffffffffffff610827612ccd565b16905b803b156108b2576040517f156e29f60000000000000000000000000000000000000000000000000000000081523060048201526024810192909252600f9390930b6044820152918290606490829084905af180156108a75761088e575b8080610794565b610899838092612088565b6108a35781610887565b5080fd5b6040513d85823e3d90fd5b8280fd5b73ffffffffffffffffffffffffffffffffffffffff6108d3612caa565b169061082a565b60801d6107df565b9050155f61078e565b945083156109e557620f424061091283600f0b5b62ffffff895460a01c1660020b90612d3c565b600f0b0594868686156109c15773ffffffffffffffffffffffffffffffffffffffff61093c612ccd565b16905b863b156108b2576040517f156e29f60000000000000000000000000000000000000000000000000000000081523060048201526024810192909252600f0b60448201528181606481838a5af180156109b65761099d575b5050610786565b816109a791612088565b6109b257865f610996565b8680fd5b6040513d84823e3d90fd5b73ffffffffffffffffffffffffffffffffffffffff6109de612caa565b169061093f565b620f42406109128360801d6108ff565b5081610781565b6004837fae18210a000000000000000000000000000000000000000000000000000000008152fd5b503461019d578060031936011261019d5762ffffff6020915460a01c16604051908152f35b503461019d57600490610a5b36611ec9565b5050505050505073ffffffffffffffffffffffffffffffffffffffff7f0000000000000000000000000000000000000000000000000000000000000000163303610314577f0a85dc29000000000000000000000000000000000000000000000000000000008152fd5b503461019d578060031936011261019d5773ffffffffffffffffffffffffffffffffffffffff6020915416604051908152f35b503461019d578060031936011261019d57610b10612cf0565b8073ffffffffffffffffffffffffffffffffffffffff81547fffffffffffffffffffffffff000000000000000000000000000000000000000081168355167f8be0079c531659141344cd1fd0a4f28419497f9722a3daafe3b4186f6b6457e08280a380f35b503461019d5761010060031936011261019d57610b90611d85565b5060a07fffffffffffffffffffffffffffffffffffffffffffffffffffffffffffffffdc36011261019d57600490610bc6611f7c565b50610bcf611eb9565b5073ffffffffffffffffffffffffffffffffffffffff7f0000000000000000000000000000000000000000000000000000000000000000163303610314577f0a85dc29000000000000000000000000000000000000000000000000000000008152fd5b503461019d5761014060031936011261019d57610c4d611d85565b5060a07fffffffffffffffffffffffffffffffffffffffffffffffffffffffffffffffdc36011261019d5760607fffffffffffffffffffffffffffffffffffffffffffffffffffffffffffffff3c36011261019d576101243567ffffffffffffffff81116108a357610cc3903690600401611d57565b73ffffffffffffffffffffffffffffffffffffffff7f0000000000000000000000000000000000000000000000000000000000000000169081330361140a578392610d0c612bc6565b60a0610d1736612177565b208652600160205260ff604087205416151590151514155f146113e75760a0610d3f36612177565b208552600760205262ffffff806040872054165b1662030d40810281810462030d4014821517156111735786547fffffffffffffffffff000000ffffffffffffffffffffffffffffffffffffffff16620f424090910460a01b76ffffff0000000000000000000000000000000000000000161786558590843b156108a357604051907f52759651000000000000000000000000000000000000000000000000000000008252610df0600483016122b7565b60a4820152818160c48183895af180156109b6576113ce575b5050610e13612d63565b610e1b612fcc565b60a0610e2636612177565b208552600460205260ff604086205416806113a3575b6111d5575b505060a0610e4e36612177565b208352600160205260ff60408420541690610e67612bc6565b60e4359015158315151485821280806111cd575b611024575b15908161101c575b50610ec5575b60608486604051917f575e24b400000000000000000000000000000000000000000000000000000000835260208301526040820152f35b9091925062ffffff845460a01c16610edc81612bd5565b90620f42400362ffffff8111610fef5785926fffffffffffffffffffffffffffffffff610f1b670de0b6b3a76400009462ffffff610f25951690612c0f565b16600f0b90612c6c565b05918260801b935f14610fcb5773ffffffffffffffffffffffffffffffffffffffff610f4f612ccd565b16905b803b156108b2576040517f156e29f60000000000000000000000000000000000000000000000000000000081523060048201526024810192909252600f9390930b6044820152918290606490829084905af180156108a757610fb6575b8080610e8e565b610fc1838092612088565b6108a3575f610faf565b73ffffffffffffffffffffffffffffffffffffffff610fe8612caa565b1690610f52565b6024867f4e487b710000000000000000000000000000000000000000000000000000000081526011600452fd5b90505f610e88565b945062ffffff865460a01c1661103981612bd5565b90620f42400162ffffff81116111a0576fffffffffffffffffffffffffffffffff9162ffffff61106a921690612c0f565b16600f0b7fffffffffffffffffffffffffffffffff800000000000000000000000000000008114611173576110ad670de0b6b3a7640000918803600f0b84612c6c565b0594868660801b96865f1461114f5773ffffffffffffffffffffffffffffffffffffffff6110d9612ccd565b16905b863b156108b2576040517f156e29f60000000000000000000000000000000000000000000000000000000081523060048201526024810192909252600f0b60448201528181606481838a5af180156109b65761113a575b5050610e80565b8161114491612088565b6109b257865f611133565b73ffffffffffffffffffffffffffffffffffffffff61116c612caa565b16906110dc565b6024877f4e487b710000000000000000000000000000000000000000000000000000000081526011600452fd5b6024887f4e487b710000000000000000000000000000000000000000000000000000000081526011600452fd5b508115610e7b565b60a06111e036612177565b208552600360205273ffffffffffffffffffffffffffffffffffffffff6040862054169060a061120f36612177565b208652600160205260ff60408720541691604051937f831d7dd2000000000000000000000000000000000000000000000000000000008552611253600486016122b7565b60c43580151580910361139f5760a486015260e43560c486015287610104359473ffffffffffffffffffffffffffffffffffffffff86168096036108a3576112be87958694859360209960e48601521515610104850152610140610124850152610144840191612350565b03925af1908115611394578491611355575b506112dd575b5f80610e41565b60a06112e836612177565b2083526004602052604083207fffffffffffffffffffffffffffffffffffffffffffffffffffffffffffffff0081541690557f5fd57032db0db564bdfe22ff91033c11d319a1e6b3677e723545a7ba3e304b93602060a061134836612177565b20604051908152a16112d6565b90506020813d60201161138c575b8161137060209383612088565b8101031261138857518015158103611388575f6112d0565b8380fd5b3d9150611363565b6040513d86823e3d90fd5b8880fd5b5060a06113af36612177565b2085526005602052604085205460788101809111610fef574210610e3c565b816113d891612088565b6113e357845f610e09565b8480fd5b60a06113f236612177565b208552600660205262ffffff80604087205416610d53565b6004847fae18210a000000000000000000000000000000000000000000000000000000008152fd5b503461019d5760e060031936011261019d5761144c611d85565b90611455611da8565b61145d611e99565b611465611ea9565b9360843573ffffffffffffffffffffffffffffffffffffffff81168091036113e35760a4359573ffffffffffffffffffffffffffffffffffffffff87168097036116725760c43567ffffffffffffffff81116109b2576114c9903690600401611d57565b906114d261238e565b5073ffffffffffffffffffffffffffffffffffffffff7f000000000000000000000000000000000000000000000000000000000000000016330361164a579360a098899484604061155f73ffffffffffffffffffffffffffffffffffffffff97967fc2cc0ae95873d7fa4e50998bc075ab443517931580a05c3f76d9fc983c666a5c9a89988d8f8a612414565b9b888d2081526002602052818120847fffffffffffffffffffffffff0000000000000000000000000000000000000000825416179055888d208152600360205220837fffffffffffffffffffffffff0000000000000000000000000000000000000000825416179055868b2098604051998a5260020b60208a015260020b60408901526060880152608087015216941692a3611648604051809273ffffffffffffffffffffffffffffffffffffffff6080809282815116855282602082015116602086015262ffffff6040820151166040860152606081015160020b6060860152015116910152565bf35b6004887f0c6d42ae000000000000000000000000000000000000000000000000000000008152fd5b8580fd5b503461019d5760a060031936011261019d57611690611d85565b611698611da8565b916116a1611e99565b6116a9611ea9565b9260843567ffffffffffffffff8111611388576116ca903690600401611d57565b916116d361238e565b5073ffffffffffffffffffffffffffffffffffffffff81169473ffffffffffffffffffffffffffffffffffffffff7f00000000000000000000000000000000000000000000000000000000000000001686146117e85750866117737f09cc09ed021cf0d9112cf6d1bdc8689bfedd367df1ac5a550dfd6a07955b8d1994606094898860a09c73ffffffffffffffffffffffffffffffffffffffff97612414565b968888209560405196875260020b602087015260020b60408601521692a3611648604051809273ffffffffffffffffffffffffffffffffffffffff6080809282815116855282602082015116602086015262ffffff6040820151166040860152606081015160020b6060860152015116910152565b807f60456f430000000000000000000000000000000000000000000000000000000060049252fd5b503461019d578060031936011261019d57602060405173ffffffffffffffffffffffffffffffffffffffff7f0000000000000000000000000000000000000000000000000000000000000000168152f35b503461019d578060031936011261019d576020604051620493e08152f35b503461019d578060031936011261019d57602060405162030d408152f35b503461019d57602060031936011261019d5762ffffff6040602092600435815260068452205416604051908152f35b503461019d57602060031936011261019d5760ff60406020926004358152600484522054166040519015158152f35b503461019d5761190a36611dec565b505050905073ffffffffffffffffffffffffffffffffffffffff7f0000000000000000000000000000000000000000000000000000000000000000163303611a225760a06119583683612243565b208252600460205260ff60408320541690816119c6575b5061199e5760206040517f259982e5000000000000000000000000000000000000000000000000000000008152f35b807f678a240e0000000000000000000000000000000000000000000000000000000060049252fd5b60a091506119d5903690612243565b20815260056020526040812054607881018091116119f55742105f61196f565b6024827f4e487b710000000000000000000000000000000000000000000000000000000081526011600452fd5b6004827fae18210a000000000000000000000000000000000000000000000000000000008152fd5b503461019d57600490611a5c36611dec565b505050505073ffffffffffffffffffffffffffffffffffffffff7f0000000000000000000000000000000000000000000000000000000000000000163303610314577f0a85dc29000000000000000000000000000000000000000000000000000000008152fd5b503461019d57602060031936011261019d576004357fffffffff0000000000000000000000000000000000000000000000000000000081168091036108a3576020907f1ac7941f0000000000000000000000000000000000000000000000000000000060405191148152f35b5034611d2b57600319360160c08112611d2b5760a013611d2b5760a43567ffffffffffffffff8111611d2b57611b69903690600401611d57565b9073ffffffffffffffffffffffffffffffffffffffff7f0000000000000000000000000000000000000000000000000000000000000000163303611d2f5760a0611bb2366120c9565b205f52600360205273ffffffffffffffffffffffffffffffffffffffff60405f20541691823b15611d2b57604051927f645a153400000000000000000000000000000000000000000000000000000000845260043573ffffffffffffffffffffffffffffffffffffffff8116809103611d2b57600485015260243573ffffffffffffffffffffffffffffffffffffffff8116809103611d2b57602485015260443562ffffff8116809103611d2b5760448501526064358060020b809103611d2b57606485015260843573ffffffffffffffffffffffffffffffffffffffff8116809103611d2b575f85611cba829682968395608485015260c060a485015260c4840191612350565b03925af18015611d2057611d0d575b5060a0611cd5366120c9565b20815260046020526040812060017fffffffffffffffffffffffffffffffffffffffffffffffffffffffffffffff0082541617905580f35b611d1991505f90612088565b5f5f611cc9565b6040513d5f823e3d90fd5b5f80fd5b7f0c6d42ae000000000000000000000000000000000000000000000000000000005f5260045ffd5b9181601f84011215611d2b5782359167ffffffffffffffff8311611d2b5760208381860195010111611d2b57565b6004359073ffffffffffffffffffffffffffffffffffffffff82168203611d2b57565b6024359073ffffffffffffffffffffffffffffffffffffffff82168203611d2b57565b359073ffffffffffffffffffffffffffffffffffffffff82168203611d2b57565b90610160600319830112611d2b5760043573ffffffffffffffffffffffffffffffffffffffff81168103611d2b579160a07fffffffffffffffffffffffffffffffffffffffffffffffffffffffffffffffdc820112611d2b5760249160807fffffffffffffffffffffffffffffffffffffffffffffffffffffffffffffff3c830112611d2b5760c491610144359067ffffffffffffffff8211611d2b57611e9591600401611d57565b9091565b604435908160020b8203611d2b57565b606435908160020b8203611d2b57565b60e435908160020b8203611d2b57565b906101a0600319830112611d2b5760043573ffffffffffffffffffffffffffffffffffffffff81168103611d2b579160a07fffffffffffffffffffffffffffffffffffffffffffffffffffffffffffffffdc820112611d2b5760249160807fffffffffffffffffffffffffffffffffffffffffffffffffffffffffffffff3c830112611d2b5760c49161014435916101643591610184359067ffffffffffffffff8211611d2b57611e9591600401611d57565b60c4359073ffffffffffffffffffffffffffffffffffffffff82168203611d2b57565b610120600319820112611d2b5760043573ffffffffffffffffffffffffffffffffffffffff81168103611d2b579160a07fffffffffffffffffffffffffffffffffffffffffffffffffffffffffffffffdc830112611d2b5760249160c4359160e43591610104359067ffffffffffffffff8211611d2b57611e9591600401611d57565b6101c0810190811067ffffffffffffffff82111761203f57604052565b7f4e487b71000000000000000000000000000000000000000000000000000000005f52604160045260245ffd5b60a0810190811067ffffffffffffffff82111761203f57604052565b90601f7fffffffffffffffffffffffffffffffffffffffffffffffffffffffffffffffe0910116810190811067ffffffffffffffff82111761203f57604052565b60031960a0910112611d2b57604051906120e28261206c565b8160043573ffffffffffffffffffffffffffffffffffffffff81168103611d2b57815260243573ffffffffffffffffffffffffffffffffffffffff81168103611d2b57602082015260443562ffffff81168103611d2b5760408201526064358060020b8103611d2b5760608201526084359073ffffffffffffffffffffffffffffffffffffffff82168203611d2b5760800152565b7fffffffffffffffffffffffffffffffffffffffffffffffffffffffffffffffdc60a0910112611d2b57604051906121ae8261206c565b8160243573ffffffffffffffffffffffffffffffffffffffff81168103611d2b57815260443573ffffffffffffffffffffffffffffffffffffffff81168103611d2b57602082015260643562ffffff81168103611d2b5760408201526084358060020b8103611d2b57606082015260a4359073ffffffffffffffffffffffffffffffffffffffff82168203611d2b5760800152565b91908260a0910312611d2b5760405161225b8161206c565b809261226681611dcb565b825261227460208201611dcb565b6020830152604081013562ffffff81168103611d2b5760408301526060810135908160020b8203611d2b5760806122b2918193606086015201611dcb565b910152565b60243573ffffffffffffffffffffffffffffffffffffffff8116809103611d2b57815260443573ffffffffffffffffffffffffffffffffffffffff8116809103611d2b57602082015260643562ffffff8116809103611d2b5760408201526084358060020b809103611d2b57606082015260a4359073ffffffffffffffffffffffffffffffffffffffff8216809203611d2b5760800152565b601f82602094937fffffffffffffffffffffffffffffffffffffffffffffffffffffffffffffffe093818652868601375f8582860101520116010190565b6040519061239b8261206c565b5f6080838281528260208201528260408201528260608201520152565b60020b7fffffffffffffffffffffffffffffffffffffffffffffffffffffffffff80000081146123e7575f0390565b7f4e487b71000000000000000000000000000000000000000000000000000000005f52601160045260245ffd5b949261241e61238e565b5073ffffffffffffffffffffffffffffffffffffffff821680158015612ba8575b612b805773ffffffffffffffffffffffffffffffffffffffff908188161092835f14612b7957875b8415612b7257505b816040519861247d8a61206c565b16885216602087015262800000604087015260020b606086015230608086015260a085205f52600160205260405f207fffffffffffffffffffffffffffffffffffffffffffffffffffffffffffffff0081541660ff83161790555f14612b64575b60020b8060ff1d8181011890620d89e88211612b3957600182167001fffcb933bd6fad37aa2d162d1a59400102700100000000000000000000000000000000189160028116612b1d575b60048116612b01575b60088116612ae5575b60108116612ac9575b60208116612aad575b60408116612a91575b60808116612a75575b6101008116612a59575b6102008116612a3d575b6104008116612a21575b6108008116612a05575b61100081166129e9575b61200081166129cd575b61400081166129b1575b6180008116612995575b620100008116612979575b62020000811661295e575b620400008116612943575b620800001661292a575b5f12612903575b73ffffffffffffffffffffffffffffffffffffffff63ffffffff604051927f6276cbbe000000000000000000000000000000000000000000000000000000008452612678600485018873ffffffffffffffffffffffffffffffffffffffff6080809282815116855282602082015116602086015262ffffff6040820151166040860152606081015160020b6060860152015116910152565b0160201c1660a482015260208160c4815f73ffffffffffffffffffffffffffffffffffffffff7f0000000000000000000000000000000000000000000000000000000000000000165af18015611d20576128ca575b5060a083205f5260056020524260405f205567ffffffffffffffff811161203f576040519061272460207fffffffffffffffffffffffffffffffffffffffffffffffffffffffffffffffe0601f8401160183612088565b80825260208201923682820111611d2b57815f92602092863783010152604081805181010312611d2b5760405191604083019083821067ffffffffffffffff83111761203f5761278d604061278362ffffff93620493e0958352612d53565b9485875201612d53565b926020850193845216116128a257620493e062ffffff8251161161287a578160609162ffffff7fde0cc41485843685947cd8856be361f8038580ba3916da280a9e36d8cc49998294511660a086205f52600660205262ffffff60405f2091167fffffffffffffffffffffffffffffffffffffffffffffffffffffffffff00000082541617905562ffffff81511660a086205f52600760205262ffffff60405f2091167fffffffffffffffffffffffffffffffffffffffffffffffffffffffffff00000082541617905562ffffff8060a087209351169151169060405192835260208301526040820152a190565b7fb2bb455f000000000000000000000000000000000000000000000000000000005f5260045ffd5b7f3cb6e333000000000000000000000000000000000000000000000000000000005f5260045ffd5b6020813d6020116128fb575b816128e360209383612088565b81010312611d2b57518060020b8103156126cd575f80fd5b3d91506128d6565b7fffffffffffffffffffffffffffffffffffffffffffffffffffffffffffffffff046125e0565b6b048a170391f7dc42444e8fa290910260801c906125d9565b6d2216e584f5fa1ea926041bedfe9890920260801c916125cf565b916e5d6af8dedb81196699c329225ee6040260801c916125c4565b916f09aa508b5b7a84e1c677de54f3e99bc90260801c916125b9565b916f31be135f97d08fd981231505542fcfa60260801c916125ae565b916f70d869a156d2a1b890bb3df62baf32f70260801c916125a4565b916fa9f746462d870fdf8a65dc1f90e061e50260801c9161259a565b916fd097f3bdfd2022b8845ad8f792aa58250260801c91612590565b916fe7159475a2c29b7443b29c7fa6e889d90260801c91612586565b916ff3392b0822b70005940c7a398e4b70f30260801c9161257c565b916ff987a7253ac413176f2b074cf7815e540260801c91612572565b916ffcbe86c7900a88aedcffc83b479aa3a40260801c91612568565b916ffe5dee046a99a2a811c461f1969c30530260801c9161255e565b916fff2ea16466c96a3843ec78b326b528610260801c91612555565b916fff973b41fa98c081472e6896dfb254c00260801c9161254c565b916fffcb9843d60f6159c9db58835c9266440260801c91612543565b916fffe5caca7e10e4e61c3624eaa0941cd00260801c9161253a565b916ffff2e50f5f656932ef12357cf3c7fdcc0260801c91612531565b916ffff97272373d413259a46990580e213a0260801c91612528565b7f8b86327a000000000000000000000000000000000000000000000000000000005f5260045260245ffd5b612b6d906123b8565b6124de565b905061246f565b8097612467565b7ff4a44333000000000000000000000000000000000000000000000000000000005f5260045ffd5b5073ffffffffffffffffffffffffffffffffffffffff87161561243f565b60c4358015158103611d2b5790565b6fffffffffffffffffffffffffffffffff670de0b6b3a7640000911602906fffffffffffffffffffffffffffffffff82169182036123e757565b906fffffffffffffffffffffffffffffffff16908115612c3f576fffffffffffffffffffffffffffffffff160490565b7f4e487b71000000000000000000000000000000000000000000000000000000005f52601260045260245ffd5b81810292915f82127f80000000000000000000000000000000000000000000000000000000000000008214166123e75781840514901517156123e757565b60243573ffffffffffffffffffffffffffffffffffffffff81168103611d2b5790565b60443573ffffffffffffffffffffffffffffffffffffffff81168103611d2b5790565b73ffffffffffffffffffffffffffffffffffffffff5f54163303612d1057565b7f118cdaa7000000000000000000000000000000000000000000000000000000005f523360045260245ffd5b90600f0b90600f0b029081600f0b9182036123e757565b519062ffffff82168203611d2b57565b612d6e366024612243565b60a05f91205f52600160205260ff60405f2054165f14612fa85760443573ffffffffffffffffffffffffffffffffffffffff81168103611d2b575b73ffffffffffffffffffffffffffffffffffffffff807f000000000000000000000000000000000000000000000000000000000000000016911691604051917efdd58e000000000000000000000000000000000000000000000000000000008352306004840152836024840152602083604481845afa928315611d20575f93612f74575b508215612f6e57803b15611d2b576040517ff5298aca00000000000000000000000000000000000000000000000000000000815230600482015260248101859052604481018490525f8160648183865af18015611d2057612f59575b50803b156108a3578180916064604051809481937f0b0d9c0900000000000000000000000000000000000000000000000000000000835289600484015273ffffffffffffffffffffffffffffffffffffffff7f00000000000000000000000000000000000000000000000000000000000000001660248401528860448401525af180156109b657612f44575b505060207f175b790d44599ca70432cc8d1406504cb3a28fc13ff995c06dde6663412b211a91604051908152a2565b612f4f828092612088565b61019d5780612f15565b612f669192505f90612088565b5f905f612e89565b50505050565b9092506020813d602011612fa0575b81612f9060209383612088565b81010312611d2b5751915f612e2d565b3d9150612f83565b60243573ffffffffffffffffffffffffffffffffffffffff81168114612da9575f80fd5b60a0612fd9366024612243565b205f52600260205273ffffffffffffffffffffffffffffffffffffffff60405f205416156130e45760a061300e366024612243565b205f52600160205260ff60405f2054165f146130e65760243573ffffffffffffffffffffffffffffffffffffffff811690818103611d2b57505b60a0613055366024612243565b205f52600260205273ffffffffffffffffffffffffffffffffffffffff60405f20541690813b15611d2b5773ffffffffffffffffffffffffffffffffffffffff60245f928360405195869485937f86b0c83f0000000000000000000000000000000000000000000000000000000085521660048401525af18015611d20576130da5750565b5f6130e491612088565b565b60443573ffffffffffffffffffffffffffffffffffffffff811690818103611d2b575061304856","linkReferences":{}},"methodIdentifiers":{"FEE_DENOMINATOR()":"d73792a9","MAX_LP_FEE()":"3fc48eba","MAX_MEV_MODULE_DELAY()":"ccc8dc43","PROTOCOL_FEE_NUMERATOR()":"334e8367","afterAddLiquidity(address,(address,address,uint24,int24,address),(int24,int24,int256,bytes32),int256,int256,bytes)":"9f063efc","afterDonate(address,(address,address,uint24,int24,address),uint256,uint256,bytes)":"e1b4af69","afterInitialize(address,(address,address,uint24,int24,address),uint160,int24)":"6fe7e6eb","afterRemoveLiquidity(address,(address,address,uint24,int24,address),(int24,int24,int256,bytes32),int256,int256,bytes)":"6c2bbe7e","afterSwap(address,(address,address,uint24,int24,address),(bool,int256,uint160),int256,bytes)":"b47b2fb1","beforeAddLiquidity(address,(address,address,uint24,int24,address),(int24,int24,int256,bytes32),bytes)":"259982e5","beforeDonate(address,(address,address,uint24,int24,address),uint256,uint256,bytes)":"b6a8b0fa","beforeInitialize(address,(address,address,uint24,int24,address),uint160)":"dc98354e","beforeRemoveLiquidity(address,(address,address,uint24,int24,address),(int24,int24,int256,bytes32),bytes)":"21d0ee70","beforeSwap(address,(address,address,uint24,int24,address),(bool,int256,uint160),bytes)":"575e24b4","liquidFee(bytes32)":"2c78f493","factory()":"c45a0155","getHookPermissions()":"c4e833ce","initializeMevModule((address,address,uint24,int24,address),bytes)":"015e3c29","initializePool(address,address,int24,int24,address,address,bytes)":"564d49e7","initializePoolOpen(address,address,int24,int24,bytes)":"4c2b2876","mevModule(bytes32)":"bdf22863","mevModuleEnabled(bytes32)":"2b887e0f","owner()":"8da5cb5b","pairedFee(bytes32)":"f732b64e","poolCreationTimestamp(bytes32)":"ee4d96cf","poolManager()":"dc4c90d3","protocolFee()":"b0e21e8a","renounceOwnership()":"715018a6","supportsInterface(bytes4)":"01ffc9a7","transferOwnership(address)":"f2fde38b","weth()":"3fc8cef3"},"id":129}