{"abi":[{"type":"constructor","inputs":[{"name":"owner_","type":"address","internalType":"address"},{"name":"factory_","type":"address","internalType":"address"},{"name":"feeLocker_","type":"address","internalType":"address"},{"name":"positionManager_","type":"address","internalType":"address"},{"name":"permit2_","type":"address","internalType":"address"}],"stateMutability":"nonpayable"},{"type":"function","name":"BASIS_POINTS","inputs":[],"outputs":[{"name":"","type":"uint256","internalType":"uint256"}],"stateMutability":"view"},{"type":"function","name":"MAX_LP_POSITIONS","inputs":[],"outputs":[{"name":"","type":"uint256","internalType":"uint256"}],"stateMutability":"view"},{"type":"function","name":"MAX_REWARD_PARTICIPANTS","inputs":[],"outputs":[{"name":"","type":"uint256","internalType":"uint256"}],"stateMutability":"view"},{"type":"function","name":"collectRewards","inputs":[{"name":"token","type":"address","internalType":"address"}],"outputs":[],"stateMutability":"nonpayable"},{"type":"function","name":"collectRewardsWithoutUnlock","inputs":[{"name":"token","type":"address","internalType":"address"}],"outputs":[],"stateMutability":"nonpayable"},{"type":"function","name":"factory","inputs":[],"outputs":[{"name":"","type":"address","internalType":"address"}],"stateMutability":"view"},{"type":"function","name":"feeLocker","inputs":[],"outputs":[{"name":"","type":"address","internalType":"contract IHoodMarketsFeeLocker"}],"stateMutability":"view"},{"type":"function","name":"onERC721Received","inputs":[{"name":"","type":"address","internalType":"address"},{"name":"from","type":"address","internalType":"address"},{"name":"id","type":"uint256","internalType":"uint256"},{"name":"","type":"bytes","internalType":"bytes"}],"outputs":[{"name":"","type":"bytes4","internalType":"bytes4"}],"stateMutability":"nonpayable"},{"type":"function","name":"owner","inputs":[],"outputs":[{"name":"","type":"address","internalType":"address"}],"stateMutability":"view"},{"type":"function","name":"permit2","inputs":[],"outputs":[{"name":"","type":"address","internalType":"contract IPermit2"}],"stateMutability":"view"},{"type":"function","name":"placeLiquidity","inputs":[{"name":"lockerConfig","type":"tuple","internalType":"struct ILiquid.LockerConfig","components":[{"name":"locker","type":"address","internalType":"address"},{"name":"rewardAdmins","type":"address[]","internalType":"address[]"},{"name":"rewardRecipients","type":"address[]","internalType":"address[]"},{"name":"rewardBps","type":"uint16[]","internalType":"uint16[]"},{"name":"tickLower","type":"int24[]","internalType":"int24[]"},{"name":"tickUpper","type":"int24[]","internalType":"int24[]"},{"name":"positionBps","type":"uint16[]","internalType":"uint16[]"},{"name":"lockerData","type":"bytes","internalType":"bytes"}]},{"name":"poolConfig","type":"tuple","internalType":"struct ILiquid.PoolConfig","components":[{"name":"hook","type":"address","internalType":"address"},{"name":"pairedToken","type":"address","internalType":"address"},{"name":"tickIfToken0IsLiquid","type":"int24","internalType":"int24"},{"name":"tickSpacing","type":"int24","internalType":"int24"},{"name":"poolData","type":"bytes","internalType":"bytes"}]},{"name":"poolKey","type":"tuple","internalType":"struct PoolKey","components":[{"name":"currency0","type":"address","internalType":"Currency"},{"name":"currency1","type":"address","internalType":"Currency"},{"name":"fee","type":"uint24","internalType":"uint24"},{"name":"tickSpacing","type":"int24","internalType":"int24"},{"name":"hooks","type":"address","internalType":"contract IHooks"}]},{"name":"poolSupply","type":"uint256","internalType":"uint256"},{"name":"token","type":"address","internalType":"address"}],"outputs":[{"name":"positionId","type":"uint256","internalType":"uint256"}],"stateMutability":"nonpayable"},{"type":"function","name":"positionManager","inputs":[],"outputs":[{"name":"","type":"address","internalType":"contract IPositionManager"}],"stateMutability":"view"},{"type":"function","name":"renounceOwnership","inputs":[],"outputs":[],"stateMutability":"nonpayable"},{"type":"function","name":"supportsInterface","inputs":[{"name":"interfaceId","type":"bytes4","internalType":"bytes4"}],"outputs":[{"name":"","type":"bool","internalType":"bool"}],"stateMutability":"pure"},{"type":"function","name":"tokenRewards","inputs":[{"name":"token","type":"address","internalType":"address"}],"outputs":[{"name":"","type":"tuple","internalType":"struct ILiquidLpLocker.TokenRewardInfo","components":[{"name":"token","type":"address","internalType":"address"},{"name":"poolKey","type":"tuple","internalType":"struct PoolKey","components":[{"name":"currency0","type":"address","internalType":"Currency"},{"name":"currency1","type":"address","internalType":"Currency"},{"name":"fee","type":"uint24","internalType":"uint24"},{"name":"tickSpacing","type":"int24","internalType":"int24"},{"name":"hooks","type":"address","internalType":"contract IHooks"}]},{"name":"positionId","type":"uint256","internalType":"uint256"},{"name":"numPositions","type":"uint256","internalType":"uint256"},{"name":"rewardBps","type":"uint16[]","internalType":"uint16[]"},{"name":"rewardAdmins","type":"address[]","internalType":"address[]"},{"name":"rewardRecipients","type":"address[]","internalType":"address[]"}]}],"stateMutability":"view"},{"type":"function","name":"transferOwnership","inputs":[{"name":"newOwner","type":"address","internalType":"address"}],"outputs":[],"stateMutability":"nonpayable"},{"type":"function","name":"updateRewardAdmin","inputs":[{"name":"token","type":"address","internalType":"address"},{"name":"rewardIndex","type":"uint256","internalType":"uint256"},{"name":"newAdmin","type":"address","internalType":"address"}],"outputs":[],"stateMutability":"nonpayable"},{"type":"function","name":"updateRewardRecipient","inputs":[{"name":"token","type":"address","internalType":"address"},{"name":"rewardIndex","type":"uint256","internalType":"uint256"},{"name":"newRecipient","type":"address","internalType":"address"}],"outputs":[],"stateMutability":"nonpayable"},{"type":"function","name":"version","inputs":[],"outputs":[{"name":"","type":"string","internalType":"string"}],"stateMutability":"view"},{"type":"function","name":"withdrawERC20","inputs":[{"name":"token","type":"address","internalType":"address"},{"name":"recipient","type":"address","internalType":"address"}],"outputs":[],"stateMutability":"nonpayable"},{"type":"function","name":"withdrawETH","inputs":[{"name":"recipient","type":"address","internalType":"address"}],"outputs":[],"stateMutability":"nonpayable"},{"type":"event","name":"ClaimedRewards","inputs":[{"name":"token","type":"address","indexed":true,"internalType":"address"},{"name":"amount0","type":"uint256","indexed":false,"internalType":"uint256"},{"name":"amount1","type":"uint256","indexed":false,"internalType":"uint256"},{"name":"rewards0","type":"uint256[]","indexed":false,"internalType":"uint256[]"},{"name":"rewards1","type":"uint256[]","indexed":false,"internalType":"uint256[]"}],"anonymous":false},{"type":"event","name":"OwnershipTransferred","inputs":[{"name":"previousOwner","type":"address","indexed":true,"internalType":"address"},{"name":"newOwner","type":"address","indexed":true,"internalType":"address"}],"anonymous":false},{"type":"event","name":"Received","inputs":[{"name":"from","type":"address","indexed":true,"internalType":"address"},{"name":"positionId","type":"uint256","indexed":false,"internalType":"uint256"}],"anonymous":false},{"type":"event","name":"RewardAdminUpdated","inputs":[{"name":"token","type":"address","indexed":true,"internalType":"address"},{"name":"rewardIndex","type":"uint256","indexed":true,"internalType":"uint256"},{"name":"oldAdmin","type":"address","indexed":false,"internalType":"address"},{"name":"newAdmin","type":"address","indexed":false,"internalType":"address"}],"anonymous":false},{"type":"event","name":"RewardRecipientUpdated","inputs":[{"name":"token","type":"address","indexed":true,"internalType":"address"},{"name":"rewardIndex","type":"uint256","indexed":true,"internalType":"uint256"},{"name":"oldRecipient","type":"address","indexed":false,"internalType":"address"},{"name":"newRecipient","type":"address","indexed":false,"internalType":"address"}],"anonymous":false},{"type":"event","name":"TokenRewardAdded","inputs":[{"name":"token","type":"address","indexed":false,"internalType":"address"},{"name":"poolKey","type":"tuple","indexed":false,"internalType":"struct PoolKey","components":[{"name":"currency0","type":"address","internalType":"Currency"},{"name":"currency1","type":"address","internalType":"Currency"},{"name":"fee","type":"uint24","internalType":"uint24"},{"name":"tickSpacing","type":"int24","internalType":"int24"},{"name":"hooks","type":"address","internalType":"contract IHooks"}]},{"name":"poolSupply","type":"uint256","indexed":false,"internalType":"uint256"},{"name":"positionId","type":"uint256","indexed":false,"internalType":"uint256"},{"name":"numPositions","type":"uint256","indexed":false,"internalType":"uint256"},{"name":"rewardBps","type":"uint16[]","indexed":false,"internalType":"uint16[]"},{"name":"rewardAdmins","type":"address[]","indexed":false,"internalType":"address[]"},{"name":"rewardRecipients","type":"address[]","indexed":false,"internalType":"address[]"},{"name":"tickLower","type":"int24[]","indexed":false,"internalType":"int24[]"},{"name":"tickUpper","type":"int24[]","indexed":false,"internalType":"int24[]"},{"name":"positionBps","type":"uint16[]","indexed":false,"internalType":"uint16[]"}],"anonymous":false},{"type":"error","name":"InvalidPositionBps","inputs":[]},{"type":"error","name":"InvalidRewardBps","inputs":[]},{"type":"error","name":"MismatchedPositionInfos","inputs":[]},{"type":"error","name":"MismatchedRewardArrays","inputs":[]},{"type":"error","name":"NoPositions","inputs":[]},{"type":"error","name":"NoRewardRecipients","inputs":[]},{"type":"error","name":"OwnableInvalidOwner","inputs":[{"name":"owner","type":"address","internalType":"address"}]},{"type":"error","name":"OwnableUnauthorizedAccount","inputs":[{"name":"account","type":"address","internalType":"address"}]},{"type":"error","name":"ReentrancyGuardReentrantCall","inputs":[]},{"type":"error","name":"SafeERC20FailedOperation","inputs":[{"name":"token","type":"address","internalType":"address"}]},{"type":"error","name":"TickRangeLowerThanStartingTick","inputs":[]},{"type":"error","name":"TicksBackwards","inputs":[]},{"type":"error","name":"TicksNotMultipleOfTickSpacing","inputs":[]},{"type":"error","name":"TicksOutOfTickBounds","inputs":[]},{"type":"error","name":"TokenAlreadyHasRewards","inputs":[]},{"type":"error","name":"TooManyPositions","inputs":[]},{"type":"error","name":"TooManyRewardParticipants","inputs":[]},{"type":"error","name":"Unauthorized","inputs":[]},{"type":"error","name":"ZeroRewardAddress","inputs":[]},{"type":"error","name":"ZeroRewardAmount","inputs":[]}],"bytecode":{"object":"0x6101003461019c57601f614b1038819003918201601f19168301916001600160401b038311848410176101a05780849260a09460405283398101031261019c57610048816101b4565b610054602083016101b4565b91610061604082016101b4565b6100796080610072606085016101b4565b93016101b4565b60015f556001600160a01b0390931693841561018957600180546001600160a01b03198116871790915560405195906001600160a01b03167f8be0079c531659141344cd1fd0a4f28419497f9722a3daafe3b4186f6b6457e05f80a360e0526001600160a01b0390811660c0529081166080521660a05261494790816101c98239608051818181610dc501528181610e8201528181610ed301528181610f4001528181611d89015281816126be0152612ad9015260a051818181610cfe01528181610d6001528181610e1901526139cc015260c051818181612002015281816120f20152818161277501528181612d340152612e0d015260e05181818161049a0152818161184001526139090152f35b631e4fbdf760e01b5f525f60045260245ffd5b5f80fd5b634e487b7160e01b5f52604160045260245ffd5b51906001600160a01b038216820361019c5756fe60806040526004361015610011575f80fd5b5f5f3560e01c80630150a98614613a9157806301ffc9a7146139f057806312261ee7146139ad57806314a7f40314613347578063150b7a021461389857806330bd3eeb1461334c57806352db242f1461334757806354fd4d50146132e45780635763dbd0146127ff578063690d83201461279957806370e9d24414612755578063715018a6146126e2578063791b98bc1461269e57806386b0c83f14611aa65780638da5cb5b14611a7f578063911573b31461197f5780639456fbcc14611864578063c45a015514611820578063e1f1c4a714611803578063ea289263146101bb5763f2fde38b14610101575f80fd5b346101b85760206003193601126101b8576001600160a01b03610122613b37565b61012a614070565b16801561018c576001600160a01b03600154827fffffffffffffffffffffffff0000000000000000000000000000000000000000821617600155167f8be0079c531659141344cd1fd0a4f28419497f9722a3daafe3b4186f6b6457e08380a380f35b6024827f1e4fbdf700000000000000000000000000000000000000000000000000000000815280600452fd5b80fd5b50346101b8576101206003193601126101b8576004359067ffffffffffffffff82116101b85761010060031983360301126101b85760405191610100830183811067ffffffffffffffff8211176117d65760405261021b81600401613b63565b8352602481013567ffffffffffffffff81116117d2576102419060043691840101613ccd565b60208401908152604482013567ffffffffffffffff81116115195761026c9060043691850101613ccd565b9360408101948552606483013567ffffffffffffffff8111611528576102989060043691860101613d32565b9260608201938452608481013567ffffffffffffffff81116117ce576102c49060043691840101613da9565b608083015260a481013567ffffffffffffffff81116117ce576102ed9060043691840101613da9565b60a083015260c481013567ffffffffffffffff81116117ce576103169060043691840101613d32565b60c083015260e481013567ffffffffffffffff81116117ce5761033e91369101600401613e0e565b60e082015260243567ffffffffffffffff81116115285760a06003198236030112611528576040519061037082613c51565b61037c81600401613b63565b825261038a60248201613b63565b602083015261039b60448201613d9b565b60408301526103ac60648201613d9b565b6060830152608481013567ffffffffffffffff81116117ca576103d491369101600401613e0e565b608082015260a07fffffffffffffffffffffffffffffffffffffffffffffffffffffffffffffffbc360112611528576040519261041084613c51565b6044356001600160a01b03811681036117ca5784526064356001600160a01b03811681036117ca57602085015260843562ffffff811681036117ca57604085015260a4358060020b81036117ca57606085015260c4356001600160a01b03811681036117ca57608085015261010435966001600160a01b03881688036117ca576001600160a01b037f00000000000000000000000000000000000000000000000000000000000000001633036117a2576104c8613fbb565b6001600160a01b03881687526002602052600460408820015461177a5760808401515195519151905191604051966104ff88613c08565b6001600160a01b038a16885286602089015288604089015260608801528060808801528160a08801528260c088015251905181149182159261176e575b50506117465760076080850151511161171e57608084015151156116f6578492835b608086015180518610156105ff5761ffff61057a878293613ef9565b511691160161ffff81116105d2579361ffff61059a826080890151613ef9565b5116156105aa576001019361055e565b6004877fea1083a7000000000000000000000000000000000000000000000000000000008152fd5b6024877f4e487b710000000000000000000000000000000000000000000000000000000081526011600452fd5b508691888561271061ffff8a9516036116ce57845b608085015151811015610694576001600160a01b036106378260a0880151613ef9565b5116158015610675575b61064d57600101610614565b6004867f444593dc000000000000000000000000000000000000000000000000000000008152fd5b506001600160a01b0361068c8260c0880151613ef9565b511615610641565b506040517f23b872dd00000000000000000000000000000000000000000000000000000000815233600482015230602482015260e4356044820152859087908690602081606481876001600160a01b038b165af180156116c3576116a6575b5060808401515160a085015151811490811591611696575b5061166e57608084015151156116465760076080850151511161161e57829583965b608086015180518910156108f1578861074591613ef9565b5160020b6107578960a0890151613ef9565b5160020b126108c9577ffffffffffffffffffffffffffffffffffffffffffffffffffffffffffff2761861078f896080890151613ef9565b5160020b1280156108ac575b610884576107c26107b0896080890151613ef9565b5160020b606086015160020b906140b0565b60020b15801590610868575b610840576107e0886080880151613ef9565b5160020b604085015160020b136108185761081060019161ffff6108088b60c08b0151613ef9565b511690614030565b97019661072d565b6004857fb7e8c5be000000000000000000000000000000000000000000000000000000008152fd5b6004857f9c79bb26000000000000000000000000000000000000000000000000000000008152fd5b5061087a6107b08960a0890151613ef9565b60020b15156107ce565b6004857fbae28335000000000000000000000000000000000000000000000000000000008152fd5b50620d89e86108bf8960a0890151613ef9565b5160020b1361079b565b6004857f65ebf187000000000000000000000000000000000000000000000000000000008152fd5b50612710919750949294036115f6576001600160a01b036020850151166001600160a01b03861610926080830151516001810181116115c957600161093691016140ef565b9460609085156115b3576040015160020b925b82915b608086015151831015610c375760206109a860018093836040519485928051918291018385015e8201017f020000000000000000000000000000000000000000000000000000000000000081520301601f198101835282613c6d565b92610b08610b528c610b448b8b6127106109d661ffff6109cc8a60c0860151613ef9565b511660e435613f25565b048215610c3057805b8d8d838615610c18576fffffffffffffffffffffffffffffffff935081955b8c8815610c0157610a13906080830151613ef9565b5160020b905b8d8915610be15760a0610a2d920151613ef9565b5160020b905b8815610bda5780985b15610bd25750925b610a4d886143be565b9287610a61610a5b876143be565b936143be565b83866001600160a01b0382166001600160a01b03821611610bc6575b50506001600160a01b038181169087168111610b6f5750505050610aa092614744565b905b6040519530602088015260208752610abb604088613c6d565b6040519a8b9960208b01906001600160a01b036080809282815116855282602082015116602086015262ffffff6040820151166040860152606081015160020b6060860152015116910152565b60020b60c089015260020b60e08801521661010086015261012085015261014084015230610160840152610180808401526101a0830190613c90565b03601f198101835282613c6d565b610b5c828b613ef9565b52610b67818a613ef9565b50019161094c565b6001600160a01b0385929496939516115f14610bb8578291610b9591610b9b9594614744565b94614711565b90508381168285161015610bb157505b90610aa2565b9050610bab565b9293505050610bab92614711565b90965093505f80610a7d565b905092610a44565b8198610a3c565b610bf29060a0610bfb930151613ef9565b5160020b614137565b90610a33565b610bf2610c12916080840151613ef9565b90610a19565b6fffffffffffffffffffffffffffffffff93956109fe565b8b906109df565b856020928a8a610cd58e610c8e60018b988a6040519b8c928051918291018385015e8201017f0d0000000000000000000000000000000000000000000000000000000000000081520301601f1981018a5289613c6d565b6001600160a01b0360208183511692015116604051916020830152604082015260408152610cbd606082613c6d565b60808601515190610cce8285613ef9565b5282613ef9565b506040517f095ea7b30000000000000000000000000000000000000000000000000000000081527f00000000000000000000000000000000000000000000000000000000000000006001600160a01b0316600482015260e435602482015260208180604481010381896001600160a01b0388165af1801561156657611586575b506001600160a01b037f0000000000000000000000000000000000000000000000000000000000000000163b15611528576040517f87517c450000000000000000000000000000000000000000000000000000000081526001600160a01b03831660048201526001600160a01b037f00000000000000000000000000000000000000000000000000000000000000001660248201526001600160a01b0360e43516604482015265ffffffffffff421660648201528581608481836001600160a01b037f0000000000000000000000000000000000000000000000000000000000000000165af1801561156657908691611571575b5050604051957f75794a3c0000000000000000000000000000000000000000000000000000000087526020876004816001600160a01b037f0000000000000000000000000000000000000000000000000000000000000000165afa96871561156657869761152c575b50610ec990610b44604051938492602084016141d2565b6001600160a01b037f0000000000000000000000000000000000000000000000000000000000000000163b156115285784610f3391604051809381927fdd46508f000000000000000000000000000000000000000000000000000000008352429060048401614244565b0381836001600160a01b037f0000000000000000000000000000000000000000000000000000000000000000165af1801561151d57908591611504575b50506001600160a01b03908560408401521683526002602052604083206001600160a01b0380835116167fffffffffffffffffffffffff00000000000000000000000000000000000000008254161781556001600160a01b036080602084015182815116836001860191167fffffffffffffffffffffffff0000000000000000000000000000000000000000825416179055600284018380602084015116167fffffffffffffffffffffffff0000000000000000000000000000000000000000825416178155604082015181547fffffffffffff000000000000ffffffffffffffffffffffffffffffffffffffff76ffffff0000000000000000000000000000000000000000606086015160b81b79ffffff0000000000000000000000000000000000000000000000169360a01b169116171790550151166001600160a01b036003830191167fffffffffffffffffffffffff0000000000000000000000000000000000000000825416179055604082015160048201556060820151600582015560068101608083015180519067ffffffffffffffff82116113fa576801000000000000000082116113fa5760209083548385558084106114b7575b50019186526020862090865b8160041c811061147757507ffffffffffffffffffffffffffffffffffffffffffffffffffffffffffffffff08116810380611427575b505050506007810160a08301519081519167ffffffffffffffff83116113fa576801000000000000000083116113fa5760209082548484558085106113e0575b500190865260208620865b8381106113c3575050505060080160c08201519081519167ffffffffffffffff83116113965768010000000000000000831161139657602090825484845580851061137c575b500190855260208520855b83811061135f575050505080516001600160a01b03169060208101519260408201519160608101519060808101519060a08101519060c001519160808501519360a08601519560c0015196604051998a998a5260208a016112a7916001600160a01b036080809282815116855282602082015116602086015262ffffff6040820151166040860152606081015160020b6060860152015116910152565b60e43560c08a015260e089015261010088015261012087016101e090526101e087016112d291613f4e565b8681036101408801526112e491613bcc565b8581036101608701526112f691613bcc565b84810361018086015261130891613f85565b8381036101a085015261131a91613f85565b8281036101c084015261132c91613f4e565b037fc9b03d1b68674b3ca5738b69c14e4dbcfcb7f474303edd540b1d7dfa785d27ff91a160019055604051908152602090f35b60019060206001600160a01b03855116940193818401550161120a565b838852828820611390918101908601613f38565b886111ff565b6024867f4e487b710000000000000000000000000000000000000000000000000000000081526041600452fd5b60019060206001600160a01b0385511694019381840155016111b9565b8389528289206113f4918101908601613f38565b896111ae565b6024877f4e487b710000000000000000000000000000000000000000000000000000000081526041600452fd5b928793885b8181106114445750505060041c01558580808061116e565b909194602061146d60019261ffff8951169085851b61ffff809160031b9316831b921b19161790565b960192910161142c565b87885b6010811061148f575083820155600101611138565b855190959160019160209161ffff60048a901b81811b199092169216901b179201950161147a565b6114e590858a52838a20600f80870160041c820192601e8860011b16806114eb575b500160041c0190613f38565b8961112c565b5f198501905f198254918a0360031b1c1690558e6114d9565b8161150e91613c6d565b611519578386610f70565b8380fd5b6040513d87823e3d90fd5b8480fd5b9096506020813d60201161155e575b8161154860209383613c6d565b8101031261155a575195610ec9610eb2565b5f80fd5b3d915061153b565b6040513d88823e3d90fd5b8161157b91613c6d565b611528578487610e49565b6115a79060203d6020116115ac575b61159f8183613c6d565b810190613f0d565b610d55565b503d611595565b60406115c391015160020b614137565b92610949565b6024827f4e487b710000000000000000000000000000000000000000000000000000000081526011600452fd5b6004837fd255d1bb000000000000000000000000000000000000000000000000000000008152fd5b6004837f8431a15a000000000000000000000000000000000000000000000000000000008152fd5b6004837ff1efabcb000000000000000000000000000000000000000000000000000000008152fd5b6004837ffceb8ecc000000000000000000000000000000000000000000000000000000008152fd5b905060c08501515114158761070b565b6116be9060203d6020116115ac5761159f8183613c6d565b6106f3565b6040513d86823e3d90fd5b6004857f7f496ed8000000000000000000000000000000000000000000000000000000008152fd5b6004857f3e794990000000000000000000000000000000000000000000000000000000008152fd5b6004857fdee5eac1000000000000000000000000000000000000000000000000000000008152fd5b6004857fb3e27d4c000000000000000000000000000000000000000000000000000000008152fd5b51141590505f8061053c565b6004877fe67f17ea000000000000000000000000000000000000000000000000000000008152fd5b6004877f82b42900000000000000000000000000000000000000000000000000000000008152fd5b8680fd5b8580fd5b8280fd5b6024837f4e487b710000000000000000000000000000000000000000000000000000000081526041600452fd5b50346101b857806003193601126101b85760206040516127108152f35b50346101b857806003193601126101b85760206040516001600160a01b037f0000000000000000000000000000000000000000000000000000000000000000168152f35b50346101b85760406003193601126101b85761187e613b37565b6001600160a01b0361188e613b4d565b91611897614070565b61189f613fbb565b16604051907f70a08231000000000000000000000000000000000000000000000000000000008252306004830152602082602481845afa9182156116c3578492611947575b506040517fa9059cbb0000000000000000000000000000000000000000000000000000000060208201526001600160a01b03939093166024840152604480840192909252908252611940919061193b606483613c6d565b614351565b6001815580f35b9291506020833d602011611977575b8161196360209383613c6d565b8101031261155a579151909161193b6118e4565b3d9150611956565b50346101b8576001600160a01b0361199636613b77565b9192909216908184526002602052604084206001600160a01b036119bd8560078401613e64565b90549060031b1c163303611a57579060087f189a28a3be2ec38788a4a7ff2146b2d9f4f852de2353c9287fed2564845a05d89201611a3882611a19876001600160a01b03611a0b8287613e64565b90549060031b1c1694613e64565b9091906001600160a01b038084549260031b9316831b921b1916179055565b604080516001600160a01b03928316815292909116602083015290a380f35b6004857f82b42900000000000000000000000000000000000000000000000000000000008152fd5b50346101b857806003193601126101b85760206001600160a01b0360015416604051908152f35b50346101b85760206003193601126101b8576001600160a01b03611ac8613b37565b611ad0613fbb565b168152600260205260408120604051611ae881613c08565b6001600160a01b038254168152604051611b0181613c51565b6001600160a01b03600184015416815260028301546001600160a01b038116602083015262ffffff8160a01c16604083015260b81c60020b60608201526001600160a01b036003840154166080820152602082019081526004830154936040830194855260058401549160608401928352600685019460405180968791602082549182815201918652602086209086915b81600f8401106125b65792611c329260089592611c50979554918181106125a1575b818110612589575b818110612572575b81811061255a575b818110612542575b81811061252a575b818110612512575b8181106124fa575b8181106124e2575b8181106124ca575b8181106124b2575b81811061249a575b818110612482575b81811061246a575b818110612452575b10612444575b500389613c6d565b60808701978852611c4560078201613ea6565b60a088015201613ea6565b9260c085019384528151965190516060906001810180821161229157611c768a916140ef565b9386905b8382106123bb575050611cb1939291611cbf6001600160a01b03602081611cf49551169d015116936040519687916020830161419c565b03601f198101875286613c6d565b6040518b602082015283604082015230606082015260608152611ce3608082613c6d565b611ced8286613ef9565b5283613ef9565b50604051917f70a082310000000000000000000000000000000000000000000000000000000083523060048401526020836024818d5afa928315611566578693612387575b50604051937f70a08231000000000000000000000000000000000000000000000000000000008552306004860152602085602481865afa94851561237c578795612348575b506001600160a01b037f00000000000000000000000000000000000000000000000000000000000000001690813b1561234457918791611dee93836040518096819582947f4afe393c000000000000000000000000000000000000000000000000000000008452600484016141d2565b03925af180156115665761232f575b5060206024979899604051988980927f70a082310000000000000000000000000000000000000000000000000000000082523060048301525afa96871561151d5785976122fa575b50956020602497604051988980927f70a082310000000000000000000000000000000000000000000000000000000082523060048301525afa96871561151d5785976122be575b50611ea59291611e9f9198979698614023565b94614023565b9051956001600160a01b036020818951169801511693611ec6825151613ff2565b93611ed2835151613ff2565b958198829a839a5b8651515f198101908111612291578c1015611f6e57611f648c9d611f578e8d9e9f6001958f8f928f938f928f83612710611f4a611f5e9961ffff611f31858b86611f38611f519a611f579f611f3186899251613ef9565b5116613f25565b04611f43838d613ef9565b5251613ef9565b0492613ef9565b52613ef9565b5190614030565b9d613ef9565b9c019a9998611eda565b878a9597968c8f611f808d9584614023565b8a51515f1981019081116122645790611f9d611fa4939288613ef9565b5284614023565b8951515f1981019081116122375790611fc38c9796959493928b613ef9565b52855b8a51518110156121c957611fda8186613ef9565b516120e8575b611fea818b613ef9565b51611ff8575b600101611fc6565b6001600160a01b037f00000000000000000000000000000000000000000000000000000000000000001661203761202f838d613ef9565b51828c614260565b6001600160a01b0361204a838b51613ef9565b5116612056838d613ef9565b51823b156120e4576040517f42237c360000000000000000000000000000000000000000000000000000000081526001600160a01b039283166004820152918c16602483015260448201529088908290606490829084905af19081156120d95788916120c4575b5050611ff0565b816120ce91613c6d565b6117ca57868d6120bd565b6040513d8a823e3d90fd5b8980fd5b6001600160a01b037f00000000000000000000000000000000000000000000000000000000000000001661212761211f8388613ef9565b518289614260565b6001600160a01b0361213a838b51613ef9565b51166121468388613ef9565b51823b156120e4576040517f42237c360000000000000000000000000000000000000000000000000000000081526001600160a01b039283166004820152918916602483015260448201529088908290606490829084905af19081156120d95788916121b4575b5050611fe0565b816121be91613c6d565b6117ca57868d6121ad565b507f21d15f71483b597e8f0009e83b90b2117f6f98c185d7173857dddcae5eb8546a9394508861221f6001600160a01b0361222d935116966040519586958652602086015260806040860152608085019061403d565b90838203606085015261403d565b0390a26001815580f35b60248c7f4e487b710000000000000000000000000000000000000000000000000000000081526011600452fd5b60248d7f4e487b710000000000000000000000000000000000000000000000000000000081526011600452fd5b6024867f4e487b710000000000000000000000000000000000000000000000000000000081526011600452fd5b9096506020929192813d6020116122f2575b816122dd60209383613c6d565b8101031261155a575195909190611ea5611e8c565b3d91506122d0565b96506020873d602011612327575b8161231560209383613c6d565b8101031261155a579551956020611e45565b3d9150612308565b61233a868092613c6d565b611528575f611dfd565b8780fd5b9094506020813d602011612374575b8161236460209383613c6d565b8101031261155a5751935f611d7e565b3d9150612357565b6040513d89823e3d90fd5b9092506020813d6020116123b3575b816123a360209383613c6d565b8101031261155a5751915f611d39565b3d9150612396565b915092610b446123d660019260405192839160208301614166565b936123e18184614030565b612426604051918a83526123f6602084613c6d565b610b4460405193849260208401528c60408401528c60608401528c608084015260a08084015260c0830190613c90565b6124308288613ef9565b5261243b8187613ef9565b50018a91611c7a565b60f01c81526020015f611c2a565b92602060019161ffff8560e01c168152019301611c24565b92602060019161ffff8560d01c168152019301611c1c565b92602060019161ffff8560c01c168152019301611c14565b92602060019161ffff8560b01c168152019301611c0c565b92602060019161ffff8560a01c168152019301611c04565b92602060019161ffff8560901c168152019301611bfc565b92602060019161ffff8560801c168152019301611bf4565b92602060019161ffff8560701c168152019301611bec565b92602060019161ffff8560601c168152019301611be4565b92602060019161ffff8560501c168152019301611bdc565b92602060019161ffff8560401c168152019301611bd4565b92602060019161ffff8560301c168152019301611bcc565b92602060019161ffff85831c168152019301611bc4565b92602060019161ffff8560101c168152019301611bbc565b92602060019161ffff85168152019301611bb4565b935090916001610200601092865461ffff8116825261ffff81861c16602083015261ffff8160201c16604083015261ffff8160301c16606083015261ffff8160401c16608083015261ffff8160501c1660a083015261ffff8160601c1660c083015261ffff8160701c1660e083015261ffff8160801c1661010083015261ffff8160901c1661012083015261ffff8160a01c1661014083015261ffff8160b01c1661016083015261ffff8160c01c1661018083015261ffff8160d01c166101a083015261ffff8160e01c166101c083015260f01c6101e0820152019401920190899392611b92565b50346101b857806003193601126101b85760206040516001600160a01b037f0000000000000000000000000000000000000000000000000000000000000000168152f35b50346101b857806003193601126101b8576126fb614070565b806001600160a01b036001547fffffffffffffffffffffffff00000000000000000000000000000000000000008116600155167f8be0079c531659141344cd1fd0a4f28419497f9722a3daafe3b4186f6b6457e08280a380f35b50346101b857806003193601126101b85760206040516001600160a01b037f0000000000000000000000000000000000000000000000000000000000000000168152f35b50346101b85760206003193601126101b857808080806127b7613b37565b6127bf614070565b6127c7613fbb565b4790829082156127f5575b6001600160a01b031690f1156127e9576001815580f35b604051903d90823e3d90fd5b6108fc91506127d2565b503461155a57602060031936011261155a576001600160a01b03612821613b37565b612829613fbb565b165f52600260205260405f20906040519061284382613c08565b6001600160a01b0383541682526040519061285d82613c51565b6001600160a01b03600185015416825260028401546001600160a01b038116602084015262ffffff8160a01c16604084015260b81c60020b60608301526001600160a01b036003850154166080830152602083019182526004840154906040840191825260058501549260608501938452600686019560405180978891602082549182815201915f5260205f20905f915b81600f8401106131fc579261298e92600895926129ac979554918181106131e7575b8181106131cf575b8181106131b8575b8181106131a0575b818110613188575b818110613170575b818110613158575b818110613140575b818110613128575b818110613110575b8181106130f8575b8181106130e0575b8181106130c8575b8181106130b0575b818110613098575b1061308a575b50038a613c6d565b608088019889526129a160078201613ea6565b60a089015201613ea6565b9260c086019384528151905194516060906001810180821161305d576129d1906140ef565b965f905b828210612fd657505090612a418392612a0c6001600160a01b03602081611cb198511696015116936040519687916020830161419c565b60405184602082015283604082015230606082015260608152612a30608082613c6d565b612a3a828b613ef9565b5288613ef9565b50604051917f70a08231000000000000000000000000000000000000000000000000000000008352306004840152602083602481845afa928315612f63575f93612fa2575b50604051937f70a08231000000000000000000000000000000000000000000000000000000008552306004860152602085602481865afa948515612f63575f95612f6e575b50612b1a6001600160a01b037f00000000000000000000000000000000000000000000000000000000000000001691612b0c6040519b8c92602084016141d2565b03601f1981018b528a613c6d565b803b1561155a57612b605f99918a926040519b8c809481937fdd46508f000000000000000000000000000000000000000000000000000000008352429060048401614244565b03925af1978815612f6357602498612f4d575b50602090604051988980927f70a082310000000000000000000000000000000000000000000000000000000082523060048301525afa96871561151d578597612f18575b50956020602497604051988980927f70a082310000000000000000000000000000000000000000000000000000000082523060048301525afa96871561151d578597612edc575b50612c119291611e9f9198979698614023565b9051956001600160a01b036020818951169801511693612c32825151613ff2565b93612c3e835151613ff2565b958198829a839a5b8651515f198101908111612291578c1015612ca757612c9d8c9d611f578e8d9e9f6001958f8f928f938f928f83612710611f4a611f5e9961ffff611f31858b86611f38611f519a611f579f611f3186899251613ef9565b9c019a9998612c46565b878a9597968c8f612cb98d9584614023565b8a51515f1981019081116122645790611f9d612cd6939288613ef9565b8951515f1981019081116122375790612cf58c9796959493928b613ef9565b52855b8a51518110156121c957612d0c8186613ef9565b51612e03575b612d1c818b613ef9565b51612d2a575b600101612cf8565b6001600160a01b037f000000000000000000000000000000000000000000000000000000000000000016612d6161202f838d613ef9565b6001600160a01b03612d74838b51613ef9565b5116612d80838d613ef9565b51823b156120e4576040517f42237c360000000000000000000000000000000000000000000000000000000081526001600160a01b039283166004820152918c16602483015260448201529088908290606490829084905af19081156120d9578891612dee575b5050612d22565b81612df891613c6d565b6117ca57868d612de7565b6001600160a01b037f000000000000000000000000000000000000000000000000000000000000000016612e3a61211f8388613ef9565b6001600160a01b03612e4d838b51613ef9565b5116612e598388613ef9565b51823b156120e4576040517f42237c360000000000000000000000000000000000000000000000000000000081526001600160a01b039283166004820152918916602483015260448201529088908290606490829084905af19081156120d9578891612ec7575b5050612d12565b81612ed191613c6d565b6117ca57868d612ec0565b9096506020929192813d602011612f10575b81612efb60209383613c6d565b8101031261155a575195909190612c11612bfe565b3d9150612eee565b96506020873d602011612f45575b81612f3360209383613c6d565b8101031261155a579551956020612bb7565b3d9150612f26565b612f5a9196505f90613c6d565b5f946020612b73565b6040513d5f823e3d90fd5b9094506020813d602011612f9a575b81612f8a60209383613c6d565b8101031261155a5751935f612acb565b3d9150612f7d565b9092506020813d602011612fce575b81612fbe60209383613c6d565b8101031261155a5751915f612a86565b3d9150612fb1565b9092610b44612ff060019260405192839160208301614166565b93612ffb8184614030565b613040604051915f8352613010602084613c6d565b610b4460405193849260208401525f60408401525f60608401525f608084015260a08084015260c0830190613c90565b61304a828c613ef9565b52613055818b613ef9565b5001906129d5565b7f4e487b71000000000000000000000000000000000000000000000000000000005f52601160045260245ffd5b60f01c81526020015f612986565b92602060019161ffff8560e01c168152019301612980565b92602060019161ffff8560d01c168152019301612978565b92602060019161ffff8560c01c168152019301612970565b92602060019161ffff8560b01c168152019301612968565b92602060019161ffff8560a01c168152019301612960565b92602060019161ffff8560901c168152019301612958565b92602060019161ffff8560801c168152019301612950565b92602060019161ffff8560701c168152019301612948565b92602060019161ffff8560601c168152019301612940565b92602060019161ffff8560501c168152019301612938565b92602060019161ffff8560401c168152019301612930565b92602060019161ffff8560301c168152019301612928565b92602060019161ffff85831c168152019301612920565b92602060019161ffff8560101c168152019301612918565b92602060019161ffff85168152019301612910565b935090916001610200601092865461ffff8116825261ffff81861c16602083015261ffff8160201c16604083015261ffff8160301c16606083015261ffff8160401c16608083015261ffff8160501c1660a083015261ffff8160601c1660c083015261ffff8160701c1660e083015261ffff8160801c1661010083015261ffff8160901c1661012083015261ffff8160a01c1661014083015261ffff8160b01c1661016083015261ffff8160c01c1661018083015261ffff8160d01c166101a083015261ffff8160e01c166101c083015260f01c6101e08201520194019201908a93926128ee565b3461155a575f60031936011261155a57613343604051613305604082613c6d565b600181527f31000000000000000000000000000000000000000000000000000000000000006020820152604051918291602083526020830190613c90565b0390f35b613bb1565b3461155a57602060031936011261155a576001600160a01b0361336d613b37565b606060c060405161337d81613c08565b5f815260405161338c81613c51565b5f81525f60208201525f60408201525f848201525f608082015260208201525f60408201525f838201528260808201528260a08201520152165f52600260205260405f20604051906133dd82613c08565b6001600160a01b038154168252604051916133f783613c51565b6001600160a01b03600183015416835260028201546001600160a01b038116602085015262ffffff8160a01c16604085015260b81c60020b60608401526001600160a01b03600383015416608084015260208101928352600482015491604082019283526005810154606083019081526006820190604051808360208295549384815201905f5260205f20925f905b80600f8301106137b05761352994549181811061379b575b818110613783575b81811061376c575b818110613754575b81811061373c575b818110613724575b81811061370c575b8181106136f4575b8181106136dc575b8181106136c4575b8181106136ac575b818110613694575b81811061367c575b818110613664575b81811061364c575b1061363e575b50936135be9897969594939291930383613c6d565b6080840191825261354f600861354160078601613ea6565b9460a0870195865201613ea6565b9460c08501958652604051978897602089526001600160a01b036101808a0197511660208a01525160408901906001600160a01b036080809282815116855282602082015116602086015262ffffff6040820151166040860152606081015160020b6060860152015116910152565b5160e0870152516101008601525191610160610120860152825180915260206101a086019301905f5b81811061362157505050613343929161360d9151601f1986830301610140870152613bcc565b9051601f1984830301610160850152613bcc565b825161ffff168552879650602094850194909201916001016135e7565b60f01c815260200189613514565b92602060019161ffff8560e01c16815201930161350e565b92602060019161ffff8560d01c168152019301613506565b92602060019161ffff8560c01c1681520193016134fe565b92602060019161ffff8560b01c1681520193016134f6565b92602060019161ffff8560a01c1681520193016134ee565b92602060019161ffff8560901c1681520193016134e6565b92602060019161ffff8560801c1681520193016134de565b92602060019161ffff8560701c1681520193016134d6565b92602060019161ffff8560601c1681520193016134ce565b92602060019161ffff8560501c1681520193016134c6565b92602060019161ffff8560401c1681520193016134be565b92602060019161ffff8560301c1681520193016134b6565b92602060019161ffff85831c1681520193016134ae565b92602060019161ffff8560101c1681520193016134a6565b92602060019161ffff8516815201930161349e565b916010919350610200600191865461ffff8116825261ffff81861c16602083015261ffff8160201c16604083015261ffff8160301c16606083015261ffff8160401c16608083015261ffff8160501c1660a083015261ffff8160601c1660c083015261ffff8160701c1660e083015261ffff8160801c1661010083015261ffff8160901c1661012083015261ffff8160a01c1661014083015261ffff8160b01c1661016083015261ffff8160c01c1661018083015261ffff8160d01c166101a083015261ffff8160e01c166101c083015260f01c6101e0820152019401920185929391613486565b3461155a57608060031936011261155a576138b1613b37565b506138ba613b4d565b60643567ffffffffffffffff811161155a573660238201121561155a57806004013567ffffffffffffffff811161155a573691016024011161155a576001600160a01b03166001600160a01b037f0000000000000000000000000000000000000000000000000000000000000000168103613985577f88a5966d370b9919b20f3e2c13ff65706f196a4e32cc2c12bf57088f8852587460206040516044358152a260206040517f150b7a02000000000000000000000000000000000000000000000000000000008152f35b7f82b42900000000000000000000000000000000000000000000000000000000005f5260045ffd5b3461155a575f60031936011261155a5760206040516001600160a01b037f0000000000000000000000000000000000000000000000000000000000000000168152f35b3461155a57602060031936011261155a576004357fffffffff00000000000000000000000000000000000000000000000000000000811680910361155a57807f150b7a020000000000000000000000000000000000000000000000000000000060209214908115613a67575b506040519015158152f35b7f0ab976c00000000000000000000000000000000000000000000000000000000091501482613a5c565b3461155a576001600160a01b03613aa736613b77565b919290921690815f526002602052600760405f2001906001600160a01b03613acf8584613e64565b90549060031b1c1633036139855781613b1982611a19876001600160a01b03611a0b827f2aad5ba8634f3d476ba298c3c089253d053106f0dd2caac6bae480ed9db420bf99613e64565b604080516001600160a01b03928316815292909116602083015290a3005b600435906001600160a01b038216820361155a57565b602435906001600160a01b038216820361155a57565b35906001600160a01b038216820361155a57565b600319606091011261155a576004356001600160a01b038116810361155a5790602435906044356001600160a01b038116810361155a5790565b3461155a575f60031936011261155a57602060405160078152f35b90602080835192838152019201905f5b818110613be95750505090565b82516001600160a01b0316845260209384019390920191600101613bdc565b60e0810190811067ffffffffffffffff821117613c2457604052565b7f4e487b71000000000000000000000000000000000000000000000000000000005f52604160045260245ffd5b60a0810190811067ffffffffffffffff821117613c2457604052565b90601f601f19910116810190811067ffffffffffffffff821117613c2457604052565b90601f19601f602080948051918291828752018686015e5f8582860101520116010190565b67ffffffffffffffff8111613c245760051b60200190565b9080601f8301121561155a578135613ce481613cb5565b92613cf26040519485613c6d565b81845260208085019260051b82010192831161155a57602001905b828210613d1a5750505090565b60208091613d2784613b63565b815201910190613d0d565b9080601f8301121561155a57813590613d4a82613cb5565b92613d586040519485613c6d565b82845260208085019360051b82010191821161155a57602001915b818310613d805750505090565b823561ffff8116810361155a57815260209283019201613d73565b35908160020b820361155a57565b9080601f8301121561155a578135613dc081613cb5565b92613dce6040519485613c6d565b81845260208085019260051b82010192831161155a57602001905b828210613df65750505090565b60208091613e0384613d9b565b815201910190613de9565b81601f8201121561155a5780359067ffffffffffffffff8211613c245760405192613e43601f8401601f191660200185613c6d565b8284526020838301011161155a57815f926020809301838601378301015290565b8054821015613e79575f5260205f2001905f90565b7f4e487b71000000000000000000000000000000000000000000000000000000005f52603260045260245ffd5b90604051918281549182825260208201905f5260205f20925f5b818110613ed7575050613ed592500383613c6d565b565b84546001600160a01b0316835260019485019487945060209093019201613ec0565b8051821015613e795760209160051b010190565b9081602091031261155a5751801515810361155a5790565b8181029291811591840414171561305d57565b818110613f43575050565b5f8155600101613f38565b90602080835192838152019201905f5b818110613f6b5750505090565b825161ffff16845260209384019390920191600101613f5e565b90602080835192838152019201905f5b818110613fa25750505090565b825160020b845260209384019390920191600101613f95565b60025f5414613fca5760025f55565b7f3ee5aeb5000000000000000000000000000000000000000000000000000000005f5260045ffd5b90613ffc82613cb5565b6140096040519182613c6d565b828152601f196140198294613cb5565b0190602036910137565b9190820391821161305d57565b9190820180921161305d57565b90602080835192838152019201905f5b81811061405a5750505090565b825184526020938401939092019160010161404d565b6001600160a01b0360015416330361408457565b7f118cdaa7000000000000000000000000000000000000000000000000000000005f523360045260245ffd5b9060020b9081156140c25760020b0790565b7f4e487b71000000000000000000000000000000000000000000000000000000005f52601260045260245ffd5b906140f982613cb5565b6141066040519182613c6d565b828152601f196141168294613cb5565b01905f5b82811061412657505050565b80606060208093850101520161411a565b60020b7fffffffffffffffffffffffffffffffffffffffffffffffffffffffffff800000811461305d575f0390565b602090600192805192839101825e017f010000000000000000000000000000000000000000000000000000000000000081520190565b602090600192805192839101825e017f110000000000000000000000000000000000000000000000000000000000000081520190565b906141e590604083526040830190613c90565b906020818303910152815180825260208201916020808360051b8301019401925f915b83831061421757505050505090565b909192939460208061423583601f1986600196030187528951613c90565b97019301930191939290614208565b92919061425b602091604086526040860190613c90565b930152565b6040517f095ea7b30000000000000000000000000000000000000000000000000000000060208281019182526001600160a01b03851660248401526044830195909552929390925f906142b68560648101611cb1565b84519082855af15f513d8261432c575b5050156142d257505050565b61193b613ed5936001600160a01b03604051917f095ea7b30000000000000000000000000000000000000000000000000000000060208401521660248201525f604482015260448152614326606482613c6d565b82614351565b90915061434957506001600160a01b0381163b15155b5f806142c6565b600114614342565b905f602091828151910182855af115612f63575f513d6143b557506001600160a01b0381163b155b6143805750565b6001600160a01b03907f5274afe7000000000000000000000000000000000000000000000000000000005f521660045260245ffd5b60011415614379565b60020b908160ff1d82810118620d89e881116146e55763ffffffff9192600182167001fffcb933bd6fad37aa2d162d1a594001027001000000000000000000000000000000001891600281166146c9575b600481166146ad575b60088116614691575b60108116614675575b60208116614659575b6040811661463d575b60808116614621575b6101008116614605575b61020081166145e9575b61040081166145cd575b61080081166145b1575b6110008116614595575b6120008116614579575b614000811661455d575b6180008116614541575b620100008116614525575b62020000811661450a575b6204000081166144ef575b62080000166144d6575b5f126144ce575b0160201c90565b5f19046144c7565b6b048a170391f7dc42444e8fa290910260801c906144c0565b6d2216e584f5fa1ea926041bedfe9890920260801c916144b6565b916e5d6af8dedb81196699c329225ee6040260801c916144ab565b916f09aa508b5b7a84e1c677de54f3e99bc90260801c916144a0565b916f31be135f97d08fd981231505542fcfa60260801c91614495565b916f70d869a156d2a1b890bb3df62baf32f70260801c9161448b565b916fa9f746462d870fdf8a65dc1f90e061e50260801c91614481565b916fd097f3bdfd2022b8845ad8f792aa58250260801c91614477565b916fe7159475a2c29b7443b29c7fa6e889d90260801c9161446d565b916ff3392b0822b70005940c7a398e4b70f30260801c91614463565b916ff987a7253ac413176f2b074cf7815e540260801c91614459565b916ffcbe86c7900a88aedcffc83b479aa3a40260801c9161444f565b916ffe5dee046a99a2a811c461f1969c30530260801c91614445565b916fff2ea16466c96a3843ec78b326b528610260801c9161443c565b916fff973b41fa98c081472e6896dfb254c00260801c91614433565b916fffcb9843d60f6159c9db58835c9266440260801c9161442a565b916fffe5caca7e10e4e61c3624eaa0941cd00260801c91614421565b916ffff2e50f5f656932ef12357cf3c7fdcc0260801c91614418565b916ffff97272373d413259a46990580e213a0260801c9161440f565b827f8b86327a000000000000000000000000000000000000000000000000000000005f5260045260245ffd5b916001600160a01b0361473b93614736938281168383161161473e575b03169061478d565b614902565b90565b9061472e565b916147369161473b936001600160a01b0382166001600160a01b03821611614787575b6001600160a01b039061477e828416838316614827565b92031691614882565b90614767565b908160601b905f196c0100000000000000000000000084099282808510940393808503948584111561155a5714614820576c0100000000000000000000000082910981805f03168092046002816003021880820260020302808202600203028082026002030280820260020302808202600203028091026002030293600183805f03040190848311900302920304170290565b5091500490565b90808202915f19828209918380841093039280840393846c01000000000000000000000000111561155a5714614879576c01000000000000000000000000910990828211900360a01b910360601c1790565b50505060601c90565b91818302915f198185099383808610950394808603958685111561155a57146148fa579082910981805f03168092046002816003021880820260020302808202600203028082026002030280820260020302808202600203028091026002030293600183805f03040190848311900302920304170290565b505091500490565b906fffffffffffffffffffffffffffffffff821680920361491f57565b7f93dafdf1000000000000000000000000000000000000000000000000000000005f5260045ffd","linkReferences":{}},"methodIdentifiers":{"BASIS_POINTS()":"e1f1c4a7","MAX_LP_POSITIONS()":"52db242f","MAX_REWARD_PARTICIPANTS()":"14a7f403","collectRewards(address)":"5763dbd0","collectRewardsWithoutUnlock(address)":"86b0c83f","factory()":"c45a0155","feeLocker()":"70e9d244","onERC721Received(address,address,uint256,bytes)":"150b7a02","owner()":"8da5cb5b","permit2()":"12261ee7","placeLiquidity((address,address[],address[],uint16[],int24[],int24[],uint16[],bytes),(address,address,int24,int24,bytes),(address,address,uint24,int24,address),uint256,address)":"ea289263","positionManager()":"791b98bc","renounceOwnership()":"715018a6","supportsInterface(bytes4)":"01ffc9a7","tokenRewards(address)":"30bd3eeb","transferOwnership(address)":"f2fde38b","updateRewardAdmin(address,uint256,address)":"0150a986","updateRewardRecipient(address,uint256,address)":"911573b3","version()":"54fd4d50","withdrawERC20(address,address)":"9456fbcc","withdrawETH(address)":"690d8320"},"id":139}