{"abi":[{"type":"constructor","inputs":[{"name":"factory_","type":"address","internalType":"address"},{"name":"weth_","type":"address","internalType":"address"},{"name":"universalRouter_","type":"address","internalType":"address"},{"name":"permit2_","type":"address","internalType":"address"}],"stateMutability":"nonpayable"},{"type":"function","name":"factory","inputs":[],"outputs":[{"name":"","type":"address","internalType":"contract ILiquid"}],"stateMutability":"view"},{"type":"function","name":"permit2","inputs":[],"outputs":[{"name":"","type":"address","internalType":"contract IPermit2"}],"stateMutability":"view"},{"type":"function","name":"receiveTokens","inputs":[{"name":"deploymentConfig","type":"tuple","internalType":"struct ILiquid.DeploymentConfig","components":[{"name":"tokenConfig","type":"tuple","internalType":"struct ILiquid.TokenConfig","components":[{"name":"tokenAdmin","type":"address","internalType":"address"},{"name":"name","type":"string","internalType":"string"},{"name":"symbol","type":"string","internalType":"string"},{"name":"salt","type":"bytes32","internalType":"bytes32"},{"name":"image","type":"string","internalType":"string"},{"name":"metadata","type":"string","internalType":"string"},{"name":"context","type":"string","internalType":"string"},{"name":"originatingChainId","type":"uint256","internalType":"uint256"}]},{"name":"poolConfig","type":"tuple","internalType":"struct ILiquid.PoolConfig","components":[{"name":"hook","type":"address","internalType":"address"},{"name":"pairedToken","type":"address","internalType":"address"},{"name":"tickIfToken0IsLiquid","type":"int24","internalType":"int24"},{"name":"tickSpacing","type":"int24","internalType":"int24"},{"name":"poolData","type":"bytes","internalType":"bytes"}]},{"name":"lockerConfig","type":"tuple","internalType":"struct ILiquid.LockerConfig","components":[{"name":"locker","type":"address","internalType":"address"},{"name":"rewardAdmins","type":"address[]","internalType":"address[]"},{"name":"rewardRecipients","type":"address[]","internalType":"address[]"},{"name":"rewardBps","type":"uint16[]","internalType":"uint16[]"},{"name":"tickLower","type":"int24[]","internalType":"int24[]"},{"name":"tickUpper","type":"int24[]","internalType":"int24[]"},{"name":"positionBps","type":"uint16[]","internalType":"uint16[]"},{"name":"lockerData","type":"bytes","internalType":"bytes"}]},{"name":"mevModuleConfig","type":"tuple","internalType":"struct ILiquid.MevModuleConfig","components":[{"name":"mevModule","type":"address","internalType":"address"},{"name":"mevModuleData","type":"bytes","internalType":"bytes"}]},{"name":"extensionConfigs","type":"tuple[]","internalType":"struct ILiquid.ExtensionConfig[]","components":[{"name":"extension","type":"address","internalType":"address"},{"name":"msgValue","type":"uint256","internalType":"uint256"},{"name":"extensionBps","type":"uint16","internalType":"uint16"},{"name":"extensionData","type":"bytes","internalType":"bytes"}]}]},{"name":"tokenPoolKey","type":"tuple","internalType":"struct PoolKey","components":[{"name":"currency0","type":"address","internalType":"Currency"},{"name":"currency1","type":"address","internalType":"Currency"},{"name":"fee","type":"uint24","internalType":"uint24"},{"name":"tickSpacing","type":"int24","internalType":"int24"},{"name":"hooks","type":"address","internalType":"contract IHooks"}]},{"name":"token","type":"address","internalType":"address"},{"name":"extensionSupply","type":"uint256","internalType":"uint256"},{"name":"extensionIndex","type":"uint256","internalType":"uint256"}],"outputs":[],"stateMutability":"payable"},{"type":"function","name":"supportsInterface","inputs":[{"name":"interfaceId","type":"bytes4","internalType":"bytes4"}],"outputs":[{"name":"","type":"bool","internalType":"bool"}],"stateMutability":"pure"},{"type":"function","name":"universalRouter","inputs":[],"outputs":[{"name":"","type":"address","internalType":"contract IUniversalRouter"}],"stateMutability":"view"},{"type":"function","name":"weth","inputs":[],"outputs":[{"name":"","type":"address","internalType":"contract IWETH9"}],"stateMutability":"view"},{"type":"event","name":"EthDevBuy","inputs":[{"name":"token","type":"address","indexed":true,"internalType":"address"},{"name":"user","type":"address","indexed":true,"internalType":"address"},{"name":"ethAmount","type":"uint256","indexed":false,"internalType":"uint256"},{"name":"tokenAmount","type":"uint256","indexed":false,"internalType":"uint256"}],"anonymous":false},{"type":"error","name":"InvalidEthDevBuyPercentage","inputs":[]},{"type":"error","name":"InvalidMsgValue","inputs":[]},{"type":"error","name":"InvalidPairedTokenPoolKey","inputs":[]},{"type":"error","name":"ReentrancyGuardReentrantCall","inputs":[]},{"type":"error","name":"Unauthorized","inputs":[]}],"bytecode":{"object":"0x610100346100f357601f611b9738819003918201601f19168301916001600160401b038311848410176100f7578084926080946040528339810103126100f3576100488161010b565b906100556020820161010b565b61006d60606100666040850161010b565b930161010b565b60015f556001600160a01b0393841660805290831660a05290821660c0521660e052604051611a77908161012082396080518181816101e2015261157a015260a05181818161042d01526115e8015260c05181818161050d01528181610ff70152818161130f0152611656015260e05181818161049f0152818161126801526116c40152f35b5f80fd5b634e487b7160e01b5f52604160045260245ffd5b51906001600160a01b03821682036100f35756fe6080806040526004361015610012575f80fd5b5f905f3560e01c90816301ffc9a7146116e85750806312261ee71461167a57806335a9e4df1461160c5780633fc8cef31461159e578063c45a0155146115305763f7fdb28014610060575f80fd5b6101207ffffffffffffffffffffffffffffffffffffffffffffffffffffffffffffffffc360112610b575760043567ffffffffffffffff8111610b5757806004018136039160a07ffffffffffffffffffffffffffffffffffffffffffffffffffffffffffffffffc840112610b575760a07fffffffffffffffffffffffffffffffffffffffffffffffffffffffffffffffdc360112610b5757604051926101068461176e565b60243573ffffffffffffffffffffffffffffffffffffffff81168103610b5757845260443573ffffffffffffffffffffffffffffffffffffffff81168103610b5757602085015260643562ffffff81168103610b575760408501526084358060020b8103610b5757606085015260a43573ffffffffffffffffffffffffffffffffffffffff81168103610b5757608085015260c4359273ffffffffffffffffffffffffffffffffffffffff8416809403610b57576101043560025f54146115085760025f5573ffffffffffffffffffffffffffffffffffffffff7f00000000000000000000000000000000000000000000000000000000000000001633036114e057608484019160206102238361021d8685611808565b9061185c565b013534148015906114c7575b61149f5760406102438361021d8685611808565b013561ffff8116809103610b575715801590611494575b61146c5761026b9261021d91611808565b6060810135907fffffffffffffffffffffffffffffffffffffffffffffffffffffffffffffffe181360301821215610b57570180359067ffffffffffffffff8211610b575760208101918036038313610b575781019360e082860312610b5757604051946060860186811067ffffffffffffffff82111761143f5760405260a09083900312610b5757610309604051936103048561176e565b6117e7565b8352610317604083016117e7565b9360208401948552606083013562ffffff81168103610b5757604085015260808301358060020b8103610b5757606085015260a083013573ffffffffffffffffffffffffffffffffffffffff81168103610b5757608085015283865260c08301356fffffffffffffffffffffffffffffffff811693848203610b575760e06103a79160409360208b0152016117e7565b96019586527fffffffffffffffffffffffffffffffffffffffffffffffffffffffffffffff5d60248301359101811215610b575701602401359173ffffffffffffffffffffffffffffffffffffffff831690818403610b575788946fffffffffffffffffffffffffffffffff34169373ffffffffffffffffffffffffffffffffffffffff7f00000000000000000000000000000000000000000000000000000000000000001692838514928315610cad575b505050610c39575b506040517f095ea7b300000000000000000000000000000000000000000000000000000000815273ffffffffffffffffffffffffffffffffffffffff7f000000000000000000000000000000000000000000000000000000000000000016600482018190526fffffffffffffffffffffffffffffffff84166024830152929060208160448189875af18015610bde57610c1c575b5073ffffffffffffffffffffffffffffffffffffffff7f00000000000000000000000000000000000000000000000000000000000000001692803b15610c18576040517f87517c4500000000000000000000000000000000000000000000000000000000815273ffffffffffffffffffffffffffffffffffffffff8681166004830152851660248201526fffffffffffffffffffffffffffffffff8316604482015265ffffffffffff421660648201529086908290608490829084905af18015610bde5786918a91610c00575b50818361080e60219860806107c96108a89661087898506106106040519d8e7f10000000000000000000000000000000000000000000000000000000000000006020820152600181526117a6565b61079d604051977f060000000000000000000000000000000000000000000000000000000000000060208a01527f0c0000000000000000000000000000000000000000000000000000000000000060218a01527f0f0000000000000000000000000000000000000000000000000000000000000060228a01526003895261069860238a6117a6565b6106a06118e1565b9c73ffffffffffffffffffffffffffffffffffffffff845116145f14610be9576fffffffffffffffffffffffffffffffff60015b604051926106e18461178a565b8352604051946106f08661176e565b85526020850190151581528180604087019b169a8b815260608701926001845289880195865273ffffffffffffffffffffffffffffffffffffffff6040519a8b996020808c0152518281511660408c01528260208201511660608c015262ffffff604082015116828c0152606081015160020b60a08c015201511660c089015251151560e08801525116610100860152511661012084015251610120610140840152610160830190611991565b037fffffffffffffffffffffffffffffffffffffffffffffffffffffffffffffffe081018352826117a6565b6107d2896119d4565b526107dc886119d4565b506040805173ffffffffffffffffffffffffffffffffffffffff9092166020830152810192909252816060810161079d565b610817866119e1565b52610821856119e1565b506040518a602082015260016040820152604081526108416060826117a6565b61084a866119f1565b52610854856119f1565b5061079d610860611939565b95604051948593604060208601526060850190611991565b907fffffffffffffffffffffffffffffffffffffffffffffffffffffffffffffffe0848303016040850152611a01565b6108b1836119d4565b526108bb826119d4565b50604051977f70a082310000000000000000000000000000000000000000000000000000000089523060048a01526020896024818b5afa988915610bde578699610b92575b505173ffffffffffffffffffffffffffffffffffffffff16610b8b575b823b15610b875761097c85936fffffffffffffffffffffffffffffffff6109ac96604051978896879586937f3593564c000000000000000000000000000000000000000000000000000000008552606060048601526064850190611991565b907ffffffffffffffffffffffffffffffffffffffffffffffffffffffffffffffffc848303016024850152611a01565b426044830152039316905af18015610b7c57610b63575b5050604051927f70a08231000000000000000000000000000000000000000000000000000000008452306004850152602084602481865afa938415610af3578594610b2b575b508303928311610afe5780516040517fa9059cbb00000000000000000000000000000000000000000000000000000000815273ffffffffffffffffffffffffffffffffffffffff90911660048201526024810184905260208160448188875af18015610af3577f74dba82203a486f524dc5d1931f82939c29eee6baf03b53fef9dc5a3031f9f3d9260409273ffffffffffffffffffffffffffffffffffffffff92610ac6575b505116938151903482526020820152a36001815580f35b610ae79060203d602011610aec575b610adf81836117a6565b8101906118c9565b610aaf565b503d610ad5565b6040513d87823e3d90fd5b6024847f4e487b710000000000000000000000000000000000000000000000000000000081526011600452fd5b9093506020813d602011610b5b575b81610b47602093836117a6565b81010312610b575751925f610a09565b5f80fd5b3d9150610b3a565b81610b6d916117a6565b610b7857835f6109c3565b8380fd5b6040513d84823e3d90fd5b8480fd5b508361091d565b955097506020853d602011610bd6575b81610baf602093836117a6565b81010312610b575773ffffffffffffffffffffffffffffffffffffffff8995519890610900565b3d9150610ba2565b6040513d88823e3d90fd5b6fffffffffffffffffffffffffffffffff816106d4565b610c0c915082906117a6565b610b875784885f6105c2565b8580fd5b610c349060203d602011610aec57610adf81836117a6565b6104f5565b803b15610b875784600491604051928380927fd0e30db00000000000000000000000000000000000000000000000000000000082526fffffffffffffffffffffffffffffffff8816905af1908115610af3578591610c98575b50610461565b81610ca2916117a6565b610b7857835f610c92565b90919394959296975073ffffffffffffffffffffffffffffffffffffffff808351169151169186821491825f14611410578684036113e8578d935b83156113e0578781145b6111e4575b83156111dd5780935b156111d55750945b610878610f86604051947f1000000000000000000000000000000000000000000000000000000000000000602087015260018652610d476021876117a6565b87610f04604051927f060000000000000000000000000000000000000000000000000000000000000060208501527f0c0000000000000000000000000000000000000000000000000000000000000060218501527f0f00000000000000000000000000000000000000000000000000000000000000602285015260038452610dd06023856117a6565b6080610ef18961079d8d6fffffffffffffffffffffffffffffffff610df36118e1565b9c73ffffffffffffffffffffffffffffffffffffffff85511673ffffffffffffffffffffffffffffffffffffffff8916145f146111ce578160015b60405194610e3b8661178a565b855260405196610e4a8861176e565b875260208701901515815260408701908c82526060880193845289880195865273ffffffffffffffffffffffffffffffffffffffff6040519a8b996020808c0152518281511660408c01528260208201511660608c015262ffffff604082015116828c0152606081015160020b60a08c015201511660c089015251151560e08801525116610100860152511661012084015251610120610140840152610160830190611991565b610efa886119d4565b526107dc876119d4565b610f0d856119e1565b52610f17846119e1565b5073ffffffffffffffffffffffffffffffffffffffff6040519916988960208201526001604082015260408152610f4f6060826117a6565b610f58856119f1565b52610f62846119f1565b5061079d610f6e611939565b94604051948593604060208601526060850190611991565b610f8f826119d4565b52610f99816119d4565b50604051947f70a082310000000000000000000000000000000000000000000000000000000086523060048701526020866024818a5afa958615610af3578596611197575b5073ffffffffffffffffffffffffffffffffffffffff807f000000000000000000000000000000000000000000000000000000000000000016935116155f14611190575b823b15610b875761097c85936fffffffffffffffffffffffffffffffff61108196604051978896879586937f3593564c000000000000000000000000000000000000000000000000000000008552606060048601526064850190611991565b426044830152039316905af18015610b7c57611177575b50506020602492604051938480927f70a082310000000000000000000000000000000000000000000000000000000082523060048301525afa91821561116c578a92611138575b50810390811161110b578894936fffffffffffffffffffffffffffffffff9091169291905f8080610459565b6024897f4e487b710000000000000000000000000000000000000000000000000000000081526011600452fd5b9091506020813d602011611164575b81611154602093836117a6565b81010312610b575751905f6110df565b3d9150611147565b6040513d8c823e3d90fd5b81611181916117a6565b61118c57895f611098565b8980fd5b5083611022565b945094506020843d6020116111c6575b816111b4602093836117a6565b81010312610b57578d9351945f610fde565b3d91506111a7565b8183610e2e565b905094610d08565b8193610d00565b9091929350863b15610b57576040517fd0e30db00000000000000000000000000000000000000000000000000000000081525f81600481898c5af180156113d5576113ba575b506040517f095ea7b300000000000000000000000000000000000000000000000000000000815273ffffffffffffffffffffffffffffffffffffffff7f000000000000000000000000000000000000000000000000000000000000000016600482018190526fffffffffffffffffffffffffffffffff871660248301528f95949392916020816044818a8e5af180156113af57611392575b50803b15610c18576040517f87517c4500000000000000000000000000000000000000000000000000000000815273ffffffffffffffffffffffffffffffffffffffff8a811660048301527f00000000000000000000000000000000000000000000000000000000000000001660248201526fffffffffffffffffffffffffffffffff8816604482015265ffffffffffff421660648201529086908290608490829084905af1908115610bde57869161137d575b5050610cf7565b81611387916117a6565b610b8757845f611376565b6113aa9060203d602011610aec57610adf81836117a6565b6112c2565b6040513d89823e3d90fd5b6113ca919493929e505f906117a6565b5f9c9091925f61122a565b6040513d5f823e3d90fd5b878214610cf2565b7fd8164a5b000000000000000000000000000000000000000000000000000000005f5260045ffd5b8681141580611436575b801561142c575b6113e8578d93610ce8565b5087841415611421565b5080151561141a565b7f4e487b71000000000000000000000000000000000000000000000000000000005f52604160045260245ffd5b7f1f832079000000000000000000000000000000000000000000000000000000005f5260045ffd5b5060e435151561025a565b7f1841b4e1000000000000000000000000000000000000000000000000000000005f5260045ffd5b5060206114d88361021d8685611808565b01351561022f565b7f82b42900000000000000000000000000000000000000000000000000000000005f5260045ffd5b7f3ee5aeb5000000000000000000000000000000000000000000000000000000005f5260045ffd5b34610b57575f7ffffffffffffffffffffffffffffffffffffffffffffffffffffffffffffffffc360112610b5757602060405173ffffffffffffffffffffffffffffffffffffffff7f0000000000000000000000000000000000000000000000000000000000000000168152f35b34610b57575f7ffffffffffffffffffffffffffffffffffffffffffffffffffffffffffffffffc360112610b5757602060405173ffffffffffffffffffffffffffffffffffffffff7f0000000000000000000000000000000000000000000000000000000000000000168152f35b34610b57575f7ffffffffffffffffffffffffffffffffffffffffffffffffffffffffffffffffc360112610b5757602060405173ffffffffffffffffffffffffffffffffffffffff7f0000000000000000000000000000000000000000000000000000000000000000168152f35b34610b57575f7ffffffffffffffffffffffffffffffffffffffffffffffffffffffffffffffffc360112610b5757602060405173ffffffffffffffffffffffffffffffffffffffff7f0000000000000000000000000000000000000000000000000000000000000000168152f35b34610b575760207ffffffffffffffffffffffffffffffffffffffffffffffffffffffffffffffffc360112610b5757600435907fffffffff000000000000000000000000000000000000000000000000000000008216809203610b57577ff7fdb28000000000000000000000000000000000000000000000000000000000602092148152f35b60a0810190811067ffffffffffffffff82111761143f57604052565b6020810190811067ffffffffffffffff82111761143f57604052565b90601f7fffffffffffffffffffffffffffffffffffffffffffffffffffffffffffffffe0910116810190811067ffffffffffffffff82111761143f57604052565b359073ffffffffffffffffffffffffffffffffffffffff82168203610b5757565b9035907fffffffffffffffffffffffffffffffffffffffffffffffffffffffffffffffe181360301821215610b57570180359067ffffffffffffffff8211610b5757602001918160051b36038313610b5757565b919081101561189c5760051b810135907fffffffffffffffffffffffffffffffffffffffffffffffffffffffffffffff8181360301821215610b57570190565b7f4e487b71000000000000000000000000000000000000000000000000000000005f52603260045260245ffd5b90816020910312610b5757518015158103610b575790565b604051608091906118f283826117a6565b60038152917fffffffffffffffffffffffffffffffffffffffffffffffffffffffffffffffe001825f5b82811061192857505050565b80606060208093850101520161191c565b6040805190919061194a83826117a6565b60018152917fffffffffffffffffffffffffffffffffffffffffffffffffffffffffffffffe001825f5b82811061198057505050565b806060602080938501015201611974565b907fffffffffffffffffffffffffffffffffffffffffffffffffffffffffffffffe0601f602080948051918291828752018686015e5f8582860101520116010190565b80511561189c5760200190565b80516001101561189c5760400190565b80516002101561189c5760600190565b9080602083519182815201916020808360051b8301019401925f915b838310611a2c57505050505090565b9091929394602080611a68837fffffffffffffffffffffffffffffffffffffffffffffffffffffffffffffffe086600196030187528951611991565b97019301930191939290611a1d56","linkReferences":{}},"methodIdentifiers":{"factory()":"c45a0155","permit2()":"12261ee7","receiveTokens(((address,string,string,bytes32,string,string,string,uint256),(address,address,int24,int24,bytes),(address,address[],address[],uint16[],int24[],int24[],uint16[],bytes),(address,bytes),(address,uint256,uint16,bytes)[]),(address,address,uint24,int24,address),address,uint256,uint256)":"f7fdb280","supportsInterface(bytes4)":"01ffc9a7","universalRouter()":"35a9e4df","weth()":"3fc8cef3"},"id":121}