{"abi":[{"type":"constructor","inputs":[{"name":"owner_","type":"address","internalType":"address"},{"name":"factory_","type":"address","internalType":"address"},{"name":"withdrawFeeRecipient_","type":"address","internalType":"address"}],"stateMutability":"nonpayable"},{"type":"function","name":"DEPLOYMENT_BAD_BUFFER","inputs":[],"outputs":[{"name":"","type":"uint256","internalType":"uint256"}],"stateMutability":"view"},{"type":"function","name":"MAX_PRESALE_DURATION","inputs":[],"outputs":[{"name":"","type":"uint256","internalType":"uint256"}],"stateMutability":"view"},{"type":"function","name":"SALT_SET_BUFFER","inputs":[],"outputs":[{"name":"","type":"uint256","internalType":"uint256"}],"stateMutability":"view"},{"type":"function","name":"WITHDRAW_FEE_BPS","inputs":[],"outputs":[{"name":"","type":"uint256","internalType":"uint256"}],"stateMutability":"view"},{"type":"function","name":"admins","inputs":[{"name":"","type":"address","internalType":"address"}],"outputs":[{"name":"","type":"bool","internalType":"bool"}],"stateMutability":"view"},{"type":"function","name":"amountAvailableToClaim","inputs":[{"name":"presaleId","type":"uint256","internalType":"uint256"},{"name":"user","type":"address","internalType":"address"}],"outputs":[{"name":"","type":"uint256","internalType":"uint256"}],"stateMutability":"view"},{"type":"function","name":"buyIntoPresale","inputs":[{"name":"presaleId","type":"uint256","internalType":"uint256"}],"outputs":[],"stateMutability":"payable"},{"type":"function","name":"claimEth","inputs":[{"name":"presaleId","type":"uint256","internalType":"uint256"},{"name":"recipient","type":"address","internalType":"address"}],"outputs":[],"stateMutability":"nonpayable"},{"type":"function","name":"claimTokens","inputs":[{"name":"presaleId","type":"uint256","internalType":"uint256"}],"outputs":[],"stateMutability":"nonpayable"},{"type":"function","name":"endPresale","inputs":[{"name":"presaleId","type":"uint256","internalType":"uint256"},{"name":"salt","type":"bytes32","internalType":"bytes32"}],"outputs":[{"name":"token","type":"address","internalType":"address"}],"stateMutability":"nonpayable"},{"type":"function","name":"factory","inputs":[],"outputs":[{"name":"","type":"address","internalType":"contract ILiquid"}],"stateMutability":"view"},{"type":"function","name":"getPresale","inputs":[{"name":"presaleId_","type":"uint256","internalType":"uint256"}],"outputs":[{"name":"","type":"tuple","internalType":"struct ILiquidPresaleEthToCreator.Presale","components":[{"name":"deploymentConfig","type":"tuple","internalType":"struct ILiquid.DeploymentConfig","components":[{"name":"tokenConfig","type":"tuple","internalType":"struct ILiquid.TokenConfig","components":[{"name":"tokenAdmin","type":"address","internalType":"address"},{"name":"name","type":"string","internalType":"string"},{"name":"symbol","type":"string","internalType":"string"},{"name":"salt","type":"bytes32","internalType":"bytes32"},{"name":"image","type":"string","internalType":"string"},{"name":"metadata","type":"string","internalType":"string"},{"name":"context","type":"string","internalType":"string"},{"name":"originatingChainId","type":"uint256","internalType":"uint256"}]},{"name":"poolConfig","type":"tuple","internalType":"struct ILiquid.PoolConfig","components":[{"name":"hook","type":"address","internalType":"address"},{"name":"pairedToken","type":"address","internalType":"address"},{"name":"tickIfToken0IsLiquid","type":"int24","internalType":"int24"},{"name":"tickSpacing","type":"int24","internalType":"int24"},{"name":"poolData","type":"bytes","internalType":"bytes"}]},{"name":"lockerConfig","type":"tuple","internalType":"struct ILiquid.LockerConfig","components":[{"name":"locker","type":"address","internalType":"address"},{"name":"rewardAdmins","type":"address[]","internalType":"address[]"},{"name":"rewardRecipients","type":"address[]","internalType":"address[]"},{"name":"rewardBps","type":"uint16[]","internalType":"uint16[]"},{"name":"tickLower","type":"int24[]","internalType":"int24[]"},{"name":"tickUpper","type":"int24[]","internalType":"int24[]"},{"name":"positionBps","type":"uint16[]","internalType":"uint16[]"},{"name":"lockerData","type":"bytes","internalType":"bytes"}]},{"name":"mevModuleConfig","type":"tuple","internalType":"struct ILiquid.MevModuleConfig","components":[{"name":"mevModule","type":"address","internalType":"address"},{"name":"mevModuleData","type":"bytes","internalType":"bytes"}]},{"name":"extensionConfigs","type":"tuple[]","internalType":"struct ILiquid.ExtensionConfig[]","components":[{"name":"extension","type":"address","internalType":"address"},{"name":"msgValue","type":"uint256","internalType":"uint256"},{"name":"extensionBps","type":"uint16","internalType":"uint16"},{"name":"extensionData","type":"bytes","internalType":"bytes"}]}]},{"name":"status","type":"uint8","internalType":"enum ILiquidPresaleEthToCreator.PresaleStatus"},{"name":"recipient","type":"address","internalType":"address"},{"name":"minEthGoal","type":"uint256","internalType":"uint256"},{"name":"maxEthGoal","type":"uint256","internalType":"uint256"},{"name":"endTime","type":"uint256","internalType":"uint256"},{"name":"deployedToken","type":"address","internalType":"address"},{"name":"ethRaised","type":"uint256","internalType":"uint256"},{"name":"tokenSupply","type":"uint256","internalType":"uint256"},{"name":"deploymentExpected","type":"bool","internalType":"bool"},{"name":"ethClaimed","type":"bool","internalType":"bool"},{"name":"lockupDuration","type":"uint256","internalType":"uint256"},{"name":"vestingDuration","type":"uint256","internalType":"uint256"},{"name":"lockupEndTime","type":"uint256","internalType":"uint256"},{"name":"vestingEndTime","type":"uint256","internalType":"uint256"}]}],"stateMutability":"view"},{"type":"function","name":"owner","inputs":[],"outputs":[{"name":"","type":"address","internalType":"address"}],"stateMutability":"view"},{"type":"function","name":"presaleBuys","inputs":[{"name":"presaleId","type":"uint256","internalType":"uint256"},{"name":"user","type":"address","internalType":"address"}],"outputs":[{"name":"amount","type":"uint256","internalType":"uint256"}],"stateMutability":"view"},{"type":"function","name":"presaleClaimed","inputs":[{"name":"presaleId","type":"uint256","internalType":"uint256"},{"name":"user","type":"address","internalType":"address"}],"outputs":[{"name":"amount","type":"uint256","internalType":"uint256"}],"stateMutability":"view"},{"type":"function","name":"presaleState","inputs":[{"name":"presaleId","type":"uint256","internalType":"uint256"}],"outputs":[{"name":"deploymentConfig","type":"tuple","internalType":"struct ILiquid.DeploymentConfig","components":[{"name":"tokenConfig","type":"tuple","internalType":"struct ILiquid.TokenConfig","components":[{"name":"tokenAdmin","type":"address","internalType":"address"},{"name":"name","type":"string","internalType":"string"},{"name":"symbol","type":"string","internalType":"string"},{"name":"salt","type":"bytes32","internalType":"bytes32"},{"name":"image","type":"string","internalType":"string"},{"name":"metadata","type":"string","internalType":"string"},{"name":"context","type":"string","internalType":"string"},{"name":"originatingChainId","type":"uint256","internalType":"uint256"}]},{"name":"poolConfig","type":"tuple","internalType":"struct ILiquid.PoolConfig","components":[{"name":"hook","type":"address","internalType":"address"},{"name":"pairedToken","type":"address","internalType":"address"},{"name":"tickIfToken0IsLiquid","type":"int24","internalType":"int24"},{"name":"tickSpacing","type":"int24","internalType":"int24"},{"name":"poolData","type":"bytes","internalType":"bytes"}]},{"name":"lockerConfig","type":"tuple","internalType":"struct ILiquid.LockerConfig","components":[{"name":"locker","type":"address","internalType":"address"},{"name":"rewardAdmins","type":"address[]","internalType":"address[]"},{"name":"rewardRecipients","type":"address[]","internalType":"address[]"},{"name":"rewardBps","type":"uint16[]","internalType":"uint16[]"},{"name":"tickLower","type":"int24[]","internalType":"int24[]"},{"name":"tickUpper","type":"int24[]","internalType":"int24[]"},{"name":"positionBps","type":"uint16[]","internalType":"uint16[]"},{"name":"lockerData","type":"bytes","internalType":"bytes"}]},{"name":"mevModuleConfig","type":"tuple","internalType":"struct ILiquid.MevModuleConfig","components":[{"name":"mevModule","type":"address","internalType":"address"},{"name":"mevModuleData","type":"bytes","internalType":"bytes"}]},{"name":"extensionConfigs","type":"tuple[]","internalType":"struct ILiquid.ExtensionConfig[]","components":[{"name":"extension","type":"address","internalType":"address"},{"name":"msgValue","type":"uint256","internalType":"uint256"},{"name":"extensionBps","type":"uint16","internalType":"uint16"},{"name":"extensionData","type":"bytes","internalType":"bytes"}]}]},{"name":"status","type":"uint8","internalType":"enum ILiquidPresaleEthToCreator.PresaleStatus"},{"name":"recipient","type":"address","internalType":"address"},{"name":"minEthGoal","type":"uint256","internalType":"uint256"},{"name":"maxEthGoal","type":"uint256","internalType":"uint256"},{"name":"endTime","type":"uint256","internalType":"uint256"},{"name":"deployedToken","type":"address","internalType":"address"},{"name":"ethRaised","type":"uint256","internalType":"uint256"},{"name":"tokenSupply","type":"uint256","internalType":"uint256"},{"name":"deploymentExpected","type":"bool","internalType":"bool"},{"name":"ethClaimed","type":"bool","internalType":"bool"},{"name":"lockupDuration","type":"uint256","internalType":"uint256"},{"name":"vestingDuration","type":"uint256","internalType":"uint256"},{"name":"lockupEndTime","type":"uint256","internalType":"uint256"},{"name":"vestingEndTime","type":"uint256","internalType":"uint256"}],"stateMutability":"view"},{"type":"function","name":"receiveTokens","inputs":[{"name":"deploymentConfig","type":"tuple","internalType":"struct ILiquid.DeploymentConfig","components":[{"name":"tokenConfig","type":"tuple","internalType":"struct ILiquid.TokenConfig","components":[{"name":"tokenAdmin","type":"address","internalType":"address"},{"name":"name","type":"string","internalType":"string"},{"name":"symbol","type":"string","internalType":"string"},{"name":"salt","type":"bytes32","internalType":"bytes32"},{"name":"image","type":"string","internalType":"string"},{"name":"metadata","type":"string","internalType":"string"},{"name":"context","type":"string","internalType":"string"},{"name":"originatingChainId","type":"uint256","internalType":"uint256"}]},{"name":"poolConfig","type":"tuple","internalType":"struct ILiquid.PoolConfig","components":[{"name":"hook","type":"address","internalType":"address"},{"name":"pairedToken","type":"address","internalType":"address"},{"name":"tickIfToken0IsLiquid","type":"int24","internalType":"int24"},{"name":"tickSpacing","type":"int24","internalType":"int24"},{"name":"poolData","type":"bytes","internalType":"bytes"}]},{"name":"lockerConfig","type":"tuple","internalType":"struct ILiquid.LockerConfig","components":[{"name":"locker","type":"address","internalType":"address"},{"name":"rewardAdmins","type":"address[]","internalType":"address[]"},{"name":"rewardRecipients","type":"address[]","internalType":"address[]"},{"name":"rewardBps","type":"uint16[]","internalType":"uint16[]"},{"name":"tickLower","type":"int24[]","internalType":"int24[]"},{"name":"tickUpper","type":"int24[]","internalType":"int24[]"},{"name":"positionBps","type":"uint16[]","internalType":"uint16[]"},{"name":"lockerData","type":"bytes","internalType":"bytes"}]},{"name":"mevModuleConfig","type":"tuple","internalType":"struct ILiquid.MevModuleConfig","components":[{"name":"mevModule","type":"address","internalType":"address"},{"name":"mevModuleData","type":"bytes","internalType":"bytes"}]},{"name":"extensionConfigs","type":"tuple[]","internalType":"struct ILiquid.ExtensionConfig[]","components":[{"name":"extension","type":"address","internalType":"address"},{"name":"msgValue","type":"uint256","internalType":"uint256"},{"name":"extensionBps","type":"uint16","internalType":"uint16"},{"name":"extensionData","type":"bytes","internalType":"bytes"}]}]},{"name":"","type":"tuple","internalType":"struct PoolKey","components":[{"name":"currency0","type":"address","internalType":"Currency"},{"name":"currency1","type":"address","internalType":"Currency"},{"name":"fee","type":"uint24","internalType":"uint24"},{"name":"tickSpacing","type":"int24","internalType":"int24"},{"name":"hooks","type":"address","internalType":"contract IHooks"}]},{"name":"token","type":"address","internalType":"address"},{"name":"extensionSupply","type":"uint256","internalType":"uint256"},{"name":"extensionIndex","type":"uint256","internalType":"uint256"}],"outputs":[],"stateMutability":"payable"},{"type":"function","name":"renounceOwnership","inputs":[],"outputs":[],"stateMutability":"nonpayable"},{"type":"function","name":"setAdmin","inputs":[{"name":"admin","type":"address","internalType":"address"},{"name":"enabled","type":"bool","internalType":"bool"}],"outputs":[],"stateMutability":"nonpayable"},{"type":"function","name":"setWithdrawFeeRecipient","inputs":[{"name":"recipient","type":"address","internalType":"address"}],"outputs":[],"stateMutability":"nonpayable"},{"type":"function","name":"startPresale","inputs":[{"name":"deploymentConfig","type":"tuple","internalType":"struct ILiquid.DeploymentConfig","components":[{"name":"tokenConfig","type":"tuple","internalType":"struct ILiquid.TokenConfig","components":[{"name":"tokenAdmin","type":"address","internalType":"address"},{"name":"name","type":"string","internalType":"string"},{"name":"symbol","type":"string","internalType":"string"},{"name":"salt","type":"bytes32","internalType":"bytes32"},{"name":"image","type":"string","internalType":"string"},{"name":"metadata","type":"string","internalType":"string"},{"name":"context","type":"string","internalType":"string"},{"name":"originatingChainId","type":"uint256","internalType":"uint256"}]},{"name":"poolConfig","type":"tuple","internalType":"struct ILiquid.PoolConfig","components":[{"name":"hook","type":"address","internalType":"address"},{"name":"pairedToken","type":"address","internalType":"address"},{"name":"tickIfToken0IsLiquid","type":"int24","internalType":"int24"},{"name":"tickSpacing","type":"int24","internalType":"int24"},{"name":"poolData","type":"bytes","internalType":"bytes"}]},{"name":"lockerConfig","type":"tuple","internalType":"struct ILiquid.LockerConfig","components":[{"name":"locker","type":"address","internalType":"address"},{"name":"rewardAdmins","type":"address[]","internalType":"address[]"},{"name":"rewardRecipients","type":"address[]","internalType":"address[]"},{"name":"rewardBps","type":"uint16[]","internalType":"uint16[]"},{"name":"tickLower","type":"int24[]","internalType":"int24[]"},{"name":"tickUpper","type":"int24[]","internalType":"int24[]"},{"name":"positionBps","type":"uint16[]","internalType":"uint16[]"},{"name":"lockerData","type":"bytes","internalType":"bytes"}]},{"name":"mevModuleConfig","type":"tuple","internalType":"struct ILiquid.MevModuleConfig","components":[{"name":"mevModule","type":"address","internalType":"address"},{"name":"mevModuleData","type":"bytes","internalType":"bytes"}]},{"name":"extensionConfigs","type":"tuple[]","internalType":"struct ILiquid.ExtensionConfig[]","components":[{"name":"extension","type":"address","internalType":"address"},{"name":"msgValue","type":"uint256","internalType":"uint256"},{"name":"extensionBps","type":"uint16","internalType":"uint16"},{"name":"extensionData","type":"bytes","internalType":"bytes"}]}]},{"name":"minEthGoal","type":"uint256","internalType":"uint256"},{"name":"maxEthGoal","type":"uint256","internalType":"uint256"},{"name":"presaleDuration","type":"uint256","internalType":"uint256"},{"name":"recipient","type":"address","internalType":"address"},{"name":"lockupDuration","type":"uint256","internalType":"uint256"},{"name":"vestingDuration","type":"uint256","internalType":"uint256"}],"outputs":[{"name":"presaleId","type":"uint256","internalType":"uint256"}],"stateMutability":"nonpayable"},{"type":"function","name":"supportsInterface","inputs":[{"name":"interfaceId","type":"bytes4","internalType":"bytes4"}],"outputs":[{"name":"","type":"bool","internalType":"bool"}],"stateMutability":"pure"},{"type":"function","name":"transferOwnership","inputs":[{"name":"newOwner","type":"address","internalType":"address"}],"outputs":[],"stateMutability":"nonpayable"},{"type":"function","name":"withdrawFeeAccumulated","inputs":[],"outputs":[{"name":"","type":"uint256","internalType":"uint256"}],"stateMutability":"view"},{"type":"function","name":"withdrawFeeRecipient","inputs":[],"outputs":[{"name":"","type":"address","internalType":"address"}],"stateMutability":"view"},{"type":"function","name":"withdrawFromPresale","inputs":[{"name":"presaleId","type":"uint256","internalType":"uint256"},{"name":"amount","type":"uint256","internalType":"uint256"},{"name":"recipient","type":"address","internalType":"address"}],"outputs":[],"stateMutability":"nonpayable"},{"type":"function","name":"withdrawWithdrawFee","inputs":[],"outputs":[],"stateMutability":"nonpayable"},{"type":"event","name":"OwnershipTransferred","inputs":[{"name":"previousOwner","type":"address","indexed":true,"internalType":"address"},{"name":"newOwner","type":"address","indexed":true,"internalType":"address"}],"anonymous":false},{"type":"event","name":"SetAdmin","inputs":[{"name":"admin","type":"address","indexed":true,"internalType":"address"},{"name":"enabled","type":"bool","indexed":false,"internalType":"bool"}],"anonymous":false},{"type":"error","name":"EthTransferFailed","inputs":[]},{"type":"error","name":"InsufficientBalance","inputs":[]},{"type":"error","name":"InvalidEthGoal","inputs":[]},{"type":"error","name":"InvalidMsgValue","inputs":[]},{"type":"error","name":"InvalidPresale","inputs":[]},{"type":"error","name":"InvalidPresaleDuration","inputs":[]},{"type":"error","name":"InvalidPresaleRecipient","inputs":[]},{"type":"error","name":"InvalidPresaleSupply","inputs":[]},{"type":"error","name":"InvalidTimeLimit","inputs":[]},{"type":"error","name":"NoTokensToClaim","inputs":[]},{"type":"error","name":"NoWithdrawFeeAccumulated","inputs":[]},{"type":"error","name":"NotExpectingTokenDeployment","inputs":[]},{"type":"error","name":"OwnableInvalidOwner","inputs":[{"name":"owner","type":"address","internalType":"address"}]},{"type":"error","name":"OwnableUnauthorizedAccount","inputs":[{"name":"account","type":"address","internalType":"address"}]},{"type":"error","name":"PresaleAlreadyClaimed","inputs":[]},{"type":"error","name":"PresaleClaimable","inputs":[]},{"type":"error","name":"PresaleFailed","inputs":[]},{"type":"error","name":"PresaleLockupNotPassed","inputs":[]},{"type":"error","name":"PresaleNotActive","inputs":[]},{"type":"error","name":"PresaleNotClaimable","inputs":[]},{"type":"error","name":"PresaleNotLastExtension","inputs":[]},{"type":"error","name":"PresaleNotReadyForDeployment","inputs":[]},{"type":"error","name":"PresaleSaltBufferNotExpired","inputs":[]},{"type":"error","name":"PresaleStillActive","inputs":[]},{"type":"error","name":"PresaleSuccessful","inputs":[]},{"type":"error","name":"ReentrancyGuardReentrantCall","inputs":[]},{"type":"error","name":"Unauthorized","inputs":[]}],"bytecode":{"object":"0x60a03461011c57601f614e9438819003918201601f19168301916001600160401b038311848410176101205780849260609460405283398101031261011c5761004781610134565b61005f604061005860208501610134565b9301610134565b60015f556001600160a01b0390911691821561010957600180546001600160a01b03198116851790915560405193906001600160a01b03167f8be0079c531659141344cd1fd0a4f28419497f9722a3daafe3b4186f6b6457e05f80a36001600160a01b039081166080526001600355600780546001600160a01b03191692909116919091179055614d4b9081610149823960805181818161037a0152818161071801526149d80152f35b631e4fbdf760e01b5f525f60045260245ffd5b5f80fd5b634e487b7160e01b5f52604160045260245ffd5b51906001600160a01b038216820361011c5756fe6080806040526004361015610012575f80fd5b5f3560e01c90816301ffc9a71461312c5750806321d4a589146130c8578063240bafa51461308257806333146862146130305780634082fa9b14613015578063414319c614612ef7578063429b62e514612ead57806346e04a2f14612d115780634b0bddd214612c7c57806356bf59fd14612c075780636d80c44d14612bd4578063715018a614612b565780637c938b5c146129fe5780638da5cb5b146129cb5780639ba1add214610eb2578063a4df70c514610c06578063b602c50b14610be9578063bb21037214610898578063c25936071461073c578063c45a0155146106ec578063d1865ab014610678578063d744b702146106cf578063db5c552f1461067d578063e3331d7614610678578063f2fde38b146105a8578063f7fdb280146102675763fc39d67614610145575f80fd5b3461026357604060031936011261026357600435805f526004602052601860405f2001541561023b57805f52600460205260405f2090601682019060ff82541691600683101561020e5760209360016101af941480610200575b6101cd575b50506024359061454e565b73ffffffffffffffffffffffffffffffffffffffff60405191168152f35b601b810154601790910154116101f057600260ff198254161790555b5f806101a4565b600460ff198254161790556101e9565b50601981015442101561019f565b7f4e487b71000000000000000000000000000000000000000000000000000000005f52602160045260245ffd5b7fb56fdfef000000000000000000000000000000000000000000000000000000005f5260045ffd5b5f80fd5b6101206003193601126102635760043567ffffffffffffffff8111610263578060040160a060031983360301126102635760a07fffffffffffffffffffffffffffffffffffffffffffffffffffffffffffffffdc360112610263576040516102ce816132f1565b6102d66131b7565b81526102e06131da565b602082015260643562ffffff811681036102635760408201526084358060020b810361026357606082015260a4359073ffffffffffffffffffffffffffffffffffffffff82168203610263576080015260c4359173ffffffffffffffffffffffffffffffffffffffff83168093036102635760e435906101043590610363614d14565b73ffffffffffffffffffffffffffffffffffffffff7f0000000000000000000000000000000000000000000000000000000000000000163303610580576084016103b7826103b183876144a1565b906144f5565b6060810135907fffffffffffffffffffffffffffffffffffffffffffffffffffffffffffffffe18136030182121561026357019182359267ffffffffffffffff841161026357602081019380360385136102635760209101849003810112610263576103b161043492602094355f526004855260405f20966144a1565b013515801590610577575b61054f57601d8201805460ff8116156105275760ff19169055604051927f23b872dd0000000000000000000000000000000000000000000000000000000084523360048501523060248501528160448501526020846064815f855af193841561051c576016946104ef575b50601a830180547fffffffffffffffffffffffff0000000000000000000000000000000000000000169091179055601c82015501805460ff1916600517905560015f55005b6105109060203d602011610515575b610508818361337f565b8101906143b1565b6104aa565b503d6104fe565b6040513d5f823e3d90fd5b7f94c7dcf0000000000000000000000000000000000000000000000000000000005f5260045ffd5b7f1841b4e1000000000000000000000000000000000000000000000000000000005f5260045ffd5b5034151561043f565b7f82b42900000000000000000000000000000000000000000000000000000000005f5260045ffd5b346102635760206003193601126102635773ffffffffffffffffffffffffffffffffffffffff6105d6613194565b6105de614bdc565b16801561064c5773ffffffffffffffffffffffffffffffffffffffff600154827fffffffffffffffffffffffff0000000000000000000000000000000000000000821617600155167f8be0079c531659141344cd1fd0a4f28419497f9722a3daafe3b4186f6b6457e05f80a3005b7f1e4fbdf7000000000000000000000000000000000000000000000000000000005f525f60045260245ffd5b6141c1565b34610263576040600319360112610263576106966131b7565b6004355f52600560205273ffffffffffffffffffffffffffffffffffffffff60405f2091165f52602052602060405f2054604051908152f35b34610263575f60031936011261026357602060405162375f008152f35b34610263575f60031936011261026357602060405173ffffffffffffffffffffffffffffffffffffffff7f0000000000000000000000000000000000000000000000000000000000000000168152f35b34610263576040600319360112610263576004356107586131b7565b90805f526004602052601860405f2001541561023b575f52600460205260405f20601681015473ffffffffffffffffffffffffffffffffffffffff8160081c16330361058057601d82019081549160ff8360081c16610870576101007fffffffffffffffffffffffffffffffffffffffffffffffffffffffffffff00ff60ff941617905516600681101561020e57600503610848575f80809373ffffffffffffffffffffffffffffffffffffffff601b8395015491165af16108186143c9565b501561082057005b7f6d963f88000000000000000000000000000000000000000000000000000000005f5260045ffd5b7f7bd60c89000000000000000000000000000000000000000000000000000000005f5260045ffd5b7f85d174c5000000000000000000000000000000000000000000000000000000005f5260045ffd5b34610263576020600319360112610263576040516108b581613362565b6040516108c1816132f1565b6040516108cd8161330d565b5f815260208101606090526040810160609052606081015f9052608081016060905260a081016060905260c081016060905260e081015f90528152604051610914816132f1565b5f8152602081015f9052604081015f9052606081015f9052608081016060905260208201526040516109458161330d565b5f8152602081016060905260408101606090526060810160609052608081016060905260a081016060905260c081016060905260e081016060905260408201526040516109918161332a565b5f81526020810160609052606082015260808101606090528152602081015f9052604081015f9052606081015f9052608081015f905260a081015f905260c081015f905260e081015f905261010081015f905261012081015f905261014081015f905261016081015f905261018081015f90526101a081015f90526101c0015f90526004355f52600460205260405f20604051610a2d81613362565b610a36826138c9565b81526016820154906020810190610a5060ff8416836141de565b604081019260081c73ffffffffffffffffffffffffffffffffffffffff16835260178401549360608201948552601881015460808301908152601982015460a08401908152601a83015473ffffffffffffffffffffffffffffffffffffffff1660c08501908152601b8401549060e08601918252601c8501546101008701908152601d8601549261012088019260ff85161515845261014089019460081c60ff1615158552601e880154956101608a01968752601f890154976101808b0198895260208a0154996101a08c019a8b52602101549a6101c081019b8c526040519e8f9e8f926020845251602084016101e090526102008401610b5091613cbf565b9e5160408401610b5f91614008565b5173ffffffffffffffffffffffffffffffffffffffff1660608301525190608001525160a08d01525160c08c01525173ffffffffffffffffffffffffffffffffffffffff1660e08b0152516101008a01525161012089015251151561014088015251151561016087015251610180860152516101a0850152516101c0840152516101e08301520390f35b34610263575f600319360112610263576020600854604051908152f35b3461026357606060031936011261026357602435600435610c256131da565b90805f526004602052601860405f2001541561023b57805f52600460205260405f20601681019060ff825416600681101561020e5760011480610ea4575b610e71575b5050610c72614d14565b805f52600460205260405f2090601682019060ff8254166006811015908161020e5760038114918215610e64575b8215610e53575b5050610e2b57805f52600560205260405f2073ffffffffffffffffffffffffffffffffffffffff33165f526020528460405f205410610e035760ff92601b915f52600560205260405f2073ffffffffffffffffffffffffffffffffffffffff33165f5260205260405f20610d1c8782546143f8565b905501610d2a8582546143f8565b90555416600681101561020e57600403610d98575f80809373ffffffffffffffffffffffffffffffffffffffff8294610d648480946143f8565b9280610d83575b50165af1610d776143c9565b50156108205760015f55005b610d8f906008546143a4565b60085587610d6b565b906064810281810460641482151715610dd6575f80939273ffffffffffffffffffffffffffffffffffffffff8294610d6461271085960480946143f8565b7f4e487b71000000000000000000000000000000000000000000000000000000005f52601160045260245ffd5b7ff4d678b8000000000000000000000000000000000000000000000000000000005f5260045ffd5b7fd340d790000000000000000000000000000000000000000000000000000000005f5260045ffd5b90915061020e576005148680610ca7565b506002811491505f610ca0565b601b81015460179091015411610e9457600260ff198254161790555b8380610c68565b600460ff19825416179055610e8d565b506019810154421015610c63565b346102635760e06003193601126102635760043567ffffffffffffffff81116102635760a060031982360301126102635760405190610ef0826132f1565b806004013567ffffffffffffffff811161026357810161010060031982360301126102635760405190610f228261330d565b610f2e600482016131fd565b8252602481013567ffffffffffffffff811161026357610f549060043691840101614031565b6020830152604481013567ffffffffffffffff811161026357610f7d9060043691840101614031565b604083015260648101356060830152608481013567ffffffffffffffff811161026357610fb09060043691840101614031565b608083015260a481013567ffffffffffffffff811161026357610fd99060043691840101614031565b60a083015260c48101359067ffffffffffffffff82116102635761100560e49260043691840101614031565b60c0840152013560e08201528252602481013567ffffffffffffffff811161026357810160a060031982360301126102635760405190611044826132f1565b611050600482016131fd565b825261105e602482016131fd565b602083015261106f60448201614075565b604083015261108060648201614075565b606083015260848101359067ffffffffffffffff82116102635760046110a99236920101614031565b60808201526020830152604481013567ffffffffffffffff8111610263578101610100600319823603011261026357604051906110e58261330d565b6110f1600482016131fd565b8252602481013567ffffffffffffffff8111610263576111179060043691840101614083565b6020830152604481013567ffffffffffffffff8111610263576111409060043691840101614083565b6040830152606481013567ffffffffffffffff81116102635761116990600436918401016140f7565b6060830152608481013567ffffffffffffffff811161026357611192906004369184010161415c565b608083015260a481013567ffffffffffffffff8111610263576111bb906004369184010161415c565b60a083015260c481013567ffffffffffffffff8111610263576111e490600436918401016140f7565b60c083015260e48101359067ffffffffffffffff821161026357600461120d9236920101614031565b60e08201526040830152606481013567ffffffffffffffff81116102635781016040600319823603011261026357604051906112488261332a565b611254600482016131fd565b825260248101359067ffffffffffffffff821161026357600461127a9236920101614031565b6020820152606083015260848101359067ffffffffffffffff82116102635701366023820112156102635760048101356112b3816138b1565b916112c1604051938461337f565b818352602060048185019360051b83010101903682116102635760248101925b8284106129385785856080820190815260243590604435606435926084359273ffffffffffffffffffffffffffffffffffffffff841680940361026357335f52600260205260ff60405f2054161561058057600354945f198614610dd657600186016003558415612910578151805180159182156128d7575b50506128af57815180515f198101908111610dd65761137e60409161ffff93614405565b51015116156128875781518051905f198201918211610dd6576020916113a391614405565b51015161054f578315801561287e575b612856578015801561284a575b6128225760405191866020840152602083526113dd60408461337f565b519182515f198101908111610dd6576113fb60609161140495614405565b510152426143a4565b926040519561141287613362565b86526001602087015260408601526060850152608084015260a08301525f60c08301525f60e08301525f6101008301525f6101208301525f61014083015260a43561016083015260c4356101808301525f6101a08301525f6101c0830152805f52600460205260405f208251805173ffffffffffffffffffffffffffffffffffffffff80825116167fffffffffffffffffffffffff0000000000000000000000000000000000000000845416178355602081015180519067ffffffffffffffff8211611f7b576114f2826114e9600188015461321e565b6001880161445c565b602090601f83116001146127b55761152092915f9183612090575b50505f198260011b9260031b1c19161790565b60018401555b604081015180519067ffffffffffffffff8211611f7b576115578261154e600288015461321e565b6002880161445c565b602090601f83116001146127485761158492915f91836120905750505f198260011b9260031b1c19161790565b60028401555b60608101516003840155608081015180519067ffffffffffffffff8211611f7b576115c5826115bc600488015461321e565b6004880161445c565b602090601f83116001146126db576115f292915f91836120905750505f198260011b9260031b1c19161790565b60048401555b60a081015180519067ffffffffffffffff8211611f7b5761162982611620600588015461321e565b6005880161445c565b602090601f831160011461266e5761165692915f91836120905750505f198260011b9260031b1c19161790565b60058401555b60c081015180519067ffffffffffffffff8211611f7b5761168d82611684600688015461321e565b6006880161445c565b602090601f83116001146126005791806116be9260e095945f926125f55750505f198260011b9260031b1c19161790565b60068501555b015160078301556080602082015173ffffffffffffffffffffffffffffffffffffffff81511673ffffffffffffffffffffffffffffffffffffffff6008860191167fffffffffffffffffffffffff00000000000000000000000000000000000000008254161790556009840173ffffffffffffffffffffffffffffffffffffffff80602084015116167fffffffffffffffffffffffff0000000000000000000000000000000000000000825416178155604082015181547fffffffffffff000000000000ffffffffffffffffffffffffffffffffffffffff76ffffff0000000000000000000000000000000000000000606086015160b81b79ffffff0000000000000000000000000000000000000000000000169360a01b16911617179055015180519067ffffffffffffffff8211611f7b5761181182611808600a87015461321e565b600a870161445c565b602090601f83116001146125885761183e92915f91836121095750505f198260011b9260031b1c19161790565b600a8301555b604081015173ffffffffffffffffffffffffffffffffffffffff81511673ffffffffffffffffffffffffffffffffffffffff600b850191167fffffffffffffffffffffffff0000000000000000000000000000000000000000825416179055602081015180519067ffffffffffffffff8211611f7b57680100000000000000008211611f7b57602090600c86015483600c88015580841061256a575b5001600c85015f5260205f205f5b8381106125405750505050604081015180519067ffffffffffffffff8211611f7b57680100000000000000008211611f7b57602090600d86015483600d880155808410612522575b5001600d85015f5260205f205f5b8381106124f85750505050606081015180519067ffffffffffffffff8211611f7b57680100000000000000008211611f7b57602090600e86015483600e8801558084106124c2575b500190600e85015f5260205f20905f5b8160041c811061248257507ffffffffffffffffffffffffffffffffffffffffffffffffffffffffffffffff08116808203612430575b50505050608081015180519067ffffffffffffffff8211611f7b57680100000000000000008211611f7b57602090600f86015483600f8801558084106123fc575b500190600f85015f5260205f20905f5b600a820481106123b25750600a8082040280820361235e575b5050505060a081015180519067ffffffffffffffff8211611f7b57680100000000000000008211611f7b576020906010860154836010880155808410612309575b500190601085015f5260205f20905f5b600a820481106122bf5750600a8082040280820361226b575b5050505060c081015180519067ffffffffffffffff8211611f7b57680100000000000000008211611f7b576020906011860154836011880155808410612214575b500190601185015f5260205f20905f5b8160041c81106121d457507ffffffffffffffffffffffffffffffffffffffffffffffffffffffffffffffff08116808203612181575b5050505060e0015180519067ffffffffffffffff8211611f7b57611b6182611b58601287015461321e565b6012870161445c565b602090601f831160011461211457611b8e92915f91836121095750505f198260011b9260031b1c19161790565b60128301555b6020606082015173ffffffffffffffffffffffffffffffffffffffff81511673ffffffffffffffffffffffffffffffffffffffff6013860191167fffffffffffffffffffffffff0000000000000000000000000000000000000000825416179055015180519067ffffffffffffffff8211611f7b57611c2382611c1a601487015461321e565b6014870161445c565b602090601f831160011461209b579180611c5492608095945f926120905750505f198260011b9260031b1c19161790565b60148401555b0151805190680100000000000000008211611f7b576015830154826015850155808310611fa8575b5060200190601583015f5260205f205f925b828410611e0c5750505050602083015192600684101561020e5760168201805460408301517fffffffffffffffffffffff00000000000000000000000000000000000000000090911660ff9687161760089190911b74ffffffffffffffffffffffffffffffffffffffff0016179055606081015160178301556080810151601883015560a0810151601983015560c0810151601a830180547fffffffffffffffffffffffff00000000000000000000000000000000000000001673ffffffffffffffffffffffffffffffffffffffff9290921691909117905560e0810151601b830155610100810151601c830155610120810151601d8301805491151590951660ff19919091161784556020936021916101c09161014082015181547fffffffffffffffffffffffffffffffffffffffffffffffffffffffffffff00ff1690151560081b61ff0016179055610160810151601e850155610180810151601f8501556101a0810151868501550151910155604051908152f35b805173ffffffffffffffffffffffffffffffffffffffff80825116167fffffffffffffffffffffffff00000000000000000000000000000000000000008454161783556020810151600184015561ffff60408201511661ffff6002850191167fffffffffffffffffffffffffffffffffffffffffffffffffffffffffffff000082541617905560606003840191015180519067ffffffffffffffff8211611f7b57611ec182611ebb855461321e565b8561445c565b602090601f8311600114611f115792611ef783602094600197946004975f92611f065750505f198260011b9260031b1c19161790565b90555b01920193019290611c94565b015190508e8061150d565b90601f19831691845f52815f20925f5b818110611f63575093600196936004969388938360209810611f4b575b505050811b019055611efa565b01515f1960f88460031b161c191690558d8080611f3e565b92936020600181928786015181550195019301611f21565b7f4e487b71000000000000000000000000000000000000000000000000000000005f52604160045260245ffd5b7f3fffffffffffffffffffffffffffffffffffffffffffffffffffffffffffffff81168103610dd6577f3fffffffffffffffffffffffffffffffffffffffffffffffffffffffffffffff83168303610dd657601584015f5260205f209060021b8101908360021b015b81811061201e5750611c82565b805f600492555f60018201555f60028201556003810161203e815461321e565b908161204d575b505001612011565b81601f5f93116001146120645750555b8880612045565b8183526020832061208091601f0160051c810190600101614446565b808252816020812091555561205d565b01519050888061150d565b90601485015f52805f20915f5b601f19851681106120f1575091839160019383601f196080989716106120d9575b505050811b016014840155611c5a565b01515f1960f88460031b161c191690558780806120c9565b919260206001819286850151815501940192016120a8565b01519050878061150d565b9190601285015f52805f20905f935b601f1984168510612166576001945083601f1981161061214e575b505050811b016012830155611b94565b01515f1960f88460031b161c1916905586808061213e565b81810151835560209485019460019093019290910190612123565b925f935f5b81840381106121a15750505060041c015560e0868080611b2d565b90919460206121ca60019261ffff8951169085851b61ffff809160031b9316831b921b19161790565b9601929101612186565b5f5f5b601081106121ec575083820155600101611af7565b855190959160019160209161ffff60048a901b81811b199092169216901b17920195016121d7565b61224590601188015f52835f20600f80870160041c820192601e8860011b168061224b575b500160041c0190614446565b88611ae7565b612265905f198601905f1982549160200360031b1c169055565b8d612239565b925f935f5b818403811061228b57505050600a9004015585808080611aa6565b90919460206122b5600192885160020b908560030262ffffff809160031b9316831b921b19161790565b9601929101612270565b5f5f5b600a81106122d7575083820155600101611a8d565b94906020612300600192845160020b908960030262ffffff809160031b9316831b921b19161790565b920195016122c2565b61233890601088015f52835f20600a600981818901048301936003838a06028061233e575b5001040190614446565b88611a7d565b612358905f198701905f1982549160200360031b1c169055565b8e61232e565b925f935f5b818403811061237e57505050600a9004015585808080611a3c565b90919460206123a8600192885160020b908560030262ffffff809160031b9316831b921b19161790565b9601929101612363565b5f5f5b600a81106123ca575083820155600101611a23565b949060206123f3600192845160020b908960030262ffffff809160031b9316831b921b19161790565b920195016123b5565b61242a90600f88015f52835f20600a600981818901048301936003838a06028061233e575001040190614446565b88611a13565b925f935f5b818403811061244f5750505060041c0155858080806119d2565b909194602061247860019261ffff8951169085851b61ffff809160031b9316831b921b19161790565b9601929101612435565b5f5f5b6010811061249a57508382015560010161199c565b855190959160019160209161ffff60048a901b81811b199092169216901b1792019501612485565b6124f290600e88015f52835f20600f80870160041c820192601e8860011b168061224b57500160041c0190614446565b8861198c565b600190602073ffffffffffffffffffffffffffffffffffffffff8551169401938184015501611944565b61253a90600d88015f5284845f209182019101614446565b88611936565b600190602073ffffffffffffffffffffffffffffffffffffffff85511694019381840155016118ee565b61258290600c88015f5284845f209182019101614446565b886118e0565b9190600a85015f52805f20905f935b601f19841685106125da576001945083601f198116106125c2575b505050811b01600a830155611844565b01515f1960f88460031b161c191690558680806125b2565b81810151835560209485019460019093019290910190612597565b01519050898061150d565b90600686015f52805f20915f5b601f1985168110612656575091839160019383601f1960e09897161061263e575b505050811b0160068501556116c4565b01515f1960f88460031b161c1916905588808061262e565b9192602060018192868501518155019401920161260d565b9190600586015f52805f20905f935b601f19841685106126c0576001945083601f198116106126a8575b505050811b01600584015561165c565b01515f1960f88460031b161c19169055878080612698565b8181015183556020948501946001909301929091019061267d565b9190600486015f52805f20905f935b601f198416851061272d576001945083601f19811610612715575b505050811b0160048401556115f8565b01515f1960f88460031b161c19169055878080612705565b818101518355602094850194600190930192909101906126ea565b9190600286015f52805f20905f935b601f198416851061279a576001945083601f19811610612782575b505050811b01600284015561158a565b01515f1960f88460031b161c19169055878080612772565b81810151835560209485019460019093019290910190612757565b9190600186015f52805f20905f935b601f1984168510612807576001945083601f198116106127ef575b505050811b016001840155611526565b01515f1960f88460031b161c191690558780806127df565b818101518355602094850194600190930192909101906127c4565b7ff5676f25000000000000000000000000000000000000000000000000000000005f5260045ffd5b5062375f0081116113c0565b7f55da9550000000000000000000000000000000000000000000000000000000005f5260045ffd5b508383116113b3565b7f143ef053000000000000000000000000000000000000000000000000000000005f5260045ffd5b7fd66df814000000000000000000000000000000000000000000000000000000005f5260045ffd5b5f1982019250908211610dd65773ffffffffffffffffffffffffffffffffffffffff9161290391614405565b515116301415888061135a565b7fdc91df71000000000000000000000000000000000000000000000000000000005f5260045ffd5b833567ffffffffffffffff8111610263576004908301016080601f198236030112610263576040519161296a83613346565b612976602083016131fd565b83526040820135602084015261298e606083016140e8565b604084015260808201359267ffffffffffffffff8411610263576129bb6020949385809536920101614031565b60608201528152019301926112e1565b34610263575f60031936011261026357602073ffffffffffffffffffffffffffffffffffffffff60015416604051908152f35b602060031936011261026357600435805f526004602052601860405f2001541561023b57612a2a614d14565b805f52600460205260405f20601681019060ff825416600681101561020e57600114801590612b48575b612b2057601b8101908154906018612a6c83346143a4565b91019182548092115f14612b1757612a83916143f8565b935b5f52600560205260405f2073ffffffffffffffffffffffffffffffffffffffff33165f5260205260405f20612abb8582546143a4565b9055612ac88483546143a4565b8092555414612b06575b50803411612ae1575b60015f55005b5f8080612aef8194346143f8565b335af1612afa6143c9565b50156108205780612adb565b600360ff1982541617905581612ad2565b50503493612a85565b7fe113695c000000000000000000000000000000000000000000000000000000005f5260045ffd5b506019810154421015612a54565b34610263575f60031936011261026357612b6e614bdc565b5f73ffffffffffffffffffffffffffffffffffffffff6001547fffffffffffffffffffffffff00000000000000000000000000000000000000008116600155167f8be0079c531659141344cd1fd0a4f28419497f9722a3daafe3b4186f6b6457e08280a3005b34610263575f60031936011261026357602073ffffffffffffffffffffffffffffffffffffffff60075416604051908152f35b34610263575f60031936011261026357612c1f614d14565b6008548015612c54575f808080938160085573ffffffffffffffffffffffffffffffffffffffff600754165af1610d776143c9565b7f2c28108d000000000000000000000000000000000000000000000000000000005f5260045ffd5b3461026357604060031936011261026357612c95613194565b6024359081151590818303610263577f55a5194bc0174fcaf12b2978bef43911466bf63b34db8d1dd1a0d5dcd5c41bea91612d0873ffffffffffffffffffffffffffffffffffffffff602093612ce9614bdc565b1694855f526002845260405f209060ff60ff1983541691151516179055565b604051908152a2005b3461026357602060031936011261026357600435805f526004602052601860405f2001541561023b57805f52600460205260405f209060ff601683015416600681101561020e57600503610848576020820154804210612e8557612dd691612d88612dcb926021860154601f870154913385614c29565b905f52600660205260405f2073ffffffffffffffffffffffffffffffffffffffff33165f5260205260405f20612dbf8282546143a4565b9055601c8401546141ea565b601b830154906141fd565b908115612e5d575f91604473ffffffffffffffffffffffffffffffffffffffff601a6020940154169160405194859384927fa9059cbb00000000000000000000000000000000000000000000000000000000845233600485015260248401525af1801561051c57612e4357005b612e5b9060203d60201161051557610508818361337f565b005b7f0f3f8610000000000000000000000000000000000000000000000000000000005f5260045ffd5b7f6800ca28000000000000000000000000000000000000000000000000000000005f5260045ffd5b346102635760206003193601126102635773ffffffffffffffffffffffffffffffffffffffff612edb613194565b165f526002602052602060ff60405f2054166040519015158152f35b34610263576020600319360112610263576004355f52600460205260405f20612f1f816138c9565b60168201546017830154926018810154906019810154601a82015473ffffffffffffffffffffffffffffffffffffffff16601b830154601c840154601d85015491601e86015493601f8701549560208801549760210154986040519c8d809d6101e082526101e08201612f9191613cbf565b9c612fa26020830160ff8316614008565b60081c73ffffffffffffffffffffffffffffffffffffffff16906040015260608d015260808c015260a08b015260c08a015260e089015261010088015260ff8116151561012088015260081c60ff1615156101408701526101608601526101808501526101a08401526101c08301520390f35b34610263575f60031936011261026357602060405160648152f35b34610263576040600319360112610263576130496131b7565b6004355f52600660205273ffffffffffffffffffffffffffffffffffffffff60405f2091165f52602052602060405f2054604051908152f35b346102635760406003193601126102635760043561309e6131b7565b90805f526004602052601860405f2001541561023b576020916130c091614234565b604051908152f35b346102635760206003193601126102635773ffffffffffffffffffffffffffffffffffffffff6130f6613194565b6130fe614bdc565b167fffffffffffffffffffffffff000000000000000000000000000000000000000060075416176007555f80f35b3461026357602060031936011261026357600435907fffffffff000000000000000000000000000000000000000000000000000000008216809203610263577ff7fdb28000000000000000000000000000000000000000000000000000000000602092148152f35b6004359073ffffffffffffffffffffffffffffffffffffffff8216820361026357565b6024359073ffffffffffffffffffffffffffffffffffffffff8216820361026357565b6044359073ffffffffffffffffffffffffffffffffffffffff8216820361026357565b359073ffffffffffffffffffffffffffffffffffffffff8216820361026357565b90600182811c92168015613265575b602083101461323857565b7f4e487b71000000000000000000000000000000000000000000000000000000005f52602260045260245ffd5b91607f169161322d565b5f929181549161327e8361321e565b80835292600181169081156132d3575060011461329a57505050565b5f9081526020812093945091925b8383106132b9575060209250010190565b6001816020929493945483858701015201910191906132a8565b9050602094955060ff1991509291921683830152151560051b010190565b60a0810190811067ffffffffffffffff821117611f7b57604052565b610100810190811067ffffffffffffffff821117611f7b57604052565b6040810190811067ffffffffffffffff821117611f7b57604052565b6080810190811067ffffffffffffffff821117611f7b57604052565b6101e0810190811067ffffffffffffffff821117611f7b57604052565b90601f601f19910116810190811067ffffffffffffffff821117611f7b57604052565b90602082549182815201915f5260205f20905f5b8181106133c35750505090565b825473ffffffffffffffffffffffffffffffffffffffff168452602090930192600192830192016133b6565b80548083525f91825260208083209301925b81600f8401106135fd5754918181106135e8575b8181106135d0575b8181106135b9575b8181106135a1575b818110613589575b818110613571575b818110613559575b818110613541575b818110613529575b818110613511575b8181106134f9575b8181106134e1575b8181106134c9575b8181106134b1575b818110613499575b1061348e575090565b60f01c815260200190565b92602060019161ffff8560e01c168152019301613485565b92602060019161ffff8560d01c16815201930161347d565b92602060019161ffff8560c01c168152019301613475565b92602060019161ffff8560b01c16815201930161346d565b92602060019161ffff8560a01c168152019301613465565b92602060019161ffff8560901c16815201930161345d565b92602060019161ffff8560801c168152019301613455565b92602060019161ffff8560701c16815201930161344d565b92602060019161ffff8560601c168152019301613445565b92602060019161ffff8560501c16815201930161343d565b92602060019161ffff8560401c168152019301613435565b92602060019161ffff8560301c16815201930161342d565b92602060019161ffff85831c168152019301613425565b92602060019161ffff8560101c16815201930161341d565b92602060019161ffff85168152019301613415565b926001610200601092865461ffff8116825261ffff81861c16602083015261ffff8160201c16604083015261ffff8160301c16606083015261ffff8160401c16608083015261ffff8160501c1660a083015261ffff8160601c1660c083015261ffff8160701c1660e083015261ffff8160801c1661010083015261ffff8160901c1661012083015261ffff8160a01c1661014083015261ffff8160b01c1661016083015261ffff8160c01c1661018083015261ffff8160d01c166101a083015261ffff8160e01c166101c083015260f01c6101e0820152019401920191613401565b80548083525f91825260208083209301925b816009840110613828575491818110613814575b8181106137fd575b8181106137e6575b8181106137cf575b8181106137b8575b8181106137a1575b81811061378a575b818110613773575b81811061375c575b1061374e575090565b60d81c60020b815260200190565b9260206001918460c01c60020b8152019301613745565b9260206001918460a81c60020b815201930161373d565b9260206001918460901c60020b8152019301613735565b9260206001918460781c60020b815201930161372d565b9260206001918460601c60020b8152019301613725565b9260206001918460481c60020b815201930161371d565b9260206001918460301c60020b8152019301613715565b9260206001918460181c60020b815201930161370d565b9260206001918460020b8152019301613705565b926001610140600a9286548060020b82528060181c60020b60208301528060301c60020b60408301528060481c60020b60608301528060601c60020b60808301528060781c60020b60a08301528060901c60020b60c08301528060a81c60020b60e08301528060c01c60020b61010083015260d81c60020b6101208201520194019201916136f1565b67ffffffffffffffff8111611f7b5760051b60200190565b906040516138d6816132f1565b601581936040516138e68161330d565b73ffffffffffffffffffffffffffffffffffffffff825416815260405161391b81613914816001870161326f565b038261337f565b602082015260405161393481613914816002870161326f565b60408201526003820154606082015260405161395781613914816004870161326f565b608082015260405161397081613914816005870161326f565b60a082015260405161398981613914816006870161326f565b60c0820152600782015460e082015283526040516139a6816132f1565b73ffffffffffffffffffffffffffffffffffffffff6008830154168152600982015473ffffffffffffffffffffffffffffffffffffffff811660208301528060a01c60020b604083015260b81c60020b6060820152604051613a0f8161391481600a870161326f565b60808201526020840152604051613a258161330d565b73ffffffffffffffffffffffffffffffffffffffff600b830154168152604051613a568161391481600c87016133a2565b6020820152604051613a6f8161391481600d87016133a2565b6040820152604051613a888161391481600e87016133ef565b6060820152604051613aa18161391481600f87016136df565b6080820152604051613aba8161391481601087016136df565b60a0820152604051613ad38161391481601187016133ef565b60c0820152604051613aec81613914816012870161326f565b60e08201526040840152604051613b028161332a565b73ffffffffffffffffffffffffffffffffffffffff6013830154168152604051613b3381613914816014870161326f565b6020820152606084015201908154613b4a816138b1565b92613b58604051948561337f565b81845260208401905f5260205f205f915b838310613b7a575050505060800152565b60046020600192604051613b8d81613346565b73ffffffffffffffffffffffffffffffffffffffff8654168152848601548382015261ffff6002870154166040820152604051613bd1816139148160038b0161326f565b6060820152815201920192019190613b69565b90601f19601f602080948051918291828752018686015e5f8582860101520116010190565b90602080835192838152019201905f5b818110613c265750505090565b825173ffffffffffffffffffffffffffffffffffffffff16845260209384019390920191600101613c19565b90602080835192838152019201905f5b818110613c6f5750505090565b825161ffff16845260209384019390920191600101613c62565b90602080835192838152019201905f5b818110613ca65750505090565b825160020b845260209384019390920191600101613c99565b6080613f67613f2c613e6f845160a0875273ffffffffffffffffffffffffffffffffffffffff81511660a088015260e0613df3613dbe613d89613d4a613d178c6101a060208901519161010060c08201520190613be4565b60408701518d82037fffffffffffffffffffffffffffffffffffffffffffffffffffffffffffffff6001878f0152613be4565b60608601516101008d0152898601518c82037fffffffffffffffffffffffffffffffffffffffffffffffffffffffffffffff60016101208e0152613be4565b60a08501517fffffffffffffffffffffffffffffffffffffffffffffffffffffffffffffff608c8303016101408d0152613be4565b60c08401517fffffffffffffffffffffffffffffffffffffffffffffffffffffffffffffff608b8303016101608c0152613be4565b91015161018088015260a085602088015189840360208b015273ffffffffffffffffffffffffffffffffffffffff815116845273ffffffffffffffffffffffffffffffffffffffff6020820151166020850152604081015160020b6040850152606081015160020b606085015201519181878201520190613be4565b604085015190868103604088015273ffffffffffffffffffffffffffffffffffffffff825116815260e0613f1b613f09613ef7613ee7613ed5613ec3602089015161010060208a0152610100890190613c09565b604089015188820360408a0152613c09565b60608801518782036060890152613c52565b898701518682038b880152613c89565b60a086015185820360a0870152613c89565b60c085015184820360c0860152613c52565b9201519060e0818403910152613be4565b604060206060860151878403606089015273ffffffffffffffffffffffffffffffffffffffff81511684520151918160208201520190613be4565b910151916080818303910152815180825260208201916020808360051b8301019401925f915b838310613f9c57505050505090565b9091929394602080613ff983601f198660019603018752608060608b5173ffffffffffffffffffffffffffffffffffffffff8151168452858101518685015261ffff60408201511660408501520151918160608201520190613be4565b97019301930191939290613f8d565b90600682101561020e5752565b67ffffffffffffffff8111611f7b57601f01601f191660200190565b81601f820112156102635760208135910161404b82614015565b92614059604051948561337f565b8284528282011161026357815f92602092838601378301015290565b35908160020b820361026357565b9080601f8301121561026357813561409a816138b1565b926140a8604051948561337f565b81845260208085019260051b82010192831161026357602001905b8282106140d05750505090565b602080916140dd846131fd565b8152019101906140c3565b359061ffff8216820361026357565b9080601f8301121561026357813561410e816138b1565b9261411c604051948561337f565b81845260208085019260051b82010192831161026357602001905b8282106141445750505090565b60208091614151846140e8565b815201910190614137565b9080601f83011215610263578135614173816138b1565b92614181604051948561337f565b81845260208085019260051b82010192831161026357602001905b8282106141a95750505090565b602080916141b684614075565b81520191019061419c565b34610263575f600319360112610263576020604051620151808152f35b600682101561020e5752565b81810292918115918404141715610dd657565b8115614207570490565b7f4e487b71000000000000000000000000000000000000000000000000000000005f52601260045260245ffd5b805f52600460205260405f20916040519261424e84613362565b614257816138c9565b845260168101549373ffffffffffffffffffffffffffffffffffffffff602082019561428660ff8216886141de565b60081c1660408201526017820154606082015260188201546080820152601982015460a082015273ffffffffffffffffffffffffffffffffffffffff601a8301541660c0820152601b8201549360e08201948552601c83015492610100830193845260ff601d820154818116151561012086015260081c161515610140840152601e810154610160840152601f8101549661018084019788526101c060216020840154936101a087019485520154940193845251600681101561020e577ffffffffffffffffffffffffffffffffffffffffffffffffffffffffffffffffb01614399575195864210614399576143969661438e956143879451925193614c29565b90516141ea565b9051906141fd565b90565b505050505050505f90565b91908201809211610dd657565b90816020910312610263575180151581036102635790565b3d156143f3573d906143da82614015565b916143e8604051938461337f565b82523d5f602084013e565b606090565b91908203918211610dd657565b80518210156144195760209160051b010190565b7f4e487b71000000000000000000000000000000000000000000000000000000005f52603260045260245ffd5b818110614451575050565b5f8155600101614446565b9190601f811161446b57505050565b614495925f5260205f20906020601f840160051c83019310614497575b601f0160051c0190614446565b565b9091508190614488565b9035907fffffffffffffffffffffffffffffffffffffffffffffffffffffffffffffffe181360301821215610263570180359067ffffffffffffffff821161026357602001918160051b3603831361026357565b91908110156144195760051b810135907fffffffffffffffffffffffffffffffffffffffffffffffffffffffffffffff8181360301821215610263570190565b8054821015614419575f5260205f209060021b01905f90565b5f52600460205260405f206016810160ff815416600681101561020e5760038114159081614bd0575b50614ba85760198201908154620151808101809111610dd6574211614b955773ffffffffffffffffffffffffffffffffffffffff905460081c163314159081614b7c575b81614b64575b50614b3c5760038101918255601b810154601882015490818103614ac4575b505090601e8201548042906145f4916143a4565b602084015561460390426143a4565b601f830154614611916143a4565b6021830155601d8201805460ff191660011790556040519182917fdf40224a00000000000000000000000000000000000000000000000000000000835260048301602090526024830160a09052815473ffffffffffffffffffffffffffffffffffffffff1660c484015260e4830161010090526101c4830160018301906146979161326f565b7fffffffffffffffffffffffffffffffffffffffffffffffffffffffffffffff3c848203016101048501526146cf906002840161326f565b90546101248401527fffffffffffffffffffffffffffffffffffffffffffffffffffffffffffffff3c8382030161014484015261470f906004830161326f565b7fffffffffffffffffffffffffffffffffffffffffffffffffffffffffffffff3c83820301610164840152614747906005830161326f565b7fffffffffffffffffffffffffffffffffffffffffffffffffffffffffffffff3c8382030161018484015261477f906006830161326f565b60078201546101a48401528281037fffffffffffffffffffffffffffffffffffffffffffffffffffffffffffffffdc016044840152600882015473ffffffffffffffffffffffffffffffffffffffff168152600982015473ffffffffffffffffffffffffffffffffffffffff811660208301528060a01c60020b604083015260b81c60020b60608201526080810160a0905260a001600a8201906148229161326f565b7fffffffffffffffffffffffffffffffffffffffffffffffffffffffffffffffdc838203016064840152600b82015473ffffffffffffffffffffffffffffffffffffffff16815261010060208201819052614882908201600c84016133a2565b818103604083015261489790600d84016133a2565b81810360608301526148ac90600e84016133ef565b81810360808301526148c190600f84016136df565b81810360a08301526148d690601084016136df565b81810360c08301526148eb90601184016133ef565b908082039060e0015260128201906149029161326f565b7fffffffffffffffffffffffffffffffffffffffffffffffffffffffffffffffdc838203016084840152601382015473ffffffffffffffffffffffffffffffffffffffff16815260406020820181905261496091016014830161326f565b90601501908281037fffffffffffffffffffffffffffffffffffffffffffffffffffffffffffffffdc0160a4840152815480825260208201918160051b8101602001935f5260205f20925f915b838310614a57575050505050908060209203815f73ffffffffffffffffffffffffffffffffffffffff7f0000000000000000000000000000000000000000000000000000000000000000165af190811561051c575f91614a0b575090565b90506020813d602011614a4f575b81614a266020938361337f565b81010312610263575173ffffffffffffffffffffffffffffffffffffffff811681036102635790565b3d9150614a19565b91939550919360206004614ab2608084601f19876001970301885273ffffffffffffffffffffffffffffffffffffffff8b54168152858b01548582015261ffff60028c01541660408201528160608201520160038a0161326f565b970193019301909286959492936149ad565b60158301918254915f198301928311610dd6578261ffff614b03600294614afe614b0a958488614af5829b8d614535565b500154166141ea565b6141fd565b1694614535565b500191167fffffffffffffffffffffffffffffffffffffffffffffffffffffffffffff00008254161790555f806145e0565b7ff52ba453000000000000000000000000000000000000000000000000000000005f5260045ffd5b905054620151808101809111610dd65742105f6145c1565b9050335f52600260205260ff60405f20541615906145bb565b92505050600460ff198254161790555f90565b7f488b874d000000000000000000000000000000000000000000000000000000005f5260045ffd5b6002915014155f614577565b73ffffffffffffffffffffffffffffffffffffffff600154163303614bfd57565b7f118cdaa7000000000000000000000000000000000000000000000000000000005f523360045260245ffd5b929091904210614c9957506143969250815f52600560205260405f2073ffffffffffffffffffffffffffffffffffffffff82165f5260205260405f2054915f52600660205273ffffffffffffffffffffffffffffffffffffffff60405f2091165f5260205260405f2054906143f8565b61439693614afe614ce192855f52600560205260405f2073ffffffffffffffffffffffffffffffffffffffff86165f52602052614cdb60405f205491426143f8565b906141ea565b915f52600660205273ffffffffffffffffffffffffffffffffffffffff60405f2091165f5260205260405f2054906143f8565b60025f5414614d235760025f55565b7f3ee5aeb5000000000000000000000000000000000000000000000000000000005f5260045ffd","linkReferences":{}},"methodIdentifiers":{"DEPLOYMENT_BAD_BUFFER()":"d1865ab0","MAX_PRESALE_DURATION()":"d744b702","SALT_SET_BUFFER()":"e3331d76","WITHDRAW_FEE_BPS()":"4082fa9b","admins(address)":"429b62e5","amountAvailableToClaim(uint256,address)":"240bafa5","buyIntoPresale(uint256)":"7c938b5c","claimEth(uint256,address)":"c2593607","claimTokens(uint256)":"46e04a2f","endPresale(uint256,bytes32)":"fc39d676","factory()":"c45a0155","getPresale(uint256)":"bb210372","owner()":"8da5cb5b","presaleBuys(uint256,address)":"db5c552f","presaleClaimed(uint256,address)":"33146862","presaleState(uint256)":"414319c6","receiveTokens(((address,string,string,bytes32,string,string,string,uint256),(address,address,int24,int24,bytes),(address,address[],address[],uint16[],int24[],int24[],uint16[],bytes),(address,bytes),(address,uint256,uint16,bytes)[]),(address,address,uint24,int24,address),address,uint256,uint256)":"f7fdb280","renounceOwnership()":"715018a6","setAdmin(address,bool)":"4b0bddd2","setWithdrawFeeRecipient(address)":"21d4a589","startPresale(((address,string,string,bytes32,string,string,string,uint256),(address,address,int24,int24,bytes),(address,address[],address[],uint16[],int24[],int24[],uint16[],bytes),(address,bytes),(address,uint256,uint16,bytes)[]),uint256,uint256,uint256,address,uint256,uint256)":"9ba1add2","supportsInterface(bytes4)":"01ffc9a7","transferOwnership(address)":"f2fde38b","withdrawFeeAccumulated()":"b602c50b","withdrawFeeRecipient()":"6d80c44d","withdrawFromPresale(uint256,uint256,address)":"a4df70c5","withdrawWithdrawFee()":"56bf59fd"},"id":120}