{"abi":[{"type":"constructor","inputs":[{"name":"_blockDelay","type":"uint256","internalType":"uint256"}],"stateMutability":"nonpayable"},{"type":"function","name":"beforeSwap","inputs":[{"name":"poolKey","type":"tuple","internalType":"struct PoolKey","components":[{"name":"currency0","type":"address","internalType":"Currency"},{"name":"currency1","type":"address","internalType":"Currency"},{"name":"fee","type":"uint24","internalType":"uint24"},{"name":"tickSpacing","type":"int24","internalType":"int24"},{"name":"hooks","type":"address","internalType":"contract IHooks"}]},{"name":"","type":"tuple","internalType":"struct IPoolManager.SwapParams","components":[{"name":"zeroForOne","type":"bool","internalType":"bool"},{"name":"amountSpecified","type":"int256","internalType":"int256"},{"name":"sqrtPriceLimitX96","type":"uint160","internalType":"uint160"}]},{"name":"","type":"bool","internalType":"bool"},{"name":"","type":"bytes","internalType":"bytes"}],"outputs":[{"name":"disableMevModule","type":"bool","internalType":"bool"}],"stateMutability":"nonpayable"},{"type":"function","name":"blockDelay","inputs":[],"outputs":[{"name":"","type":"uint256","internalType":"uint256"}],"stateMutability":"view"},{"type":"function","name":"initialize","inputs":[{"name":"poolKey","type":"tuple","internalType":"struct PoolKey","components":[{"name":"currency0","type":"address","internalType":"Currency"},{"name":"currency1","type":"address","internalType":"Currency"},{"name":"fee","type":"uint24","internalType":"uint24"},{"name":"tickSpacing","type":"int24","internalType":"int24"},{"name":"hooks","type":"address","internalType":"contract IHooks"}]},{"name":"","type":"bytes","internalType":"bytes"}],"outputs":[],"stateMutability":"nonpayable"},{"type":"function","name":"poolUnlockTime","inputs":[{"name":"","type":"bytes32","internalType":"PoolId"}],"outputs":[{"name":"","type":"uint256","internalType":"uint256"}],"stateMutability":"view"},{"type":"function","name":"supportsInterface","inputs":[{"name":"interfaceId","type":"bytes4","internalType":"bytes4"}],"outputs":[{"name":"","type":"bool","internalType":"bool"}],"stateMutability":"pure"},{"type":"error","name":"OnlyHook","inputs":[]},{"type":"error","name":"PoolLocked","inputs":[]}],"bytecode":{"object":"0x608034604e57601f61051f38819003918201601f19168301916001600160401b03831184841017605257808492602094604052833981010312604e57516001556040516104b890816100678239f35b5f80fd5b634e487b7160e01b5f52604160045260245ffdfe6080806040526004361015610012575f80fd5b5f3560e01c90816301ffc9a7146102d757508063645a153414610206578063831d7dd2146100d9578063d98f60881461009e5763f563e03b14610053575f80fd5b3461009a5760207ffffffffffffffffffffffffffffffffffffffffffffffffffffffffffffffffc36011261009a576004355f525f602052602060405f2054604051908152f35b5f80fd5b3461009a575f7ffffffffffffffffffffffffffffffffffffffffffffffffffffffffffffffffc36011261009a576020600154604051908152f35b3461009a577ffffffffffffffffffffffffffffffffffffffffffffffffffffffffffffffffc3601610140811261009a5760a01361009a5760607fffffffffffffffffffffffffffffffffffffffffffffffffffffffffffffff5c36011261009a57610104358015150361009a576101243567ffffffffffffffff811161009a5761016890369060040161035d565b505073ffffffffffffffffffffffffffffffffffffffff61018761038b565b1633036101de5760a0610199366103ae565b205f525f60205260405f205443106101b657602060405160018152f35b7f2e136745000000000000000000000000000000000000000000000000000000005f5260045ffd5b7f5a91834f000000000000000000000000000000000000000000000000000000005f5260045ffd5b3461009a577ffffffffffffffffffffffffffffffffffffffffffffffffffffffffffffffffc360160c0811261009a5760a01361009a5760a43567ffffffffffffffff811161009a5761025d90369060040161035d565b505073ffffffffffffffffffffffffffffffffffffffff61027c61038b565b1633036101de5760015443018043116102aa5760a061029a366103ae565b205f525f60205260405f20555f80f35b7f4e487b71000000000000000000000000000000000000000000000000000000005f52601160045260245ffd5b3461009a5760207ffffffffffffffffffffffffffffffffffffffffffffffffffffffffffffffffc36011261009a57600435907fffffffff00000000000000000000000000000000000000000000000000000000821680920361009a577fe6b8a14100000000000000000000000000000000000000000000000000000000602092148152f35b9181601f8401121561009a5782359167ffffffffffffffff831161009a576020838186019501011161009a57565b60843573ffffffffffffffffffffffffffffffffffffffff8116810361009a5790565b7ffffffffffffffffffffffffffffffffffffffffffffffffffffffffffffffffc60a091011261009a576040519060a0820182811067ffffffffffffffff82111761048b576040528160043573ffffffffffffffffffffffffffffffffffffffff8116810361009a57815260243573ffffffffffffffffffffffffffffffffffffffff8116810361009a57602082015260443562ffffff8116810361009a5760408201526064358060020b810361009a5760608201526084359073ffffffffffffffffffffffffffffffffffffffff8216820361009a5760800152565b7f4e487b71000000000000000000000000000000000000000000000000000000005f52604160045260245ffd","linkReferences":{}},"methodIdentifiers":{"beforeSwap((address,address,uint24,int24,address),(bool,int256,uint160),bool,bytes)":"831d7dd2","blockDelay()":"d98f6088","initialize((address,address,uint24,int24,address),bytes)":"645a1534","poolUnlockTime(bytes32)":"f563e03b","supportsInterface(bytes4)":"01ffc9a7"},"id":141}