{"abi":[{"type":"constructor","inputs":[{"name":"_liquidSniperAuction","type":"address","internalType":"address"},{"name":"_universalRouter","type":"address","internalType":"address"},{"name":"_permit2","type":"address","internalType":"address"},{"name":"_weth","type":"address","internalType":"address"}],"stateMutability":"nonpayable"},{"type":"function","name":"bidInAuction","inputs":[{"name":"swapParams","type":"tuple","internalType":"struct IV4Router.ExactInputSingleParams","components":[{"name":"poolKey","type":"tuple","internalType":"struct PoolKey","components":[{"name":"currency0","type":"address","internalType":"Currency"},{"name":"currency1","type":"address","internalType":"Currency"},{"name":"fee","type":"uint24","internalType":"uint24"},{"name":"tickSpacing","type":"int24","internalType":"int24"},{"name":"hooks","type":"address","internalType":"contract IHooks"}]},{"name":"zeroForOne","type":"bool","internalType":"bool"},{"name":"amountIn","type":"uint128","internalType":"uint128"},{"name":"amountOutMinimum","type":"uint128","internalType":"uint128"},{"name":"hookData","type":"bytes","internalType":"bytes"}]},{"name":"round","type":"uint256","internalType":"uint256"}],"outputs":[],"stateMutability":"payable"},{"type":"function","name":"getTxGasPriceForBidAmount","inputs":[{"name":"auctionGasPeg","type":"uint256","internalType":"uint256"},{"name":"desiredBidAmount","type":"uint256","internalType":"uint256"}],"outputs":[{"name":"txGasPrice","type":"uint256","internalType":"uint256"}],"stateMutability":"view"},{"type":"event","name":"AuctionSuccessful","inputs":[{"name":"poolId","type":"bytes32","indexed":true,"internalType":"PoolId"},{"name":"round","type":"uint256","indexed":true,"internalType":"uint256"},{"name":"payee","type":"address","indexed":true,"internalType":"address"},{"name":"paymentAmount","type":"uint256","indexed":false,"internalType":"uint256"},{"name":"amountIn","type":"uint256","indexed":false,"internalType":"uint256"},{"name":"amountOut","type":"uint256","indexed":false,"internalType":"uint256"}],"anonymous":false},{"type":"error","name":"AuctionDidNotAdvance","inputs":[]},{"type":"error","name":"GasPriceTooLow","inputs":[]},{"type":"error","name":"InvalidBidAmount","inputs":[]},{"type":"error","name":"InvalidBlock","inputs":[]},{"type":"error","name":"InvalidRound","inputs":[]},{"type":"error","name":"ReentrancyGuardReentrantCall","inputs":[]},{"type":"error","name":"SafeERC20FailedOperation","inputs":[{"name":"token","type":"address","internalType":"address"}]},{"type":"error","name":"ValueBidMismatch","inputs":[]}],"bytecode":{"object":"0x610100346100c657601f61100038819003918201601f19168301916001600160401b038311848410176100ca578084926080946040528339810103126100c657610048816100de565b90610055602082016100de565b61006d6060610066604085016100de565b93016100de565b60015f556001600160a01b0393841660805290831660a052911660c05260e052604051610f0d90816100f3823960805181818160550152610348015260a05181610827015260c051816107d6015260e051816104540152f35b5f80fd5b634e487b7160e01b5f52604160045260245ffd5b51906001600160a01b03821682036100c65756fe6080806040526004361015610012575f80fd5b5f905f3560e01c908163c5f00f28146101b7575063e4fc58cf14610034575f80fd5b346101b45760403660031901126101b4576004359060243560018060a01b037f000000000000000000000000000000000000000000000000000000000000000016604051631162293160e01b8152602081600481855afa9081156101a9578491610177575b5080156101635782066101545790602060049260405193848092631162293160e01b82525afa918215610149578392610111575b5081156100fd570482018092116100e957602082604051908152f35b634e487b7160e01b81526011600452602490fd5b634e487b7160e01b83526012600452602483fd5b9091506020813d602011610141575b8161012d60209383610d96565b8101031261013d5751905f6100cd565b5f80fd5b3d9150610120565b6040513d85823e3d90fd5b63741b327560e11b8352600483fd5b634e487b7160e01b84526012600452602484fd5b90506020813d6020116101a1575b8161019260209383610d96565b8101031261013d57515f610099565b3d9150610185565b6040513d86823e3d90fd5b80fd5b9050604036600319011261013d5760043567ffffffffffffffff811161013d5760031981360301610120811261013d5760a0906101f384610d7a565b1261013d5760405161020481610d7a565b61021082600401610db8565b815261021e60248301610db8565b6020820152604482013562ffffff8116810361013d57604082015260648201358060020b810361013d57606082015260848201356001600160a01b038116810361013d576080820152825260a4810135801515810361013d576020830190815261028a60c48301610dcc565b6040840190815261029d60e48401610dcc565b92606085019384526101048101359067ffffffffffffffff821161013d5701933660238601121561013d57600485013567ffffffffffffffff8111610b2c57604051956102f4601f8301601f191660200188610d96565b818752366024828401011161013d57815f92602460209301838a013787010152608081019485526024359360025f5414610d6b5760025f55815160a09020604051630dd5127d60e01b8152600481018290527f00000000000000000000000000000000000000000000000000000000000000006001600160a01b031697919591906020816024818c5afa908115610be9575f91610d39575b508714801590610cda575b610ccb57604051631c18246560e11b8152600481018790526020816024818c5afa908115610be9575f91610c99575b504303610c8a57604051630195e34d60e71b8152600481018790526020816024818c5afa908115610be9575f91610c58575b505f813a0391123a82128116903a831390151617610c03575f8112610c4957604051631162293160e01b81526020816004818d5afa908115610be9575f91610c17575b50818102918183041490151715610c03573403610bf4577f00000000000000000000000000000000000000000000000000000000000000006001600160a01b0316803b1561013d57604051630d0e30db60e41b81525f8160048134865af18015610be957610bd0575b5060405163095ea7b360e01b81526001600160a01b038a166004820152346024820152906020908290818d81604481015b03925af18015610bc557610ba8575b50815115610b8857835180516020909101516001600160a01b03908116959161055491165b6001600160801b0388511690604051916323b872dd60e01b6020840152336024840152306044840152606483015260648252610546608483610d96565b6001600160a01b0316610eb5565b6040513060208201526020815261056c604082610d96565b8252604051600160fc1b6020820152600181529261058b602185610d96565b604051600360f91b6020820152600360fa1b6021820152600f60f81b602282015260038152916105bc602384610d96565b6040519360806105cc8187610d96565b6003865289939291908e90601f1901815b818110610b6957505083516106b593926106a792509015610b4057825180516020909101516001600160a01b039182169b9116966001600160801b03919082905b6040519889976020808a01525160018060a01b0381511660408a015260018060a01b0360208201511660608a015262ffffff60408201511660808a0152606081015160020b60a08a0152608060018060a01b039101511660c089015251151560e08801525116610100860152511661012084015251610120610140840152610160830190610df8565b03601f198101835282610d96565b6106be84610e1c565b526106c883610e1c565b506001600160801b03875116946040519060018060a01b0316958660208301526040820152604081526106fc606082610d96565b61070584610e3d565b5261070f83610e3d565b50604080516001600160a01b0390921660208301526001828201528152610737606082610d96565b61074083610e4d565b5261074a82610e4d565b5060408051929061075b8185610d96565b600184528b959493929190601f1901865b818110610b16575050610797916106a76107a992604051948593604060208601526060850190610df8565b838103601f1901604085015290610e5d565b6107b282610e1c565b526107bc81610e1c565b50855160405163095ea7b360e01b81526001600160a01b037f000000000000000000000000000000000000000000000000000000000000000016600482018190526001600160801b03909216602482015260208160448189895af18015610b0b57610ade575b5086517f00000000000000000000000000000000000000000000000000000000000000006001600160a01b031694906001600160801b0316823b15610ada57608487928360405195869485936387517c4560e01b855260048501528a6024850152604484015265ffffffffffff421660648401525af1908115610acf578591610aba575b5050823b15610ab6576108f0926108de85809460405196879586948593630d64d59360e21b8552606060048601526064850190610df8565b83810360031901602485015290610e5d565b42604483015203925af18015610aab57610a92575b50506040516370a0823160e01b815230600482015294906001600160a01b0316602086602481845afa958615610a3d578796610a5c575b5060405163a9059cbb60e01b6020820152336024820152604480820188905281526109719161096c606483610d96565b610eb5565b6001840190818511610a485790602060249260405193848092630dd5127d60e01b82528860048301525afa918215610a3d578792610a09575b50036109fa576001600160801b039051169260405193348552602085015260408401527fccf94465bfba95d43b734055ac04ab289c9a66d39a2d4a337edcd2896ce2012b60603394a46001815580f35b63c5e961e160e01b8552600485fd5b9091506020813d602011610a35575b81610a2560209383610d96565b8101031261013d5751905f6109aa565b3d9150610a18565b6040513d89823e3d90fd5b634e487b7160e01b87526011600452602487fd5b9095506020813d602011610a8a575b81610a7860209383610d96565b8101031261013d57519461097161093c565b3d9150610a6b565b81610a9c91610d96565b610aa757855f610905565b8580fd5b6040513d84823e3d90fd5b8380fd5b81610ac491610d96565b610ab657835f6108a6565b6040513d87823e3d90fd5b8680fd5b610aff9060203d602011610b04575b610af78183610d96565b810190610de0565b610822565b503d610aed565b6040513d88823e3d90fd5b606060208683018101919091528e98500161076c565b634e487b7160e01b5f52604160045260245ffd5b8251602081015190516001600160a01b039182169b9116966001600160801b039190829061061e565b90929394955060209150606082828a010152018a949392918f916105dd565b8351602081015190516001600160a01b0390811695916105549116610509565b610bc09060203d602011610b0457610af78183610d96565b6104e4565b6040513d8c823e3d90fd5b6104d59a505f610bdf91610d96565b60205f9a506104a4565b6040513d5f823e3d90fd5b63370ecebd60e01b5f5260045ffd5b634e487b7160e01b5f52601160045260245ffd5b90506020813d602011610c41575b81610c3260209383610d96565b8101031261013d57515f61043b565b3d9150610c25565b638c19df8360e01b5f5260045ffd5b90506020813d602011610c82575b81610c7360209383610d96565b8101031261013d57515f6103f8565b3d9150610c66565b63be5a36cf60e01b5f5260045ffd5b90506020813d602011610cc3575b81610cb460209383610d96565b8101031261013d57515f6103c6565b3d9150610ca7565b6328ad4a9560e21b5f5260045ffd5b50604051631faf969b60e01b81526020816004818c5afa908115610be9575f91610d07575b508711610397565b90506020813d602011610d31575b81610d2260209383610d96565b8101031261013d57515f610cff565b3d9150610d15565b90506020813d602011610d63575b81610d5460209383610d96565b8101031261013d57515f61038c565b3d9150610d47565b633ee5aeb560e01b5f5260045ffd5b60a0810190811067ffffffffffffffff821117610b2c57604052565b90601f8019910116810190811067ffffffffffffffff821117610b2c57604052565b35906001600160a01b038216820361013d57565b35906001600160801b038216820361013d57565b9081602091031261013d5751801515810361013d5790565b805180835260209291819084018484015e5f828201840152601f01601f1916010190565b805115610e295760200190565b634e487b7160e01b5f52603260045260245ffd5b805160011015610e295760400190565b805160021015610e295760600190565b9080602083519182815201916020808360051b8301019401925f915b838310610e8857505050505090565b9091929394602080610ea6600193601f198682030187528951610df8565b97019301930191939290610e79565b905f602091828151910182855af115610be9575f513d610f0457506001600160a01b0381163b155b610ee45750565b635274afe760e01b5f9081526001600160a01b0391909116600452602490fd5b60011415610edd56","linkReferences":{}},"methodIdentifiers":{"bidInAuction(((address,address,uint24,int24,address),bool,uint128,uint128,bytes),uint256)":"c5f00f28","getTxGasPriceForBidAmount(uint256,uint256)":"e4fc58cf"},"id":139}