{"abi":[{"type":"constructor","inputs":[{"name":"name_","type":"string","internalType":"string"},{"name":"symbol_","type":"string","internalType":"string"},{"name":"maxSupply_","type":"uint256","internalType":"uint256"},{"name":"admin_","type":"address","internalType":"address"},{"name":"image_","type":"string","internalType":"string"},{"name":"metadata_","type":"string","internalType":"string"},{"name":"context_","type":"string","internalType":"string"},{"name":"initialSupplyChainId_","type":"uint256","internalType":"uint256"}],"stateMutability":"nonpayable"},{"type":"function","name":"CLOCK_MODE","inputs":[],"outputs":[{"name":"","type":"string","internalType":"string"}],"stateMutability":"view"},{"type":"function","name":"DOMAIN_SEPARATOR","inputs":[],"outputs":[{"name":"","type":"bytes32","internalType":"bytes32"}],"stateMutability":"view"},{"type":"function","name":"admin","inputs":[],"outputs":[{"name":"","type":"address","internalType":"address"}],"stateMutability":"view"},{"type":"function","name":"allowance","inputs":[{"name":"owner","type":"address","internalType":"address"},{"name":"spender","type":"address","internalType":"address"}],"outputs":[{"name":"","type":"uint256","internalType":"uint256"}],"stateMutability":"view"},{"type":"function","name":"approve","inputs":[{"name":"spender","type":"address","internalType":"address"},{"name":"value","type":"uint256","internalType":"uint256"}],"outputs":[{"name":"","type":"bool","internalType":"bool"}],"stateMutability":"nonpayable"},{"type":"function","name":"balanceOf","inputs":[{"name":"account","type":"address","internalType":"address"}],"outputs":[{"name":"","type":"uint256","internalType":"uint256"}],"stateMutability":"view"},{"type":"function","name":"burn","inputs":[{"name":"value","type":"uint256","internalType":"uint256"}],"outputs":[],"stateMutability":"nonpayable"},{"type":"function","name":"burnFrom","inputs":[{"name":"account","type":"address","internalType":"address"},{"name":"value","type":"uint256","internalType":"uint256"}],"outputs":[],"stateMutability":"nonpayable"},{"type":"function","name":"checkpoints","inputs":[{"name":"account","type":"address","internalType":"address"},{"name":"pos","type":"uint32","internalType":"uint32"}],"outputs":[{"name":"","type":"tuple","internalType":"struct Checkpoints.Checkpoint208","components":[{"name":"_key","type":"uint48","internalType":"uint48"},{"name":"_value","type":"uint208","internalType":"uint208"}]}],"stateMutability":"view"},{"type":"function","name":"clock","inputs":[],"outputs":[{"name":"","type":"uint48","internalType":"uint48"}],"stateMutability":"view"},{"type":"function","name":"context","inputs":[],"outputs":[{"name":"","type":"string","internalType":"string"}],"stateMutability":"view"},{"type":"function","name":"decimals","inputs":[],"outputs":[{"name":"","type":"uint8","internalType":"uint8"}],"stateMutability":"view"},{"type":"function","name":"delegate","inputs":[{"name":"delegatee","type":"address","internalType":"address"}],"outputs":[],"stateMutability":"nonpayable"},{"type":"function","name":"delegateBySig","inputs":[{"name":"delegatee","type":"address","internalType":"address"},{"name":"nonce","type":"uint256","internalType":"uint256"},{"name":"expiry","type":"uint256","internalType":"uint256"},{"name":"v","type":"uint8","internalType":"uint8"},{"name":"r","type":"bytes32","internalType":"bytes32"},{"name":"s","type":"bytes32","internalType":"bytes32"}],"outputs":[],"stateMutability":"nonpayable"},{"type":"function","name":"delegates","inputs":[{"name":"account","type":"address","internalType":"address"}],"outputs":[{"name":"","type":"address","internalType":"address"}],"stateMutability":"view"},{"type":"function","name":"eip712Domain","inputs":[],"outputs":[{"name":"fields","type":"bytes1","internalType":"bytes1"},{"name":"name","type":"string","internalType":"string"},{"name":"version","type":"string","internalType":"string"},{"name":"chainId","type":"uint256","internalType":"uint256"},{"name":"verifyingContract","type":"address","internalType":"address"},{"name":"salt","type":"bytes32","internalType":"bytes32"},{"name":"extensions","type":"uint256[]","internalType":"uint256[]"}],"stateMutability":"view"},{"type":"function","name":"getPastTotalSupply","inputs":[{"name":"timepoint","type":"uint256","internalType":"uint256"}],"outputs":[{"name":"","type":"uint256","internalType":"uint256"}],"stateMutability":"view"},{"type":"function","name":"getPastVotes","inputs":[{"name":"account","type":"address","internalType":"address"},{"name":"timepoint","type":"uint256","internalType":"uint256"}],"outputs":[{"name":"","type":"uint256","internalType":"uint256"}],"stateMutability":"view"},{"type":"function","name":"getVotes","inputs":[{"name":"account","type":"address","internalType":"address"}],"outputs":[{"name":"","type":"uint256","internalType":"uint256"}],"stateMutability":"view"},{"type":"function","name":"imageUrl","inputs":[],"outputs":[{"name":"","type":"string","internalType":"string"}],"stateMutability":"view"},{"type":"function","name":"isVerified","inputs":[],"outputs":[{"name":"","type":"bool","internalType":"bool"}],"stateMutability":"view"},{"type":"function","name":"metadata","inputs":[],"outputs":[{"name":"","type":"string","internalType":"string"}],"stateMutability":"view"},{"type":"function","name":"name","inputs":[],"outputs":[{"name":"","type":"string","internalType":"string"}],"stateMutability":"view"},{"type":"function","name":"nonces","inputs":[{"name":"owner","type":"address","internalType":"address"}],"outputs":[{"name":"","type":"uint256","internalType":"uint256"}],"stateMutability":"view"},{"type":"function","name":"numCheckpoints","inputs":[{"name":"account","type":"address","internalType":"address"}],"outputs":[{"name":"","type":"uint32","internalType":"uint32"}],"stateMutability":"view"},{"type":"function","name":"permit","inputs":[{"name":"owner","type":"address","internalType":"address"},{"name":"spender","type":"address","internalType":"address"},{"name":"value","type":"uint256","internalType":"uint256"},{"name":"deadline","type":"uint256","internalType":"uint256"},{"name":"v","type":"uint8","internalType":"uint8"},{"name":"r","type":"bytes32","internalType":"bytes32"},{"name":"s","type":"bytes32","internalType":"bytes32"}],"outputs":[],"stateMutability":"nonpayable"},{"type":"function","name":"symbol","inputs":[],"outputs":[{"name":"","type":"string","internalType":"string"}],"stateMutability":"view"},{"type":"function","name":"totalSupply","inputs":[],"outputs":[{"name":"","type":"uint256","internalType":"uint256"}],"stateMutability":"view"},{"type":"function","name":"transfer","inputs":[{"name":"to","type":"address","internalType":"address"},{"name":"value","type":"uint256","internalType":"uint256"}],"outputs":[{"name":"","type":"bool","internalType":"bool"}],"stateMutability":"nonpayable"},{"type":"function","name":"transferFrom","inputs":[{"name":"from","type":"address","internalType":"address"},{"name":"to","type":"address","internalType":"address"},{"name":"value","type":"uint256","internalType":"uint256"}],"outputs":[{"name":"","type":"bool","internalType":"bool"}],"stateMutability":"nonpayable"},{"type":"function","name":"updateImage","inputs":[{"name":"image_","type":"string","internalType":"string"}],"outputs":[],"stateMutability":"nonpayable"},{"type":"function","name":"updateMetadata","inputs":[{"name":"metadata_","type":"string","internalType":"string"}],"outputs":[],"stateMutability":"nonpayable"},{"type":"function","name":"verify","inputs":[],"outputs":[],"stateMutability":"nonpayable"},{"type":"event","name":"Approval","inputs":[{"name":"owner","type":"address","indexed":true,"internalType":"address"},{"name":"spender","type":"address","indexed":true,"internalType":"address"},{"name":"value","type":"uint256","indexed":false,"internalType":"uint256"}],"anonymous":false},{"type":"event","name":"DelegateChanged","inputs":[{"name":"delegator","type":"address","indexed":true,"internalType":"address"},{"name":"fromDelegate","type":"address","indexed":true,"internalType":"address"},{"name":"toDelegate","type":"address","indexed":true,"internalType":"address"}],"anonymous":false},{"type":"event","name":"DelegateVotesChanged","inputs":[{"name":"delegate","type":"address","indexed":true,"internalType":"address"},{"name":"previousVotes","type":"uint256","indexed":false,"internalType":"uint256"},{"name":"newVotes","type":"uint256","indexed":false,"internalType":"uint256"}],"anonymous":false},{"type":"event","name":"EIP712DomainChanged","inputs":[],"anonymous":false},{"type":"event","name":"Transfer","inputs":[{"name":"from","type":"address","indexed":true,"internalType":"address"},{"name":"to","type":"address","indexed":true,"internalType":"address"},{"name":"value","type":"uint256","indexed":false,"internalType":"uint256"}],"anonymous":false},{"type":"event","name":"UpdateImage","inputs":[{"name":"image","type":"string","indexed":false,"internalType":"string"}],"anonymous":false},{"type":"event","name":"UpdateMetadata","inputs":[{"name":"metadata","type":"string","indexed":false,"internalType":"string"}],"anonymous":false},{"type":"event","name":"Verified","inputs":[{"name":"admin","type":"address","indexed":true,"internalType":"address"},{"name":"token","type":"address","indexed":true,"internalType":"address"}],"anonymous":false},{"type":"error","name":"AlreadyVerified","inputs":[]},{"type":"error","name":"CheckpointUnorderedInsertion","inputs":[]},{"type":"error","name":"ECDSAInvalidSignature","inputs":[]},{"type":"error","name":"ECDSAInvalidSignatureLength","inputs":[{"name":"length","type":"uint256","internalType":"uint256"}]},{"type":"error","name":"ECDSAInvalidSignatureS","inputs":[{"name":"s","type":"bytes32","internalType":"bytes32"}]},{"type":"error","name":"ERC20ExceededSafeSupply","inputs":[{"name":"increasedSupply","type":"uint256","internalType":"uint256"},{"name":"cap","type":"uint256","internalType":"uint256"}]},{"type":"error","name":"ERC20InsufficientAllowance","inputs":[{"name":"spender","type":"address","internalType":"address"},{"name":"allowance","type":"uint256","internalType":"uint256"},{"name":"needed","type":"uint256","internalType":"uint256"}]},{"type":"error","name":"ERC20InsufficientBalance","inputs":[{"name":"sender","type":"address","internalType":"address"},{"name":"balance","type":"uint256","internalType":"uint256"},{"name":"needed","type":"uint256","internalType":"uint256"}]},{"type":"error","name":"ERC20InvalidApprover","inputs":[{"name":"approver","type":"address","internalType":"address"}]},{"type":"error","name":"ERC20InvalidReceiver","inputs":[{"name":"receiver","type":"address","internalType":"address"}]},{"type":"error","name":"ERC20InvalidSender","inputs":[{"name":"sender","type":"address","internalType":"address"}]},{"type":"error","name":"ERC20InvalidSpender","inputs":[{"name":"spender","type":"address","internalType":"address"}]},{"type":"error","name":"ERC2612ExpiredSignature","inputs":[{"name":"deadline","type":"uint256","internalType":"uint256"}]},{"type":"error","name":"ERC2612InvalidSigner","inputs":[{"name":"signer","type":"address","internalType":"address"},{"name":"owner","type":"address","internalType":"address"}]},{"type":"error","name":"ERC5805FutureLookup","inputs":[{"name":"timepoint","type":"uint256","internalType":"uint256"},{"name":"clock","type":"uint48","internalType":"uint48"}]},{"type":"error","name":"ERC6372InconsistentClock","inputs":[]},{"type":"error","name":"InvalidAccountNonce","inputs":[{"name":"account","type":"address","internalType":"address"},{"name":"currentNonce","type":"uint256","internalType":"uint256"}]},{"type":"error","name":"InvalidShortString","inputs":[]},{"type":"error","name":"NotAdmin","inputs":[]},{"type":"error","name":"SafeCastOverflowedUintDowncast","inputs":[{"name":"bits","type":"uint8","internalType":"uint8"},{"name":"value","type":"uint256","internalType":"uint256"}]},{"type":"error","name":"StringTooLong","inputs":[{"name":"str","type":"string","internalType":"string"}]},{"type":"error","name":"VotesExpiredSignature","inputs":[{"name":"expiry","type":"uint256","internalType":"uint256"}]}],"bytecode":{"object":"0x6101606040523461014157613c3e803803809161001b82610159565b610160396101008161016001911261014157610160516001600160401b038111610141578161004d91610160016101b9565b610180516001600160401b038111610141578261006d91610160016101b9565b6101a05161007c6101c061020e565b6101e0516001600160401b038111610141578561009c91610160016101b9565b610200519091906001600160401b03811161014157866100bf91610160016101b9565b610220519093906001600160401b038111610141576100f0976100e591610160016101b9565b946102405196610669565b604051612b969081611068823960805181611c40015260a05181611cfd015260c05181611c11015260e05181611c8f01526101005181611cb5015261012051816108ec015261014051816109150152f35b5f80fd5b634e487b7160e01b5f52604160045260245ffd5b610160601f91909101601f19168101906001600160401b0382119082101761018057604052565b610145565b601f909101601f19168101906001600160401b0382119082101761018057604052565b604051906101b7604083610185565b565b81601f82011215610141578051906001600160401b03821161018057604051926101ed601f8401601f191660200185610185565b8284526020838301011161014157815f9260208093018386015e8301015290565b51906001600160a01b038216820361014157565b90600182811c92168015610250575b602083101461023c57565b634e487b7160e01b5f52602260045260245ffd5b91607f1691610231565b601f8111610266575050565b60035f5260205f20906020601f840160051c830193106102a0575b601f0160051c01905b818110610295575050565b5f815560010161028a565b9091508190610281565b601f82116102b757505050565b5f5260205f20906020601f840160051c830193106102ef575b601f0160051c01905b8181106102e4575050565b5f81556001016102d9565b90915081906102d0565b80519091906001600160401b038111610180576103228161031b600454610222565b60046102aa565b602092601f821160011461036257610352929382915f92610357575b50508160011b915f199060031b1c19161790565b600455565b015190505f8061033e565b60045f52601f198216937f8a35acfbc15ff81a39ae7d344fd709f28e8600b4aa8c65c6b64bfe7fe36bd19b915f5b8681106103c657508360019596106103ae575b505050811b01600455565b01515f1960f88460031b161c191690555f80806103a3565b91926020600181928685015181550194019201610390565b80519091906001600160401b0381116101805761040781610400600e54610222565b600e6102aa565b602092601f821160011461043b57610436929382915f926103575750508160011b915f199060031b1c19161790565b600e55565b600e5f52601f198216937fbb7b4a454dc3493923482f07822329ed19e8244eff582cc204f8554c3620c3fd915f5b86811061049f5750836001959610610487575b505050811b01600e55565b01515f1960f88460031b161c191690555f808061047c565b91926020600181928685015181550194019201610469565b80519091906001600160401b038111610180576104e0816104d9600c54610222565b600c6102aa565b602092601f82116001146105145761050f929382915f926103575750508160011b915f199060031b1c19161790565b600c55565b600c5f52601f198216937fdf6966c971051c3d54ec59162606531493a51404a002842f56009d7e5cf4a8c7915f5b8681106105785750836001959610610560575b505050811b01600c55565b01515f1960f88460031b161c191690555f8080610555565b91926020600181928685015181550194019201610542565b80519091906001600160401b038111610180576105b9816105b2600d54610222565b600d6102aa565b602092601f82116001146105ed576105e8929382915f926103575750508160011b915f199060031b1c19161790565b600d55565b600d5f52601f198216937fd7b6990105719101dabeb77144f2a3385c8033acd3af97e9423a695e81ad1eb5915f5b8681106106515750836001959610610639575b505050811b01600d55565b01515f1960f88460031b161c191690555f808061062e565b9192602060018192868501518155019401920161061b565b969594939291966040519061067f604083610185565b60018252603160f81b6020830190815281519093906001600160401b038111610180576106b6816106b1600354610222565b61025a565b6020601f821160011461078f5793610762936107026107719b9a98946106fa856107679a9661076c9d9a5f91610784575b508160011b915f199060031b1c19161790565b6003556102f9565b61070b816108d2565b61012052610718826109c7565b610140526020815191012060e052519020610100524660a052610739610ab9565b6080523060c052600b80546001600160a01b0319166001600160a01b0392909216919091179055565b6103de565b6104b7565b610590565b461461077a5750565b6101b79033610826565b90508501515f6106e7565b60035f52601f198216907fc2575a0e9e593c00f959f8c92f12db2869c3395a3b0502d05e2516446f71f85b915f5b81811061080e57506107719b9a989460018561076c9c999561076299956107679c9861070296106107f6575b5050811b016003556102f9565b8601515f1960f88460031b161c191690555f806107e9565b9192602060018192868a0151815501940192016107bd565b91906001600160a01b03831680156108bf576002548281018091116108ba576002555f81815260208181526040808320805486019055518481527fddf252ad1be2c89b69c2b068fc378daa952ba7f163c4a11628f55a4df523b3ef9190a3600254926001600160d01b038085116108a357506101b7929350610b96565b630e58ae9360e11b5f52600485905260245260445ffd5b610b82565b63ec442f0560e01b5f525f60045260245ffd5b908151602081105f146108ed5750906108ea90610b17565b90565b6001600160401b038111610180576109118161090a600554610222565b60056102aa565b602092601f821160011461094857610940929382915f926103575750508160011b915f199060031b1c19161790565b60055560ff90565b60055f52601f198216937f036b6384b5eca791c62761152d0c79bb0604c104a5fb6f4eb0703f3154bb3db0915f5b8681106109af5750836001959610610997575b505050811b0160055560ff90565b01515f1960f88460031b161c191690555f8080610989565b91926020600181928685015181550194019201610976565b908151602081105f146109df5750906108ea90610b17565b6001600160401b03811161018057610a03816109fc600654610222565b60066102aa565b602092601f8211600114610a3a57610a32929382915f926103575750508160011b915f199060031b1c19161790565b60065560ff90565b60065f52601f198216937ff652222313e28459528d920b65115c16c04f3efc82aaedc97be59f3f377c0d3f915f5b868110610aa15750836001959610610a89575b505050811b0160065560ff90565b01515f1960f88460031b161c191690555f8080610a7b565b91926020600181928685015181550194019201610a68565b60e051610100516040519060208201927f8b73c3c69bb8fe3d512ecc4cf759cc79239f7b179b0ffacaa9a75d522b39400f8452604083015260608201524660808201523060a082015260a08152610b1160c082610185565b51902090565b601f815111610b42576020815191015160208210610b33571790565b5f198260200360031b1b161790565b604460209160405192839163305a27a960e01b83528160048401528051918291826024860152018484015e5f828201840152601f01601f19168101030190fd5b634e487b7160e01b5f52601160045260245ffd5b90610ba081610c95565b9165ffffffffffff4311610c7d57600a5480610c475750610bda610bca6101b7945f5b600161100b565b65ffffffffffff4316600a610f35565b50506001600160a01b03168015610c2f575b60086020527f5eff886ea0ce6ca488a3d6e336d6c0f75f46d19b42c06ce5ee98e42c96d256c7545f9182526040909120546001600160a01b039081169116610dc4565b610c40610c3b83610c95565b610cc6565b5050610bec565b92835f198101116108ba57600a5f525f516020613bfe5f395f51905f52909301546101b793610bda91610bca919060301c610bc3565b6306dfcc6560e41b5f5260306004524360245260445ffd5b6001600160d01b038111610caf576001600160d01b031690565b6306dfcc6560e41b5f5260d060045260245260445ffd5b65ffffffffffff4311610c7d57600a5480610cf05750610bca610cec915f5b600261100b565b9091565b805f198101116108ba57600a5f525f516020613bfe5f395f51905f520154610cec91610bca9160301c610ce5565b65ffffffffffff4311610c7d57805480610d525750610d42610cec925f600261100b565b9065ffffffffffff431690610f35565b805f198101116108ba575f82815260209020015f190154610cec92610d429160301c610ce5565b65ffffffffffff4311610c7d57805480610d9d5750610d42610cec925f600161100b565b805f198101116108ba575f82815260209020015f190154610cec92610d429160301c610bc3565b6001600160a01b03808316939291908116908185141580610eb7575b610dec575b5050505050565b81610e5d575b505082610e01575b8080610de5565b6001600160a01b03165f9081526009602052604090205f516020613c1e5f395f51905f5291610e3a91610e349091610c95565b90610d79565b604080516001600160d01b039384168152919092166020820152a25f8080610dfa565b6001600160a01b03165f9081526009602052604090205f516020613c1e5f395f51905f5290610e9590610e8f86610c95565b90610d1e565b604080516001600160d01b039384168152919092166020820152a25f80610df2565b50831515610de0565b5f198101919082116108ba57565b908154680100000000000000008110156101805760018101808455811015610f21575f9283526020928390208251929093015160301b65ffffffffffff191665ffffffffffff9290921691909117910155565b634e487b7160e01b5f52603260045260245ffd5b80549293928015610fe157610f4c610f5791610ec0565b825f5260205f200190565b8054603081901c9365ffffffffffff91821692918116808411610fd257879303610f9e5750610f9a92509065ffffffffffff82549181199060301b169116179055565b9190565b915050610f9a91610fbe610fb06101a8565b65ffffffffffff9093168352565b6001600160d01b0386166020830152610ece565b632520601d60e01b5f5260045ffd5b509061100691610ff2610fb06101a8565b6001600160d01b0385166020830152610ece565b5f9190565b9190918060011461104d5760021461103157634e487b7160e01b5f52605160045260245ffd5b6001600160d01b03908116918116919091039081116108ba5790565b506001600160d01b03918216908216019081116108ba579056fe60806040526004361015610011575f80fd5b5f3560e01c806306fdde0314610224578063095ea7b31461021f57806318160ddd1461021a57806323b872dd14610215578063313ce567146102105780633644e5151461020b578063392f37e9146102065780633a46b1a81461020157806342966c68146101fc5780634bf5d7e9146101f7578063587cde1e146101f25780635c19a95c146101ed5780636fcfff45146101e857806370a08231146101e357806379cc6790146101de5780637ecebe00146101d957806380007e83146101d457806384b0196e146101cf5780638e539e8c146101ca578063918b5be1146101c557806391ddadf4146101c057806395d89b41146101bb5780639ab24eb0146101b6578063a9059cbb146101b1578063aba83150146101ac578063c3cda520146101a7578063d0496d6a146101a2578063d505accf1461019d578063dd62ed3e14610198578063eb3d68e714610193578063f1127ed81461018e578063f851a440146101895763fc735e9914610184575f80fd5b61166e565b61163b565b611565565b6113f1565b61137e565b6111e3565b61113e565b610fd0565b610f0b565b610ee5565b610e7d565b610dd8565b610dad565b610c00565b610a0b565b6108d4565b6108b2565b61086d565b61083d565b6107fb565b610773565b610751565b6106f6565b61064d565b61062e565b61052a565b610485565b610463565b610448565b610410565b6103f3565b6103c2565b610280565b907fffffffffffffffffffffffffffffffffffffffffffffffffffffffffffffffe0601f602080948051918291828752018686015e5f8582860101520116010190565b90602061027d928181520190610229565b90565b34610378575f600319360112610378576040515f6003546102a08161174d565b808452906001811690811561033657506001146102d8575b6102d4836102c881850382610b18565b6040519182918261026c565b0390f35b60035f9081527fc2575a0e9e593c00f959f8c92f12db2869c3395a3b0502d05e2516446f71f85b939250905b80821061031c575090915081016020016102c86102b8565b919260018160209254838588010152019101909291610304565b7fffffffffffffffffffffffffffffffffffffffffffffffffffffffffffffff001660208086019190915291151560051b840190910191506102c890506102b8565b5f80fd5b6004359073ffffffffffffffffffffffffffffffffffffffff8216820361037857565b6024359073ffffffffffffffffffffffffffffffffffffffff8216820361037857565b34610378576040600319360112610378576103e86103de61037c565b6024359033612040565b602060405160018152f35b34610378575f600319360112610378576020600254604051908152f35b34610378576060600319360112610378576103e861042c61037c565b61043461039f565b604435916104438333836118f6565b611a5b565b34610378575f60031936011261037857602060405160128152f35b34610378575f60031936011261037857602061047d611bfa565b604051908152f35b34610378575f600319360112610378576040515f600c546104a58161174d565b808452906001811690811561033657506001146104cc576102d4836102c881850382610b18565b600c5f9081527fdf6966c971051c3d54ec59162606531493a51404a002842f56009d7e5cf4a8c7939250905b808210610510575090915081016020016102c86102b8565b9192600181602092548385880101520191019092916104f8565b346103785760406003193601126103785761054361037c565b73ffffffffffffffffffffffffffffffffffffffff60243591165f52600960205261057160405f2091611d23565b8154905f8291600584116105d6575b61058b9350846122d1565b90816105bb57505060205f5b79ffffffffffffffffffffffffffffffffffffffffffffffffffff60405191168152f35b6105c6602092611d75565b905f52815f20015460301c610597565b91926105e18161215c565b81039081116106295761058b93855f5265ffffffffffff8260205f2001541665ffffffffffff8516105f14610617575091610580565b92915061062390611d83565b90610580565b611720565b346103785760206003193601126103785761064b60043533611d91565b005b34610378575f60031936011261037857610666436120dd565b65ffffffffffff80610677436120dd565b169116036106ce576102d4604051610690604082610b18565b601d81527f6d6f64653d626c6f636b6e756d6265722666726f6d3d64656661756c740000006020820152604051918291602083526020830190610229565b7f6ff07140000000000000000000000000000000000000000000000000000000005f5260045ffd5b346103785760206003193601126103785773ffffffffffffffffffffffffffffffffffffffff61072461037c565b165f526008602052602073ffffffffffffffffffffffffffffffffffffffff60405f205416604051908152f35b346103785760206003193601126103785761064b61076d61037c565b33611f17565b346103785760206003193601126103785773ffffffffffffffffffffffffffffffffffffffff6107a161037c565b165f52600960205260405f205463ffffffff81116107cb5760405163ffffffff9091168152602090f35b7f6dfcc650000000000000000000000000000000000000000000000000000000005f52602060045260245260445ffd5b3461037857602060031936011261037857602061047d61081961037c565b73ffffffffffffffffffffffffffffffffffffffff165f525f60205260405f205490565b346103785760406003193601126103785761064b61085961037c565b602435906108688233836118f6565b611d91565b346103785760206003193601126103785773ffffffffffffffffffffffffffffffffffffffff61089b61037c565b165f526007602052602060405f2054604051908152f35b34610378575f60031936011261037857602060ff600f54166040519015158152f35b34610378575f600319360112610378576109b26109107f00000000000000000000000000000000000000000000000000000000000000006124b1565b6109397f000000000000000000000000000000000000000000000000000000000000000061252a565b60206040516109488282610b18565b5f8152816109c0818301947fffffffffffffffffffffffffffffffffffffffffffffffffffffffffffffffe083013687376040519788977f0f00000000000000000000000000000000000000000000000000000000000000895260e0858a015260e0890190610229565b908782036040890152610229565b914660608701523060808701525f60a087015285830360c087015251918281520192915f5b8281106109f457505050500390f35b8351855286955093810193928101926001016109e5565b3461037857602060031936011261037857610a27600435611d23565b600a54905f829160058411610a76575b610a439350600a6122d1565b80610a5457506040515f8152602090f35b610a71610a62602092611d75565b600a5f52825f20015460301c90565b610597565b9192610a818161215c565b810390811161062957610a4393600a5f5265ffffffffffff8260205f2001541665ffffffffffff8516105f14610ab8575091610a37565b929150610ac490611d83565b90610a37565b7f4e487b71000000000000000000000000000000000000000000000000000000005f52604160045260245ffd5b6040810190811067ffffffffffffffff821117610b1357604052565b610aca565b90601f7fffffffffffffffffffffffffffffffffffffffffffffffffffffffffffffffe0910116810190811067ffffffffffffffff821117610b1357604052565b60405190610b68604083610b18565b565b60206003198201126103785760043567ffffffffffffffff811161037857816023820112156103785780600401359067ffffffffffffffff8211610b135760405192610bde601f84017fffffffffffffffffffffffffffffffffffffffffffffffffffffffffffffffe01660200185610b18565b8284526024838301011161037857815f92602460209301838601378301015290565b3461037857610c0e36610b6a565b73ffffffffffffffffffffffffffffffffffffffff600b54163303610d8557805167ffffffffffffffff8111610b1357610c5281610c4d600c5461174d565b61183e565b6020601f8211600114610cc25791610ca382610cb2937ff26c33166d6eefdac067b052550e7713b98ff0ffc4abb3caf719a1de36b651f4955f91610cb7575b505f198260011b9260031b1c19161790565b600c556040519182918261026c565b0390a1005b90508301515f610c91565b600c5f527fffffffffffffffffffffffffffffffffffffffffffffffffffffffffffffffe08216907fdf6966c971051c3d54ec59162606531493a51404a002842f56009d7e5cf4a8c7915f5b818110610d6d5750927ff26c33166d6eefdac067b052550e7713b98ff0ffc4abb3caf719a1de36b651f4949260019282610cb29610610d55575b5050811b01600c556102c8565b8401515f1960f88460031b161c191690555f80610d48565b91926020600181928689015181550194019201610d0e565b7f7bfa4b9f000000000000000000000000000000000000000000000000000000005f5260045ffd5b34610378575f600319360112610378576020610dc8436120dd565b65ffffffffffff60405191168152f35b34610378575f600319360112610378576040515f600454610df88161174d565b80845290600181169081156103365750600114610e1f576102d4836102c881850382610b18565b60045f9081527f8a35acfbc15ff81a39ae7d344fd709f28e8600b4aa8c65c6b64bfe7fe36bd19b939250905b808210610e63575090915081016020016102c86102b8565b919260018160209254838588010152019101909291610e4b565b346103785760206003193601126103785773ffffffffffffffffffffffffffffffffffffffff610eab61037c565b165f526009602052602079ffffffffffffffffffffffffffffffffffffffffffffffffffff610edc60405f20611fc7565b16604051908152f35b34610378576040600319360112610378576103e8610f0161037c565b6024359033611a5b565b34610378575f600319360112610378576040515f600e54610f2b8161174d565b80845290600181169081156103365750600114610f52576102d4836102c881850382610b18565b600e5f9081527fbb7b4a454dc3493923482f07822329ed19e8244eff582cc204f8554c3620c3fd939250905b808210610f96575090915081016020016102c86102b8565b919260018160209254838588010152019101909291610f7e565b6064359060ff8216820361037857565b6084359060ff8216820361037857565b346103785760c060031936011261037857610fe961037c565b60243590604435610ff8610fb0565b6084359060a43592804211611113579161108b939161107d6110829460405160208101917fe48329057bfd03d55e49b547132e39cffd9c1820ad7b9d4c5307691425d15adf835273ffffffffffffffffffffffffffffffffffffffff8a1660408301528a606083015260808201526080815261107560a082610b18565b519020611ff0565b612561565b90929192612632565b6110bc8173ffffffffffffffffffffffffffffffffffffffff165f52600760205260405f2080549060018201905590565b8093036110cd5761064b9250611f17565b73ffffffffffffffffffffffffffffffffffffffff91507f752d88c0000000000000000000000000000000000000000000000000000000005f521660045260245260445ffd5b7f4683af0e000000000000000000000000000000000000000000000000000000005f5260045260245ffd5b34610378575f600319360112610378576040515f600d5461115e8161174d565b80845290600181169081156103365750600114611185576102d4836102c881850382610b18565b600d5f9081527fd7b6990105719101dabeb77144f2a3385c8033acd3af97e9423a695e81ad1eb5939250905b8082106111c9575090915081016020016102c86102b8565b9192600181602092548385880101520191019092916111b1565b346103785760e0600319360112610378576111fc61037c565b61120461039f565b6044359060643592611214610fc0565b60a43560c43590864211611352576112e4926112df61125a8673ffffffffffffffffffffffffffffffffffffffff165f52600760205260405f2080549060018201905590565b9860405160208101917f6e71edae12b1b97f4d1f60370fef10105fa2faae0126114a169c64845d6126c9835273ffffffffffffffffffffffffffffffffffffffff89169b8c604084015273ffffffffffffffffffffffffffffffffffffffff8b1660608401528b608084015260a083015260c082015260c0815261107560e082610b18565b612031565b9373ffffffffffffffffffffffffffffffffffffffff85160361130b5761064b9350612040565b7f4b800e46000000000000000000000000000000000000000000000000000000005f5273ffffffffffffffffffffffffffffffffffffffff8085166004521660245260445ffd5b867f62791302000000000000000000000000000000000000000000000000000000005f5260045260245ffd5b346103785760406003193601126103785760206113e861139c61037c565b73ffffffffffffffffffffffffffffffffffffffff6113b961039f565b91165f526001835260405f209073ffffffffffffffffffffffffffffffffffffffff165f5260205260405f2090565b54604051908152f35b34610378576113ff36610b6a565b73ffffffffffffffffffffffffffffffffffffffff600b54163303610d8557805167ffffffffffffffff8111610b13576114438161143e600e5461174d565b61188e565b6020601f82116001146114a2579161149382610cb2937fa27234ca678ebcb3cd33e8325c5563cd8d9ff626cc44a58b6ea2bf4b55524216955f91610cb757505f198260011b9260031b1c19161790565b600e556040519182918261026c565b600e5f527fffffffffffffffffffffffffffffffffffffffffffffffffffffffffffffffe08216907fbb7b4a454dc3493923482f07822329ed19e8244eff582cc204f8554c3620c3fd915f5b81811061154d5750927fa27234ca678ebcb3cd33e8325c5563cd8d9ff626cc44a58b6ea2bf4b55524216949260019282610cb29610611535575b5050811b01600e556102c8565b8401515f1960f88460031b161c191690555f80611528565b919260206001819286890151815501940192016114ee565b346103785760406003193601126103785761157e61037c565b6024359063ffffffff82168203610378576102d49173ffffffffffffffffffffffffffffffffffffffff6115d8926115b46118de565b506115bd6118de565b50165f52600960205260405f206115d26118de565b506126f9565b50604051906115e682610af7565b5465ffffffffffff8116825260301c602082015260405191829182919091602079ffffffffffffffffffffffffffffffffffffffffffffffffffff81604084019565ffffffffffff8151168552015116910152565b34610378575f60031936011261037857602073ffffffffffffffffffffffffffffffffffffffff600b5416604051908152f35b34610378575f6003193601126103785773ffffffffffffffffffffffffffffffffffffffff600b54163303610d8557600f5460ff81166116f8577fffffffffffffffffffffffffffffffffffffffffffffffffffffffffffffff0016600117600f5530337f78a953f3f0d92abc078a34e5d4fedf8708e788e1b29300b3d6170e97f88a13fc5f80a3005b7f118fd7b8000000000000000000000000000000000000000000000000000000005f5260045ffd5b7f4e487b71000000000000000000000000000000000000000000000000000000005f52601160045260245ffd5b90600182811c92168015611794575b602083101461176757565b7f4e487b71000000000000000000000000000000000000000000000000000000005f52602260045260245ffd5b91607f169161175c565b5f92918154916117ad8361174d565b808352926001811690811561180257506001146117c957505050565b5f9081526020812093945091925b8383106117e8575060209250010190565b6001816020929493945483858701015201910191906117d7565b905060209495507fffffffffffffffffffffffffffffffffffffffffffffffffffffffffffffff0091509291921683830152151560051b010190565b601f811161184a575050565b600c5f5260205f20906020601f840160051c83019310611884575b601f0160051c01905b818110611879575050565b5f815560010161186e565b9091508190611865565b601f811161189a575050565b600e5f5260205f20906020601f840160051c830193106118d4575b601f0160051c01905b8181106118c9575050565b5f81556001016118be565b90915081906118b5565b604051906118eb82610af7565b5f6020838281520152565b73ffffffffffffffffffffffffffffffffffffffff909291921690815f5260016020526119448360405f209073ffffffffffffffffffffffffffffffffffffffff165f5260205260405f2090565b545f198110611954575b50505050565b818110611a135782156119e75773ffffffffffffffffffffffffffffffffffffffff8416156119bb576119b1925f526001602052039160405f209073ffffffffffffffffffffffffffffffffffffffff165f5260205260405f2090565b555f80808061194e565b7f94280d62000000000000000000000000000000000000000000000000000000005f525f60045260245ffd5b7fe602df05000000000000000000000000000000000000000000000000000000005f525f60045260245ffd5b73ffffffffffffffffffffffffffffffffffffffff847ffb8f41b2000000000000000000000000000000000000000000000000000000005f521660045260245260445260645ffd5b92919073ffffffffffffffffffffffffffffffffffffffff8416938415611bce5773ffffffffffffffffffffffffffffffffffffffff82168015611ba257611ac08273ffffffffffffffffffffffffffffffffffffffff165f525f60205260405f2090565b5495848710611b565784610b68969703611af78473ffffffffffffffffffffffffffffffffffffffff165f525f60205260405f2090565b55611b1f8473ffffffffffffffffffffffffffffffffffffffff165f525f60205260405f2090565b8054860190556040518581527fddf252ad1be2c89b69c2b068fc378daa952ba7f163c4a11628f55a4df523b3ef90602090a3612931565b7fe450d38c000000000000000000000000000000000000000000000000000000005f5273ffffffffffffffffffffffffffffffffffffffff83166004526024879052604485905260645ffd5b7fec442f05000000000000000000000000000000000000000000000000000000005f525f60045260245ffd5b7f96c6fd1e000000000000000000000000000000000000000000000000000000005f525f60045260245ffd5b73ffffffffffffffffffffffffffffffffffffffff7f000000000000000000000000000000000000000000000000000000000000000016301480611cfa575b15611c62577f000000000000000000000000000000000000000000000000000000000000000090565b60405160208101907f8b73c3c69bb8fe3d512ecc4cf759cc79239f7b179b0ffacaa9a75d522b39400f82527f000000000000000000000000000000000000000000000000000000000000000060408201527f000000000000000000000000000000000000000000000000000000000000000060608201524660808201523060a082015260a08152611cf460c082610b18565b51902090565b507f00000000000000000000000000000000000000000000000000000000000000004614611c39565b65ffffffffffff611d33436120dd565b1680821015611d46575061027d906120dd565b907fecd3f81e000000000000000000000000000000000000000000000000000000005f5260045260245260445ffd5b905f19820191821161062957565b906001820180921161062957565b73ffffffffffffffffffffffffffffffffffffffff8116908115611bce57611dd68173ffffffffffffffffffffffffffffffffffffffff165f525f60205260405f2090565b54838110611ecc5790611e0e84610b68959493039173ffffffffffffffffffffffffffffffffffffffff165f525f60205260405f2090565b5581600254036002555f817fddf252ad1be2c89b69c2b068fc378daa952ba7f163c4a11628f55a4df523b3ef60405180602081018782520390a38015611eb4575b611e60611e5b8361273b565b6128d0565b50505f908152600860205260408120549080527f5eff886ea0ce6ca488a3d6e336d6c0f75f46d19b42c06ce5ee98e42c96d256c75473ffffffffffffffffffffffffffffffffffffffff908116911661232a565b611ec5611ec08361273b565b61286f565b5050611e4f565b7fe450d38c000000000000000000000000000000000000000000000000000000005f5273ffffffffffffffffffffffffffffffffffffffff909116600452602452604482905260645ffd5b73ffffffffffffffffffffffffffffffffffffffff8181165f81815260086020526040812080548685167fffffffffffffffffffffffff000000000000000000000000000000000000000082168117909255610b6896941694611fc19390928691907f3134e8a2e6d97e929a7e54011ea5485d7d196dd5f0ba4d4ef95803e8e3fc257f9080a473ffffffffffffffffffffffffffffffffffffffff165f525f60205260405f205490565b9161232a565b805480611fd45750505f90565b805f19810111610629575f19915f5260205f2001015460301c90565b604290611ffb611bfa565b90604051917f19010000000000000000000000000000000000000000000000000000000000008352600283015260228201522090565b9161027d939161108293612561565b73ffffffffffffffffffffffffffffffffffffffff169081156119e75773ffffffffffffffffffffffffffffffffffffffff81169283156119bb57806120d07f8c5be1e5ebec7d5bd14f71427d1e84f3dd0314c0f7b2291e5b200ac8c7c3b92593855f52600160205260405f209073ffffffffffffffffffffffffffffffffffffffff165f5260205260405f2090565b55604051908152602090a3565b65ffffffffffff81116120f55765ffffffffffff1690565b7f6dfcc650000000000000000000000000000000000000000000000000000000005f52603060045260245260445ffd5b811561212f570490565b7f4e487b71000000000000000000000000000000000000000000000000000000005f52601260045260245ffd5b600181111561027d5780600170010000000000000000000000000000000083101561228f575b61223561222b61222161221761220d6122036121f261223c9760048a680100000000000000006122419c1015612282575b640100000000811015612275575b62010000811015612268575b61010081101561225b575b601081101561224e575b1015612246575b60030260011c90565b6121fc818b612125565b0160011c90565b6121fc818a612125565b6121fc8189612125565b6121fc8188612125565b6121fc8187612125565b6121fc8186612125565b8093612125565b821190565b900390565b60011b6121e9565b60041c9160021b916121e2565b60081c9160041b916121d8565b60101c9160081b916121cd565b60201c9160101b916121c1565b60401c9160201b916121b3565b505061224161223c61223561222b61222161221761220d6122036121f26122b68a60801c90565b98506801000000000000000097506121829650505050505050565b905b8383106122e05750505090565b90919280841860011c8185160190835f5265ffffffffffff8260205f2001541665ffffffffffff8416105f1461231a5750925b91906122d3565b935061232590611d83565b612313565b919073ffffffffffffffffffffffffffffffffffffffff81169273ffffffffffffffffffffffffffffffffffffffff81169084821415806124a8575b612372575b5050505050565b81612425575b505082612387575b808061236b565b61241a6124017fdec2bacdd2f05b59de34da9b523dff8be42e5e38e818c82fdb0bae774387a724936123fb6123f579ffffffffffffffffffffffffffffffffffffffffffffffffffff9573ffffffffffffffffffffffffffffffffffffffff165f52600960205260405f2090565b9161273b565b9061280f565b6040805192851683529316602082015291829190820190565b0390a25f8080612380565b79ffffffffffffffffffffffffffffffffffffffffffffffffffff61249e61240161248f7fdec2bacdd2f05b59de34da9b523dff8be42e5e38e818c82fdb0bae774387a7249473ffffffffffffffffffffffffffffffffffffffff165f52600960205260405f2090565b6124988861273b565b906127ab565b0390a25f80612378565b50831515612366565b60ff81146125105760ff811690601f82116124e857604051916124d5604084610b18565b6020808452838101919036833783525290565b7fb3512b0c000000000000000000000000000000000000000000000000000000005f5260045ffd5b5060405161027d8161252381600561179e565b0382610b18565b60ff811461254e5760ff811690601f82116124e857604051916124d5604084610b18565b5060405161027d8161252381600661179e565b91907f7fffffffffffffffffffffffffffffff5d576e7357a4501ddfe92f46681b20a084116125f0579160209360809260ff5f9560405194855216868401526040830152606082015282805260015afa156125e5575f5173ffffffffffffffffffffffffffffffffffffffff8116156125db57905f905f90565b505f906001905f90565b6040513d5f823e3d90fd5b5050505f9160039190565b6004111561260557565b7f4e487b71000000000000000000000000000000000000000000000000000000005f52602160045260245ffd5b61263b816125fb565b80612644575050565b61264d816125fb565b6001810361267d577ff645eedf000000000000000000000000000000000000000000000000000000005f5260045ffd5b612686816125fb565b600281036126ba57507ffce698f7000000000000000000000000000000000000000000000000000000005f5260045260245ffd5b806126c66003926125fb565b146126ce5750565b7fd78bce0c000000000000000000000000000000000000000000000000000000005f5260045260245ffd5b805482101561270e575f5260205f2001905f90565b7f4e487b71000000000000000000000000000000000000000000000000000000005f52603260045260245ffd5b79ffffffffffffffffffffffffffffffffffffffffffffffffffff811161277b5779ffffffffffffffffffffffffffffffffffffffffffffffffffff1690565b7f6dfcc650000000000000000000000000000000000000000000000000000000005f5260d060045260245260445ffd5b906127b5436120dd565b9079ffffffffffffffffffffffffffffffffffffffffffffffffffff806127db85611fc7565b92169116039079ffffffffffffffffffffffffffffffffffffffffffffffffffff82116106295761280b92612a63565b9091565b90612819436120dd565b9079ffffffffffffffffffffffffffffffffffffffffffffffffffff8061283f85611fc7565b92169116019079ffffffffffffffffffffffffffffffffffffffffffffffffffff82116106295761280b92612a63565b612878436120dd565b9079ffffffffffffffffffffffffffffffffffffffffffffffffffff8061289f600a611fc7565b921691160179ffffffffffffffffffffffffffffffffffffffffffffffffffff81116106295761280b91600a612a63565b6128d9436120dd565b9079ffffffffffffffffffffffffffffffffffffffffffffffffffff80612900600a611fc7565b921691160379ffffffffffffffffffffffffffffffffffffffffffffffffffff81116106295761280b91600a612a63565b9073ffffffffffffffffffffffffffffffffffffffff80610b689493169182156129bd575b169081156129aa575b5f52600860205273ffffffffffffffffffffffffffffffffffffffff60405f205416905f52600860205273ffffffffffffffffffffffffffffffffffffffff60405f2054169061232a565b6129b6611e5b8461273b565b505061295f565b6129c9611ec08561273b565b5050612956565b805468010000000000000000811015610b13576129f2916001820181556126f9565b612a375781516020929092015160301b7fffffffffffffffffffffffffffffffffffffffffffffffffffff0000000000001665ffffffffffff92909216919091179055565b7f4e487b71000000000000000000000000000000000000000000000000000000005f525f60045260245ffd5b80549293928015612b5957612a7a612a8591611d75565b825f5260205f200190565b8054603081901c9365ffffffffffff91821692918116808411612b3157879303612aea5750612ae692509065ffffffffffff7fffffffffffffffffffffffffffffffffffffffffffffffffffff00000000000083549260301b169116179055565b9190565b915050612ae691612b0a612afc610b59565b65ffffffffffff9093168352565b79ffffffffffffffffffffffffffffffffffffffffffffffffffff861660208301526129d0565b7f2520601d000000000000000000000000000000000000000000000000000000005f5260045ffd5b5090612b9191612b6a612afc610b59565b79ffffffffffffffffffffffffffffffffffffffffffffffffffff851660208301526129d0565b5f919056c65a7bb8d6351c1cf70c95a316cc6a92839c986682d98bc35f958f4883f9d2a7dec2bacdd2f05b59de34da9b523dff8be42e5e38e818c82fdb0bae774387a724","linkReferences":{}},"methodIdentifiers":{"CLOCK_MODE()":"4bf5d7e9","DOMAIN_SEPARATOR()":"3644e515","admin()":"f851a440","allowance(address,address)":"dd62ed3e","approve(address,uint256)":"095ea7b3","balanceOf(address)":"70a08231","burn(uint256)":"42966c68","burnFrom(address,uint256)":"79cc6790","checkpoints(address,uint32)":"f1127ed8","clock()":"91ddadf4","context()":"d0496d6a","decimals()":"313ce567","delegate(address)":"5c19a95c","delegateBySig(address,uint256,uint256,uint8,bytes32,bytes32)":"c3cda520","delegates(address)":"587cde1e","eip712Domain()":"84b0196e","getPastTotalSupply(uint256)":"8e539e8c","getPastVotes(address,uint256)":"3a46b1a8","getVotes(address)":"9ab24eb0","imageUrl()":"aba83150","isVerified()":"80007e83","metadata()":"392f37e9","name()":"06fdde03","nonces(address)":"7ecebe00","numCheckpoints(address)":"6fcfff45","permit(address,address,uint256,uint256,uint8,bytes32,bytes32)":"d505accf","symbol()":"95d89b41","totalSupply()":"18160ddd","transfer(address,uint256)":"a9059cbb","transferFrom(address,address,uint256)":"23b872dd","updateImage(string)":"eb3d68e7","updateMetadata(string)":"918b5be1","verify()":"fc735e99"},"id":210}